{"abi":[{"type":"constructor","inputs":[],"stateMutability":"nonpayable"},{"type":"function","name":"approve","inputs":[{"name":"to","type":"address","internalType":"address"},{"name":"tokenId","type":"uint256","internalType":"uint256"}],"outputs":[],"stateMutability":"nonpayable"},{"type":"function","name":"balanceOf","inputs":[{"name":"owner","type":"address","internalType":"address"}],"outputs":[{"name":"","type":"uint256","internalType":"uint256"}],"stateMutability":"view"},{"type":"function","name":"checkRoyaltyForTokens","inputs":[],"outputs":[],"stateMutability":"view"},{"type":"function","name":"getApproved","inputs":[{"name":"tokenId","type":"uint256","internalType":"uint256"}],"outputs":[{"name":"","type":"address","internalType":"address"}],"stateMutability":"view"},{"type":"function","name":"isApprovedForAll","inputs":[{"name":"owner","type":"address","internalType":"address"},{"name":"operator","type":"address","internalType":"address"}],"outputs":[{"name":"","type":"bool","internalType":"bool"}],"stateMutability":"view"},{"type":"function","name":"mint","inputs":[],"outputs":[],"stateMutability":"nonpayable"},{"type":"function","name":"name","inputs":[],"outputs":[{"name":"","type":"string","internalType":"string"}],"stateMutability":"view"},{"type":"function","name":"owner","inputs":[],"outputs":[{"name":"","type":"address","internalType":"address"}],"stateMutability":"view"},{"type":"function","name":"ownerOf","inputs":[{"name":"tokenId","type":"uint256","internalType":"uint256"}],"outputs":[{"name":"","type":"address","internalType":"address"}],"stateMutability":"view"},{"type":"function","name":"renounceOwnership","inputs":[],"outputs":[],"stateMutability":"nonpayable"},{"type":"function","name":"royaltyInfo","inputs":[{"name":"tokenId","type":"uint256","internalType":"uint256"},{"name":"salePrice","type":"uint256","internalType":"uint256"}],"outputs":[{"name":"","type":"address","internalType":"address"},{"name":"","type":"uint256","internalType":"uint256"}],"stateMutability":"view"},{"type":"function","name":"safeTransferFrom","inputs":[{"name":"from","type":"address","internalType":"address"},{"name":"to","type":"address","internalType":"address"},{"name":"tokenId","type":"uint256","internalType":"uint256"}],"outputs":[],"stateMutability":"nonpayable"},{"type":"function","name":"safeTransferFrom","inputs":[{"name":"from","type":"address","internalType":"address"},{"name":"to","type":"address","internalType":"address"},{"name":"tokenId","type":"uint256","internalType":"uint256"},{"name":"data","type":"bytes","internalType":"bytes"}],"outputs":[],"stateMutability":"nonpayable"},{"type":"function","name":"setApprovalForAll","inputs":[{"name":"operator","type":"address","internalType":"address"},{"name":"approved","type":"bool","internalType":"bool"}],"outputs":[],"stateMutability":"nonpayable"},{"type":"function","name":"supportsInterface","inputs":[{"name":"interfaceId","type":"bytes4","internalType":"bytes4"}],"outputs":[{"name":"","type":"bool","internalType":"bool"}],"stateMutability":"view"},{"type":"function","name":"symbol","inputs":[],"outputs":[{"name":"","type":"string","internalType":"string"}],"stateMutability":"view"},{"type":"function","name":"tokenURI","inputs":[{"name":"tokenId","type":"uint256","internalType":"uint256"}],"outputs":[{"name":"","type":"string","internalType":"string"}],"stateMutability":"view"},{"type":"function","name":"totalSupply","inputs":[],"outputs":[{"name":"","type":"uint256","internalType":"uint256"}],"stateMutability":"view"},{"type":"function","name":"transferFrom","inputs":[{"name":"from","type":"address","internalType":"address"},{"name":"to","type":"address","internalType":"address"},{"name":"tokenId","type":"uint256","internalType":"uint256"}],"outputs":[],"stateMutability":"nonpayable"},{"type":"function","name":"transferOwnership","inputs":[{"name":"newOwner","type":"address","internalType":"address"}],"outputs":[],"stateMutability":"nonpayable"},{"type":"event","name":"Approval","inputs":[{"name":"owner","type":"address","indexed":true,"internalType":"address"},{"name":"approved","type":"address","indexed":true,"internalType":"address"},{"name":"tokenId","type":"uint256","indexed":true,"internalType":"uint256"}],"anonymous":false},{"type":"event","name":"ApprovalForAll","inputs":[{"name":"owner","type":"address","indexed":true,"internalType":"address"},{"name":"operator","type":"address","indexed":true,"internalType":"address"},{"name":"approved","type":"bool","indexed":false,"internalType":"bool"}],"anonymous":false},{"type":"event","name":"OwnershipTransferred","inputs":[{"name":"previousOwner","type":"address","indexed":true,"internalType":"address"},{"name":"newOwner","type":"address","indexed":true,"internalType":"address"}],"anonymous":false},{"type":"event","name":"Transfer","inputs":[{"name":"from","type":"address","indexed":true,"internalType":"address"},{"name":"to","type":"address","indexed":true,"internalType":"address"},{"name":"tokenId","type":"uint256","indexed":true,"internalType":"uint256"}],"anonymous":false},{"type":"error","name":"ERC2981InvalidDefaultRoyalty","inputs":[{"name":"numerator","type":"uint256","internalType":"uint256"},{"name":"denominator","type":"uint256","internalType":"uint256"}]},{"type":"error","name":"ERC2981InvalidDefaultRoyaltyReceiver","inputs":[{"name":"receiver","type":"address","internalType":"address"}]},{"type":"error","name":"ERC2981InvalidTokenRoyalty","inputs":[{"name":"tokenId","type":"uint256","internalType":"uint256"},{"name":"numerator","type":"uint256","internalType":"uint256"},{"name":"denominator","type":"uint256","internalType":"uint256"}]},{"type":"error","name":"ERC2981InvalidTokenRoyaltyReceiver","inputs":[{"name":"tokenId","type":"uint256","internalType":"uint256"},{"name":"receiver","type":"address","internalType":"address"}]},{"type":"error","name":"ERC721IncorrectOwner","inputs":[{"name":"sender","type":"address","internalType":"address"},{"name":"tokenId","type":"uint256","internalType":"uint256"},{"name":"owner","type":"address","internalType":"address"}]},{"type":"error","name":"ERC721InsufficientApproval","inputs":[{"name":"operator","type":"address","internalType":"address"},{"name":"tokenId","type":"uint256","internalType":"uint256"}]},{"type":"error","name":"ERC721InvalidApprover","inputs":[{"name":"approver","type":"address","internalType":"address"}]},{"type":"error","name":"ERC721InvalidOperator","inputs":[{"name":"operator","type":"address","internalType":"address"}]},{"type":"error","name":"ERC721InvalidOwner","inputs":[{"name":"owner","type":"address","internalType":"address"}]},{"type":"error","name":"ERC721InvalidReceiver","inputs":[{"name":"receiver","type":"address","internalType":"address"}]},{"type":"error","name":"ERC721InvalidSender","inputs":[{"name":"sender","type":"address","internalType":"address"}]},{"type":"error","name":"ERC721NonexistentToken","inputs":[{"name":"tokenId","type":"uint256","internalType":"uint256"}]},{"type":"error","name":"OwnableInvalidOwner","inputs":[{"name":"owner","type":"address","internalType":"address"}]},{"type":"error","name":"OwnableUnauthorizedAccount","inputs":[{"name":"account","type":"address","internalType":"address"}]}],"bytecode":{"object":"0x608060405260006009553480156200001657600080fd5b50336040518060400160405280601281526020017f4e4654207769746820526f79616c7469657300000000000000000000000000008152506040518060400160405280600381526020017f4e46540000000000000000000000000000000000000000000000000000000000815250816000908162000095919062000644565b508060019081620000a7919062000644565b505050600073ffffffffffffffffffffffffffffffffffffffff168173ffffffffffffffffffffffffffffffffffffffff16036200011f5760006040517f1e4fbdf700000000000000000000000000000000000000000000000000000000815260040162000116919062000770565b60405180910390fd5b62000130816200014a60201b60201c565b50620001443360fa6200021060201b60201c565b6200081c565b6000600860009054906101000a900473ffffffffffffffffffffffffffffffffffffffff16905081600860006101000a81548173ffffffffffffffffffffffffffffffffffffffff021916908373ffffffffffffffffffffffffffffffffffffffff1602179055508173ffffffffffffffffffffffffffffffffffffffff168173ffffffffffffffffffffffffffffffffffffffff167f8be0079c531659141344cd1fd0a4f28419497f9722a3daafe3b4186f6b6457e060405160405180910390a35050565b600062000222620003c060201b60201c565b6bffffffffffffffffffffffff16905080826bffffffffffffffffffffffff1611156200028a5781816040517f6f483d0900000000000000000000000000000000000000000000000000000000815260040162000281929190620007ef565b60405180910390fd5b600073ffffffffffffffffffffffffffffffffffffffff168373ffffffffffffffffffffffffffffffffffffffff1603620002ff5760006040517fb6d9900a000000000000000000000000000000000000000000000000000000008152600401620002f6919062000770565b60405180910390fd5b60405180604001604052808473ffffffffffffffffffffffffffffffffffffffff168152602001836bffffffffffffffffffffffff16815250600660008201518160000160006101000a81548173ffffffffffffffffffffffffffffffffffffffff021916908373ffffffffffffffffffffffffffffffffffffffff16021790555060208201518160000160146101000a8154816bffffffffffffffffffffffff02191690836bffffffffffffffffffffffff160217905550905050505050565b6000612710905090565b600081519050919050565b7f4e487b7100000000000000000000000000000000000000000000000000000000600052604160045260246000fd5b7f4e487b7100000000000000000000000000000000000000000000000000000000600052602260045260246000fd5b600060028204905060018216806200044c57607f821691505b60208210810362000462576200046162000404565b5b50919050565b60008190508160005260206000209050919050565b60006020601f8301049050919050565b600082821b905092915050565b600060088302620004cc7fffffffffffffffffffffffffffffffffffffffffffffffffffffffffffffffff826200048d565b620004d886836200048d565b95508019841693508086168417925050509392505050565b6000819050919050565b6000819050919050565b6000620005256200051f6200051984620004f0565b620004fa565b620004f0565b9050919050565b6000819050919050565b620005418362000504565b6200055962000550826200052c565b8484546200049a565b825550505050565b600090565b6200057062000561565b6200057d81848462000536565b505050565b5b81811015620005a5576200059960008262000566565b60018101905062000583565b5050565b601f821115620005f457620005be8162000468565b620005c9846200047d565b81016020851015620005d9578190505b620005f1620005e8856200047d565b83018262000582565b50505b505050565b600082821c905092915050565b60006200061960001984600802620005f9565b1980831691505092915050565b600062000634838362000606565b9150826002028217905092915050565b6200064f82620003ca565b67ffffffffffffffff8111156200066b576200066a620003d5565b5b62000677825462000433565b62000684828285620005a9565b600060209050601f831160018114620006bc5760008415620006a7578287015190505b620006b3858262000626565b86555062000723565b601f198416620006cc8662000468565b60005b82811015620006f657848901518255600182019150602085019450602081019050620006cf565b8683101562000716578489015162000712601f89168262000606565b8355505b6001600288020188555050505b505050505050565b600073ffffffffffffffffffffffffffffffffffffffff82169050919050565b600062000758826200072b565b9050919050565b6200076a816200074b565b82525050565b60006020820190506200078760008301846200075f565b92915050565b60006bffffffffffffffffffffffff82169050919050565b6000620007c6620007c0620007ba846200078d565b620004fa565b620004f0565b9050919050565b620007d881620007a5565b82525050565b620007e981620004f0565b82525050565b6000604082019050620008066000830185620007cd565b620008156020830184620007de565b9392505050565b612462806200082c6000396000f3fe608060405234801561001057600080fd5b506004361061012c5760003560e01c80636352211e116100ad578063a22cb46511610071578063a22cb4651461030c578063b88d4fde14610328578063c87b56dd14610344578063e985e9c514610374578063f2fde38b146103a45761012c565b80636352211e1461026657806370a0823114610296578063715018a6146102c65780638da5cb5b146102d057806395d89b41146102ee5761012c565b806318160ddd116100f457806318160ddd146101d557806323b872dd146101f35780632a55205a1461020f57806342842e0e146102405780634b12fcff1461025c5761012c565b806301ffc9a71461013157806306fdde0314610161578063081812fc1461017f578063095ea7b3146101af5780631249c58b146101cb575b600080fd5b61014b60048036038101906101469190611b82565b6103c0565b6040516101589190611bca565b60405180910390f35b61016961043a565b6040516101769190611c75565b60405180910390f35b61019960048036038101906101949190611ccd565b6104cc565b6040516101a69190611d3b565b60405180910390f35b6101c960048036038101906101c49190611d82565b6104e8565b005b6101d36104fe565b005b6101dd61053b565b6040516101ea9190611dd1565b60405180910390f35b61020d60048036038101906102089190611dec565b610541565b005b61022960048036038101906102249190611e3f565b610643565b604051610237929190611e7f565b60405180910390f35b61025a60048036038101906102559190611dec565b610773565b005b610264610793565b005b610280600480360381019061027b9190611ccd565b6107ce565b60405161028d9190611d3b565b60405180910390f35b6102b060048036038101906102ab9190611ea8565b6107e0565b6040516102bd9190611dd1565b60405180910390f35b6102ce61089a565b005b6102d86108ae565b6040516102e59190611d3b565b60405180910390f35b6102f66108d8565b6040516103039190611c75565b60405180910390f35b61032660048036038101906103219190611f01565b61096a565b005b610342600480360381019061033d9190612076565b610980565b005b61035e60048036038101906103599190611ccd565b6109a5565b60405161036b9190611c75565b60405180910390f35b61038e600480360381019061038991906120f9565b610a0e565b60405161039b9190611bca565b60405180910390f35b6103be60048036038101906103b99190611ea8565b610aa2565b005b60007f2a55205a000000000000000000000000000000000000000000000000000000007bffffffffffffffffffffffffffffffffffffffffffffffffffffffff1916827bffffffffffffffffffffffffffffffffffffffffffffffffffffffff19161480610433575061043282610b28565b5b9050919050565b60606000805461044990612168565b80601f016020809104026020016040519081016040528092919081815260200182805461047590612168565b80156104c25780601f10610497576101008083540402835291602001916104c2565b820191906000526020600020905b8154815290600101906020018083116104a557829003601f168201915b5050505050905090565b60006104d782610ba2565b506104e182610c2a565b9050919050565b6104fa82826104f5610c67565b610c6f565b5050565b610506610c81565b60146009541061051557600080fd5b61052133600954610d08565b60096000815480929190610534906121c8565b9190505550565b60095481565b600073ffffffffffffffffffffffffffffffffffffffff168273ffffffffffffffffffffffffffffffffffffffff16036105b35760006040517f64a0ae920000000000000000000000000000000000000000000000000000000081526004016105aa9190611d3b565b60405180910390fd5b60006105c783836105c2610c67565b610e01565b90508373ffffffffffffffffffffffffffffffffffffffff168173ffffffffffffffffffffffffffffffffffffffff161461063d578382826040517f64283d7b00000000000000000000000000000000000000000000000000000000815260040161063493929190612210565b60405180910390fd5b50505050565b600080600060076000868152602001908152602001600020905060008160000160009054906101000a900473ffffffffffffffffffffffffffffffffffffffff16905060008260000160149054906101000a90046bffffffffffffffffffffffff169050600073ffffffffffffffffffffffffffffffffffffffff168273ffffffffffffffffffffffffffffffffffffffff160361072457600660000160009054906101000a900473ffffffffffffffffffffffffffffffffffffffff169150600660000160149054906101000a90046bffffffffffffffffffffffff1690505b600061072e61101b565b6bffffffffffffffffffffffff16826bffffffffffffffffffffffff16886107569190612247565b61076091906122b8565b9050828195509550505050509250929050565b61078e83838360405180602001604052806000815250610980565b505050565b61079b610c81565b60005b6009548110156107cb576000806107b88362989680610643565b915091505050808060010191505061079e565b50565b60006107d982610ba2565b9050919050565b60008073ffffffffffffffffffffffffffffffffffffffff168273ffffffffffffffffffffffffffffffffffffffff16036108535760006040517f89c62b6400000000000000000000000000000000000000000000000000000000815260040161084a9190611d3b565b60405180910390fd5b600360008373ffffffffffffffffffffffffffffffffffffffff1673ffffffffffffffffffffffffffffffffffffffff168152602001908152602001600020549050919050565b6108a2610c81565b6108ac6000611025565b565b6000600860009054906101000a900473ffffffffffffffffffffffffffffffffffffffff16905090565b6060600180546108e790612168565b80601f016020809104026020016040519081016040528092919081815260200182805461091390612168565b80156109605780601f1061093557610100808354040283529160200191610960565b820191906000526020600020905b81548152906001019060200180831161094357829003601f168201915b5050505050905090565b61097c610975610c67565b83836110eb565b5050565b61098b848484610541565b61099f610996610c67565b8585858561125a565b50505050565b60606109b082610ba2565b5060006109bb61140b565b905060008151116109db5760405180602001604052806000815250610a06565b806109e584611422565b6040516020016109f6929190612325565b6040516020818303038152906040525b915050919050565b6000600560008473ffffffffffffffffffffffffffffffffffffffff1673ffffffffffffffffffffffffffffffffffffffff16815260200190815260200160002060008373ffffffffffffffffffffffffffffffffffffffff1673ffffffffffffffffffffffffffffffffffffffff16815260200190815260200160002060009054906101000a900460ff16905092915050565b610aaa610c81565b600073ffffffffffffffffffffffffffffffffffffffff168173ffffffffffffffffffffffffffffffffffffffff1603610b1c5760006040517f1e4fbdf7000000000000000000000000000000000000000000000000000000008152600401610b139190611d3b565b60405180910390fd5b610b2581611025565b50565b60007f2a55205a000000000000000000000000000000000000000000000000000000007bffffffffffffffffffffffffffffffffffffffffffffffffffffffff1916827bffffffffffffffffffffffffffffffffffffffffffffffffffffffff19161480610b9b5750610b9a826114f0565b5b9050919050565b600080610bae836115d2565b9050600073ffffffffffffffffffffffffffffffffffffffff168173ffffffffffffffffffffffffffffffffffffffff1603610c2157826040517f7e273289000000000000000000000000000000000000000000000000000000008152600401610c189190611dd1565b60405180910390fd5b80915050919050565b60006004600083815260200190815260200160002060009054906101000a900473ffffffffffffffffffffffffffffffffffffffff169050919050565b600033905090565b610c7c838383600161160f565b505050565b610c89610c67565b73ffffffffffffffffffffffffffffffffffffffff16610ca76108ae565b73ffffffffffffffffffffffffffffffffffffffff1614610d0657610cca610c67565b6040517f118cdaa7000000000000000000000000000000000000000000000000000000008152600401610cfd9190611d3b565b60405180910390fd5b565b600073ffffffffffffffffffffffffffffffffffffffff168273ffffffffffffffffffffffffffffffffffffffff1603610d7a5760006040517f64a0ae92000000000000000000000000000000000000000000000000000000008152600401610d719190611d3b565b60405180910390fd5b6000610d8883836000610e01565b9050600073ffffffffffffffffffffffffffffffffffffffff168173ffffffffffffffffffffffffffffffffffffffff1614610dfc5760006040517f73c6ac6e000000000000000000000000000000000000000000000000000000008152600401610df39190611d3b565b60405180910390fd5b505050565b600080610e0d846115d2565b9050600073ffffffffffffffffffffffffffffffffffffffff168373ffffffffffffffffffffffffffffffffffffffff1614610e4f57610e4e8184866117d4565b5b600073ffffffffffffffffffffffffffffffffffffffff168173ffffffffffffffffffffffffffffffffffffffff1614610ee057610e9160008560008061160f565b6001600360008373ffffffffffffffffffffffffffffffffffffffff1673ffffffffffffffffffffffffffffffffffffffff168152602001908152602001600020600082825403925050819055505b600073ffffffffffffffffffffffffffffffffffffffff168573ffffffffffffffffffffffffffffffffffffffff1614610f63576001600360008773ffffffffffffffffffffffffffffffffffffffff1673ffffffffffffffffffffffffffffffffffffffff168152602001908152602001600020600082825401925050819055505b846002600086815260200190815260200160002060006101000a81548173ffffffffffffffffffffffffffffffffffffffff021916908373ffffffffffffffffffffffffffffffffffffffff160217905550838573ffffffffffffffffffffffffffffffffffffffff168273ffffffffffffffffffffffffffffffffffffffff167fddf252ad1be2c89b69c2b068fc378daa952ba7f163c4a11628f55a4df523b3ef60405160405180910390a4809150509392505050565b6000612710905090565b6000600860009054906101000a900473ffffffffffffffffffffffffffffffffffffffff16905081600860006101000a81548173ffffffffffffffffffffffffffffffffffffffff021916908373ffffffffffffffffffffffffffffffffffffffff1602179055508173ffffffffffffffffffffffffffffffffffffffff168173ffffffffffffffffffffffffffffffffffffffff167f8be0079c531659141344cd1fd0a4f28419497f9722a3daafe3b4186f6b6457e060405160405180910390a35050565b600073ffffffffffffffffffffffffffffffffffffffff168273ffffffffffffffffffffffffffffffffffffffff160361115c57816040517f5b08ba180000000000000000000000000000000000000000000000000000000081526004016111539190611d3b565b60405180910390fd5b80600560008573ffffffffffffffffffffffffffffffffffffffff1673ffffffffffffffffffffffffffffffffffffffff16815260200190815260200160002060008473ffffffffffffffffffffffffffffffffffffffff1673ffffffffffffffffffffffffffffffffffffffff16815260200190815260200160002060006101000a81548160ff0219169083151502179055508173ffffffffffffffffffffffffffffffffffffffff168373ffffffffffffffffffffffffffffffffffffffff167f17307eab39ab6107e8899845ad3d59bd9653f200f220920489ca2b5937696c318360405161124d9190611bca565b60405180910390a3505050565b60008373ffffffffffffffffffffffffffffffffffffffff163b1115611404578273ffffffffffffffffffffffffffffffffffffffff1663150b7a02868685856040518563ffffffff1660e01b81526004016112b9949392919061239e565b6020604051808303816000875af19250505080156112f557506040513d601f19601f820116820180604052508101906112f291906123ff565b60015b611379573d8060008114611325576040519150601f19603f3d011682016040523d82523d6000602084013e61132a565b606091505b50600081510361137157836040517f64a0ae920000000000000000000000000000000000000000000000000000000081526004016113689190611d3b565b60405180910390fd5b805181602001fd5b63150b7a0260e01b7bffffffffffffffffffffffffffffffffffffffffffffffffffffffff1916817bffffffffffffffffffffffffffffffffffffffffffffffffffffffff19161461140257836040517f64a0ae920000000000000000000000000000000000000000000000000000000081526004016113f99190611d3b565b60405180910390fd5b505b5050505050565b606060405180602001604052806000815250905090565b60606000600161143184611898565b01905060008167ffffffffffffffff8111156114505761144f611f4b565b5b6040519080825280601f01601f1916602001820160405280156114825781602001600182028036833780820191505090505b509050600082602001820190505b6001156114e5578080600190039150507f3031323334353637383961626364656600000000000000000000000000000000600a86061a8153600a85816114d9576114d8612289565b5b04945060008503611490575b819350505050919050565b60007f80ac58cd000000000000000000000000000000000000000000000000000000007bffffffffffffffffffffffffffffffffffffffffffffffffffffffff1916827bffffffffffffffffffffffffffffffffffffffffffffffffffffffff191614806115bb57507f5b5e139f000000000000000000000000000000000000000000000000000000007bffffffffffffffffffffffffffffffffffffffffffffffffffffffff1916827bffffffffffffffffffffffffffffffffffffffffffffffffffffffff1916145b806115cb57506115ca826119eb565b5b9050919050565b60006002600083815260200190815260200160002060009054906101000a900473ffffffffffffffffffffffffffffffffffffffff169050919050565b80806116485750600073ffffffffffffffffffffffffffffffffffffffff168273ffffffffffffffffffffffffffffffffffffffff1614155b1561177c57600061165884610ba2565b9050600073ffffffffffffffffffffffffffffffffffffffff168373ffffffffffffffffffffffffffffffffffffffff16141580156116c357508273ffffffffffffffffffffffffffffffffffffffff168173ffffffffffffffffffffffffffffffffffffffff1614155b80156116d657506116d48184610a0e565b155b1561171857826040517fa9fbf51f00000000000000000000000000000000000000000000000000000000815260040161170f9190611d3b565b60405180910390fd5b811561177a57838573ffffffffffffffffffffffffffffffffffffffff168273ffffffffffffffffffffffffffffffffffffffff167f8c5be1e5ebec7d5bd14f71427d1e84f3dd0314c0f7b2291e5b200ac8c7c3b92560405160405180910390a45b505b836004600085815260200190815260200160002060006101000a81548173ffffffffffffffffffffffffffffffffffffffff021916908373ffffffffffffffffffffffffffffffffffffffff16021790555050505050565b6117df838383611a55565b61189357600073ffffffffffffffffffffffffffffffffffffffff168373ffffffffffffffffffffffffffffffffffffffff160361185457806040517f7e27328900000000000000000000000000000000000000000000000000000000815260040161184b9190611dd1565b60405180910390fd5b81816040517f177e802f00000000000000000000000000000000000000000000000000000000815260040161188a929190611e7f565b60405180910390fd5b505050565b600080600090507a184f03e93ff9f4daa797ed6e38ed64bf6a1f01000000000000000083106118f6577a184f03e93ff9f4daa797ed6e38ed64bf6a1f01000000000000000083816118ec576118eb612289565b5b0492506040810190505b6d04ee2d6d415b85acef81000000008310611933576d04ee2d6d415b85acef8100000000838161192957611928612289565b5b0492506020810190505b662386f26fc10000831061196257662386f26fc10000838161195857611957612289565b5b0492506010810190505b6305f5e100831061198b576305f5e100838161198157611980612289565b5b0492506008810190505b61271083106119b05761271083816119a6576119a5612289565b5b0492506004810190505b606483106119d357606483816119c9576119c8612289565b5b0492506002810190505b600a83106119e2576001810190505b80915050919050565b60007f01ffc9a7000000000000000000000000000000000000000000000000000000007bffffffffffffffffffffffffffffffffffffffffffffffffffffffff1916827bffffffffffffffffffffffffffffffffffffffffffffffffffffffff1916149050919050565b60008073ffffffffffffffffffffffffffffffffffffffff168373ffffffffffffffffffffffffffffffffffffffff1614158015611b0d57508273ffffffffffffffffffffffffffffffffffffffff168473ffffffffffffffffffffffffffffffffffffffff161480611ace5750611acd8484610a0e565b5b80611b0c57508273ffffffffffffffffffffffffffffffffffffffff16611af483610c2a565b73ffffffffffffffffffffffffffffffffffffffff16145b5b90509392505050565b6000604051905090565b600080fd5b600080fd5b60007fffffffff0000000000000000000000000000000000000000000000000000000082169050919050565b611b5f81611b2a565b8114611b6a57600080fd5b50565b600081359050611b7c81611b56565b92915050565b600060208284031215611b9857611b97611b20565b5b6000611ba684828501611b6d565b91505092915050565b60008115159050919050565b611bc481611baf565b82525050565b6000602082019050611bdf6000830184611bbb565b92915050565b600081519050919050565b600082825260208201905092915050565b60005b83811015611c1f578082015181840152602081019050611c04565b60008484015250505050565b6000601f19601f8301169050919050565b6000611c4782611be5565b611c518185611bf0565b9350611c61818560208601611c01565b611c6a81611c2b565b840191505092915050565b60006020820190508181036000830152611c8f8184611c3c565b905092915050565b6000819050919050565b611caa81611c97565b8114611cb557600080fd5b50565b600081359050611cc781611ca1565b92915050565b600060208284031215611ce357611ce2611b20565b5b6000611cf184828501611cb8565b91505092915050565b600073ffffffffffffffffffffffffffffffffffffffff82169050919050565b6000611d2582611cfa565b9050919050565b611d3581611d1a565b82525050565b6000602082019050611d506000830184611d2c565b92915050565b611d5f81611d1a565b8114611d6a57600080fd5b50565b600081359050611d7c81611d56565b92915050565b60008060408385031215611d9957611d98611b20565b5b6000611da785828601611d6d565b9250506020611db885828601611cb8565b9150509250929050565b611dcb81611c97565b82525050565b6000602082019050611de66000830184611dc2565b92915050565b600080600060608486031215611e0557611e04611b20565b5b6000611e1386828701611d6d565b9350506020611e2486828701611d6d565b9250506040611e3586828701611cb8565b9150509250925092565b60008060408385031215611e5657611e55611b20565b5b6000611e6485828601611cb8565b9250506020611e7585828601611cb8565b9150509250929050565b6000604082019050611e946000830185611d2c565b611ea16020830184611dc2565b9392505050565b600060208284031215611ebe57611ebd611b20565b5b6000611ecc84828501611d6d565b91505092915050565b611ede81611baf565b8114611ee957600080fd5b50565b600081359050611efb81611ed5565b92915050565b60008060408385031215611f1857611f17611b20565b5b6000611f2685828601611d6d565b9250506020611f3785828601611eec565b9150509250929050565b600080fd5b600080fd5b7f4e487b7100000000000000000000000000000000000000000000000000000000600052604160045260246000fd5b611f8382611c2b565b810181811067ffffffffffffffff82111715611fa257611fa1611f4b565b5b80604052505050565b6000611fb5611b16565b9050611fc18282611f7a565b919050565b600067ffffffffffffffff821115611fe157611fe0611f4b565b5b611fea82611c2b565b9050602081019050919050565b82818337600083830152505050565b600061201961201484611fc6565b611fab565b90508281526020810184848401111561203557612034611f46565b5b612040848285611ff7565b509392505050565b600082601f83011261205d5761205c611f41565b5b813561206d848260208601612006565b91505092915050565b600080600080608085870312156120905761208f611b20565b5b600061209e87828801611d6d565b94505060206120af87828801611d6d565b93505060406120c087828801611cb8565b925050606085013567ffffffffffffffff8111156120e1576120e0611b25565b5b6120ed87828801612048565b91505092959194509250565b600080604083850312156121105761210f611b20565b5b600061211e85828601611d6d565b925050602061212f85828601611d6d565b9150509250929050565b7f4e487b7100000000000000000000000000000000000000000000000000000000600052602260045260246000fd5b6000600282049050600182168061218057607f821691505b60208210810361219357612192612139565b5b50919050565b7f4e487b7100000000000000000000000000000000000000000000000000000000600052601160045260246000fd5b60006121d382611c97565b91507fffffffffffffffffffffffffffffffffffffffffffffffffffffffffffffffff820361220557612204612199565b5b600182019050919050565b60006060820190506122256000830186611d2c565b6122326020830185611dc2565b61223f6040830184611d2c565b949350505050565b600061225282611c97565b915061225d83611c97565b925082820261226b81611c97565b9150828204841483151761228257612281612199565b5b5092915050565b7f4e487b7100000000000000000000000000000000000000000000000000000000600052601260045260246000fd5b60006122c382611c97565b91506122ce83611c97565b9250826122de576122dd612289565b5b828204905092915050565b600081905092915050565b60006122ff82611be5565b61230981856122e9565b9350612319818560208601611c01565b80840191505092915050565b600061233182856122f4565b915061233d82846122f4565b91508190509392505050565b600081519050919050565b600082825260208201905092915050565b600061237082612349565b61237a8185612354565b935061238a818560208601611c01565b61239381611c2b565b840191505092915050565b60006080820190506123b36000830187611d2c565b6123c06020830186611d2c565b6123cd6040830185611dc2565b81810360608301526123df8184612365565b905095945050505050565b6000815190506123f981611b56565b92915050565b60006020828403121561241557612414611b20565b5b6000612423848285016123ea565b9150509291505056fea2646970667358221220e98a9a31c4c4a141c35b445a9619f144bb8a5a43b05fe0f6ea9115e9eb26b3f264736f6c63430008170033","linkReferences":{}},"methodIdentifiers":{"approve(address,uint256)":"095ea7b3","balanceOf(address)":"70a08231","checkRoyaltyForTokens()":"4b12fcff","getApproved(uint256)":"081812fc","isApprovedForAll(address,address)":"e985e9c5","mint()":"1249c58b","name()":"06fdde03","owner()":"8da5cb5b","ownerOf(uint256)":"6352211e","renounceOwnership()":"715018a6","royaltyInfo(uint256,uint256)":"2a55205a","safeTransferFrom(address,address,uint256)":"42842e0e","safeTransferFrom(address,address,uint256,bytes)":"b88d4fde","setApprovalForAll(address,bool)":"a22cb465","supportsInterface(bytes4)":"01ffc9a7","symbol()":"95d89b41","tokenURI(uint256)":"c87b56dd","totalSupply()":"18160ddd","transferFrom(address,address,uint256)":"23b872dd","transferOwnership(address)":"f2fde38b"},"id":9}