{"abi":[{"type":"function","name":"calculatePurchaseReturn","inputs":[{"name":"_supply","type":"uint256","internalType":"uint256"},{"name":"_connectorBalance","type":"uint256","internalType":"uint256"},{"name":"_connectorWeight","type":"uint32","internalType":"uint32"},{"name":"_depositAmount","type":"uint256","internalType":"uint256"}],"outputs":[{"name":"","type":"uint256","internalType":"uint256"}],"stateMutability":"view"},{"type":"function","name":"calculateSaleReturn","inputs":[{"name":"_supply","type":"uint256","internalType":"uint256"},{"name":"_connectorBalance","type":"uint256","internalType":"uint256"},{"name":"_connectorWeight","type":"uint32","internalType":"uint32"},{"name":"_sellAmount","type":"uint256","internalType":"uint256"}],"outputs":[{"name":"","type":"uint256","internalType":"uint256"}],"stateMutability":"view"},{"type":"function","name":"version","inputs":[],"outputs":[{"name":"","type":"string","internalType":"string"}],"stateMutability":"view"}],"bytecode":{"object":"0x60806040526040518060400160405280600381526020017f302e330000000000000000000000000000000000000000000000000000000000815250600090816200004a919062001469565b503480156200005857600080fd5b50701c35fedd14ffffffffffffffffffffffff600160206080811062000083576200008262001550565b5b0181905550701b0ce43b323fffffffffffffffffffffff6001602160808110620000b257620000b162001550565b5b01819055507019f0028ec1ffffffffffffffffffffffff6001602260808110620000e157620000e062001550565b5b01819055507018ded91f0e7fffffffffffffffffffffff600160236080811062000110576200010f62001550565b5b01819055507017d8ec7f0417ffffffffffffffffffffff60016024608081106200013f576200013e62001550565b5b01819055507016ddc6556cdbffffffffffffffffffffff60016025608081106200016e576200016d62001550565b5b01819055507015ecf52776a1ffffffffffffffffffffff60016026608081106200019d576200019c62001550565b5b01819055507015060c256cb2ffffffffffffffffffffff6001602760808110620001cc57620001cb62001550565b5b0181905550701428a2f98d72ffffffffffffffffffffff6001602860808110620001fb57620001fa62001550565b5b01819055507013545598e5c23fffffffffffffffffffff60016029608081106200022a576200022962001550565b5b0181905550701288c4161ce1dfffffffffffffffffffff6001602a6080811062000259576200025862001550565b5b01819055507011c592761c666fffffffffffffffffffff6001602b6080811062000288576200028762001550565b5b018190555070110a688680a757ffffffffffffffffffff6001602c60808110620002b757620002b662001550565b5b0181905550701056f1b5bedf77ffffffffffffffffffff6001602d60808110620002e657620002e562001550565b5b0181905550700faadceceeff8bffffffffffffffffffff6001602e6080811062000315576200031462001550565b5b0181905550700f05dc6b27edadffffffffffffffffffff6001602f6080811062000344576200034362001550565b5b0181905550700e67a5a25da4107fffffffffffffffffff600160306080811062000373576200037262001550565b5b0181905550700dcff115b14eedffffffffffffffffffff6001603160808110620003a257620003a162001550565b5b0181905550700d3e7a392431239fffffffffffffffffff6001603260808110620003d157620003d062001550565b5b0181905550700cb2ff529eb71e4fffffffffffffffffff60016033608081106200040057620003ff62001550565b5b0181905550700c2d415c3db974afffffffffffffffffff60016034608081106200042f576200042e62001550565b5b0181905550700bad03e7d883f69bffffffffffffffffff60016035608081106200045e576200045d62001550565b5b0181905550700b320d03b2c343d5ffffffffffffffffff60016036608081106200048d576200048c62001550565b5b0181905550700abc25204e02828dffffffffffffffffff6001603760808110620004bc57620004bb62001550565b5b0181905550700a4b16f74ee4bb207fffffffffffffffff6001603860808110620004eb57620004ea62001550565b5b01819055507009deaf736ac1f569ffffffffffffffffff60016039608081106200051a576200051962001550565b5b0181905550700976bd9952c7aa957fffffffffffffffff6001603a6080811062000549576200054862001550565b5b01819055507009131271922eaa606fffffffffffffffff6001603b6080811062000578576200057762001550565b5b01819055507008b380f3558668c46fffffffffffffffff6001603c60808110620005a757620005a662001550565b5b0181905550700857ddf0117efa215bffffffffffffffff6001603d60808110620005d657620005d562001550565b5b01819055507007ffffffffffffffffffffffffffffffff6001603e6080811062000605576200060462001550565b5b01819055507007abbf6f6abb9d087fffffffffffffffff6001603f6080811062000634576200063362001550565b5b018190555070075af62cbac95f7dfa7fffffffffffffff600160406080811062000663576200066262001550565b5b018190555070070d7fb7452e187ac13fffffffffffffff600160416080811062000692576200069162001550565b5b01819055507006c3390ecc8af379295fffffffffffffff6001604260808110620006c157620006c062001550565b5b018190555070067c00a3b07ffc01fd6fffffffffffffff6001604360808110620006f057620006ef62001550565b5b0181905550700637b647c39cbb9d3d27ffffffffffffff60016044608081106200071f576200071e62001550565b5b01819055507005f63b1fc104dbd39587ffffffffffffff60016045608081106200074e576200074d62001550565b5b01819055507005b771955b36e12f7235ffffffffffffff60016046608081106200077d576200077c62001550565b5b018190555070057b3d49dda84556d6f6ffffffffffffff6001604760808110620007ac57620007ab62001550565b5b018190555070054183095b2c8ececf30ffffffffffffff6001604860808110620007db57620007da62001550565b5b018190555070050a28be635ca2b888f77fffffffffffff60016049608081106200080a576200080962001550565b5b01819055507004d5156639708c9db33c3fffffffffffff6001604a6080811062000839576200083862001550565b5b01819055507004a23105873875bd52dfdfffffffffffff6001604b6080811062000868576200086762001550565b5b0181905550700471649d87199aa990756fffffffffffff6001604c6080811062000897576200089662001550565b5b01819055507004429a21a029d4c1457cfbffffffffffff6001604d60808110620008c657620008c562001550565b5b0181905550700415bc6d6fb7dd71af2cb3ffffffffffff6001604e60808110620008f557620008f462001550565b5b01819055507003eab73b3bbfe282243ce1ffffffffffff6001604f6080811062000924576200092362001550565b5b01819055507003c1771ac9fb6b4c18e229ffffffffffff600160506080811062000953576200095262001550565b5b0181905550700399e96897690418f785257fffffffffff600160516080811062000982576200098162001550565b5b0181905550700373fc456c53bb779bf0ea9fffffffffff6001605260808110620009b157620009b062001550565b5b018190555070034f9e8e490c48e67e6ab8bfffffffffff6001605360808110620009e057620009df62001550565b5b018190555070032cbfd4a7adc790560b3337ffffffffff600160546080811062000a0f5762000a0e62001550565b5b018190555070030b50570f6e5d2acca94613ffffffffff600160556080811062000a3e5762000a3d62001550565b5b01819055507002eb40f9f620fda6b56c2861ffffffffff600160566080811062000a6d5762000a6c62001550565b5b01819055507002cc8340ecb0d0f520a6af58ffffffffff600160576080811062000a9c5762000a9b62001550565b5b01819055507002af09481380a0a35cf1ba02ffffffffff600160586080811062000acb5762000aca62001550565b5b0181905550700292c5bdd3b92ec810287b1b3fffffffff600160596080811062000afa5762000af962001550565b5b0181905550700277abdcdab07d5a77ac6d6b9fffffffff6001605a6080811062000b295762000b2862001550565b5b018190555070025daf6654b1eaa55fd64df5efffffffff6001605b6080811062000b585762000b5762001550565b5b0181905550700244c49c648baa98192dce88b7ffffffff6001605c6080811062000b875762000b8662001550565b5b018190555070022ce03cd5619a311b2471268bffffffff6001605d6080811062000bb65762000bb562001550565b5b0181905550700215f77c045fbe885654a44a0fffffffff6001605e6080811062000be55762000be462001550565b5b01819055507001ffffffffffffffffffffffffffffffff6001605f6080811062000c145762000c1362001550565b5b01819055507001eaefdbdaaee7421fc4d3ede5ffffffff600160606080811062000c435762000c4262001550565b5b01819055507001d6bd8b2eb257df7e8ca57b09bfffffff600160616080811062000c725762000c7162001550565b5b01819055507001c35fedd14b861eb0443f7f133fffffff600160626080811062000ca15762000ca062001550565b5b01819055507001b0ce43b322bcde4a56e8ada5afffffff600160636080811062000cd05762000ccf62001550565b5b018190555070019f0028ec1fff007f5a195a39dfffffff600160646080811062000cff5762000cfe62001550565b5b018190555070018ded91f0e72ee74f49b15ba527ffffff600160656080811062000d2e5762000d2d62001550565b5b018190555070017d8ec7f04136f4e5615fd41a63ffffff600160666080811062000d5d5762000d5c62001550565b5b018190555070016ddc6556cdb84bdc8d12d22e6fffffff600160676080811062000d8c5762000d8b62001550565b5b018190555070015ecf52776a1155b5bd8395814f7fffff600160686080811062000dbb5762000dba62001550565b5b018190555070015060c256cb23b3b3cc3754cf40ffffff600160696080811062000dea5762000de962001550565b5b01819055507001428a2f98d728ae223ddab715be3fffff6001606a6080811062000e195762000e1862001550565b5b018190555070013545598e5c23276ccf0ede68034fffff6001606b6080811062000e485762000e4762001550565b5b01819055507001288c4161ce1d6f54b7f61081194fffff6001606c6080811062000e775762000e7662001550565b5b018190555070011c592761c666aa641d5a01a40f17ffff6001606d6080811062000ea65762000ea562001550565b5b0181905550700110a688680a7530515f3e6e6cfdcdffff6001606e6080811062000ed55762000ed462001550565b5b01819055507001056f1b5bedf75c6bcb2ce8aed428ffff6001606f6080811062000f045762000f0362001550565b5b01819055506ffaadceceeff8a0890f3875f008277fff600160706080811062000f325762000f3162001550565b5b01819055506ff05dc6b27edad306388a600f6ba0bfff600160716080811062000f605762000f5f62001550565b5b01819055506fe67a5a25da41063de1495d5b18cdbfff600160726080811062000f8e5762000f8d62001550565b5b01819055506fdcff115b14eedde6fc3aa5353f2e4fff600160736080811062000fbc5762000fbb62001550565b5b01819055506fd3e7a3924312399f9aae2e0f868f8fff600160746080811062000fea5762000fe962001550565b5b01819055506fcb2ff529eb71e41582cccd5a1ee26fff600160756080811062001018576200101762001550565b5b01819055506fc2d415c3db974ab32a51840c0b67edff600160766080811062001046576200104562001550565b5b01819055506fbad03e7d883f69ad5b0a186184e06bff600160776080811062001074576200107362001550565b5b01819055506fb320d03b2c343d4829abd6075f0cc5ff6001607860808110620010a257620010a162001550565b5b01819055506fabc25204e02828d73c6e80bcdb1a95bf6001607960808110620010d057620010cf62001550565b5b01819055506fa4b16f74ee4bb2040a1ec6c15fbbf2df6001607a60808110620010fe57620010fd62001550565b5b01819055506f9deaf736ac1f569deb1b5ae3f36c130f6001607b608081106200112c576200112b62001550565b5b01819055506f976bd9952c7aa957f5937d790ef650376001607c608081106200115a576200115962001550565b5b01819055506f9131271922eaa6064b73a22d0bd4f2bf6001607d6080811062001188576200118762001550565b5b01819055506f8b380f3558668c46c91c49a2f8e967b96001607e60808110620011b657620011b562001550565b5b01819055506f857ddf0117efa215952912839f6473e66001607f60808110620011e457620011e362001550565b5b01819055506200157f565b600081519050919050565b7f4e487b7100000000000000000000000000000000000000000000000000000000600052604160045260246000fd5b7f4e487b7100000000000000000000000000000000000000000000000000000000600052602260045260246000fd5b600060028204905060018216806200127157607f821691505b60208210810362001287576200128662001229565b5b50919050565b60008190508160005260206000209050919050565b60006020601f8301049050919050565b600082821b905092915050565b600060088302620012f17fffffffffffffffffffffffffffffffffffffffffffffffffffffffffffffffff82620012b2565b620012fd8683620012b2565b95508019841693508086168417925050509392505050565b6000819050919050565b6000819050919050565b60006200134a620013446200133e8462001315565b6200131f565b62001315565b9050919050565b6000819050919050565b620013668362001329565b6200137e620013758262001351565b848454620012bf565b825550505050565b600090565b6200139562001386565b620013a28184846200135b565b505050565b5b81811015620013ca57620013be6000826200138b565b600181019050620013a8565b5050565b601f8211156200141957620013e3816200128d565b620013ee84620012a2565b81016020851015620013fe578190505b620014166200140d85620012a2565b830182620013a7565b50505b505050565b600082821c905092915050565b60006200143e600019846008026200141e565b1980831691505092915050565b60006200145983836200142b565b9150826002028217905092915050565b6200147482620011ef565b67ffffffffffffffff81111562001490576200148f620011fa565b5b6200149c825462001258565b620014a9828285620013ce565b600060209050601f831160018114620014e15760008415620014cc578287015190505b620014d885826200144b565b86555062001548565b601f198416620014f1866200128d565b60005b828110156200151b57848901518255600182019150602085019450602081019050620014f4565b868310156200153b578489015162001537601f8916826200142b565b8355505b6001600288020188555050505b505050505050565b7f4e487b7100000000000000000000000000000000000000000000000000000000600052603260045260246000fd5b61127d806200158f6000396000f3fe608060405234801561001057600080fd5b50600436106100415760003560e01c806329a00e7c1461004657806349f9b0f71461007657806354fd4d50146100a6575b600080fd5b610060600480360381019061005b9190610e3c565b6100c4565b60405161006d9190610eb2565b60405180910390f35b610090600480360381019061008b9190610e3c565b6101ab565b60405161009d9190610eb2565b60405180910390f35b6100ae6102be565b6040516100bb9190610f5d565b60405180910390f35b600080851180156100d55750600084115b80156100e7575060008363ffffffff16115b80156101025750620f424063ffffffff168363ffffffff1611155b61010b57600080fd5b6000820361011c57600090506101a3565b620f424063ffffffff168363ffffffff16036101505783828661013f9190610fae565b610149919061101f565b90506101a3565b600080600086856101619190611050565b9050610172818888620f424061034c565b809350819450505060008260ff16848a61018c9190610fae565b901c9050888161019c9190611084565b9450505050505b949350505050565b600080851180156101bc5750600084115b80156101ce575060008363ffffffff16115b80156101e95750620f424063ffffffff168363ffffffff1611155b80156101f55750848211155b6101fe57600080fd5b6000820361020f57600090506102b6565b84820361021e578390506102b6565b620f424063ffffffff168363ffffffff1603610252578482856102419190610fae565b61024b919061101f565b90506102b6565b600080600084886102639190611084565b90506102748882620f42408961034c565b80935081945050506000838861028a9190610fae565b905060008360ff1689901b90508481836102a49190611084565b6102ae919061101f565b955050505050505b949350505050565b600080546102cb906110e7565b80601f01602080910402602001604051908101604052809291908181526020018280546102f7906110e7565b80156103445780601f1061031957610100808354040283529160200191610344565b820191906000526020600020905b81548152906001019060200180831161032757829003601f168201915b505050505081565b60008060008363ffffffff168563ffffffff1661036989896103b8565b6103739190610fae565b61037d919061101f565b9050600061038a82610549565b90506103a881607f61039c9190611125565b60ff1683901c8261062b565b8193509350505094509492505050565b60007001ffffffffffffffffffffffffffffffff8311156103dc576103db61115a565b5b600080836f80000000000000000000000000000000866103fc9190610fae565b610406919061101f565b905070010000000000000000000000000000000081106104745760006104466f8000000000000000000000000000000083610441919061101f565b610d3a565b90508060ff1682901c91506f800000000000000000000000000000008160ff166104709190610fae565b9250505b6f8000000000000000000000000000000081111561051c576000607f90505b60008160ff16111561051a576f8000000000000000000000000000000082836104bc9190610fae565b6104c6919061101f565b9150700100000000000000000000000000000000821061050957600182901c91506001816104f49190611125565b60ff166001901b836105069190611050565b92505b8061051390611189565b9050610493565b505b607a60ff166f02c5c85fdf473de6af278ece600fcbda8361053d9190610fae565b901c9250505092915050565b600080602090506000607f90505b8060ff1660018361056891906111b2565b60ff1610156105be5760006002828461058191906111b2565b61058b91906111e7565b90508460018260ff16608081106105a5576105a4611218565b5b0154106105b4578092506105b8565b8091505b50610557565b8360018260ff16608081106105d6576105d5611218565b5b0154106105e7578092505050610626565b8360018360ff16608081106105ff576105fe611218565b5b015410610610578192505050610626565b600061061f5761061e61115a565b5b6000925050505b919050565b60008083905060008360ff1685836106439190610fae565b901c91506f03442c4e6074a82f1797f72ac0000000826106639190610fae565b8161066e9190611050565b90508360ff1685836106809190610fae565b901c91506f0116b96f757c380fb287fd0e40000000826106a09190610fae565b816106ab9190611050565b90508360ff1685836106bd9190610fae565b901c91506e45ae5bdd5f0e03eca1ff4390000000826106dc9190610fae565b816106e79190611050565b90508360ff1685836106f99190610fae565b901c91506e0defabf91302cd95b9ffda50000000826107189190610fae565b816107239190611050565b90508360ff1685836107359190610fae565b901c91506e02529ca9832b22439efff9b8000000826107549190610fae565b8161075f9190611050565b90508360ff1685836107719190610fae565b901c91506d54f1cf12bd04e516b6da880000008261078f9190610fae565b8161079a9190611050565b90508360ff1685836107ac9190610fae565b901c91506d0a9e39e257a09ca2d6db51000000826107ca9190610fae565b816107d59190611050565b90508360ff1685836107e79190610fae565b901c91506d012e066e7b839fa050c309000000826108059190610fae565b816108109190611050565b90508360ff1685836108229190610fae565b901c91506c1e33d7d926c329a1ad1a8000008261083f9190610fae565b8161084a9190611050565b90508360ff16858361085c9190610fae565b901c91506c02bee513bdb4a6b19b5f800000826108799190610fae565b816108849190611050565b90508360ff1685836108969190610fae565b901c91506b3a9316fa79b88eccf2a00000826108b29190610fae565b816108bd9190611050565b90508360ff1685836108cf9190610fae565b901c91506b048177ebe1fa812375200000826108eb9190610fae565b816108f69190611050565b90508360ff1685836109089190610fae565b901c91506a5263fe90242dcbacf00000826109239190610fae565b8161092e9190611050565b90508360ff1685836109409190610fae565b901c91506a057e22099c030d941000008261095b9190610fae565b816109669190611050565b90508360ff1685836109789190610fae565b901c91506957e22099c030d9410000826109929190610fae565b8161099d9190611050565b90508360ff1685836109af9190610fae565b901c915069052b6b54569976310000826109c99190610fae565b816109d49190611050565b90508360ff1685836109e69190610fae565b901c9150684985f67696bf748000826109ff9190610fae565b81610a0a9190611050565b90508360ff168583610a1c9190610fae565b901c91506803dea12ea99e49800082610a359190610fae565b81610a409190611050565b90508360ff168583610a529190610fae565b901c91506731880f2214b6e00082610a6a9190610fae565b81610a759190611050565b90508360ff168583610a879190610fae565b901c915067025bcff56eb3600082610a9f9190610fae565b81610aaa9190611050565b90508360ff168583610abc9190610fae565b901c9150661b722e10ab100082610ad39190610fae565b81610ade9190611050565b90508360ff168583610af09190610fae565b901c91506601317c7007700082610b079190610fae565b81610b129190611050565b90508360ff168583610b249190610fae565b901c9150650cba84aafa0082610b3a9190610fae565b81610b459190611050565b90508360ff168583610b579190610fae565b901c91506482573a0a0082610b6c9190610fae565b81610b779190611050565b90508360ff168583610b899190610fae565b901c91506405035ad90082610b9e9190610fae565b81610ba99190611050565b90508360ff168583610bbb9190610fae565b901c9150632f881b0082610bcf9190610fae565b81610bda9190611050565b90508360ff168583610bec9190610fae565b901c91506301b2934082610c009190610fae565b81610c0b9190611050565b90508360ff168583610c1d9190610fae565b901c9150620efc4082610c309190610fae565b81610c3b9190611050565b90508360ff168583610c4d9190610fae565b901c9150617fe082610c5f9190610fae565b81610c6a9190611050565b90508360ff168583610c7c9190610fae565b901c915061042082610c8e9190610fae565b81610c999190611050565b90508360ff168583610cab9190610fae565b901c9150602182610cbc9190610fae565b81610cc79190611050565b90508360ff168583610cd99190610fae565b901c9150600182610cea9190610fae565b81610cf59190611050565b90508360ff166001901b856f0688589cc0e9505e2f2fee558000000083610d1c919061101f565b610d269190611050565b610d309190611050565b9250505092915050565b600080600090506000839050610100811015610d7a575b6001811115610d7557600181901c9050600182610d6e91906111b2565b9150610d51565b610dbb565b6000608090505b60008160ff161115610db9578060ff166001901b8210610daa578060ff1682901c915080831792505b60018160ff16901c9050610d81565b505b8192505050919050565b600080fd5b6000819050919050565b610ddd81610dca565b8114610de857600080fd5b50565b600081359050610dfa81610dd4565b92915050565b600063ffffffff82169050919050565b610e1981610e00565b8114610e2457600080fd5b50565b600081359050610e3681610e10565b92915050565b60008060008060808587031215610e5657610e55610dc5565b5b6000610e6487828801610deb565b9450506020610e7587828801610deb565b9350506040610e8687828801610e27565b9250506060610e9787828801610deb565b91505092959194509250565b610eac81610dca565b82525050565b6000602082019050610ec76000830184610ea3565b92915050565b600081519050919050565b600082825260208201905092915050565b60005b83811015610f07578082015181840152602081019050610eec565b60008484015250505050565b6000601f19601f8301169050919050565b6000610f2f82610ecd565b610f398185610ed8565b9350610f49818560208601610ee9565b610f5281610f13565b840191505092915050565b60006020820190508181036000830152610f778184610f24565b905092915050565b7f4e487b7100000000000000000000000000000000000000000000000000000000600052601160045260246000fd5b6000610fb982610dca565b9150610fc483610dca565b9250828202610fd281610dca565b91508282048414831517610fe957610fe8610f7f565b5b5092915050565b7f4e487b7100000000000000000000000000000000000000000000000000000000600052601260045260246000fd5b600061102a82610dca565b915061103583610dca565b92508261104557611044610ff0565b5b828204905092915050565b600061105b82610dca565b915061106683610dca565b925082820190508082111561107e5761107d610f7f565b5b92915050565b600061108f82610dca565b915061109a83610dca565b92508282039050818111156110b2576110b1610f7f565b5b92915050565b7f4e487b7100000000000000000000000000000000000000000000000000000000600052602260045260246000fd5b600060028204905060018216806110ff57607f821691505b602082108103611112576111116110b8565b5b50919050565b600060ff82169050919050565b600061113082611118565b915061113b83611118565b9250828203905060ff81111561115457611153610f7f565b5b92915050565b7f4e487b7100000000000000000000000000000000000000000000000000000000600052600160045260246000fd5b600061119482611118565b9150600082036111a7576111a6610f7f565b5b600182039050919050565b60006111bd82611118565b91506111c883611118565b9250828201905060ff8111156111e1576111e0610f7f565b5b92915050565b60006111f282611118565b91506111fd83611118565b92508261120d5761120c610ff0565b5b828204905092915050565b7f4e487b7100000000000000000000000000000000000000000000000000000000600052603260045260246000fdfea26469706673582212205a146fb487582420f89b24ab20d322c8e853ea759cb5d4fb2da9c65daf68c07e64736f6c63430008170033","linkReferences":{}},"methodIdentifiers":{"calculatePurchaseReturn(uint256,uint256,uint32,uint256)":"29a00e7c","calculateSaleReturn(uint256,uint256,uint32,uint256)":"49f9b0f7","version()":"54fd4d50"},"id":1}