{"abi":[{"type":"constructor","inputs":[],"stateMutability":"nonpayable"},{"type":"function","name":"amountMinted","inputs":[{"name":"","type":"address","internalType":"address"}],"outputs":[{"name":"","type":"uint256","internalType":"uint256"}],"stateMutability":"view"},{"type":"function","name":"approve","inputs":[{"name":"to","type":"address","internalType":"address"},{"name":"tokenId","type":"uint256","internalType":"uint256"}],"outputs":[],"stateMutability":"nonpayable"},{"type":"function","name":"balanceOf","inputs":[{"name":"owner","type":"address","internalType":"address"}],"outputs":[{"name":"","type":"uint256","internalType":"uint256"}],"stateMutability":"view"},{"type":"function","name":"getApproved","inputs":[{"name":"tokenId","type":"uint256","internalType":"uint256"}],"outputs":[{"name":"","type":"address","internalType":"address"}],"stateMutability":"view"},{"type":"function","name":"isApprovedForAll","inputs":[{"name":"owner","type":"address","internalType":"address"},{"name":"operator","type":"address","internalType":"address"}],"outputs":[{"name":"","type":"bool","internalType":"bool"}],"stateMutability":"view"},{"type":"function","name":"mint","inputs":[],"outputs":[],"stateMutability":"payable"},{"type":"function","name":"name","inputs":[],"outputs":[{"name":"","type":"string","internalType":"string"}],"stateMutability":"view"},{"type":"function","name":"ownerOf","inputs":[{"name":"tokenId","type":"uint256","internalType":"uint256"}],"outputs":[{"name":"","type":"address","internalType":"address"}],"stateMutability":"view"},{"type":"function","name":"price","inputs":[],"outputs":[{"name":"","type":"uint256","internalType":"uint256"}],"stateMutability":"view"},{"type":"function","name":"safeTransferFrom","inputs":[{"name":"from","type":"address","internalType":"address"},{"name":"to","type":"address","internalType":"address"},{"name":"tokenId","type":"uint256","internalType":"uint256"}],"outputs":[],"stateMutability":"nonpayable"},{"type":"function","name":"safeTransferFrom","inputs":[{"name":"from","type":"address","internalType":"address"},{"name":"to","type":"address","internalType":"address"},{"name":"tokenId","type":"uint256","internalType":"uint256"},{"name":"data","type":"bytes","internalType":"bytes"}],"outputs":[],"stateMutability":"nonpayable"},{"type":"function","name":"setApprovalForAll","inputs":[{"name":"operator","type":"address","internalType":"address"},{"name":"approved","type":"bool","internalType":"bool"}],"outputs":[],"stateMutability":"nonpayable"},{"type":"function","name":"success","inputs":[{"name":"attacker_","type":"address","internalType":"address"}],"outputs":[{"name":"","type":"bool","internalType":"bool"}],"stateMutability":"view"},{"type":"function","name":"supportsInterface","inputs":[{"name":"interfaceId","type":"bytes4","internalType":"bytes4"}],"outputs":[{"name":"","type":"bool","internalType":"bool"}],"stateMutability":"view"},{"type":"function","name":"symbol","inputs":[],"outputs":[{"name":"","type":"string","internalType":"string"}],"stateMutability":"view"},{"type":"function","name":"tokenURI","inputs":[{"name":"tokenId","type":"uint256","internalType":"uint256"}],"outputs":[{"name":"","type":"string","internalType":"string"}],"stateMutability":"view"},{"type":"function","name":"totalSupply","inputs":[],"outputs":[{"name":"","type":"uint256","internalType":"uint256"}],"stateMutability":"view"},{"type":"function","name":"transferFrom","inputs":[{"name":"from","type":"address","internalType":"address"},{"name":"to","type":"address","internalType":"address"},{"name":"tokenId","type":"uint256","internalType":"uint256"}],"outputs":[],"stateMutability":"nonpayable"},{"type":"event","name":"Approval","inputs":[{"name":"owner","type":"address","indexed":true,"internalType":"address"},{"name":"approved","type":"address","indexed":true,"internalType":"address"},{"name":"tokenId","type":"uint256","indexed":true,"internalType":"uint256"}],"anonymous":false},{"type":"event","name":"ApprovalForAll","inputs":[{"name":"owner","type":"address","indexed":true,"internalType":"address"},{"name":"operator","type":"address","indexed":true,"internalType":"address"},{"name":"approved","type":"bool","indexed":false,"internalType":"bool"}],"anonymous":false},{"type":"event","name":"Transfer","inputs":[{"name":"from","type":"address","indexed":true,"internalType":"address"},{"name":"to","type":"address","indexed":true,"internalType":"address"},{"name":"tokenId","type":"uint256","indexed":true,"internalType":"uint256"}],"anonymous":false},{"type":"error","name":"ERC721IncorrectOwner","inputs":[{"name":"sender","type":"address","internalType":"address"},{"name":"tokenId","type":"uint256","internalType":"uint256"},{"name":"owner","type":"address","internalType":"address"}]},{"type":"error","name":"ERC721InsufficientApproval","inputs":[{"name":"operator","type":"address","internalType":"address"},{"name":"tokenId","type":"uint256","internalType":"uint256"}]},{"type":"error","name":"ERC721InvalidApprover","inputs":[{"name":"approver","type":"address","internalType":"address"}]},{"type":"error","name":"ERC721InvalidOperator","inputs":[{"name":"operator","type":"address","internalType":"address"}]},{"type":"error","name":"ERC721InvalidOwner","inputs":[{"name":"owner","type":"address","internalType":"address"}]},{"type":"error","name":"ERC721InvalidReceiver","inputs":[{"name":"receiver","type":"address","internalType":"address"}]},{"type":"error","name":"ERC721InvalidSender","inputs":[{"name":"sender","type":"address","internalType":"address"}]},{"type":"error","name":"ERC721NonexistentToken","inputs":[{"name":"tokenId","type":"uint256","internalType":"uint256"}]}],"bytecode":{"object":"0x6080604052620f42406008553480156200001857600080fd5b506040518060400160405280600881526020017f4f5645524d494e540000000000000000000000000000000000000000000000008152506040518060400160405280600281526020017f415400000000000000000000000000000000000000000000000000000000000081525081600090816200009691906200032b565b508060019081620000a891906200032b565b50505062000412565b600081519050919050565b7f4e487b7100000000000000000000000000000000000000000000000000000000600052604160045260246000fd5b7f4e487b7100000000000000000000000000000000000000000000000000000000600052602260045260246000fd5b600060028204905060018216806200013357607f821691505b602082108103620001495762000148620000eb565b5b50919050565b60008190508160005260206000209050919050565b60006020601f8301049050919050565b600082821b905092915050565b600060088302620001b37fffffffffffffffffffffffffffffffffffffffffffffffffffffffffffffffff8262000174565b620001bf868362000174565b95508019841693508086168417925050509392505050565b6000819050919050565b6000819050919050565b60006200020c620002066200020084620001d7565b620001e1565b620001d7565b9050919050565b6000819050919050565b6200022883620001eb565b62000240620002378262000213565b84845462000181565b825550505050565b600090565b6200025762000248565b620002648184846200021d565b505050565b5b818110156200028c57620002806000826200024d565b6001810190506200026a565b5050565b601f821115620002db57620002a5816200014f565b620002b08462000164565b81016020851015620002c0578190505b620002d8620002cf8562000164565b83018262000269565b50505b505050565b600082821c905092915050565b60006200030060001984600802620002e0565b1980831691505092915050565b60006200031b8383620002ed565b9150826002028217905092915050565b6200033682620000b1565b67ffffffffffffffff811115620003525762000351620000bc565b5b6200035e82546200011a565b6200036b82828562000290565b600060209050601f831160018114620003a357600084156200038e578287015190505b6200039a85826200030d565b8655506200040a565b601f198416620003b3866200014f565b60005b82811015620003dd57848901518255600182019150602085019450602081019050620003b6565b86831015620003fd5784890151620003f9601f891682620002ed565b8355505b6001600288020188555050505b505050505050565b6124c680620004226000396000f3fe6080604052600436106101095760003560e01c8063438a67e711610095578063a035b1fe11610064578063a035b1fe14610382578063a22cb465146103ad578063b88d4fde146103d6578063c87b56dd146103ff578063e985e9c51461043c57610109565b8063438a67e7146102a05780636352211e146102dd57806370a082311461031a57806395d89b411461035757610109565b80631249c58b116100dc5780631249c58b146101dc57806318160ddd146101e657806323b872dd1461021157806326e4baae1461023a57806342842e0e1461027757610109565b806301ffc9a71461010e57806306fdde031461014b578063081812fc14610176578063095ea7b3146101b3575b600080fd5b34801561011a57600080fd5b5061013560048036038101906101309190611ae0565b610479565b6040516101429190611b28565b60405180910390f35b34801561015757600080fd5b5061016061055b565b60405161016d9190611bd3565b60405180910390f35b34801561018257600080fd5b5061019d60048036038101906101989190611c2b565b6105ed565b6040516101aa9190611c99565b60405180910390f35b3480156101bf57600080fd5b506101da60048036038101906101d59190611ce0565b610609565b005b6101e461061f565b005b3480156101f257600080fd5b506101fb610857565b6040516102089190611d2f565b60405180910390f35b34801561021d57600080fd5b5061023860048036038101906102339190611d4a565b61085d565b005b34801561024657600080fd5b50610261600480360381019061025c9190611d9d565b61095f565b60405161026e9190611b28565b60405180910390f35b34801561028357600080fd5b5061029e60048036038101906102999190611d4a565b610974565b005b3480156102ac57600080fd5b506102c760048036038101906102c29190611d9d565b610994565b6040516102d49190611d2f565b60405180910390f35b3480156102e957600080fd5b5061030460048036038101906102ff9190611c2b565b6109ac565b6040516103119190611c99565b60405180910390f35b34801561032657600080fd5b50610341600480360381019061033c9190611d9d565b6109be565b60405161034e9190611d2f565b60405180910390f35b34801561036357600080fd5b5061036c610a78565b6040516103799190611bd3565b60405180910390f35b34801561038e57600080fd5b50610397610b0a565b6040516103a49190611d2f565b60405180910390f35b3480156103b957600080fd5b506103d460048036038101906103cf9190611df6565b610b10565b005b3480156103e257600080fd5b506103fd60048036038101906103f89190611f6b565b610b26565b005b34801561040b57600080fd5b5061042660048036038101906104219190611c2b565b610b4b565b6040516104339190611bd3565b60405180910390f35b34801561044857600080fd5b50610463600480360381019061045e9190611fee565b610bb4565b6040516104709190611b28565b60405180910390f35b60007f80ac58cd000000000000000000000000000000000000000000000000000000007bffffffffffffffffffffffffffffffffffffffffffffffffffffffff1916827bffffffffffffffffffffffffffffffffffffffffffffffffffffffff1916148061054457507f5b5e139f000000000000000000000000000000000000000000000000000000007bffffffffffffffffffffffffffffffffffffffffffffffffffffffff1916827bffffffffffffffffffffffffffffffffffffffffffffffffffffffff1916145b80610554575061055382610c48565b5b9050919050565b60606000805461056a9061205d565b80601f01602080910402602001604051908101604052809291908181526020018280546105969061205d565b80156105e35780601f106105b8576101008083540402835291602001916105e3565b820191906000526020600020905b8154815290600101906020018083116105c657829003601f168201915b5050505050905090565b60006105f882610cb2565b5061060282610d3a565b9050919050565b61061b8282610616610d77565b610d7f565b5050565b6003600760003373ffffffffffffffffffffffffffffffffffffffff1673ffffffffffffffffffffffffffffffffffffffff1681526020019081526020016000205411156106a2576040517f08c379a0000000000000000000000000000000000000000000000000000000008152600401610699906120da565b60405180910390fd5b600660008154809291906106b590612129565b91905055506008543410156106ff576040517f08c379a00000000000000000000000000000000000000000000000000000000081526004016106f6906121bd565b60405180910390fd5b60003373ffffffffffffffffffffffffffffffffffffffff16346040516107259061220e565b60006040518083038185875af1925050503d8060008114610762576040519150601f19603f3d011682016040523d82523d6000602084013e610767565b606091505b50509050806107ab576040517f08c379a00000000000000000000000000000000000000000000000000000000081526004016107a29061226f565b60405180910390fd5b6107b733600654610d91565b600760003373ffffffffffffffffffffffffffffffffffffffff1673ffffffffffffffffffffffffffffffffffffffff168152602001908152602001600020600081548092919061080790612129565b9190505550610854600760003373ffffffffffffffffffffffffffffffffffffffff1673ffffffffffffffffffffffffffffffffffffffff16815260200190815260200160002054610e8a565b50565b60065481565b600073ffffffffffffffffffffffffffffffffffffffff168273ffffffffffffffffffffffffffffffffffffffff16036108cf5760006040517f64a0ae920000000000000000000000000000000000000000000000000000000081526004016108c69190611c99565b60405180910390fd5b60006108e383836108de610d77565b610f23565b90508373ffffffffffffffffffffffffffffffffffffffff168173ffffffffffffffffffffffffffffffffffffffff1614610959578382826040517f64283d7b0000000000000000000000000000000000000000000000000000000081526004016109509392919061228f565b60405180910390fd5b50505050565b6000600561096c836109be565b149050919050565b61098f83838360405180602001604052806000815250610b26565b505050565b60076020528060005260406000206000915090505481565b60006109b782610cb2565b9050919050565b60008073ffffffffffffffffffffffffffffffffffffffff168273ffffffffffffffffffffffffffffffffffffffff1603610a315760006040517f89c62b64000000000000000000000000000000000000000000000000000000008152600401610a289190611c99565b60405180910390fd5b600360008373ffffffffffffffffffffffffffffffffffffffff1673ffffffffffffffffffffffffffffffffffffffff168152602001908152602001600020549050919050565b606060018054610a879061205d565b80601f0160208091040260200160405190810160405280929190818152602001828054610ab39061205d565b8015610b005780601f10610ad557610100808354040283529160200191610b00565b820191906000526020600020905b815481529060010190602001808311610ae357829003601f168201915b5050505050905090565b60085481565b610b22610b1b610d77565b838361113d565b5050565b610b3184848461085d565b610b45610b3c610d77565b858585856112ac565b50505050565b6060610b5682610cb2565b506000610b6161145d565b90506000815111610b815760405180602001604052806000815250610bac565b80610b8b84611474565b604051602001610b9c929190612302565b6040516020818303038152906040525b915050919050565b6000600560008473ffffffffffffffffffffffffffffffffffffffff1673ffffffffffffffffffffffffffffffffffffffff16815260200190815260200160002060008373ffffffffffffffffffffffffffffffffffffffff1673ffffffffffffffffffffffffffffffffffffffff16815260200190815260200160002060009054906101000a900460ff16905092915050565b60007f01ffc9a7000000000000000000000000000000000000000000000000000000007bffffffffffffffffffffffffffffffffffffffffffffffffffffffff1916827bffffffffffffffffffffffffffffffffffffffffffffffffffffffff1916149050919050565b600080610cbe83611542565b9050600073ffffffffffffffffffffffffffffffffffffffff168173ffffffffffffffffffffffffffffffffffffffff1603610d3157826040517f7e273289000000000000000000000000000000000000000000000000000000008152600401610d289190611d2f565b60405180910390fd5b80915050919050565b60006004600083815260200190815260200160002060009054906101000a900473ffffffffffffffffffffffffffffffffffffffff169050919050565b600033905090565b610d8c838383600161157f565b505050565b600073ffffffffffffffffffffffffffffffffffffffff168273ffffffffffffffffffffffffffffffffffffffff1603610e035760006040517f64a0ae92000000000000000000000000000000000000000000000000000000008152600401610dfa9190611c99565b60405180910390fd5b6000610e1183836000610f23565b9050600073ffffffffffffffffffffffffffffffffffffffff168173ffffffffffffffffffffffffffffffffffffffff1614610e855760006040517f73c6ac6e000000000000000000000000000000000000000000000000000000008152600401610e7c9190611c99565b60405180910390fd5b505050565b610f2081604051602401610e9e9190611d2f565b6040516020818303038152906040527ff5b1bba9000000000000000000000000000000000000000000000000000000007bffffffffffffffffffffffffffffffffffffffffffffffffffffffff19166020820180517bffffffffffffffffffffffffffffffffffffffffffffffffffffffff8381831617835250505050611744565b50565b600080610f2f84611542565b9050600073ffffffffffffffffffffffffffffffffffffffff168373ffffffffffffffffffffffffffffffffffffffff1614610f7157610f7081848661175e565b5b600073ffffffffffffffffffffffffffffffffffffffff168173ffffffffffffffffffffffffffffffffffffffff161461100257610fb360008560008061157f565b6001600360008373ffffffffffffffffffffffffffffffffffffffff1673ffffffffffffffffffffffffffffffffffffffff168152602001908152602001600020600082825403925050819055505b600073ffffffffffffffffffffffffffffffffffffffff168573ffffffffffffffffffffffffffffffffffffffff1614611085576001600360008773ffffffffffffffffffffffffffffffffffffffff1673ffffffffffffffffffffffffffffffffffffffff168152602001908152602001600020600082825401925050819055505b846002600086815260200190815260200160002060006101000a81548173ffffffffffffffffffffffffffffffffffffffff021916908373ffffffffffffffffffffffffffffffffffffffff160217905550838573ffffffffffffffffffffffffffffffffffffffff168273ffffffffffffffffffffffffffffffffffffffff167fddf252ad1be2c89b69c2b068fc378daa952ba7f163c4a11628f55a4df523b3ef60405160405180910390a4809150509392505050565b600073ffffffffffffffffffffffffffffffffffffffff168273ffffffffffffffffffffffffffffffffffffffff16036111ae57816040517f5b08ba180000000000000000000000000000000000000000000000000000000081526004016111a59190611c99565b60405180910390fd5b80600560008573ffffffffffffffffffffffffffffffffffffffff1673ffffffffffffffffffffffffffffffffffffffff16815260200190815260200160002060008473ffffffffffffffffffffffffffffffffffffffff1673ffffffffffffffffffffffffffffffffffffffff16815260200190815260200160002060006101000a81548160ff0219169083151502179055508173ffffffffffffffffffffffffffffffffffffffff168373ffffffffffffffffffffffffffffffffffffffff167f17307eab39ab6107e8899845ad3d59bd9653f200f220920489ca2b5937696c318360405161129f9190611b28565b60405180910390a3505050565b60008373ffffffffffffffffffffffffffffffffffffffff163b1115611456578273ffffffffffffffffffffffffffffffffffffffff1663150b7a02868685856040518563ffffffff1660e01b815260040161130b949392919061237b565b6020604051808303816000875af192505050801561134757506040513d601f19601f8201168201806040525081019061134491906123dc565b60015b6113cb573d8060008114611377576040519150601f19603f3d011682016040523d82523d6000602084013e61137c565b606091505b5060008151036113c357836040517f64a0ae920000000000000000000000000000000000000000000000000000000081526004016113ba9190611c99565b60405180910390fd5b805181602001fd5b63150b7a0260e01b7bffffffffffffffffffffffffffffffffffffffffffffffffffffffff1916817bffffffffffffffffffffffffffffffffffffffffffffffffffffffff19161461145457836040517f64a0ae9200000000000000000000000000000000000000000000000000000000815260040161144b9190611c99565b60405180910390fd5b505b5050505050565b606060405180602001604052806000815250905090565b60606000600161148384611822565b01905060008167ffffffffffffffff8111156114a2576114a1611e40565b5b6040519080825280601f01601f1916602001820160405280156114d45781602001600182028036833780820191505090505b509050600082602001820190505b600115611537578080600190039150507f3031323334353637383961626364656600000000000000000000000000000000600a86061a8153600a858161152b5761152a612409565b5b049450600085036114e2575b819350505050919050565b60006002600083815260200190815260200160002060009054906101000a900473ffffffffffffffffffffffffffffffffffffffff169050919050565b80806115b85750600073ffffffffffffffffffffffffffffffffffffffff168273ffffffffffffffffffffffffffffffffffffffff1614155b156116ec5760006115c884610cb2565b9050600073ffffffffffffffffffffffffffffffffffffffff168373ffffffffffffffffffffffffffffffffffffffff161415801561163357508273ffffffffffffffffffffffffffffffffffffffff168173ffffffffffffffffffffffffffffffffffffffff1614155b801561164657506116448184610bb4565b155b1561168857826040517fa9fbf51f00000000000000000000000000000000000000000000000000000000815260040161167f9190611c99565b60405180910390fd5b81156116ea57838573ffffffffffffffffffffffffffffffffffffffff168273ffffffffffffffffffffffffffffffffffffffff167f8c5be1e5ebec7d5bd14f71427d1e84f3dd0314c0f7b2291e5b200ac8c7c3b92560405160405180910390a45b505b836004600085815260200190815260200160002060006101000a81548173ffffffffffffffffffffffffffffffffffffffff021916908373ffffffffffffffffffffffffffffffffffffffff16021790555050505050565b61175b8161175361197561199e565b63ffffffff16565b50565b6117698383836119a9565b61181d57600073ffffffffffffffffffffffffffffffffffffffff168373ffffffffffffffffffffffffffffffffffffffff16036117de57806040517f7e2732890000000000000000000000000000000000000000000000000000000081526004016117d59190611d2f565b60405180910390fd5b81816040517f177e802f000000000000000000000000000000000000000000000000000000008152600401611814929190612438565b60405180910390fd5b505050565b600080600090507a184f03e93ff9f4daa797ed6e38ed64bf6a1f0100000000000000008310611880577a184f03e93ff9f4daa797ed6e38ed64bf6a1f010000000000000000838161187657611875612409565b5b0492506040810190505b6d04ee2d6d415b85acef810000000083106118bd576d04ee2d6d415b85acef810000000083816118b3576118b2612409565b5b0492506020810190505b662386f26fc1000083106118ec57662386f26fc1000083816118e2576118e1612409565b5b0492506010810190505b6305f5e1008310611915576305f5e100838161190b5761190a612409565b5b0492506008810190505b612710831061193a5761271083816119305761192f612409565b5b0492506004810190505b6064831061195d576064838161195357611952612409565b5b0492506002810190505b600a831061196c576001810190505b80915050919050565b60008151905060006a636f6e736f6c652e6c6f679050602083016000808483855afa5050505050565b611a6a819050919050565b60008073ffffffffffffffffffffffffffffffffffffffff168373ffffffffffffffffffffffffffffffffffffffff1614158015611a6157508273ffffffffffffffffffffffffffffffffffffffff168473ffffffffffffffffffffffffffffffffffffffff161480611a225750611a218484610bb4565b5b80611a6057508273ffffffffffffffffffffffffffffffffffffffff16611a4883610d3a565b73ffffffffffffffffffffffffffffffffffffffff16145b5b90509392505050565b611a72612461565b565b6000604051905090565b600080fd5b600080fd5b60007fffffffff0000000000000000000000000000000000000000000000000000000082169050919050565b611abd81611a88565b8114611ac857600080fd5b50565b600081359050611ada81611ab4565b92915050565b600060208284031215611af657611af5611a7e565b5b6000611b0484828501611acb565b91505092915050565b60008115159050919050565b611b2281611b0d565b82525050565b6000602082019050611b3d6000830184611b19565b92915050565b600081519050919050565b600082825260208201905092915050565b60005b83811015611b7d578082015181840152602081019050611b62565b60008484015250505050565b6000601f19601f8301169050919050565b6000611ba582611b43565b611baf8185611b4e565b9350611bbf818560208601611b5f565b611bc881611b89565b840191505092915050565b60006020820190508181036000830152611bed8184611b9a565b905092915050565b6000819050919050565b611c0881611bf5565b8114611c1357600080fd5b50565b600081359050611c2581611bff565b92915050565b600060208284031215611c4157611c40611a7e565b5b6000611c4f84828501611c16565b91505092915050565b600073ffffffffffffffffffffffffffffffffffffffff82169050919050565b6000611c8382611c58565b9050919050565b611c9381611c78565b82525050565b6000602082019050611cae6000830184611c8a565b92915050565b611cbd81611c78565b8114611cc857600080fd5b50565b600081359050611cda81611cb4565b92915050565b60008060408385031215611cf757611cf6611a7e565b5b6000611d0585828601611ccb565b9250506020611d1685828601611c16565b9150509250929050565b611d2981611bf5565b82525050565b6000602082019050611d446000830184611d20565b92915050565b600080600060608486031215611d6357611d62611a7e565b5b6000611d7186828701611ccb565b9350506020611d8286828701611ccb565b9250506040611d9386828701611c16565b9150509250925092565b600060208284031215611db357611db2611a7e565b5b6000611dc184828501611ccb565b91505092915050565b611dd381611b0d565b8114611dde57600080fd5b50565b600081359050611df081611dca565b92915050565b60008060408385031215611e0d57611e0c611a7e565b5b6000611e1b85828601611ccb565b9250506020611e2c85828601611de1565b9150509250929050565b600080fd5b600080fd5b7f4e487b7100000000000000000000000000000000000000000000000000000000600052604160045260246000fd5b611e7882611b89565b810181811067ffffffffffffffff82111715611e9757611e96611e40565b5b80604052505050565b6000611eaa611a74565b9050611eb68282611e6f565b919050565b600067ffffffffffffffff821115611ed657611ed5611e40565b5b611edf82611b89565b9050602081019050919050565b82818337600083830152505050565b6000611f0e611f0984611ebb565b611ea0565b905082815260208101848484011115611f2a57611f29611e3b565b5b611f35848285611eec565b509392505050565b600082601f830112611f5257611f51611e36565b5b8135611f62848260208601611efb565b91505092915050565b60008060008060808587031215611f8557611f84611a7e565b5b6000611f9387828801611ccb565b9450506020611fa487828801611ccb565b9350506040611fb587828801611c16565b925050606085013567ffffffffffffffff811115611fd657611fd5611a83565b5b611fe287828801611f3d565b91505092959194509250565b6000806040838503121561200557612004611a7e565b5b600061201385828601611ccb565b925050602061202485828601611ccb565b9150509250929050565b7f4e487b7100000000000000000000000000000000000000000000000000000000600052602260045260246000fd5b6000600282049050600182168061207557607f821691505b6020821081036120885761208761202e565b5b50919050565b7f6d61782033204e46547300000000000000000000000000000000000000000000600082015250565b60006120c4600a83611b4e565b91506120cf8261208e565b602082019050919050565b600060208201905081810360008301526120f3816120b7565b9050919050565b7f4e487b7100000000000000000000000000000000000000000000000000000000600052601160045260246000fd5b600061213482611bf5565b91507fffffffffffffffffffffffffffffffffffffffffffffffffffffffffffffffff8203612166576121656120fa565b5b600182019050919050565b7f496e73756666696369656e742066756e64730000000000000000000000000000600082015250565b60006121a7601283611b4e565b91506121b282612171565b602082019050919050565b600060208201905081810360008301526121d68161219a565b9050919050565b600081905092915050565b50565b60006121f86000836121dd565b9150612203826121e8565b600082019050919050565b6000612219826121eb565b9150819050919050565b7f7472616e73666572206661696c65640000000000000000000000000000000000600082015250565b6000612259600f83611b4e565b915061226482612223565b602082019050919050565b600060208201905081810360008301526122888161224c565b9050919050565b60006060820190506122a46000830186611c8a565b6122b16020830185611d20565b6122be6040830184611c8a565b949350505050565b600081905092915050565b60006122dc82611b43565b6122e681856122c6565b93506122f6818560208601611b5f565b80840191505092915050565b600061230e82856122d1565b915061231a82846122d1565b91508190509392505050565b600081519050919050565b600082825260208201905092915050565b600061234d82612326565b6123578185612331565b9350612367818560208601611b5f565b61237081611b89565b840191505092915050565b60006080820190506123906000830187611c8a565b61239d6020830186611c8a565b6123aa6040830185611d20565b81810360608301526123bc8184612342565b905095945050505050565b6000815190506123d681611ab4565b92915050565b6000602082840312156123f2576123f1611a7e565b5b6000612400848285016123c7565b91505092915050565b7f4e487b7100000000000000000000000000000000000000000000000000000000600052601260045260246000fd5b600060408201905061244d6000830185611c8a565b61245a6020830184611d20565b9392505050565b7f4e487b7100000000000000000000000000000000000000000000000000000000600052605160045260246000fdfea26469706673582212202339cac86a137dbdf514b4eafb642ce9c14a3d5c8926024884e8c1c62f59d0aa64736f6c63430008170033","linkReferences":{}},"methodIdentifiers":{"amountMinted(address)":"438a67e7","approve(address,uint256)":"095ea7b3","balanceOf(address)":"70a08231","getApproved(uint256)":"081812fc","isApprovedForAll(address,address)":"e985e9c5","mint()":"1249c58b","name()":"06fdde03","ownerOf(uint256)":"6352211e","price()":"a035b1fe","safeTransferFrom(address,address,uint256)":"42842e0e","safeTransferFrom(address,address,uint256,bytes)":"b88d4fde","setApprovalForAll(address,bool)":"a22cb465","success(address)":"26e4baae","supportsInterface(bytes4)":"01ffc9a7","symbol()":"95d89b41","tokenURI(uint256)":"c87b56dd","totalSupply()":"18160ddd","transferFrom(address,address,uint256)":"23b872dd"},"id":0}