{"abi":[{"type":"constructor","inputs":[],"stateMutability":"nonpayable"},{"type":"function","name":"amountMinted","inputs":[{"name":"","type":"address","internalType":"address"}],"outputs":[{"name":"","type":"uint256","internalType":"uint256"}],"stateMutability":"view"},{"type":"function","name":"approve","inputs":[{"name":"to","type":"address","internalType":"address"},{"name":"tokenId","type":"uint256","internalType":"uint256"}],"outputs":[],"stateMutability":"nonpayable"},{"type":"function","name":"balanceOf","inputs":[{"name":"owner","type":"address","internalType":"address"}],"outputs":[{"name":"","type":"uint256","internalType":"uint256"}],"stateMutability":"view"},{"type":"function","name":"getApproved","inputs":[{"name":"tokenId","type":"uint256","internalType":"uint256"}],"outputs":[{"name":"","type":"address","internalType":"address"}],"stateMutability":"view"},{"type":"function","name":"isApprovedForAll","inputs":[{"name":"owner","type":"address","internalType":"address"},{"name":"operator","type":"address","internalType":"address"}],"outputs":[{"name":"","type":"bool","internalType":"bool"}],"stateMutability":"view"},{"type":"function","name":"mint","inputs":[],"outputs":[],"stateMutability":"payable"},{"type":"function","name":"name","inputs":[],"outputs":[{"name":"","type":"string","internalType":"string"}],"stateMutability":"view"},{"type":"function","name":"ownerOf","inputs":[{"name":"tokenId","type":"uint256","internalType":"uint256"}],"outputs":[{"name":"","type":"address","internalType":"address"}],"stateMutability":"view"},{"type":"function","name":"price","inputs":[],"outputs":[{"name":"","type":"uint256","internalType":"uint256"}],"stateMutability":"view"},{"type":"function","name":"safeTransferFrom","inputs":[{"name":"from","type":"address","internalType":"address"},{"name":"to","type":"address","internalType":"address"},{"name":"tokenId","type":"uint256","internalType":"uint256"}],"outputs":[],"stateMutability":"nonpayable"},{"type":"function","name":"safeTransferFrom","inputs":[{"name":"from","type":"address","internalType":"address"},{"name":"to","type":"address","internalType":"address"},{"name":"tokenId","type":"uint256","internalType":"uint256"},{"name":"data","type":"bytes","internalType":"bytes"}],"outputs":[],"stateMutability":"nonpayable"},{"type":"function","name":"setApprovalForAll","inputs":[{"name":"operator","type":"address","internalType":"address"},{"name":"approved","type":"bool","internalType":"bool"}],"outputs":[],"stateMutability":"nonpayable"},{"type":"function","name":"success","inputs":[{"name":"attacker_","type":"address","internalType":"address"}],"outputs":[{"name":"","type":"bool","internalType":"bool"}],"stateMutability":"view"},{"type":"function","name":"supportsInterface","inputs":[{"name":"interfaceId","type":"bytes4","internalType":"bytes4"}],"outputs":[{"name":"","type":"bool","internalType":"bool"}],"stateMutability":"view"},{"type":"function","name":"symbol","inputs":[],"outputs":[{"name":"","type":"string","internalType":"string"}],"stateMutability":"view"},{"type":"function","name":"tokenURI","inputs":[{"name":"tokenId","type":"uint256","internalType":"uint256"}],"outputs":[{"name":"","type":"string","internalType":"string"}],"stateMutability":"view"},{"type":"function","name":"totalSupply","inputs":[],"outputs":[{"name":"","type":"uint256","internalType":"uint256"}],"stateMutability":"view"},{"type":"function","name":"transferFrom","inputs":[{"name":"from","type":"address","internalType":"address"},{"name":"to","type":"address","internalType":"address"},{"name":"tokenId","type":"uint256","internalType":"uint256"}],"outputs":[],"stateMutability":"nonpayable"},{"type":"event","name":"Approval","inputs":[{"name":"owner","type":"address","indexed":true,"internalType":"address"},{"name":"approved","type":"address","indexed":true,"internalType":"address"},{"name":"tokenId","type":"uint256","indexed":true,"internalType":"uint256"}],"anonymous":false},{"type":"event","name":"ApprovalForAll","inputs":[{"name":"owner","type":"address","indexed":true,"internalType":"address"},{"name":"operator","type":"address","indexed":true,"internalType":"address"},{"name":"approved","type":"bool","indexed":false,"internalType":"bool"}],"anonymous":false},{"type":"event","name":"Transfer","inputs":[{"name":"from","type":"address","indexed":true,"internalType":"address"},{"name":"to","type":"address","indexed":true,"internalType":"address"},{"name":"tokenId","type":"uint256","indexed":true,"internalType":"uint256"}],"anonymous":false},{"type":"error","name":"ERC721IncorrectOwner","inputs":[{"name":"sender","type":"address","internalType":"address"},{"name":"tokenId","type":"uint256","internalType":"uint256"},{"name":"owner","type":"address","internalType":"address"}]},{"type":"error","name":"ERC721InsufficientApproval","inputs":[{"name":"operator","type":"address","internalType":"address"},{"name":"tokenId","type":"uint256","internalType":"uint256"}]},{"type":"error","name":"ERC721InvalidApprover","inputs":[{"name":"approver","type":"address","internalType":"address"}]},{"type":"error","name":"ERC721InvalidOperator","inputs":[{"name":"operator","type":"address","internalType":"address"}]},{"type":"error","name":"ERC721InvalidOwner","inputs":[{"name":"owner","type":"address","internalType":"address"}]},{"type":"error","name":"ERC721InvalidReceiver","inputs":[{"name":"receiver","type":"address","internalType":"address"}]},{"type":"error","name":"ERC721InvalidSender","inputs":[{"name":"sender","type":"address","internalType":"address"}]},{"type":"error","name":"ERC721NonexistentToken","inputs":[{"name":"tokenId","type":"uint256","internalType":"uint256"}]}],"bytecode":{"object":"0x6080604052620f42406008553480156200001857600080fd5b506040518060400160405280600881526020017f4f5645524d494e540000000000000000000000000000000000000000000000008152506040518060400160405280600281526020017f415400000000000000000000000000000000000000000000000000000000000081525081600090816200009691906200032b565b508060019081620000a891906200032b565b50505062000412565b600081519050919050565b7f4e487b7100000000000000000000000000000000000000000000000000000000600052604160045260246000fd5b7f4e487b7100000000000000000000000000000000000000000000000000000000600052602260045260246000fd5b600060028204905060018216806200013357607f821691505b602082108103620001495762000148620000eb565b5b50919050565b60008190508160005260206000209050919050565b60006020601f8301049050919050565b600082821b905092915050565b600060088302620001b37fffffffffffffffffffffffffffffffffffffffffffffffffffffffffffffffff8262000174565b620001bf868362000174565b95508019841693508086168417925050509392505050565b6000819050919050565b6000819050919050565b60006200020c620002066200020084620001d7565b620001e1565b620001d7565b9050919050565b6000819050919050565b6200022883620001eb565b62000240620002378262000213565b84845462000181565b825550505050565b600090565b6200025762000248565b620002648184846200021d565b505050565b5b818110156200028c57620002806000826200024d565b6001810190506200026a565b5050565b601f821115620002db57620002a5816200014f565b620002b08462000164565b81016020851015620002c0578190505b620002d8620002cf8562000164565b83018262000269565b50505b505050565b600082821c905092915050565b60006200030060001984600802620002e0565b1980831691505092915050565b60006200031b8383620002ed565b9150826002028217905092915050565b6200033682620000b1565b67ffffffffffffffff811115620003525762000351620000bc565b5b6200035e82546200011a565b6200036b82828562000290565b600060209050601f831160018114620003a357600084156200038e578287015190505b6200039a85826200030d565b8655506200040a565b601f198416620003b3866200014f565b60005b82811015620003dd57848901518255600182019150602085019450602081019050620003b6565b86831015620003fd5784890151620003f9601f891682620002ed565b8355505b6001600288020188555050505b505050505050565b61235e80620004226000396000f3fe6080604052600436106101095760003560e01c8063438a67e711610095578063a035b1fe11610064578063a035b1fe14610382578063a22cb465146103ad578063b88d4fde146103d6578063c87b56dd146103ff578063e985e9c51461043c57610109565b8063438a67e7146102a05780636352211e146102dd57806370a082311461031a57806395d89b411461035757610109565b80631249c58b116100dc5780631249c58b146101dc57806318160ddd146101e657806323b872dd1461021157806326e4baae1461023a57806342842e0e1461027757610109565b806301ffc9a71461010e57806306fdde031461014b578063081812fc14610176578063095ea7b3146101b3575b600080fd5b34801561011a57600080fd5b50610135600480360381019061013091906119a7565b610479565b60405161014291906119ef565b60405180910390f35b34801561015757600080fd5b5061016061055b565b60405161016d9190611a9a565b60405180910390f35b34801561018257600080fd5b5061019d60048036038101906101989190611af2565b6105ed565b6040516101aa9190611b60565b60405180910390f35b3480156101bf57600080fd5b506101da60048036038101906101d59190611ba7565b610609565b005b6101e461061f565b005b3480156101f257600080fd5b506101fb61080f565b6040516102089190611bf6565b60405180910390f35b34801561021d57600080fd5b5061023860048036038101906102339190611c11565b610815565b005b34801561024657600080fd5b50610261600480360381019061025c9190611c64565b610917565b60405161026e91906119ef565b60405180910390f35b34801561028357600080fd5b5061029e60048036038101906102999190611c11565b61092c565b005b3480156102ac57600080fd5b506102c760048036038101906102c29190611c64565b61094c565b6040516102d49190611bf6565b60405180910390f35b3480156102e957600080fd5b5061030460048036038101906102ff9190611af2565b610964565b6040516103119190611b60565b60405180910390f35b34801561032657600080fd5b50610341600480360381019061033c9190611c64565b610976565b60405161034e9190611bf6565b60405180910390f35b34801561036357600080fd5b5061036c610a30565b6040516103799190611a9a565b60405180910390f35b34801561038e57600080fd5b50610397610ac2565b6040516103a49190611bf6565b60405180910390f35b3480156103b957600080fd5b506103d460048036038101906103cf9190611cbd565b610ac8565b005b3480156103e257600080fd5b506103fd60048036038101906103f89190611e32565b610ade565b005b34801561040b57600080fd5b5061042660048036038101906104219190611af2565b610b03565b6040516104339190611a9a565b60405180910390f35b34801561044857600080fd5b50610463600480360381019061045e9190611eb5565b610b6c565b60405161047091906119ef565b60405180910390f35b60007f80ac58cd000000000000000000000000000000000000000000000000000000007bffffffffffffffffffffffffffffffffffffffffffffffffffffffff1916827bffffffffffffffffffffffffffffffffffffffffffffffffffffffff1916148061054457507f5b5e139f000000000000000000000000000000000000000000000000000000007bffffffffffffffffffffffffffffffffffffffffffffffffffffffff1916827bffffffffffffffffffffffffffffffffffffffffffffffffffffffff1916145b80610554575061055382610c00565b5b9050919050565b60606000805461056a90611f24565b80601f016020809104026020016040519081016040528092919081815260200182805461059690611f24565b80156105e35780601f106105b8576101008083540402835291602001916105e3565b820191906000526020600020905b8154815290600101906020018083116105c657829003601f168201915b5050505050905090565b60006105f882610c6a565b5061060282610cf2565b9050919050565b61061b8282610616610d2f565b610d37565b5050565b6003600760003373ffffffffffffffffffffffffffffffffffffffff1673ffffffffffffffffffffffffffffffffffffffff1681526020019081526020016000205411156106a2576040517f08c379a000000000000000000000000000000000000000000000000000000000815260040161069990611fa1565b60405180910390fd5b600660008154809291906106b590611ff0565b91905055506008543410156106ff576040517f08c379a00000000000000000000000000000000000000000000000000000000081526004016106f690612084565b60405180910390fd5b61070b33600654610d49565b60003373ffffffffffffffffffffffffffffffffffffffff1634604051610731906120d5565b60006040518083038185875af1925050503d806000811461076e576040519150601f19603f3d011682016040523d82523d6000602084013e610773565b606091505b50509050806107b7576040517f08c379a00000000000000000000000000000000000000000000000000000000081526004016107ae90612136565b60405180910390fd5b600760003373ffffffffffffffffffffffffffffffffffffffff1673ffffffffffffffffffffffffffffffffffffffff168152602001908152602001600020600081548092919061080790611ff0565b919050555050565b60065481565b600073ffffffffffffffffffffffffffffffffffffffff168273ffffffffffffffffffffffffffffffffffffffff16036108875760006040517f64a0ae9200000000000000000000000000000000000000000000000000000000815260040161087e9190611b60565b60405180910390fd5b600061089b8383610896610d2f565b610e42565b90508373ffffffffffffffffffffffffffffffffffffffff168173ffffffffffffffffffffffffffffffffffffffff1614610911578382826040517f64283d7b00000000000000000000000000000000000000000000000000000000815260040161090893929190612156565b60405180910390fd5b50505050565b6000600561092483610976565b149050919050565b61094783838360405180602001604052806000815250610ade565b505050565b60076020528060005260406000206000915090505481565b600061096f82610c6a565b9050919050565b60008073ffffffffffffffffffffffffffffffffffffffff168273ffffffffffffffffffffffffffffffffffffffff16036109e95760006040517f89c62b640000000000000000000000000000000000000000000000000000000081526004016109e09190611b60565b60405180910390fd5b600360008373ffffffffffffffffffffffffffffffffffffffff1673ffffffffffffffffffffffffffffffffffffffff168152602001908152602001600020549050919050565b606060018054610a3f90611f24565b80601f0160208091040260200160405190810160405280929190818152602001828054610a6b90611f24565b8015610ab85780601f10610a8d57610100808354040283529160200191610ab8565b820191906000526020600020905b815481529060010190602001808311610a9b57829003601f168201915b5050505050905090565b60085481565b610ada610ad3610d2f565b838361105c565b5050565b610ae9848484610815565b610afd610af4610d2f565b858585856111cb565b50505050565b6060610b0e82610c6a565b506000610b1961137c565b90506000815111610b395760405180602001604052806000815250610b64565b80610b4384611393565b604051602001610b549291906121c9565b6040516020818303038152906040525b915050919050565b6000600560008473ffffffffffffffffffffffffffffffffffffffff1673ffffffffffffffffffffffffffffffffffffffff16815260200190815260200160002060008373ffffffffffffffffffffffffffffffffffffffff1673ffffffffffffffffffffffffffffffffffffffff16815260200190815260200160002060009054906101000a900460ff16905092915050565b60007f01ffc9a7000000000000000000000000000000000000000000000000000000007bffffffffffffffffffffffffffffffffffffffffffffffffffffffff1916827bffffffffffffffffffffffffffffffffffffffffffffffffffffffff1916149050919050565b600080610c7683611461565b9050600073ffffffffffffffffffffffffffffffffffffffff168173ffffffffffffffffffffffffffffffffffffffff1603610ce957826040517f7e273289000000000000000000000000000000000000000000000000000000008152600401610ce09190611bf6565b60405180910390fd5b80915050919050565b60006004600083815260200190815260200160002060009054906101000a900473ffffffffffffffffffffffffffffffffffffffff169050919050565b600033905090565b610d44838383600161149e565b505050565b600073ffffffffffffffffffffffffffffffffffffffff168273ffffffffffffffffffffffffffffffffffffffff1603610dbb5760006040517f64a0ae92000000000000000000000000000000000000000000000000000000008152600401610db29190611b60565b60405180910390fd5b6000610dc983836000610e42565b9050600073ffffffffffffffffffffffffffffffffffffffff168173ffffffffffffffffffffffffffffffffffffffff1614610e3d5760006040517f73c6ac6e000000000000000000000000000000000000000000000000000000008152600401610e349190611b60565b60405180910390fd5b505050565b600080610e4e84611461565b9050600073ffffffffffffffffffffffffffffffffffffffff168373ffffffffffffffffffffffffffffffffffffffff1614610e9057610e8f818486611663565b5b600073ffffffffffffffffffffffffffffffffffffffff168173ffffffffffffffffffffffffffffffffffffffff1614610f2157610ed260008560008061149e565b6001600360008373ffffffffffffffffffffffffffffffffffffffff1673ffffffffffffffffffffffffffffffffffffffff168152602001908152602001600020600082825403925050819055505b600073ffffffffffffffffffffffffffffffffffffffff168573ffffffffffffffffffffffffffffffffffffffff1614610fa4576001600360008773ffffffffffffffffffffffffffffffffffffffff1673ffffffffffffffffffffffffffffffffffffffff168152602001908152602001600020600082825401925050819055505b846002600086815260200190815260200160002060006101000a81548173ffffffffffffffffffffffffffffffffffffffff021916908373ffffffffffffffffffffffffffffffffffffffff160217905550838573ffffffffffffffffffffffffffffffffffffffff168273ffffffffffffffffffffffffffffffffffffffff167fddf252ad1be2c89b69c2b068fc378daa952ba7f163c4a11628f55a4df523b3ef60405160405180910390a4809150509392505050565b600073ffffffffffffffffffffffffffffffffffffffff168273ffffffffffffffffffffffffffffffffffffffff16036110cd57816040517f5b08ba180000000000000000000000000000000000000000000000000000000081526004016110c49190611b60565b60405180910390fd5b80600560008573ffffffffffffffffffffffffffffffffffffffff1673ffffffffffffffffffffffffffffffffffffffff16815260200190815260200160002060008473ffffffffffffffffffffffffffffffffffffffff1673ffffffffffffffffffffffffffffffffffffffff16815260200190815260200160002060006101000a81548160ff0219169083151502179055508173ffffffffffffffffffffffffffffffffffffffff168373ffffffffffffffffffffffffffffffffffffffff167f17307eab39ab6107e8899845ad3d59bd9653f200f220920489ca2b5937696c31836040516111be91906119ef565b60405180910390a3505050565b60008373ffffffffffffffffffffffffffffffffffffffff163b1115611375578273ffffffffffffffffffffffffffffffffffffffff1663150b7a02868685856040518563ffffffff1660e01b815260040161122a9493929190612242565b6020604051808303816000875af192505050801561126657506040513d601f19601f8201168201806040525081019061126391906122a3565b60015b6112ea573d8060008114611296576040519150601f19603f3d011682016040523d82523d6000602084013e61129b565b606091505b5060008151036112e257836040517f64a0ae920000000000000000000000000000000000000000000000000000000081526004016112d99190611b60565b60405180910390fd5b805181602001fd5b63150b7a0260e01b7bffffffffffffffffffffffffffffffffffffffffffffffffffffffff1916817bffffffffffffffffffffffffffffffffffffffffffffffffffffffff19161461137357836040517f64a0ae9200000000000000000000000000000000000000000000000000000000815260040161136a9190611b60565b60405180910390fd5b505b5050505050565b606060405180602001604052806000815250905090565b6060600060016113a284611727565b01905060008167ffffffffffffffff8111156113c1576113c0611d07565b5b6040519080825280601f01601f1916602001820160405280156113f35781602001600182028036833780820191505090505b509050600082602001820190505b600115611456578080600190039150507f3031323334353637383961626364656600000000000000000000000000000000600a86061a8153600a858161144a576114496122d0565b5b04945060008503611401575b819350505050919050565b60006002600083815260200190815260200160002060009054906101000a900473ffffffffffffffffffffffffffffffffffffffff169050919050565b80806114d75750600073ffffffffffffffffffffffffffffffffffffffff168273ffffffffffffffffffffffffffffffffffffffff1614155b1561160b5760006114e784610c6a565b9050600073ffffffffffffffffffffffffffffffffffffffff168373ffffffffffffffffffffffffffffffffffffffff161415801561155257508273ffffffffffffffffffffffffffffffffffffffff168173ffffffffffffffffffffffffffffffffffffffff1614155b801561156557506115638184610b6c565b155b156115a757826040517fa9fbf51f00000000000000000000000000000000000000000000000000000000815260040161159e9190611b60565b60405180910390fd5b811561160957838573ffffffffffffffffffffffffffffffffffffffff168273ffffffffffffffffffffffffffffffffffffffff167f8c5be1e5ebec7d5bd14f71427d1e84f3dd0314c0f7b2291e5b200ac8c7c3b92560405160405180910390a45b505b836004600085815260200190815260200160002060006101000a81548173ffffffffffffffffffffffffffffffffffffffff021916908373ffffffffffffffffffffffffffffffffffffffff16021790555050505050565b61166e83838361187a565b61172257600073ffffffffffffffffffffffffffffffffffffffff168373ffffffffffffffffffffffffffffffffffffffff16036116e357806040517f7e2732890000000000000000000000000000000000000000000000000000000081526004016116da9190611bf6565b60405180910390fd5b81816040517f177e802f0000000000000000000000000000000000000000000000000000000081526004016117199291906122ff565b60405180910390fd5b505050565b600080600090507a184f03e93ff9f4daa797ed6e38ed64bf6a1f0100000000000000008310611785577a184f03e93ff9f4daa797ed6e38ed64bf6a1f010000000000000000838161177b5761177a6122d0565b5b0492506040810190505b6d04ee2d6d415b85acef810000000083106117c2576d04ee2d6d415b85acef810000000083816117b8576117b76122d0565b5b0492506020810190505b662386f26fc1000083106117f157662386f26fc1000083816117e7576117e66122d0565b5b0492506010810190505b6305f5e100831061181a576305f5e10083816118105761180f6122d0565b5b0492506008810190505b612710831061183f576127108381611835576118346122d0565b5b0492506004810190505b606483106118625760648381611858576118576122d0565b5b0492506002810190505b600a8310611871576001810190505b80915050919050565b60008073ffffffffffffffffffffffffffffffffffffffff168373ffffffffffffffffffffffffffffffffffffffff161415801561193257508273ffffffffffffffffffffffffffffffffffffffff168473ffffffffffffffffffffffffffffffffffffffff1614806118f357506118f28484610b6c565b5b8061193157508273ffffffffffffffffffffffffffffffffffffffff1661191983610cf2565b73ffffffffffffffffffffffffffffffffffffffff16145b5b90509392505050565b6000604051905090565b600080fd5b600080fd5b60007fffffffff0000000000000000000000000000000000000000000000000000000082169050919050565b6119848161194f565b811461198f57600080fd5b50565b6000813590506119a18161197b565b92915050565b6000602082840312156119bd576119bc611945565b5b60006119cb84828501611992565b91505092915050565b60008115159050919050565b6119e9816119d4565b82525050565b6000602082019050611a0460008301846119e0565b92915050565b600081519050919050565b600082825260208201905092915050565b60005b83811015611a44578082015181840152602081019050611a29565b60008484015250505050565b6000601f19601f8301169050919050565b6000611a6c82611a0a565b611a768185611a15565b9350611a86818560208601611a26565b611a8f81611a50565b840191505092915050565b60006020820190508181036000830152611ab48184611a61565b905092915050565b6000819050919050565b611acf81611abc565b8114611ada57600080fd5b50565b600081359050611aec81611ac6565b92915050565b600060208284031215611b0857611b07611945565b5b6000611b1684828501611add565b91505092915050565b600073ffffffffffffffffffffffffffffffffffffffff82169050919050565b6000611b4a82611b1f565b9050919050565b611b5a81611b3f565b82525050565b6000602082019050611b756000830184611b51565b92915050565b611b8481611b3f565b8114611b8f57600080fd5b50565b600081359050611ba181611b7b565b92915050565b60008060408385031215611bbe57611bbd611945565b5b6000611bcc85828601611b92565b9250506020611bdd85828601611add565b9150509250929050565b611bf081611abc565b82525050565b6000602082019050611c0b6000830184611be7565b92915050565b600080600060608486031215611c2a57611c29611945565b5b6000611c3886828701611b92565b9350506020611c4986828701611b92565b9250506040611c5a86828701611add565b9150509250925092565b600060208284031215611c7a57611c79611945565b5b6000611c8884828501611b92565b91505092915050565b611c9a816119d4565b8114611ca557600080fd5b50565b600081359050611cb781611c91565b92915050565b60008060408385031215611cd457611cd3611945565b5b6000611ce285828601611b92565b9250506020611cf385828601611ca8565b9150509250929050565b600080fd5b600080fd5b7f4e487b7100000000000000000000000000000000000000000000000000000000600052604160045260246000fd5b611d3f82611a50565b810181811067ffffffffffffffff82111715611d5e57611d5d611d07565b5b80604052505050565b6000611d7161193b565b9050611d7d8282611d36565b919050565b600067ffffffffffffffff821115611d9d57611d9c611d07565b5b611da682611a50565b9050602081019050919050565b82818337600083830152505050565b6000611dd5611dd084611d82565b611d67565b905082815260208101848484011115611df157611df0611d02565b5b611dfc848285611db3565b509392505050565b600082601f830112611e1957611e18611cfd565b5b8135611e29848260208601611dc2565b91505092915050565b60008060008060808587031215611e4c57611e4b611945565b5b6000611e5a87828801611b92565b9450506020611e6b87828801611b92565b9350506040611e7c87828801611add565b925050606085013567ffffffffffffffff811115611e9d57611e9c61194a565b5b611ea987828801611e04565b91505092959194509250565b60008060408385031215611ecc57611ecb611945565b5b6000611eda85828601611b92565b9250506020611eeb85828601611b92565b9150509250929050565b7f4e487b7100000000000000000000000000000000000000000000000000000000600052602260045260246000fd5b60006002820490506001821680611f3c57607f821691505b602082108103611f4f57611f4e611ef5565b5b50919050565b7f6d61782033204e46547300000000000000000000000000000000000000000000600082015250565b6000611f8b600a83611a15565b9150611f9682611f55565b602082019050919050565b60006020820190508181036000830152611fba81611f7e565b9050919050565b7f4e487b7100000000000000000000000000000000000000000000000000000000600052601160045260246000fd5b6000611ffb82611abc565b91507fffffffffffffffffffffffffffffffffffffffffffffffffffffffffffffffff820361202d5761202c611fc1565b5b600182019050919050565b7f496e73756666696369656e742066756e64730000000000000000000000000000600082015250565b600061206e601283611a15565b915061207982612038565b602082019050919050565b6000602082019050818103600083015261209d81612061565b9050919050565b600081905092915050565b50565b60006120bf6000836120a4565b91506120ca826120af565b600082019050919050565b60006120e0826120b2565b9150819050919050565b7f7472616e73666572206661696c65640000000000000000000000000000000000600082015250565b6000612120600f83611a15565b915061212b826120ea565b602082019050919050565b6000602082019050818103600083015261214f81612113565b9050919050565b600060608201905061216b6000830186611b51565b6121786020830185611be7565b6121856040830184611b51565b949350505050565b600081905092915050565b60006121a382611a0a565b6121ad818561218d565b93506121bd818560208601611a26565b80840191505092915050565b60006121d58285612198565b91506121e18284612198565b91508190509392505050565b600081519050919050565b600082825260208201905092915050565b6000612214826121ed565b61221e81856121f8565b935061222e818560208601611a26565b61223781611a50565b840191505092915050565b60006080820190506122576000830187611b51565b6122646020830186611b51565b6122716040830185611be7565b81810360608301526122838184612209565b905095945050505050565b60008151905061229d8161197b565b92915050565b6000602082840312156122b9576122b8611945565b5b60006122c78482850161228e565b91505092915050565b7f4e487b7100000000000000000000000000000000000000000000000000000000600052601260045260246000fd5b60006040820190506123146000830185611b51565b6123216020830184611be7565b939250505056fea26469706673582212204dcf2fadb58fc3b9bd5f43cf61fecfb5af86dfe38fbb28f611cb9e0f41ccffda64736f6c63430008170033","linkReferences":{}},"methodIdentifiers":{"amountMinted(address)":"438a67e7","approve(address,uint256)":"095ea7b3","balanceOf(address)":"70a08231","getApproved(uint256)":"081812fc","isApprovedForAll(address,address)":"e985e9c5","mint()":"1249c58b","name()":"06fdde03","ownerOf(uint256)":"6352211e","price()":"a035b1fe","safeTransferFrom(address,address,uint256)":"42842e0e","safeTransferFrom(address,address,uint256,bytes)":"b88d4fde","setApprovalForAll(address,bool)":"a22cb465","success(address)":"26e4baae","supportsInterface(bytes4)":"01ffc9a7","symbol()":"95d89b41","tokenURI(uint256)":"c87b56dd","totalSupply()":"18160ddd","transferFrom(address,address,uint256)":"23b872dd"},"id":13}