{"abi":[{"type":"constructor","inputs":[{"name":"root_","type":"bytes32","internalType":"bytes32"},{"name":"token","type":"address","internalType":"address"}],"stateMutability":"nonpayable"},{"type":"function","name":"approve","inputs":[{"name":"to","type":"address","internalType":"address"},{"name":"tokenId","type":"uint256","internalType":"uint256"}],"outputs":[],"stateMutability":"nonpayable"},{"type":"function","name":"balanceOf","inputs":[{"name":"owner","type":"address","internalType":"address"}],"outputs":[{"name":"","type":"uint256","internalType":"uint256"}],"stateMutability":"view"},{"type":"function","name":"coin","inputs":[],"outputs":[{"name":"","type":"address","internalType":"contract IERC20"}],"stateMutability":"view"},{"type":"function","name":"getApproved","inputs":[{"name":"tokenId","type":"uint256","internalType":"uint256"}],"outputs":[{"name":"","type":"address","internalType":"address"}],"stateMutability":"view"},{"type":"function","name":"getSalePrice","inputs":[],"outputs":[{"name":"salePrice_","type":"uint256","internalType":"uint256"}],"stateMutability":"view"},{"type":"function","name":"isApprovedForAll","inputs":[{"name":"owner","type":"address","internalType":"address"},{"name":"operator","type":"address","internalType":"address"}],"outputs":[{"name":"","type":"bool","internalType":"bool"}],"stateMutability":"view"},{"type":"function","name":"mint","inputs":[{"name":"proof","type":"bytes32[]","internalType":"bytes32[]"}],"outputs":[],"stateMutability":"nonpayable"},{"type":"function","name":"name","inputs":[],"outputs":[{"name":"","type":"string","internalType":"string"}],"stateMutability":"view"},{"type":"function","name":"owner","inputs":[],"outputs":[{"name":"","type":"address","internalType":"address"}],"stateMutability":"view"},{"type":"function","name":"ownerOf","inputs":[{"name":"tokenId","type":"uint256","internalType":"uint256"}],"outputs":[{"name":"","type":"address","internalType":"address"}],"stateMutability":"view"},{"type":"function","name":"renounceOwnership","inputs":[],"outputs":[],"stateMutability":"nonpayable"},{"type":"function","name":"root","inputs":[],"outputs":[{"name":"","type":"bytes32","internalType":"bytes32"}],"stateMutability":"view"},{"type":"function","name":"royaltyInfo","inputs":[{"name":"tokenId","type":"uint256","internalType":"uint256"},{"name":"salePrice","type":"uint256","internalType":"uint256"}],"outputs":[{"name":"","type":"address","internalType":"address"},{"name":"","type":"uint256","internalType":"uint256"}],"stateMutability":"view"},{"type":"function","name":"safeTransferFrom","inputs":[{"name":"from","type":"address","internalType":"address"},{"name":"to","type":"address","internalType":"address"},{"name":"tokenId","type":"uint256","internalType":"uint256"}],"outputs":[],"stateMutability":"nonpayable"},{"type":"function","name":"safeTransferFrom","inputs":[{"name":"from","type":"address","internalType":"address"},{"name":"to","type":"address","internalType":"address"},{"name":"tokenId","type":"uint256","internalType":"uint256"},{"name":"data","type":"bytes","internalType":"bytes"}],"outputs":[],"stateMutability":"nonpayable"},{"type":"function","name":"salePrice","inputs":[],"outputs":[{"name":"","type":"uint256","internalType":"uint256"}],"stateMutability":"view"},{"type":"function","name":"setApprovalForAll","inputs":[{"name":"operator","type":"address","internalType":"address"},{"name":"approved","type":"bool","internalType":"bool"}],"outputs":[],"stateMutability":"nonpayable"},{"type":"function","name":"setDiscount","inputs":[{"name":"discount_","type":"uint256","internalType":"uint256"}],"outputs":[],"stateMutability":"nonpayable"},{"type":"function","name":"setRoyaltyInfo","inputs":[],"outputs":[],"stateMutability":"view"},{"type":"function","name":"setSalePrice","inputs":[{"name":"salePrice_","type":"uint256","internalType":"uint256"}],"outputs":[],"stateMutability":"nonpayable"},{"type":"function","name":"supportsInterface","inputs":[{"name":"interfaceId","type":"bytes4","internalType":"bytes4"}],"outputs":[{"name":"","type":"bool","internalType":"bool"}],"stateMutability":"view"},{"type":"function","name":"symbol","inputs":[],"outputs":[{"name":"","type":"string","internalType":"string"}],"stateMutability":"view"},{"type":"function","name":"tokenURI","inputs":[{"name":"tokenId","type":"uint256","internalType":"uint256"}],"outputs":[{"name":"","type":"string","internalType":"string"}],"stateMutability":"view"},{"type":"function","name":"totalSupply","inputs":[],"outputs":[{"name":"","type":"uint256","internalType":"uint256"}],"stateMutability":"view"},{"type":"function","name":"transferFrom","inputs":[{"name":"from","type":"address","internalType":"address"},{"name":"to","type":"address","internalType":"address"},{"name":"tokenId","type":"uint256","internalType":"uint256"}],"outputs":[],"stateMutability":"nonpayable"},{"type":"function","name":"transferOwnership","inputs":[{"name":"newOwner","type":"address","internalType":"address"}],"outputs":[],"stateMutability":"nonpayable"},{"type":"event","name":"Approval","inputs":[{"name":"owner","type":"address","indexed":true,"internalType":"address"},{"name":"approved","type":"address","indexed":true,"internalType":"address"},{"name":"tokenId","type":"uint256","indexed":true,"internalType":"uint256"}],"anonymous":false},{"type":"event","name":"ApprovalForAll","inputs":[{"name":"owner","type":"address","indexed":true,"internalType":"address"},{"name":"operator","type":"address","indexed":true,"internalType":"address"},{"name":"approved","type":"bool","indexed":false,"internalType":"bool"}],"anonymous":false},{"type":"event","name":"OwnershipTransferred","inputs":[{"name":"previousOwner","type":"address","indexed":true,"internalType":"address"},{"name":"newOwner","type":"address","indexed":true,"internalType":"address"}],"anonymous":false},{"type":"event","name":"Transfer","inputs":[{"name":"from","type":"address","indexed":true,"internalType":"address"},{"name":"to","type":"address","indexed":true,"internalType":"address"},{"name":"tokenId","type":"uint256","indexed":true,"internalType":"uint256"}],"anonymous":false},{"type":"error","name":"ERC2981InvalidDefaultRoyalty","inputs":[{"name":"numerator","type":"uint256","internalType":"uint256"},{"name":"denominator","type":"uint256","internalType":"uint256"}]},{"type":"error","name":"ERC2981InvalidDefaultRoyaltyReceiver","inputs":[{"name":"receiver","type":"address","internalType":"address"}]},{"type":"error","name":"ERC2981InvalidTokenRoyalty","inputs":[{"name":"tokenId","type":"uint256","internalType":"uint256"},{"name":"numerator","type":"uint256","internalType":"uint256"},{"name":"denominator","type":"uint256","internalType":"uint256"}]},{"type":"error","name":"ERC2981InvalidTokenRoyaltyReceiver","inputs":[{"name":"tokenId","type":"uint256","internalType":"uint256"},{"name":"receiver","type":"address","internalType":"address"}]},{"type":"error","name":"ERC721IncorrectOwner","inputs":[{"name":"sender","type":"address","internalType":"address"},{"name":"tokenId","type":"uint256","internalType":"uint256"},{"name":"owner","type":"address","internalType":"address"}]},{"type":"error","name":"ERC721InsufficientApproval","inputs":[{"name":"operator","type":"address","internalType":"address"},{"name":"tokenId","type":"uint256","internalType":"uint256"}]},{"type":"error","name":"ERC721InvalidApprover","inputs":[{"name":"approver","type":"address","internalType":"address"}]},{"type":"error","name":"ERC721InvalidOperator","inputs":[{"name":"operator","type":"address","internalType":"address"}]},{"type":"error","name":"ERC721InvalidOwner","inputs":[{"name":"owner","type":"address","internalType":"address"}]},{"type":"error","name":"ERC721InvalidReceiver","inputs":[{"name":"receiver","type":"address","internalType":"address"}]},{"type":"error","name":"ERC721InvalidSender","inputs":[{"name":"sender","type":"address","internalType":"address"}]},{"type":"error","name":"ERC721NonexistentToken","inputs":[{"name":"tokenId","type":"uint256","internalType":"uint256"}]},{"type":"error","name":"OwnableInvalidOwner","inputs":[{"name":"owner","type":"address","internalType":"address"}]},{"type":"error","name":"OwnableUnauthorizedAccount","inputs":[{"name":"account","type":"address","internalType":"address"}]}],"bytecode":{"object":"0x608060405262989680600b556064600c556000600d553480156200002257600080fd5b50604051620036dc380380620036dc8339818101604052810190620000489190620004ea565b336040518060400160405280601281526020017f4e4654207769746820526f79616c7469657300000000000000000000000000008152506040518060400160405280600381526020017f4e465400000000000000000000000000000000000000000000000000000000008152508160009081620000c69190620007ab565b508060019081620000d89190620007ab565b505050600073ffffffffffffffffffffffffffffffffffffffff168173ffffffffffffffffffffffffffffffffffffffff1603620001505760006040517f1e4fbdf7000000000000000000000000000000000000000000000000000000008152600401620001479190620008a3565b60405180910390fd5b6200016181620001c560201b60201c565b5080600a60006101000a81548173ffffffffffffffffffffffffffffffffffffffff021916908373ffffffffffffffffffffffffffffffffffffffff16021790555081600981905550620001bd3360fa6200028b60201b60201c565b50506200094f565b6000600860009054906101000a900473ffffffffffffffffffffffffffffffffffffffff16905081600860006101000a81548173ffffffffffffffffffffffffffffffffffffffff021916908373ffffffffffffffffffffffffffffffffffffffff1602179055508173ffffffffffffffffffffffffffffffffffffffff168173ffffffffffffffffffffffffffffffffffffffff167f8be0079c531659141344cd1fd0a4f28419497f9722a3daafe3b4186f6b6457e060405160405180910390a35050565b60006200029d6200043b60201b60201c565b6bffffffffffffffffffffffff16905080826bffffffffffffffffffffffff161115620003055781816040517f6f483d09000000000000000000000000000000000000000000000000000000008152600401620002fc92919062000922565b60405180910390fd5b600073ffffffffffffffffffffffffffffffffffffffff168373ffffffffffffffffffffffffffffffffffffffff16036200037a5760006040517fb6d9900a000000000000000000000000000000000000000000000000000000008152600401620003719190620008a3565b60405180910390fd5b60405180604001604052808473ffffffffffffffffffffffffffffffffffffffff168152602001836bffffffffffffffffffffffff16815250600660008201518160000160006101000a81548173ffffffffffffffffffffffffffffffffffffffff021916908373ffffffffffffffffffffffffffffffffffffffff16021790555060208201518160000160146101000a8154816bffffffffffffffffffffffff02191690836bffffffffffffffffffffffff160217905550905050505050565b6000612710905090565b600080fd5b6000819050919050565b6200045f816200044a565b81146200046b57600080fd5b50565b6000815190506200047f8162000454565b92915050565b600073ffffffffffffffffffffffffffffffffffffffff82169050919050565b6000620004b28262000485565b9050919050565b620004c481620004a5565b8114620004d057600080fd5b50565b600081519050620004e481620004b9565b92915050565b6000806040838503121562000504576200050362000445565b5b600062000514858286016200046e565b92505060206200052785828601620004d3565b9150509250929050565b600081519050919050565b7f4e487b7100000000000000000000000000000000000000000000000000000000600052604160045260246000fd5b7f4e487b7100000000000000000000000000000000000000000000000000000000600052602260045260246000fd5b60006002820490506001821680620005b357607f821691505b602082108103620005c957620005c86200056b565b5b50919050565b60008190508160005260206000209050919050565b60006020601f8301049050919050565b600082821b905092915050565b600060088302620006337fffffffffffffffffffffffffffffffffffffffffffffffffffffffffffffffff82620005f4565b6200063f8683620005f4565b95508019841693508086168417925050509392505050565b6000819050919050565b6000819050919050565b60006200068c62000686620006808462000657565b62000661565b62000657565b9050919050565b6000819050919050565b620006a8836200066b565b620006c0620006b78262000693565b84845462000601565b825550505050565b600090565b620006d7620006c8565b620006e48184846200069d565b505050565b5b818110156200070c5762000700600082620006cd565b600181019050620006ea565b5050565b601f8211156200075b576200072581620005cf565b6200073084620005e4565b8101602085101562000740578190505b620007586200074f85620005e4565b830182620006e9565b50505b505050565b600082821c905092915050565b6000620007806000198460080262000760565b1980831691505092915050565b60006200079b83836200076d565b9150826002028217905092915050565b620007b68262000531565b67ffffffffffffffff811115620007d257620007d16200053c565b5b620007de82546200059a565b620007eb82828562000710565b600060209050601f8311600181146200082357600084156200080e578287015190505b6200081a85826200078d565b8655506200088a565b601f1984166200083386620005cf565b60005b828110156200085d5784890151825560018201915060208501945060208101905062000836565b868310156200087d578489015162000879601f8916826200076d565b8355505b6001600288020188555050505b505050505050565b6200089d81620004a5565b82525050565b6000602082019050620008ba600083018462000892565b92915050565b60006bffffffffffffffffffffffff82169050919050565b6000620008f9620008f3620008ed84620008c0565b62000661565b62000657565b9050919050565b6200090b81620008d8565b82525050565b6200091c8162000657565b82525050565b600060408201905062000939600083018562000900565b62000948602083018462000911565b9392505050565b612d7d806200095f6000396000f3fe608060405234801561001057600080fd5b506004361061018e5760003560e01c806370a08231116100de578063b88d4fde11610097578063e985e9c511610071578063e985e9c51461045c578063ebf0c7171461048c578063f2fde38b146104aa578063f51f96dd146104c65761018e565b8063b88d4fde146103f4578063c87b56dd14610410578063dabd2719146104405761018e565b806370a0823114610346578063715018a6146103765780638da5cb5b1461038057806395d89b411461039e578063a22cb465146103bc578063b77a147b146103d85761018e565b806318160ddd1161014b5780632a55205a116101255780632a55205a146102ab5780632fbc0bf1146102dc57806342842e0e146102fa5780636352211e146103165761018e565b806318160ddd146102555780631919fed71461027357806323b872dd1461028f5761018e565b806301ffc9a71461019357806306fdde03146101c3578063081812fc146101e1578063095ea7b31461021157806311df99951461022d578063157630991461024b575b600080fd5b6101ad60048036038101906101a891906120e9565b6104e4565b6040516101ba9190612131565b60405180910390f35b6101cb61055e565b6040516101d891906121dc565b60405180910390f35b6101fb60048036038101906101f69190612234565b6105f0565b60405161020891906122a2565b60405180910390f35b61022b600480360381019061022691906122e9565b61060c565b005b610235610622565b6040516102429190612388565b60405180910390f35b610253610648565b005b61025d61067b565b60405161026a91906123b2565b60405180910390f35b61028d60048036038101906102889190612234565b610681565b005b6102a960048036038101906102a491906123cd565b610693565b005b6102c560048036038101906102c09190612420565b610795565b6040516102d3929190612460565b60405180910390f35b6102e46108c5565b6040516102f191906123b2565b60405180910390f35b610314600480360381019061030f91906123cd565b6108cf565b005b610330600480360381019061032b9190612234565b6108ef565b60405161033d91906122a2565b60405180910390f35b610360600480360381019061035b9190612489565b610901565b60405161036d91906123b2565b60405180910390f35b61037e6109bb565b005b6103886109cf565b60405161039591906122a2565b60405180910390f35b6103a66109f9565b6040516103b391906121dc565b60405180910390f35b6103d660048036038101906103d191906124e2565b610a8b565b005b6103f260048036038101906103ed91906126a0565b610aa1565b005b61040e6004803603810190610409919061279e565b610c93565b005b61042a60048036038101906104259190612234565b610cb8565b60405161043791906121dc565b60405180910390f35b61045a60048036038101906104559190612234565b610d21565b005b61047660048036038101906104719190612821565b610d33565b6040516104839190612131565b60405180910390f35b610494610dc7565b6040516104a19190612870565b60405180910390f35b6104c460048036038101906104bf9190612489565b610dcd565b005b6104ce610e53565b6040516104db91906123b2565b60405180910390f35b60007f2a55205a000000000000000000000000000000000000000000000000000000007bffffffffffffffffffffffffffffffffffffffffffffffffffffffff1916827bffffffffffffffffffffffffffffffffffffffffffffffffffffffff19161480610557575061055682610e59565b5b9050919050565b60606000805461056d906128ba565b80601f0160208091040260200160405190810160405280929190818152602001828054610599906128ba565b80156105e65780601f106105bb576101008083540402835291602001916105e6565b820191906000526020600020905b8154815290600101906020018083116105c957829003601f168201915b5050505050905090565b60006105fb82610ed3565b5061060582610f5b565b9050919050565b61061e8282610619610f98565b610fa0565b5050565b600a60009054906101000a900473ffffffffffffffffffffffffffffffffffffffff1681565b610650610fb2565b60005b600d548110156106785761066981600b54610795565b50508080600101915050610653565b50565b600d5481565b610689610fb2565b80600b8190555050565b600073ffffffffffffffffffffffffffffffffffffffff168273ffffffffffffffffffffffffffffffffffffffff16036107055760006040517f64a0ae920000000000000000000000000000000000000000000000000000000081526004016106fc91906122a2565b60405180910390fd5b60006107198383610714610f98565b611039565b90508373ffffffffffffffffffffffffffffffffffffffff168173ffffffffffffffffffffffffffffffffffffffff161461078f578382826040517f64283d7b000000000000000000000000000000000000000000000000000000008152600401610786939291906128eb565b60405180910390fd5b50505050565b600080600060076000868152602001908152602001600020905060008160000160009054906101000a900473ffffffffffffffffffffffffffffffffffffffff16905060008260000160149054906101000a90046bffffffffffffffffffffffff169050600073ffffffffffffffffffffffffffffffffffffffff168273ffffffffffffffffffffffffffffffffffffffff160361087657600660000160009054906101000a900473ffffffffffffffffffffffffffffffffffffffff169150600660000160149054906101000a90046bffffffffffffffffffffffff1690505b6000610880611253565b6bffffffffffffffffffffffff16826bffffffffffffffffffffffff16886108a89190612951565b6108b291906129c2565b9050828195509550505050509250929050565b6000600b54905090565b6108ea83838360405180602001604052806000815250610c93565b505050565b60006108fa82610ed3565b9050919050565b60008073ffffffffffffffffffffffffffffffffffffffff168273ffffffffffffffffffffffffffffffffffffffff16036109745760006040517f89c62b6400000000000000000000000000000000000000000000000000000000815260040161096b91906122a2565b60405180910390fd5b600360008373ffffffffffffffffffffffffffffffffffffffff1673ffffffffffffffffffffffffffffffffffffffff168152602001908152602001600020549050919050565b6109c3610fb2565b6109cd600061125d565b565b6000600860009054906101000a900473ffffffffffffffffffffffffffffffffffffffff16905090565b606060018054610a08906128ba565b80601f0160208091040260200160405190810160405280929190818152602001828054610a34906128ba565b8015610a815780601f10610a5657610100808354040283529160200191610a81565b820191906000526020600020905b815481529060010190602001808311610a6457829003601f168201915b5050505050905090565b610a9d610a96610f98565b8383611323565b5050565b62989680600b81905550600073ffffffffffffffffffffffffffffffffffffffff163373ffffffffffffffffffffffffffffffffffffffff1603610b1a576040517f08c379a0000000000000000000000000000000000000000000000000000000008152600401610b1190612a3f565b60405180910390fd5b600e6000600d54815260200190815260200160002060009054906101000a900460ff1615610b7d576040517f08c379a0000000000000000000000000000000000000000000000000000000008152600401610b7490612aab565b60405180910390fd5b6000610bb28260095433604051602001610b979190612b13565b60405160208183030381529060405280519060200120611492565b9050610bf3816040518060400160405280600f81526020017f616464726573732070726573656e7400000000000000000000000000000000008152506114a9565b610bfe600b54611545565b8015610c2e576000612710600b54600c54610c199190612951565b610c2391906129c2565b905080600b81905550505b6014600d5410610c3d57600080fd5b6001600e6000600d54815260200190815260200160002060006101000a81548160ff021916908315150217905550610c7733600d546115de565b600d6000815480929190610c8a90612b2e565b91905055505050565b610c9e848484610693565b610cb2610ca9610f98565b858585856116d7565b50505050565b6060610cc382610ed3565b506000610cce611888565b90506000815111610cee5760405180602001604052806000815250610d19565b80610cf88461189f565b604051602001610d09929190612bb2565b6040516020818303038152906040525b915050919050565b610d29610fb2565b80600c8190555050565b6000600560008473ffffffffffffffffffffffffffffffffffffffff1673ffffffffffffffffffffffffffffffffffffffff16815260200190815260200160002060008373ffffffffffffffffffffffffffffffffffffffff1673ffffffffffffffffffffffffffffffffffffffff16815260200190815260200160002060009054906101000a900460ff16905092915050565b60095481565b610dd5610fb2565b600073ffffffffffffffffffffffffffffffffffffffff168173ffffffffffffffffffffffffffffffffffffffff1603610e475760006040517f1e4fbdf7000000000000000000000000000000000000000000000000000000008152600401610e3e91906122a2565b60405180910390fd5b610e508161125d565b50565b600b5481565b60007f2a55205a000000000000000000000000000000000000000000000000000000007bffffffffffffffffffffffffffffffffffffffffffffffffffffffff1916827bffffffffffffffffffffffffffffffffffffffffffffffffffffffff19161480610ecc5750610ecb8261196d565b5b9050919050565b600080610edf83611a4f565b9050600073ffffffffffffffffffffffffffffffffffffffff168173ffffffffffffffffffffffffffffffffffffffff1603610f5257826040517f7e273289000000000000000000000000000000000000000000000000000000008152600401610f4991906123b2565b60405180910390fd5b80915050919050565b60006004600083815260200190815260200160002060009054906101000a900473ffffffffffffffffffffffffffffffffffffffff169050919050565b600033905090565b610fad8383836001611a8c565b505050565b610fba610f98565b73ffffffffffffffffffffffffffffffffffffffff16610fd86109cf565b73ffffffffffffffffffffffffffffffffffffffff161461103757610ffb610f98565b6040517f118cdaa700000000000000000000000000000000000000000000000000000000815260040161102e91906122a2565b60405180910390fd5b565b60008061104584611a4f565b9050600073ffffffffffffffffffffffffffffffffffffffff168373ffffffffffffffffffffffffffffffffffffffff161461108757611086818486611c51565b5b600073ffffffffffffffffffffffffffffffffffffffff168173ffffffffffffffffffffffffffffffffffffffff1614611118576110c9600085600080611a8c565b6001600360008373ffffffffffffffffffffffffffffffffffffffff1673ffffffffffffffffffffffffffffffffffffffff168152602001908152602001600020600082825403925050819055505b600073ffffffffffffffffffffffffffffffffffffffff168573ffffffffffffffffffffffffffffffffffffffff161461119b576001600360008773ffffffffffffffffffffffffffffffffffffffff1673ffffffffffffffffffffffffffffffffffffffff168152602001908152602001600020600082825401925050819055505b846002600086815260200190815260200160002060006101000a81548173ffffffffffffffffffffffffffffffffffffffff021916908373ffffffffffffffffffffffffffffffffffffffff160217905550838573ffffffffffffffffffffffffffffffffffffffff168273ffffffffffffffffffffffffffffffffffffffff167fddf252ad1be2c89b69c2b068fc378daa952ba7f163c4a11628f55a4df523b3ef60405160405180910390a4809150509392505050565b6000612710905090565b6000600860009054906101000a900473ffffffffffffffffffffffffffffffffffffffff16905081600860006101000a81548173ffffffffffffffffffffffffffffffffffffffff021916908373ffffffffffffffffffffffffffffffffffffffff1602179055508173ffffffffffffffffffffffffffffffffffffffff168173ffffffffffffffffffffffffffffffffffffffff167f8be0079c531659141344cd1fd0a4f28419497f9722a3daafe3b4186f6b6457e060405160405180910390a35050565b600073ffffffffffffffffffffffffffffffffffffffff168273ffffffffffffffffffffffffffffffffffffffff160361139457816040517f5b08ba1800000000000000000000000000000000000000000000000000000000815260040161138b91906122a2565b60405180910390fd5b80600560008573ffffffffffffffffffffffffffffffffffffffff1673ffffffffffffffffffffffffffffffffffffffff16815260200190815260200160002060008473ffffffffffffffffffffffffffffffffffffffff1673ffffffffffffffffffffffffffffffffffffffff16815260200190815260200160002060006101000a81548160ff0219169083151502179055508173ffffffffffffffffffffffffffffffffffffffff168373ffffffffffffffffffffffffffffffffffffffff167f17307eab39ab6107e8899845ad3d59bd9653f200f220920489ca2b5937696c31836040516114859190612131565b60405180910390a3505050565b60008261149f8584611d15565b1490509392505050565b61154182826040516024016114bf929190612bd6565b6040516020818303038152906040527f8feac525000000000000000000000000000000000000000000000000000000007bffffffffffffffffffffffffffffffffffffffffffffffffffffffff19166020820180517bffffffffffffffffffffffffffffffffffffffffffffffffffffffff8381831617835250505050611d65565b5050565b6115db8160405160240161155991906123b2565b6040516020818303038152906040527ff5b1bba9000000000000000000000000000000000000000000000000000000007bffffffffffffffffffffffffffffffffffffffffffffffffffffffff19166020820180517bffffffffffffffffffffffffffffffffffffffffffffffffffffffff8381831617835250505050611d65565b50565b600073ffffffffffffffffffffffffffffffffffffffff168273ffffffffffffffffffffffffffffffffffffffff16036116505760006040517f64a0ae9200000000000000000000000000000000000000000000000000000000815260040161164791906122a2565b60405180910390fd5b600061165e83836000611039565b9050600073ffffffffffffffffffffffffffffffffffffffff168173ffffffffffffffffffffffffffffffffffffffff16146116d25760006040517f73c6ac6e0000000000000000000000000000000000000000000000000000000081526004016116c991906122a2565b60405180910390fd5b505050565b60008373ffffffffffffffffffffffffffffffffffffffff163b1115611881578273ffffffffffffffffffffffffffffffffffffffff1663150b7a02868685856040518563ffffffff1660e01b81526004016117369493929190612c5b565b6020604051808303816000875af192505050801561177257506040513d601f19601f8201168201806040525081019061176f9190612cbc565b60015b6117f6573d80600081146117a2576040519150601f19603f3d011682016040523d82523d6000602084013e6117a7565b606091505b5060008151036117ee57836040517f64a0ae920000000000000000000000000000000000000000000000000000000081526004016117e591906122a2565b60405180910390fd5b805181602001fd5b63150b7a0260e01b7bffffffffffffffffffffffffffffffffffffffffffffffffffffffff1916817bffffffffffffffffffffffffffffffffffffffffffffffffffffffff19161461187f57836040517f64a0ae9200000000000000000000000000000000000000000000000000000000815260040161187691906122a2565b60405180910390fd5b505b5050505050565b606060405180602001604052806000815250905090565b6060600060016118ae84611d7f565b01905060008167ffffffffffffffff8111156118cd576118cc612527565b5b6040519080825280601f01601f1916602001820160405280156118ff5781602001600182028036833780820191505090505b509050600082602001820190505b600115611962578080600190039150507f3031323334353637383961626364656600000000000000000000000000000000600a86061a8153600a858161195657611955612993565b5b0494506000850361190d575b819350505050919050565b60007f80ac58cd000000000000000000000000000000000000000000000000000000007bffffffffffffffffffffffffffffffffffffffffffffffffffffffff1916827bffffffffffffffffffffffffffffffffffffffffffffffffffffffff19161480611a3857507f5b5e139f000000000000000000000000000000000000000000000000000000007bffffffffffffffffffffffffffffffffffffffffffffffffffffffff1916827bffffffffffffffffffffffffffffffffffffffffffffffffffffffff1916145b80611a485750611a4782611ed2565b5b9050919050565b60006002600083815260200190815260200160002060009054906101000a900473ffffffffffffffffffffffffffffffffffffffff169050919050565b8080611ac55750600073ffffffffffffffffffffffffffffffffffffffff168273ffffffffffffffffffffffffffffffffffffffff1614155b15611bf9576000611ad584610ed3565b9050600073ffffffffffffffffffffffffffffffffffffffff168373ffffffffffffffffffffffffffffffffffffffff1614158015611b4057508273ffffffffffffffffffffffffffffffffffffffff168173ffffffffffffffffffffffffffffffffffffffff1614155b8015611b535750611b518184610d33565b155b15611b9557826040517fa9fbf51f000000000000000000000000000000000000000000000000000000008152600401611b8c91906122a2565b60405180910390fd5b8115611bf757838573ffffffffffffffffffffffffffffffffffffffff168273ffffffffffffffffffffffffffffffffffffffff167f8c5be1e5ebec7d5bd14f71427d1e84f3dd0314c0f7b2291e5b200ac8c7c3b92560405160405180910390a45b505b836004600085815260200190815260200160002060006101000a81548173ffffffffffffffffffffffffffffffffffffffff021916908373ffffffffffffffffffffffffffffffffffffffff16021790555050505050565b611c5c838383611f3c565b611d1057600073ffffffffffffffffffffffffffffffffffffffff168373ffffffffffffffffffffffffffffffffffffffff1603611cd157806040517f7e273289000000000000000000000000000000000000000000000000000000008152600401611cc891906123b2565b60405180910390fd5b81816040517f177e802f000000000000000000000000000000000000000000000000000000008152600401611d07929190612460565b60405180910390fd5b505050565b60008082905060005b8451811015611d5a57611d4b82868381518110611d3e57611d3d612ce9565b5b6020026020010151611ffd565b91508080600101915050611d1e565b508091505092915050565b611d7c81611d74612028612051565b63ffffffff16565b50565b600080600090507a184f03e93ff9f4daa797ed6e38ed64bf6a1f0100000000000000008310611ddd577a184f03e93ff9f4daa797ed6e38ed64bf6a1f0100000000000000008381611dd357611dd2612993565b5b0492506040810190505b6d04ee2d6d415b85acef81000000008310611e1a576d04ee2d6d415b85acef81000000008381611e1057611e0f612993565b5b0492506020810190505b662386f26fc100008310611e4957662386f26fc100008381611e3f57611e3e612993565b5b0492506010810190505b6305f5e1008310611e72576305f5e1008381611e6857611e67612993565b5b0492506008810190505b6127108310611e97576127108381611e8d57611e8c612993565b5b0492506004810190505b60648310611eba5760648381611eb057611eaf612993565b5b0492506002810190505b600a8310611ec9576001810190505b80915050919050565b60007f01ffc9a7000000000000000000000000000000000000000000000000000000007bffffffffffffffffffffffffffffffffffffffffffffffffffffffff1916827bffffffffffffffffffffffffffffffffffffffffffffffffffffffff1916149050919050565b60008073ffffffffffffffffffffffffffffffffffffffff168373ffffffffffffffffffffffffffffffffffffffff1614158015611ff457508273ffffffffffffffffffffffffffffffffffffffff168473ffffffffffffffffffffffffffffffffffffffff161480611fb55750611fb48484610d33565b5b80611ff357508273ffffffffffffffffffffffffffffffffffffffff16611fdb83610f5b565b73ffffffffffffffffffffffffffffffffffffffff16145b5b90509392505050565b600081831061201557612010828461205c565b612020565b61201f838361205c565b5b905092915050565b60008151905060006a636f6e736f6c652e6c6f679050602083016000808483855afa5050505050565b612073819050919050565b600082600052816020526040600020905092915050565b61207b612d18565b565b6000604051905090565b600080fd5b600080fd5b60007fffffffff0000000000000000000000000000000000000000000000000000000082169050919050565b6120c681612091565b81146120d157600080fd5b50565b6000813590506120e3816120bd565b92915050565b6000602082840312156120ff576120fe612087565b5b600061210d848285016120d4565b91505092915050565b60008115159050919050565b61212b81612116565b82525050565b60006020820190506121466000830184612122565b92915050565b600081519050919050565b600082825260208201905092915050565b60005b8381101561218657808201518184015260208101905061216b565b60008484015250505050565b6000601f19601f8301169050919050565b60006121ae8261214c565b6121b88185612157565b93506121c8818560208601612168565b6121d181612192565b840191505092915050565b600060208201905081810360008301526121f681846121a3565b905092915050565b6000819050919050565b612211816121fe565b811461221c57600080fd5b50565b60008135905061222e81612208565b92915050565b60006020828403121561224a57612249612087565b5b60006122588482850161221f565b91505092915050565b600073ffffffffffffffffffffffffffffffffffffffff82169050919050565b600061228c82612261565b9050919050565b61229c81612281565b82525050565b60006020820190506122b76000830184612293565b92915050565b6122c681612281565b81146122d157600080fd5b50565b6000813590506122e3816122bd565b92915050565b60008060408385031215612300576122ff612087565b5b600061230e858286016122d4565b925050602061231f8582860161221f565b9150509250929050565b6000819050919050565b600061234e61234961234484612261565b612329565b612261565b9050919050565b600061236082612333565b9050919050565b600061237282612355565b9050919050565b61238281612367565b82525050565b600060208201905061239d6000830184612379565b92915050565b6123ac816121fe565b82525050565b60006020820190506123c760008301846123a3565b92915050565b6000806000606084860312156123e6576123e5612087565b5b60006123f4868287016122d4565b9350506020612405868287016122d4565b92505060406124168682870161221f565b9150509250925092565b6000806040838503121561243757612436612087565b5b60006124458582860161221f565b92505060206124568582860161221f565b9150509250929050565b60006040820190506124756000830185612293565b61248260208301846123a3565b9392505050565b60006020828403121561249f5761249e612087565b5b60006124ad848285016122d4565b91505092915050565b6124bf81612116565b81146124ca57600080fd5b50565b6000813590506124dc816124b6565b92915050565b600080604083850312156124f9576124f8612087565b5b6000612507858286016122d4565b9250506020612518858286016124cd565b9150509250929050565b600080fd5b7f4e487b7100000000000000000000000000000000000000000000000000000000600052604160045260246000fd5b61255f82612192565b810181811067ffffffffffffffff8211171561257e5761257d612527565b5b80604052505050565b600061259161207d565b905061259d8282612556565b919050565b600067ffffffffffffffff8211156125bd576125bc612527565b5b602082029050602081019050919050565b600080fd5b6000819050919050565b6125e6816125d3565b81146125f157600080fd5b50565b600081359050612603816125dd565b92915050565b600061261c612617846125a2565b612587565b9050808382526020820190506020840283018581111561263f5761263e6125ce565b5b835b81811015612668578061265488826125f4565b845260208401935050602081019050612641565b5050509392505050565b600082601f83011261268757612686612522565b5b8135612697848260208601612609565b91505092915050565b6000602082840312156126b6576126b5612087565b5b600082013567ffffffffffffffff8111156126d4576126d361208c565b5b6126e084828501612672565b91505092915050565b600080fd5b600067ffffffffffffffff82111561270957612708612527565b5b61271282612192565b9050602081019050919050565b82818337600083830152505050565b600061274161273c846126ee565b612587565b90508281526020810184848401111561275d5761275c6126e9565b5b61276884828561271f565b509392505050565b600082601f83011261278557612784612522565b5b813561279584826020860161272e565b91505092915050565b600080600080608085870312156127b8576127b7612087565b5b60006127c6878288016122d4565b94505060206127d7878288016122d4565b93505060406127e88782880161221f565b925050606085013567ffffffffffffffff8111156128095761280861208c565b5b61281587828801612770565b91505092959194509250565b6000806040838503121561283857612837612087565b5b6000612846858286016122d4565b9250506020612857858286016122d4565b9150509250929050565b61286a816125d3565b82525050565b60006020820190506128856000830184612861565b92915050565b7f4e487b7100000000000000000000000000000000000000000000000000000000600052602260045260246000fd5b600060028204905060018216806128d257607f821691505b6020821081036128e5576128e461288b565b5b50919050565b60006060820190506129006000830186612293565b61290d60208301856123a3565b61291a6040830184612293565b949350505050565b7f4e487b7100000000000000000000000000000000000000000000000000000000600052601160045260246000fd5b600061295c826121fe565b9150612967836121fe565b9250828202612975816121fe565b9150828204841483151761298c5761298b612922565b5b5092915050565b7f4e487b7100000000000000000000000000000000000000000000000000000000600052601260045260246000fd5b60006129cd826121fe565b91506129d8836121fe565b9250826129e8576129e7612993565b5b828204905092915050565b7f496e76616c69642063616c6c6572000000000000000000000000000000000000600082015250565b6000612a29600e83612157565b9150612a34826129f3565b602082019050919050565b60006020820190508181036000830152612a5881612a1c565b9050919050565b7f416c7265616479206d696e746564000000000000000000000000000000000000600082015250565b6000612a95600e83612157565b9150612aa082612a5f565b602082019050919050565b60006020820190508181036000830152612ac481612a88565b9050919050565b60008160601b9050919050565b6000612ae382612acb565b9050919050565b6000612af582612ad8565b9050919050565b612b0d612b0882612281565b612aea565b82525050565b6000612b1f8284612afc565b60148201915081905092915050565b6000612b39826121fe565b91507fffffffffffffffffffffffffffffffffffffffffffffffffffffffffffffffff8203612b6b57612b6a612922565b5b600182019050919050565b600081905092915050565b6000612b8c8261214c565b612b968185612b76565b9350612ba6818560208601612168565b80840191505092915050565b6000612bbe8285612b81565b9150612bca8284612b81565b91508190509392505050565b6000604082019050612beb6000830185612122565b8181036020830152612bfd81846121a3565b90509392505050565b600081519050919050565b600082825260208201905092915050565b6000612c2d82612c06565b612c378185612c11565b9350612c47818560208601612168565b612c5081612192565b840191505092915050565b6000608082019050612c706000830187612293565b612c7d6020830186612293565b612c8a60408301856123a3565b8181036060830152612c9c8184612c22565b905095945050505050565b600081519050612cb6816120bd565b92915050565b600060208284031215612cd257612cd1612087565b5b6000612ce084828501612ca7565b91505092915050565b7f4e487b7100000000000000000000000000000000000000000000000000000000600052603260045260246000fd5b7f4e487b7100000000000000000000000000000000000000000000000000000000600052605160045260246000fdfea2646970667358221220278945e92fd5430646ca4c1266f3c0de81d2a2f2148ec43adc70497ecde26ddc64736f6c63430008170033","linkReferences":{}},"methodIdentifiers":{"approve(address,uint256)":"095ea7b3","balanceOf(address)":"70a08231","coin()":"11df9995","getApproved(uint256)":"081812fc","getSalePrice()":"2fbc0bf1","isApprovedForAll(address,address)":"e985e9c5","mint(bytes32[])":"b77a147b","name()":"06fdde03","owner()":"8da5cb5b","ownerOf(uint256)":"6352211e","renounceOwnership()":"715018a6","root()":"ebf0c717","royaltyInfo(uint256,uint256)":"2a55205a","safeTransferFrom(address,address,uint256)":"42842e0e","safeTransferFrom(address,address,uint256,bytes)":"b88d4fde","salePrice()":"f51f96dd","setApprovalForAll(address,bool)":"a22cb465","setDiscount(uint256)":"dabd2719","setRoyaltyInfo()":"15763099","setSalePrice(uint256)":"1919fed7","supportsInterface(bytes4)":"01ffc9a7","symbol()":"95d89b41","tokenURI(uint256)":"c87b56dd","totalSupply()":"18160ddd","transferFrom(address,address,uint256)":"23b872dd","transferOwnership(address)":"f2fde38b"},"id":0}