{"abi":[{"type":"constructor","inputs":[{"name":"root_","type":"bytes32","internalType":"bytes32"},{"name":"token","type":"address","internalType":"address"}],"stateMutability":"nonpayable"},{"type":"function","name":"approve","inputs":[{"name":"to","type":"address","internalType":"address"},{"name":"tokenId","type":"uint256","internalType":"uint256"}],"outputs":[],"stateMutability":"nonpayable"},{"type":"function","name":"balanceOf","inputs":[{"name":"owner","type":"address","internalType":"address"}],"outputs":[{"name":"","type":"uint256","internalType":"uint256"}],"stateMutability":"view"},{"type":"function","name":"getApproved","inputs":[{"name":"tokenId","type":"uint256","internalType":"uint256"}],"outputs":[{"name":"","type":"address","internalType":"address"}],"stateMutability":"view"},{"type":"function","name":"getSalePrice","inputs":[],"outputs":[{"name":"salePrice_","type":"uint256","internalType":"uint256"}],"stateMutability":"view"},{"type":"function","name":"isApprovedForAll","inputs":[{"name":"owner","type":"address","internalType":"address"},{"name":"operator","type":"address","internalType":"address"}],"outputs":[{"name":"","type":"bool","internalType":"bool"}],"stateMutability":"view"},{"type":"function","name":"mint","inputs":[{"name":"proof","type":"bytes32[]","internalType":"bytes32[]"}],"outputs":[],"stateMutability":"nonpayable"},{"type":"function","name":"name","inputs":[],"outputs":[{"name":"","type":"string","internalType":"string"}],"stateMutability":"view"},{"type":"function","name":"owner","inputs":[],"outputs":[{"name":"","type":"address","internalType":"address"}],"stateMutability":"view"},{"type":"function","name":"ownerOf","inputs":[{"name":"tokenId","type":"uint256","internalType":"uint256"}],"outputs":[{"name":"","type":"address","internalType":"address"}],"stateMutability":"view"},{"type":"function","name":"renounceOwnership","inputs":[],"outputs":[],"stateMutability":"nonpayable"},{"type":"function","name":"royaltyInfo","inputs":[{"name":"tokenId","type":"uint256","internalType":"uint256"},{"name":"salePrice","type":"uint256","internalType":"uint256"}],"outputs":[{"name":"","type":"address","internalType":"address"},{"name":"","type":"uint256","internalType":"uint256"}],"stateMutability":"view"},{"type":"function","name":"safeTransferFrom","inputs":[{"name":"from","type":"address","internalType":"address"},{"name":"to","type":"address","internalType":"address"},{"name":"tokenId","type":"uint256","internalType":"uint256"}],"outputs":[],"stateMutability":"nonpayable"},{"type":"function","name":"safeTransferFrom","inputs":[{"name":"from","type":"address","internalType":"address"},{"name":"to","type":"address","internalType":"address"},{"name":"tokenId","type":"uint256","internalType":"uint256"},{"name":"data","type":"bytes","internalType":"bytes"}],"outputs":[],"stateMutability":"nonpayable"},{"type":"function","name":"salePrice","inputs":[],"outputs":[{"name":"","type":"uint256","internalType":"uint256"}],"stateMutability":"view"},{"type":"function","name":"setApprovalForAll","inputs":[{"name":"operator","type":"address","internalType":"address"},{"name":"approved","type":"bool","internalType":"bool"}],"outputs":[],"stateMutability":"nonpayable"},{"type":"function","name":"setDiscount","inputs":[{"name":"discount_","type":"uint256","internalType":"uint256"}],"outputs":[],"stateMutability":"nonpayable"},{"type":"function","name":"setRoyaltyInfo","inputs":[],"outputs":[],"stateMutability":"view"},{"type":"function","name":"setSalePrice","inputs":[{"name":"salePrice_","type":"uint256","internalType":"uint256"}],"outputs":[],"stateMutability":"nonpayable"},{"type":"function","name":"supportsInterface","inputs":[{"name":"interfaceId","type":"bytes4","internalType":"bytes4"}],"outputs":[{"name":"","type":"bool","internalType":"bool"}],"stateMutability":"view"},{"type":"function","name":"symbol","inputs":[],"outputs":[{"name":"","type":"string","internalType":"string"}],"stateMutability":"view"},{"type":"function","name":"tokenURI","inputs":[{"name":"tokenId","type":"uint256","internalType":"uint256"}],"outputs":[{"name":"","type":"string","internalType":"string"}],"stateMutability":"view"},{"type":"function","name":"totalSupply","inputs":[],"outputs":[{"name":"","type":"uint256","internalType":"uint256"}],"stateMutability":"view"},{"type":"function","name":"transferFrom","inputs":[{"name":"from","type":"address","internalType":"address"},{"name":"to","type":"address","internalType":"address"},{"name":"tokenId","type":"uint256","internalType":"uint256"}],"outputs":[],"stateMutability":"nonpayable"},{"type":"function","name":"transferOwnership","inputs":[{"name":"newOwner","type":"address","internalType":"address"}],"outputs":[],"stateMutability":"nonpayable"},{"type":"event","name":"Approval","inputs":[{"name":"owner","type":"address","indexed":true,"internalType":"address"},{"name":"approved","type":"address","indexed":true,"internalType":"address"},{"name":"tokenId","type":"uint256","indexed":true,"internalType":"uint256"}],"anonymous":false},{"type":"event","name":"ApprovalForAll","inputs":[{"name":"owner","type":"address","indexed":true,"internalType":"address"},{"name":"operator","type":"address","indexed":true,"internalType":"address"},{"name":"approved","type":"bool","indexed":false,"internalType":"bool"}],"anonymous":false},{"type":"event","name":"OwnershipTransferred","inputs":[{"name":"previousOwner","type":"address","indexed":true,"internalType":"address"},{"name":"newOwner","type":"address","indexed":true,"internalType":"address"}],"anonymous":false},{"type":"event","name":"Transfer","inputs":[{"name":"from","type":"address","indexed":true,"internalType":"address"},{"name":"to","type":"address","indexed":true,"internalType":"address"},{"name":"tokenId","type":"uint256","indexed":true,"internalType":"uint256"}],"anonymous":false},{"type":"error","name":"ERC2981InvalidDefaultRoyalty","inputs":[{"name":"numerator","type":"uint256","internalType":"uint256"},{"name":"denominator","type":"uint256","internalType":"uint256"}]},{"type":"error","name":"ERC2981InvalidDefaultRoyaltyReceiver","inputs":[{"name":"receiver","type":"address","internalType":"address"}]},{"type":"error","name":"ERC2981InvalidTokenRoyalty","inputs":[{"name":"tokenId","type":"uint256","internalType":"uint256"},{"name":"numerator","type":"uint256","internalType":"uint256"},{"name":"denominator","type":"uint256","internalType":"uint256"}]},{"type":"error","name":"ERC2981InvalidTokenRoyaltyReceiver","inputs":[{"name":"tokenId","type":"uint256","internalType":"uint256"},{"name":"receiver","type":"address","internalType":"address"}]},{"type":"error","name":"ERC721IncorrectOwner","inputs":[{"name":"sender","type":"address","internalType":"address"},{"name":"tokenId","type":"uint256","internalType":"uint256"},{"name":"owner","type":"address","internalType":"address"}]},{"type":"error","name":"ERC721InsufficientApproval","inputs":[{"name":"operator","type":"address","internalType":"address"},{"name":"tokenId","type":"uint256","internalType":"uint256"}]},{"type":"error","name":"ERC721InvalidApprover","inputs":[{"name":"approver","type":"address","internalType":"address"}]},{"type":"error","name":"ERC721InvalidOperator","inputs":[{"name":"operator","type":"address","internalType":"address"}]},{"type":"error","name":"ERC721InvalidOwner","inputs":[{"name":"owner","type":"address","internalType":"address"}]},{"type":"error","name":"ERC721InvalidReceiver","inputs":[{"name":"receiver","type":"address","internalType":"address"}]},{"type":"error","name":"ERC721InvalidSender","inputs":[{"name":"sender","type":"address","internalType":"address"}]},{"type":"error","name":"ERC721NonexistentToken","inputs":[{"name":"tokenId","type":"uint256","internalType":"uint256"}]},{"type":"error","name":"OwnableInvalidOwner","inputs":[{"name":"owner","type":"address","internalType":"address"}]},{"type":"error","name":"OwnableUnauthorizedAccount","inputs":[{"name":"account","type":"address","internalType":"address"}]}],"bytecode":{"object":"0x608060405262989680600b556064600c556000600d553480156200002257600080fd5b50604051620034f2380380620034f28339818101604052810190620000489190620004ea565b336040518060400160405280601281526020017f4e4654207769746820526f79616c7469657300000000000000000000000000008152506040518060400160405280600381526020017f4e465400000000000000000000000000000000000000000000000000000000008152508160009081620000c69190620007ab565b508060019081620000d89190620007ab565b505050600073ffffffffffffffffffffffffffffffffffffffff168173ffffffffffffffffffffffffffffffffffffffff1603620001505760006040517f1e4fbdf7000000000000000000000000000000000000000000000000000000008152600401620001479190620008a3565b60405180910390fd5b6200016181620001c560201b60201c565b5080600a60006101000a81548173ffffffffffffffffffffffffffffffffffffffff021916908373ffffffffffffffffffffffffffffffffffffffff16021790555081600981905550620001bd3360fa6200028b60201b60201c565b50506200094f565b6000600860009054906101000a900473ffffffffffffffffffffffffffffffffffffffff16905081600860006101000a81548173ffffffffffffffffffffffffffffffffffffffff021916908373ffffffffffffffffffffffffffffffffffffffff1602179055508173ffffffffffffffffffffffffffffffffffffffff168173ffffffffffffffffffffffffffffffffffffffff167f8be0079c531659141344cd1fd0a4f28419497f9722a3daafe3b4186f6b6457e060405160405180910390a35050565b60006200029d6200043b60201b60201c565b6bffffffffffffffffffffffff16905080826bffffffffffffffffffffffff161115620003055781816040517f6f483d09000000000000000000000000000000000000000000000000000000008152600401620002fc92919062000922565b60405180910390fd5b600073ffffffffffffffffffffffffffffffffffffffff168373ffffffffffffffffffffffffffffffffffffffff16036200037a5760006040517fb6d9900a000000000000000000000000000000000000000000000000000000008152600401620003719190620008a3565b60405180910390fd5b60405180604001604052808473ffffffffffffffffffffffffffffffffffffffff168152602001836bffffffffffffffffffffffff16815250600660008201518160000160006101000a81548173ffffffffffffffffffffffffffffffffffffffff021916908373ffffffffffffffffffffffffffffffffffffffff16021790555060208201518160000160146101000a8154816bffffffffffffffffffffffff02191690836bffffffffffffffffffffffff160217905550905050505050565b6000612710905090565b600080fd5b6000819050919050565b6200045f816200044a565b81146200046b57600080fd5b50565b6000815190506200047f8162000454565b92915050565b600073ffffffffffffffffffffffffffffffffffffffff82169050919050565b6000620004b28262000485565b9050919050565b620004c481620004a5565b8114620004d057600080fd5b50565b600081519050620004e481620004b9565b92915050565b6000806040838503121562000504576200050362000445565b5b600062000514858286016200046e565b92505060206200052785828601620004d3565b9150509250929050565b600081519050919050565b7f4e487b7100000000000000000000000000000000000000000000000000000000600052604160045260246000fd5b7f4e487b7100000000000000000000000000000000000000000000000000000000600052602260045260246000fd5b60006002820490506001821680620005b357607f821691505b602082108103620005c957620005c86200056b565b5b50919050565b60008190508160005260206000209050919050565b60006020601f8301049050919050565b600082821b905092915050565b600060088302620006337fffffffffffffffffffffffffffffffffffffffffffffffffffffffffffffffff82620005f4565b6200063f8683620005f4565b95508019841693508086168417925050509392505050565b6000819050919050565b6000819050919050565b60006200068c62000686620006808462000657565b62000661565b62000657565b9050919050565b6000819050919050565b620006a8836200066b565b620006c0620006b78262000693565b84845462000601565b825550505050565b600090565b620006d7620006c8565b620006e48184846200069d565b505050565b5b818110156200070c5762000700600082620006cd565b600181019050620006ea565b5050565b601f8211156200075b576200072581620005cf565b6200073084620005e4565b8101602085101562000740578190505b620007586200074f85620005e4565b830182620006e9565b50505b505050565b600082821c905092915050565b6000620007806000198460080262000760565b1980831691505092915050565b60006200079b83836200076d565b9150826002028217905092915050565b620007b68262000531565b67ffffffffffffffff811115620007d257620007d16200053c565b5b620007de82546200059a565b620007eb82828562000710565b600060209050601f8311600181146200082357600084156200080e578287015190505b6200081a85826200078d565b8655506200088a565b601f1984166200083386620005cf565b60005b828110156200085d5784890151825560018201915060208501945060208101905062000836565b868310156200087d578489015162000879601f8916826200076d565b8355505b6001600288020188555050505b505050505050565b6200089d81620004a5565b82525050565b6000602082019050620008ba600083018462000892565b92915050565b60006bffffffffffffffffffffffff82169050919050565b6000620008f9620008f3620008ed84620008c0565b62000661565b62000657565b9050919050565b6200090b81620008d8565b82525050565b6200091c8162000657565b82525050565b600060408201905062000939600083018562000900565b62000948602083018462000911565b9392505050565b612b93806200095f6000396000f3fe608060405234801561001057600080fd5b50600436106101585760003560e01c806370a08231116100c3578063b88d4fde1161007c578063b88d4fde146103a0578063c87b56dd146103bc578063dabd2719146103ec578063e985e9c514610408578063f2fde38b14610438578063f51f96dd1461045457610158565b806370a08231146102f2578063715018a6146103225780638da5cb5b1461032c57806395d89b411461034a578063a22cb46514610368578063b77a147b1461038457610158565b80631919fed7116101155780631919fed71461021f57806323b872dd1461023b5780632a55205a146102575780632fbc0bf11461028857806342842e0e146102a65780636352211e146102c257610158565b806301ffc9a71461015d57806306fdde031461018d578063081812fc146101ab578063095ea7b3146101db57806315763099146101f757806318160ddd14610201575b600080fd5b61017760048036038101906101729190611f54565b610472565b6040516101849190611f9c565b60405180910390f35b6101956104ec565b6040516101a29190612047565b60405180910390f35b6101c560048036038101906101c0919061209f565b61057e565b6040516101d2919061210d565b60405180910390f35b6101f560048036038101906101f09190612154565b61059a565b005b6101ff6105b0565b005b6102096105e3565b60405161021691906121a3565b60405180910390f35b6102396004803603810190610234919061209f565b6105e9565b005b610255600480360381019061025091906121be565b6105fb565b005b610271600480360381019061026c9190612211565b6106fd565b60405161027f929190612251565b60405180910390f35b61029061082d565b60405161029d91906121a3565b60405180910390f35b6102c060048036038101906102bb91906121be565b610837565b005b6102dc60048036038101906102d7919061209f565b610857565b6040516102e9919061210d565b60405180910390f35b61030c6004803603810190610307919061227a565b610869565b60405161031991906121a3565b60405180910390f35b61032a610923565b005b610334610937565b604051610341919061210d565b60405180910390f35b610352610961565b60405161035f9190612047565b60405180910390f35b610382600480360381019061037d91906122d3565b6109f3565b005b61039e60048036038101906103999190612491565b610a09565b005b6103ba60048036038101906103b5919061258f565b610c91565b005b6103d660048036038101906103d1919061209f565b610cb6565b6040516103e39190612047565b60405180910390f35b6104066004803603810190610401919061209f565b610d1f565b005b610422600480360381019061041d9190612612565b610d31565b60405161042f9190611f9c565b60405180910390f35b610452600480360381019061044d919061227a565b610dc5565b005b61045c610e4b565b60405161046991906121a3565b60405180910390f35b60007f2a55205a000000000000000000000000000000000000000000000000000000007bffffffffffffffffffffffffffffffffffffffffffffffffffffffff1916827bffffffffffffffffffffffffffffffffffffffffffffffffffffffff191614806104e557506104e482610e51565b5b9050919050565b6060600080546104fb90612681565b80601f016020809104026020016040519081016040528092919081815260200182805461052790612681565b80156105745780601f1061054957610100808354040283529160200191610574565b820191906000526020600020905b81548152906001019060200180831161055757829003601f168201915b5050505050905090565b600061058982610ecb565b5061059382610f53565b9050919050565b6105ac82826105a7610f90565b610f98565b5050565b6105b8610faa565b60005b600d548110156105e0576105d181600b546106fd565b505080806001019150506105bb565b50565b600d5481565b6105f1610faa565b80600b8190555050565b600073ffffffffffffffffffffffffffffffffffffffff168273ffffffffffffffffffffffffffffffffffffffff160361066d5760006040517f64a0ae92000000000000000000000000000000000000000000000000000000008152600401610664919061210d565b60405180910390fd5b6000610681838361067c610f90565b611031565b90508373ffffffffffffffffffffffffffffffffffffffff168173ffffffffffffffffffffffffffffffffffffffff16146106f7578382826040517f64283d7b0000000000000000000000000000000000000000000000000000000081526004016106ee939291906126b2565b60405180910390fd5b50505050565b600080600060076000868152602001908152602001600020905060008160000160009054906101000a900473ffffffffffffffffffffffffffffffffffffffff16905060008260000160149054906101000a90046bffffffffffffffffffffffff169050600073ffffffffffffffffffffffffffffffffffffffff168273ffffffffffffffffffffffffffffffffffffffff16036107de57600660000160009054906101000a900473ffffffffffffffffffffffffffffffffffffffff169150600660000160149054906101000a90046bffffffffffffffffffffffff1690505b60006107e861124b565b6bffffffffffffffffffffffff16826bffffffffffffffffffffffff16886108109190612718565b61081a9190612789565b9050828195509550505050509250929050565b6000600b54905090565b61085283838360405180602001604052806000815250610c91565b505050565b600061086282610ecb565b9050919050565b60008073ffffffffffffffffffffffffffffffffffffffff168273ffffffffffffffffffffffffffffffffffffffff16036108dc5760006040517f89c62b640000000000000000000000000000000000000000000000000000000081526004016108d3919061210d565b60405180910390fd5b600360008373ffffffffffffffffffffffffffffffffffffffff1673ffffffffffffffffffffffffffffffffffffffff168152602001908152602001600020549050919050565b61092b610faa565b6109356000611255565b565b6000600860009054906101000a900473ffffffffffffffffffffffffffffffffffffffff16905090565b60606001805461097090612681565b80601f016020809104026020016040519081016040528092919081815260200182805461099c90612681565b80156109e95780601f106109be576101008083540402835291602001916109e9565b820191906000526020600020905b8154815290600101906020018083116109cc57829003601f168201915b5050505050905090565b610a056109fe610f90565b838361131b565b5050565b62989680600b81905550600073ffffffffffffffffffffffffffffffffffffffff163373ffffffffffffffffffffffffffffffffffffffff1603610a82576040517f08c379a0000000000000000000000000000000000000000000000000000000008152600401610a7990612806565b60405180910390fd5b600e6000600d54815260200190815260200160002060009054906101000a900460ff1615610ae5576040517f08c379a0000000000000000000000000000000000000000000000000000000008152600401610adc90612872565b60405180910390fd5b6000610b1a8260095433604051602001610aff91906128da565b6040516020818303038152906040528051906020012061148a565b90508015610b4c576000612710600b54600c54610b379190612718565b610b419190612789565b905080600b81905550505b600b54600a60009054906101000a900473ffffffffffffffffffffffffffffffffffffffff1673ffffffffffffffffffffffffffffffffffffffff166370a08231336040518263ffffffff1660e01b8152600401610baa919061210d565b602060405180830381865afa158015610bc7573d6000803e3d6000fd5b505050506040513d601f19601f82011682018060405250810190610beb919061290a565b1015610c2c576040517f08c379a0000000000000000000000000000000000000000000000000000000008152600401610c2390612983565b60405180910390fd5b6014600d5410610c3b57600080fd5b6001600e6000600d54815260200190815260200160002060006101000a81548160ff021916908315150217905550610c7533600d546114a1565b600d6000815480929190610c88906129a3565b91905055505050565b610c9c8484846105fb565b610cb0610ca7610f90565b8585858561159a565b50505050565b6060610cc182610ecb565b506000610ccc61174b565b90506000815111610cec5760405180602001604052806000815250610d17565b80610cf684611762565b604051602001610d07929190612a27565b6040516020818303038152906040525b915050919050565b610d27610faa565b80600c8190555050565b6000600560008473ffffffffffffffffffffffffffffffffffffffff1673ffffffffffffffffffffffffffffffffffffffff16815260200190815260200160002060008373ffffffffffffffffffffffffffffffffffffffff1673ffffffffffffffffffffffffffffffffffffffff16815260200190815260200160002060009054906101000a900460ff16905092915050565b610dcd610faa565b600073ffffffffffffffffffffffffffffffffffffffff168173ffffffffffffffffffffffffffffffffffffffff1603610e3f5760006040517f1e4fbdf7000000000000000000000000000000000000000000000000000000008152600401610e36919061210d565b60405180910390fd5b610e4881611255565b50565b600b5481565b60007f2a55205a000000000000000000000000000000000000000000000000000000007bffffffffffffffffffffffffffffffffffffffffffffffffffffffff1916827bffffffffffffffffffffffffffffffffffffffffffffffffffffffff19161480610ec45750610ec382611830565b5b9050919050565b600080610ed783611912565b9050600073ffffffffffffffffffffffffffffffffffffffff168173ffffffffffffffffffffffffffffffffffffffff1603610f4a57826040517f7e273289000000000000000000000000000000000000000000000000000000008152600401610f4191906121a3565b60405180910390fd5b80915050919050565b60006004600083815260200190815260200160002060009054906101000a900473ffffffffffffffffffffffffffffffffffffffff169050919050565b600033905090565b610fa5838383600161194f565b505050565b610fb2610f90565b73ffffffffffffffffffffffffffffffffffffffff16610fd0610937565b73ffffffffffffffffffffffffffffffffffffffff161461102f57610ff3610f90565b6040517f118cdaa7000000000000000000000000000000000000000000000000000000008152600401611026919061210d565b60405180910390fd5b565b60008061103d84611912565b9050600073ffffffffffffffffffffffffffffffffffffffff168373ffffffffffffffffffffffffffffffffffffffff161461107f5761107e818486611b14565b5b600073ffffffffffffffffffffffffffffffffffffffff168173ffffffffffffffffffffffffffffffffffffffff1614611110576110c160008560008061194f565b6001600360008373ffffffffffffffffffffffffffffffffffffffff1673ffffffffffffffffffffffffffffffffffffffff168152602001908152602001600020600082825403925050819055505b600073ffffffffffffffffffffffffffffffffffffffff168573ffffffffffffffffffffffffffffffffffffffff1614611193576001600360008773ffffffffffffffffffffffffffffffffffffffff1673ffffffffffffffffffffffffffffffffffffffff168152602001908152602001600020600082825401925050819055505b846002600086815260200190815260200160002060006101000a81548173ffffffffffffffffffffffffffffffffffffffff021916908373ffffffffffffffffffffffffffffffffffffffff160217905550838573ffffffffffffffffffffffffffffffffffffffff168273ffffffffffffffffffffffffffffffffffffffff167fddf252ad1be2c89b69c2b068fc378daa952ba7f163c4a11628f55a4df523b3ef60405160405180910390a4809150509392505050565b6000612710905090565b6000600860009054906101000a900473ffffffffffffffffffffffffffffffffffffffff16905081600860006101000a81548173ffffffffffffffffffffffffffffffffffffffff021916908373ffffffffffffffffffffffffffffffffffffffff1602179055508173ffffffffffffffffffffffffffffffffffffffff168173ffffffffffffffffffffffffffffffffffffffff167f8be0079c531659141344cd1fd0a4f28419497f9722a3daafe3b4186f6b6457e060405160405180910390a35050565b600073ffffffffffffffffffffffffffffffffffffffff168273ffffffffffffffffffffffffffffffffffffffff160361138c57816040517f5b08ba18000000000000000000000000000000000000000000000000000000008152600401611383919061210d565b60405180910390fd5b80600560008573ffffffffffffffffffffffffffffffffffffffff1673ffffffffffffffffffffffffffffffffffffffff16815260200190815260200160002060008473ffffffffffffffffffffffffffffffffffffffff1673ffffffffffffffffffffffffffffffffffffffff16815260200190815260200160002060006101000a81548160ff0219169083151502179055508173ffffffffffffffffffffffffffffffffffffffff168373ffffffffffffffffffffffffffffffffffffffff167f17307eab39ab6107e8899845ad3d59bd9653f200f220920489ca2b5937696c318360405161147d9190611f9c565b60405180910390a3505050565b6000826114978584611bd8565b1490509392505050565b600073ffffffffffffffffffffffffffffffffffffffff168273ffffffffffffffffffffffffffffffffffffffff16036115135760006040517f64a0ae9200000000000000000000000000000000000000000000000000000000815260040161150a919061210d565b60405180910390fd5b600061152183836000611031565b9050600073ffffffffffffffffffffffffffffffffffffffff168173ffffffffffffffffffffffffffffffffffffffff16146115955760006040517f73c6ac6e00000000000000000000000000000000000000000000000000000000815260040161158c919061210d565b60405180910390fd5b505050565b60008373ffffffffffffffffffffffffffffffffffffffff163b1115611744578273ffffffffffffffffffffffffffffffffffffffff1663150b7a02868685856040518563ffffffff1660e01b81526004016115f99493929190612aa0565b6020604051808303816000875af192505050801561163557506040513d601f19601f820116820180604052508101906116329190612b01565b60015b6116b9573d8060008114611665576040519150601f19603f3d011682016040523d82523d6000602084013e61166a565b606091505b5060008151036116b157836040517f64a0ae920000000000000000000000000000000000000000000000000000000081526004016116a8919061210d565b60405180910390fd5b805181602001fd5b63150b7a0260e01b7bffffffffffffffffffffffffffffffffffffffffffffffffffffffff1916817bffffffffffffffffffffffffffffffffffffffffffffffffffffffff19161461174257836040517f64a0ae92000000000000000000000000000000000000000000000000000000008152600401611739919061210d565b60405180910390fd5b505b5050505050565b606060405180602001604052806000815250905090565b60606000600161177184611c28565b01905060008167ffffffffffffffff8111156117905761178f612318565b5b6040519080825280601f01601f1916602001820160405280156117c25781602001600182028036833780820191505090505b509050600082602001820190505b600115611825578080600190039150507f3031323334353637383961626364656600000000000000000000000000000000600a86061a8153600a85816118195761181861275a565b5b049450600085036117d0575b819350505050919050565b60007f80ac58cd000000000000000000000000000000000000000000000000000000007bffffffffffffffffffffffffffffffffffffffffffffffffffffffff1916827bffffffffffffffffffffffffffffffffffffffffffffffffffffffff191614806118fb57507f5b5e139f000000000000000000000000000000000000000000000000000000007bffffffffffffffffffffffffffffffffffffffffffffffffffffffff1916827bffffffffffffffffffffffffffffffffffffffffffffffffffffffff1916145b8061190b575061190a82611d7b565b5b9050919050565b60006002600083815260200190815260200160002060009054906101000a900473ffffffffffffffffffffffffffffffffffffffff169050919050565b80806119885750600073ffffffffffffffffffffffffffffffffffffffff168273ffffffffffffffffffffffffffffffffffffffff1614155b15611abc57600061199884610ecb565b9050600073ffffffffffffffffffffffffffffffffffffffff168373ffffffffffffffffffffffffffffffffffffffff1614158015611a0357508273ffffffffffffffffffffffffffffffffffffffff168173ffffffffffffffffffffffffffffffffffffffff1614155b8015611a165750611a148184610d31565b155b15611a5857826040517fa9fbf51f000000000000000000000000000000000000000000000000000000008152600401611a4f919061210d565b60405180910390fd5b8115611aba57838573ffffffffffffffffffffffffffffffffffffffff168273ffffffffffffffffffffffffffffffffffffffff167f8c5be1e5ebec7d5bd14f71427d1e84f3dd0314c0f7b2291e5b200ac8c7c3b92560405160405180910390a45b505b836004600085815260200190815260200160002060006101000a81548173ffffffffffffffffffffffffffffffffffffffff021916908373ffffffffffffffffffffffffffffffffffffffff16021790555050505050565b611b1f838383611de5565b611bd357600073ffffffffffffffffffffffffffffffffffffffff168373ffffffffffffffffffffffffffffffffffffffff1603611b9457806040517f7e273289000000000000000000000000000000000000000000000000000000008152600401611b8b91906121a3565b60405180910390fd5b81816040517f177e802f000000000000000000000000000000000000000000000000000000008152600401611bca929190612251565b60405180910390fd5b505050565b60008082905060005b8451811015611c1d57611c0e82868381518110611c0157611c00612b2e565b5b6020026020010151611ea6565b91508080600101915050611be1565b508091505092915050565b600080600090507a184f03e93ff9f4daa797ed6e38ed64bf6a1f0100000000000000008310611c86577a184f03e93ff9f4daa797ed6e38ed64bf6a1f0100000000000000008381611c7c57611c7b61275a565b5b0492506040810190505b6d04ee2d6d415b85acef81000000008310611cc3576d04ee2d6d415b85acef81000000008381611cb957611cb861275a565b5b0492506020810190505b662386f26fc100008310611cf257662386f26fc100008381611ce857611ce761275a565b5b0492506010810190505b6305f5e1008310611d1b576305f5e1008381611d1157611d1061275a565b5b0492506008810190505b6127108310611d40576127108381611d3657611d3561275a565b5b0492506004810190505b60648310611d635760648381611d5957611d5861275a565b5b0492506002810190505b600a8310611d72576001810190505b80915050919050565b60007f01ffc9a7000000000000000000000000000000000000000000000000000000007bffffffffffffffffffffffffffffffffffffffffffffffffffffffff1916827bffffffffffffffffffffffffffffffffffffffffffffffffffffffff1916149050919050565b60008073ffffffffffffffffffffffffffffffffffffffff168373ffffffffffffffffffffffffffffffffffffffff1614158015611e9d57508273ffffffffffffffffffffffffffffffffffffffff168473ffffffffffffffffffffffffffffffffffffffff161480611e5e5750611e5d8484610d31565b5b80611e9c57508273ffffffffffffffffffffffffffffffffffffffff16611e8483610f53565b73ffffffffffffffffffffffffffffffffffffffff16145b5b90509392505050565b6000818310611ebe57611eb98284611ed1565b611ec9565b611ec88383611ed1565b5b905092915050565b600082600052816020526040600020905092915050565b6000604051905090565b600080fd5b600080fd5b60007fffffffff0000000000000000000000000000000000000000000000000000000082169050919050565b611f3181611efc565b8114611f3c57600080fd5b50565b600081359050611f4e81611f28565b92915050565b600060208284031215611f6a57611f69611ef2565b5b6000611f7884828501611f3f565b91505092915050565b60008115159050919050565b611f9681611f81565b82525050565b6000602082019050611fb16000830184611f8d565b92915050565b600081519050919050565b600082825260208201905092915050565b60005b83811015611ff1578082015181840152602081019050611fd6565b60008484015250505050565b6000601f19601f8301169050919050565b600061201982611fb7565b6120238185611fc2565b9350612033818560208601611fd3565b61203c81611ffd565b840191505092915050565b60006020820190508181036000830152612061818461200e565b905092915050565b6000819050919050565b61207c81612069565b811461208757600080fd5b50565b60008135905061209981612073565b92915050565b6000602082840312156120b5576120b4611ef2565b5b60006120c38482850161208a565b91505092915050565b600073ffffffffffffffffffffffffffffffffffffffff82169050919050565b60006120f7826120cc565b9050919050565b612107816120ec565b82525050565b600060208201905061212260008301846120fe565b92915050565b612131816120ec565b811461213c57600080fd5b50565b60008135905061214e81612128565b92915050565b6000806040838503121561216b5761216a611ef2565b5b60006121798582860161213f565b925050602061218a8582860161208a565b9150509250929050565b61219d81612069565b82525050565b60006020820190506121b86000830184612194565b92915050565b6000806000606084860312156121d7576121d6611ef2565b5b60006121e58682870161213f565b93505060206121f68682870161213f565b92505060406122078682870161208a565b9150509250925092565b6000806040838503121561222857612227611ef2565b5b60006122368582860161208a565b92505060206122478582860161208a565b9150509250929050565b600060408201905061226660008301856120fe565b6122736020830184612194565b9392505050565b6000602082840312156122905761228f611ef2565b5b600061229e8482850161213f565b91505092915050565b6122b081611f81565b81146122bb57600080fd5b50565b6000813590506122cd816122a7565b92915050565b600080604083850312156122ea576122e9611ef2565b5b60006122f88582860161213f565b9250506020612309858286016122be565b9150509250929050565b600080fd5b7f4e487b7100000000000000000000000000000000000000000000000000000000600052604160045260246000fd5b61235082611ffd565b810181811067ffffffffffffffff8211171561236f5761236e612318565b5b80604052505050565b6000612382611ee8565b905061238e8282612347565b919050565b600067ffffffffffffffff8211156123ae576123ad612318565b5b602082029050602081019050919050565b600080fd5b6000819050919050565b6123d7816123c4565b81146123e257600080fd5b50565b6000813590506123f4816123ce565b92915050565b600061240d61240884612393565b612378565b905080838252602082019050602084028301858111156124305761242f6123bf565b5b835b81811015612459578061244588826123e5565b845260208401935050602081019050612432565b5050509392505050565b600082601f83011261247857612477612313565b5b81356124888482602086016123fa565b91505092915050565b6000602082840312156124a7576124a6611ef2565b5b600082013567ffffffffffffffff8111156124c5576124c4611ef7565b5b6124d184828501612463565b91505092915050565b600080fd5b600067ffffffffffffffff8211156124fa576124f9612318565b5b61250382611ffd565b9050602081019050919050565b82818337600083830152505050565b600061253261252d846124df565b612378565b90508281526020810184848401111561254e5761254d6124da565b5b612559848285612510565b509392505050565b600082601f83011261257657612575612313565b5b813561258684826020860161251f565b91505092915050565b600080600080608085870312156125a9576125a8611ef2565b5b60006125b78782880161213f565b94505060206125c88782880161213f565b93505060406125d98782880161208a565b925050606085013567ffffffffffffffff8111156125fa576125f9611ef7565b5b61260687828801612561565b91505092959194509250565b6000806040838503121561262957612628611ef2565b5b60006126378582860161213f565b92505060206126488582860161213f565b9150509250929050565b7f4e487b7100000000000000000000000000000000000000000000000000000000600052602260045260246000fd5b6000600282049050600182168061269957607f821691505b6020821081036126ac576126ab612652565b5b50919050565b60006060820190506126c760008301866120fe565b6126d46020830185612194565b6126e160408301846120fe565b949350505050565b7f4e487b7100000000000000000000000000000000000000000000000000000000600052601160045260246000fd5b600061272382612069565b915061272e83612069565b925082820261273c81612069565b91508282048414831517612753576127526126e9565b5b5092915050565b7f4e487b7100000000000000000000000000000000000000000000000000000000600052601260045260246000fd5b600061279482612069565b915061279f83612069565b9250826127af576127ae61275a565b5b828204905092915050565b7f496e76616c69642063616c6c6572000000000000000000000000000000000000600082015250565b60006127f0600e83611fc2565b91506127fb826127ba565b602082019050919050565b6000602082019050818103600083015261281f816127e3565b9050919050565b7f416c7265616479206d696e746564000000000000000000000000000000000000600082015250565b600061285c600e83611fc2565b915061286782612826565b602082019050919050565b6000602082019050818103600083015261288b8161284f565b9050919050565b60008160601b9050919050565b60006128aa82612892565b9050919050565b60006128bc8261289f565b9050919050565b6128d46128cf826120ec565b6128b1565b82525050565b60006128e682846128c3565b60148201915081905092915050565b60008151905061290481612073565b92915050565b6000602082840312156129205761291f611ef2565b5b600061292e848285016128f5565b91505092915050565b7f496e73756666696369656e742042616c616e6365000000000000000000000000600082015250565b600061296d601483611fc2565b915061297882612937565b602082019050919050565b6000602082019050818103600083015261299c81612960565b9050919050565b60006129ae82612069565b91507fffffffffffffffffffffffffffffffffffffffffffffffffffffffffffffffff82036129e0576129df6126e9565b5b600182019050919050565b600081905092915050565b6000612a0182611fb7565b612a0b81856129eb565b9350612a1b818560208601611fd3565b80840191505092915050565b6000612a3382856129f6565b9150612a3f82846129f6565b91508190509392505050565b600081519050919050565b600082825260208201905092915050565b6000612a7282612a4b565b612a7c8185612a56565b9350612a8c818560208601611fd3565b612a9581611ffd565b840191505092915050565b6000608082019050612ab560008301876120fe565b612ac260208301866120fe565b612acf6040830185612194565b8181036060830152612ae18184612a67565b905095945050505050565b600081519050612afb81611f28565b92915050565b600060208284031215612b1757612b16611ef2565b5b6000612b2584828501612aec565b91505092915050565b7f4e487b7100000000000000000000000000000000000000000000000000000000600052603260045260246000fdfea264697066735822122036e42fa559247cc6ca5147a6b143ebe4aef1a7a4377f22159d34db1f5e00854b64736f6c63430008170033","linkReferences":{}},"methodIdentifiers":{"approve(address,uint256)":"095ea7b3","balanceOf(address)":"70a08231","getApproved(uint256)":"081812fc","getSalePrice()":"2fbc0bf1","isApprovedForAll(address,address)":"e985e9c5","mint(bytes32[])":"b77a147b","name()":"06fdde03","owner()":"8da5cb5b","ownerOf(uint256)":"6352211e","renounceOwnership()":"715018a6","royaltyInfo(uint256,uint256)":"2a55205a","safeTransferFrom(address,address,uint256)":"42842e0e","safeTransferFrom(address,address,uint256,bytes)":"b88d4fde","salePrice()":"f51f96dd","setApprovalForAll(address,bool)":"a22cb465","setDiscount(uint256)":"dabd2719","setRoyaltyInfo()":"15763099","setSalePrice(uint256)":"1919fed7","supportsInterface(bytes4)":"01ffc9a7","symbol()":"95d89b41","tokenURI(uint256)":"c87b56dd","totalSupply()":"18160ddd","transferFrom(address,address,uint256)":"23b872dd","transferOwnership(address)":"f2fde38b"},"id":8}