{"abi":[{"type":"constructor","inputs":[{"name":"token_","type":"address","internalType":"address"}],"stateMutability":"nonpayable"},{"type":"function","name":"approve","inputs":[{"name":"to","type":"address","internalType":"address"},{"name":"tokenId","type":"uint256","internalType":"uint256"}],"outputs":[],"stateMutability":"nonpayable"},{"type":"function","name":"balanceOf","inputs":[{"name":"owner","type":"address","internalType":"address"}],"outputs":[{"name":"","type":"uint256","internalType":"uint256"}],"stateMutability":"view"},{"type":"function","name":"getApproved","inputs":[{"name":"tokenId","type":"uint256","internalType":"uint256"}],"outputs":[{"name":"","type":"address","internalType":"address"}],"stateMutability":"view"},{"type":"function","name":"isApprovedForAll","inputs":[{"name":"owner","type":"address","internalType":"address"},{"name":"operator","type":"address","internalType":"address"}],"outputs":[{"name":"","type":"bool","internalType":"bool"}],"stateMutability":"view"},{"type":"function","name":"mint","inputs":[{"name":"tokenId","type":"uint256","internalType":"uint256"}],"outputs":[],"stateMutability":"nonpayable"},{"type":"function","name":"name","inputs":[],"outputs":[{"name":"","type":"string","internalType":"string"}],"stateMutability":"view"},{"type":"function","name":"owner","inputs":[],"outputs":[{"name":"","type":"address","internalType":"address"}],"stateMutability":"view"},{"type":"function","name":"ownerOf","inputs":[{"name":"tokenId","type":"uint256","internalType":"uint256"}],"outputs":[{"name":"","type":"address","internalType":"address"}],"stateMutability":"view"},{"type":"function","name":"renounceOwnership","inputs":[],"outputs":[],"stateMutability":"nonpayable"},{"type":"function","name":"safeTransferFrom","inputs":[{"name":"from","type":"address","internalType":"address"},{"name":"to","type":"address","internalType":"address"},{"name":"tokenId","type":"uint256","internalType":"uint256"}],"outputs":[],"stateMutability":"nonpayable"},{"type":"function","name":"safeTransferFrom","inputs":[{"name":"from","type":"address","internalType":"address"},{"name":"to","type":"address","internalType":"address"},{"name":"tokenId","type":"uint256","internalType":"uint256"},{"name":"data","type":"bytes","internalType":"bytes"}],"outputs":[],"stateMutability":"nonpayable"},{"type":"function","name":"sendTokens","inputs":[{"name":"tokenId","type":"uint256","internalType":"uint256"}],"outputs":[],"stateMutability":"nonpayable"},{"type":"function","name":"setApprovalForAll","inputs":[{"name":"operator","type":"address","internalType":"address"},{"name":"approved","type":"bool","internalType":"bool"}],"outputs":[],"stateMutability":"nonpayable"},{"type":"function","name":"supportsInterface","inputs":[{"name":"interfaceId","type":"bytes4","internalType":"bytes4"}],"outputs":[{"name":"","type":"bool","internalType":"bool"}],"stateMutability":"view"},{"type":"function","name":"symbol","inputs":[],"outputs":[{"name":"","type":"string","internalType":"string"}],"stateMutability":"view"},{"type":"function","name":"tokenURI","inputs":[{"name":"tokenId","type":"uint256","internalType":"uint256"}],"outputs":[{"name":"","type":"string","internalType":"string"}],"stateMutability":"view"},{"type":"function","name":"transferFrom","inputs":[{"name":"from","type":"address","internalType":"address"},{"name":"to","type":"address","internalType":"address"},{"name":"tokenId","type":"uint256","internalType":"uint256"}],"outputs":[],"stateMutability":"nonpayable"},{"type":"function","name":"transferOwnership","inputs":[{"name":"newOwner","type":"address","internalType":"address"}],"outputs":[],"stateMutability":"nonpayable"},{"type":"function","name":"withdrawNFT","inputs":[{"name":"tokenId","type":"uint256","internalType":"uint256"}],"outputs":[],"stateMutability":"nonpayable"},{"type":"event","name":"Approval","inputs":[{"name":"owner","type":"address","indexed":true,"internalType":"address"},{"name":"approved","type":"address","indexed":true,"internalType":"address"},{"name":"tokenId","type":"uint256","indexed":true,"internalType":"uint256"}],"anonymous":false},{"type":"event","name":"ApprovalForAll","inputs":[{"name":"owner","type":"address","indexed":true,"internalType":"address"},{"name":"operator","type":"address","indexed":true,"internalType":"address"},{"name":"approved","type":"bool","indexed":false,"internalType":"bool"}],"anonymous":false},{"type":"event","name":"OwnershipTransferred","inputs":[{"name":"previousOwner","type":"address","indexed":true,"internalType":"address"},{"name":"newOwner","type":"address","indexed":true,"internalType":"address"}],"anonymous":false},{"type":"event","name":"Transfer","inputs":[{"name":"from","type":"address","indexed":true,"internalType":"address"},{"name":"to","type":"address","indexed":true,"internalType":"address"},{"name":"tokenId","type":"uint256","indexed":true,"internalType":"uint256"}],"anonymous":false},{"type":"error","name":"ERC721IncorrectOwner","inputs":[{"name":"sender","type":"address","internalType":"address"},{"name":"tokenId","type":"uint256","internalType":"uint256"},{"name":"owner","type":"address","internalType":"address"}]},{"type":"error","name":"ERC721InsufficientApproval","inputs":[{"name":"operator","type":"address","internalType":"address"},{"name":"tokenId","type":"uint256","internalType":"uint256"}]},{"type":"error","name":"ERC721InvalidApprover","inputs":[{"name":"approver","type":"address","internalType":"address"}]},{"type":"error","name":"ERC721InvalidOperator","inputs":[{"name":"operator","type":"address","internalType":"address"}]},{"type":"error","name":"ERC721InvalidOwner","inputs":[{"name":"owner","type":"address","internalType":"address"}]},{"type":"error","name":"ERC721InvalidReceiver","inputs":[{"name":"receiver","type":"address","internalType":"address"}]},{"type":"error","name":"ERC721InvalidSender","inputs":[{"name":"sender","type":"address","internalType":"address"}]},{"type":"error","name":"ERC721NonexistentToken","inputs":[{"name":"tokenId","type":"uint256","internalType":"uint256"}]},{"type":"error","name":"OwnableInvalidOwner","inputs":[{"name":"owner","type":"address","internalType":"address"}]},{"type":"error","name":"OwnableUnauthorizedAccount","inputs":[{"name":"account","type":"address","internalType":"address"}]}],"bytecode":{"object":"0x6080604052601460075560006008553480156200001b57600080fd5b5060405162002ca038038062002ca08339818101604052810190620000419190620002d3565b336040518060400160405280600781526020017f4e465447414d45000000000000000000000000000000000000000000000000008152506040518060400160405280600381526020017f4e465400000000000000000000000000000000000000000000000000000000008152508160009081620000bf91906200057f565b508060019081620000d191906200057f565b505050600073ffffffffffffffffffffffffffffffffffffffff168173ffffffffffffffffffffffffffffffffffffffff1603620001495760006040517f1e4fbdf700000000000000000000000000000000000000000000000000000000815260040162000140919062000677565b60405180910390fd5b6200015a81620001a360201b60201c565b5080600960006101000a81548173ffffffffffffffffffffffffffffffffffffffff021916908373ffffffffffffffffffffffffffffffffffffffff1602179055505062000694565b6000600660009054906101000a900473ffffffffffffffffffffffffffffffffffffffff16905081600660006101000a81548173ffffffffffffffffffffffffffffffffffffffff021916908373ffffffffffffffffffffffffffffffffffffffff1602179055508173ffffffffffffffffffffffffffffffffffffffff168173ffffffffffffffffffffffffffffffffffffffff167f8be0079c531659141344cd1fd0a4f28419497f9722a3daafe3b4186f6b6457e060405160405180910390a35050565b600080fd5b600073ffffffffffffffffffffffffffffffffffffffff82169050919050565b60006200029b826200026e565b9050919050565b620002ad816200028e565b8114620002b957600080fd5b50565b600081519050620002cd81620002a2565b92915050565b600060208284031215620002ec57620002eb62000269565b5b6000620002fc84828501620002bc565b91505092915050565b600081519050919050565b7f4e487b7100000000000000000000000000000000000000000000000000000000600052604160045260246000fd5b7f4e487b7100000000000000000000000000000000000000000000000000000000600052602260045260246000fd5b600060028204905060018216806200038757607f821691505b6020821081036200039d576200039c6200033f565b5b50919050565b60008190508160005260206000209050919050565b60006020601f8301049050919050565b600082821b905092915050565b600060088302620004077fffffffffffffffffffffffffffffffffffffffffffffffffffffffffffffffff82620003c8565b620004138683620003c8565b95508019841693508086168417925050509392505050565b6000819050919050565b6000819050919050565b6000620004606200045a62000454846200042b565b62000435565b6200042b565b9050919050565b6000819050919050565b6200047c836200043f565b620004946200048b8262000467565b848454620003d5565b825550505050565b600090565b620004ab6200049c565b620004b881848462000471565b505050565b5b81811015620004e057620004d4600082620004a1565b600181019050620004be565b5050565b601f8211156200052f57620004f981620003a3565b6200050484620003b8565b8101602085101562000514578190505b6200052c6200052385620003b8565b830182620004bd565b50505b505050565b600082821c905092915050565b6000620005546000198460080262000534565b1980831691505092915050565b60006200056f838362000541565b9150826002028217905092915050565b6200058a8262000305565b67ffffffffffffffff811115620005a657620005a562000310565b5b620005b282546200036e565b620005bf828285620004e4565b600060209050601f831160018114620005f75760008415620005e2578287015190505b620005ee858262000561565b8655506200065e565b601f1984166200060786620003a3565b60005b8281101562000631578489015182556001820191506020850194506020810190506200060a565b868310156200065157848901516200064d601f89168262000541565b8355505b6001600288020188555050505b505050505050565b62000671816200028e565b82525050565b60006020820190506200068e600083018462000666565b92915050565b6125fc80620006a46000396000f3fe608060405234801561001057600080fd5b50600436106101215760003560e01c8063715018a6116100ad578063b88d4fde11610071578063b88d4fde146102f2578063c87b56dd1461030e578063e985e9c51461033e578063f2fde38b1461036e578063f5c6ca081461038a57610121565b8063715018a6146102745780638da5cb5b1461027e57806395d89b411461029c578063a0712d68146102ba578063a22cb465146102d657610121565b8063095ea7b3116100f4578063095ea7b3146101c057806323b872dd146101dc57806342842e0e146101f85780636352211e1461021457806370a082311461024457610121565b806301ffc9a714610126578063023245d71461015657806306fdde0314610172578063081812fc14610190575b600080fd5b610140600480360381019061013b9190611c1f565b6103a6565b60405161014d9190611c67565b60405180910390f35b610170600480360381019061016b9190611cb8565b610488565b005b61017a610628565b6040516101879190611d75565b60405180910390f35b6101aa60048036038101906101a59190611cb8565b6106ba565b6040516101b79190611dd8565b60405180910390f35b6101da60048036038101906101d59190611e1f565b6106d6565b005b6101f660048036038101906101f19190611e5f565b6106ec565b005b610212600480360381019061020d9190611e5f565b6107ee565b005b61022e60048036038101906102299190611cb8565b61080e565b60405161023b9190611dd8565b60405180910390f35b61025e60048036038101906102599190611eb2565b610820565b60405161026b9190611eee565b60405180910390f35b61027c6108da565b005b6102866108ee565b6040516102939190611dd8565b60405180910390f35b6102a4610918565b6040516102b19190611d75565b60405180910390f35b6102d460048036038101906102cf9190611cb8565b6109aa565b005b6102f060048036038101906102eb9190611f35565b610a6f565b005b61030c600480360381019061030791906120aa565b610a85565b005b61032860048036038101906103239190611cb8565b610aaa565b6040516103359190611d75565b60405180910390f35b6103586004803603810190610353919061212d565b610b13565b6040516103659190611c67565b60405180910390f35b61038860048036038101906103839190611eb2565b610ba7565b005b6103a4600480360381019061039f9190611cb8565b610c2d565b005b60007f80ac58cd000000000000000000000000000000000000000000000000000000007bffffffffffffffffffffffffffffffffffffffffffffffffffffffff1916827bffffffffffffffffffffffffffffffffffffffffffffffffffffffff1916148061047157507f5b5e139f000000000000000000000000000000000000000000000000000000007bffffffffffffffffffffffffffffffffffffffffffffffffffffffff1916827bffffffffffffffffffffffffffffffffffffffffffffffffffffffff1916145b80610481575061048082610d2b565b5b9050919050565b600073ffffffffffffffffffffffffffffffffffffffff16600a600083815260200190815260200160002060009054906101000a900473ffffffffffffffffffffffffffffffffffffffff1673ffffffffffffffffffffffffffffffffffffffff160361052a576040517f08c379a0000000000000000000000000000000000000000000000000000000008152600401610521906121b9565b60405180910390fd5b3373ffffffffffffffffffffffffffffffffffffffff16600a600083815260200190815260200160002060009054906101000a900473ffffffffffffffffffffffffffffffffffffffff1673ffffffffffffffffffffffffffffffffffffffff16146105cb576040517f08c379a00000000000000000000000000000000000000000000000000000000081526004016105c290612225565b60405180910390fd5b6105f83382600960009054906101000a900473ffffffffffffffffffffffffffffffffffffffff16610d95565b610625600960009054906101000a900473ffffffffffffffffffffffffffffffffffffffff1633836107ee565b50565b60606000805461063790612274565b80601f016020809104026020016040519081016040528092919081815260200182805461066390612274565b80156106b05780601f10610685576101008083540402835291602001916106b0565b820191906000526020600020905b81548152906001019060200180831161069357829003601f168201915b5050505050905090565b60006106c582610da7565b506106cf82610e2f565b9050919050565b6106e882826106e3610e6c565b610d95565b5050565b600073ffffffffffffffffffffffffffffffffffffffff168273ffffffffffffffffffffffffffffffffffffffff160361075e5760006040517f64a0ae920000000000000000000000000000000000000000000000000000000081526004016107559190611dd8565b60405180910390fd5b6000610772838361076d610e6c565b610e74565b90508373ffffffffffffffffffffffffffffffffffffffff168173ffffffffffffffffffffffffffffffffffffffff16146107e8578382826040517f64283d7b0000000000000000000000000000000000000000000000000000000081526004016107df939291906122a5565b60405180910390fd5b50505050565b61080983838360405180602001604052806000815250610a85565b505050565b600061081982610da7565b9050919050565b60008073ffffffffffffffffffffffffffffffffffffffff168273ffffffffffffffffffffffffffffffffffffffff16036108935760006040517f89c62b6400000000000000000000000000000000000000000000000000000000815260040161088a9190611dd8565b60405180910390fd5b600360008373ffffffffffffffffffffffffffffffffffffffff1673ffffffffffffffffffffffffffffffffffffffff168152602001908152602001600020549050919050565b6108e261108e565b6108ec6000611115565b565b6000600660009054906101000a900473ffffffffffffffffffffffffffffffffffffffff16905090565b60606001805461092790612274565b80601f016020809104026020016040519081016040528092919081815260200182805461095390612274565b80156109a05780601f10610975576101008083540402835291602001916109a0565b820191906000526020600020905b81548152906001019060200180831161098357829003601f168201915b5050505050905090565b6109b261108e565b600754600854106109f8576040517f08c379a00000000000000000000000000000000000000000000000000000000081526004016109ef90612328565b60405180910390fd5b33600a600083815260200190815260200160002060006101000a81548173ffffffffffffffffffffffffffffffffffffffff021916908373ffffffffffffffffffffffffffffffffffffffff160217905550610a5433826111db565b60086000815480929190610a6790612377565b919050555050565b610a81610a7a610e6c565b83836112d4565b5050565b610a908484846106ec565b610aa4610a9b610e6c565b85858585611443565b50505050565b6060610ab582610da7565b506000610ac06115f4565b90506000815111610ae05760405180602001604052806000815250610b0b565b80610aea8461160b565b604051602001610afb9291906123fb565b6040516020818303038152906040525b915050919050565b6000600560008473ffffffffffffffffffffffffffffffffffffffff1673ffffffffffffffffffffffffffffffffffffffff16815260200190815260200160002060008373ffffffffffffffffffffffffffffffffffffffff1673ffffffffffffffffffffffffffffffffffffffff16815260200190815260200160002060009054906101000a900460ff16905092915050565b610baf61108e565b600073ffffffffffffffffffffffffffffffffffffffff168173ffffffffffffffffffffffffffffffffffffffff1603610c215760006040517f1e4fbdf7000000000000000000000000000000000000000000000000000000008152600401610c189190611dd8565b60405180910390fd5b610c2a81611115565b50565b3373ffffffffffffffffffffffffffffffffffffffff16600a600083815260200190815260200160002060009054906101000a900473ffffffffffffffffffffffffffffffffffffffff1673ffffffffffffffffffffffffffffffffffffffff1614610cce576040517f08c379a0000000000000000000000000000000000000000000000000000000008152600401610cc59061246b565b60405180910390fd5b610cfb600960009054906101000a900473ffffffffffffffffffffffffffffffffffffffff168233610d95565b610d2833600960009054906101000a900473ffffffffffffffffffffffffffffffffffffffff16836107ee565b50565b60007f01ffc9a7000000000000000000000000000000000000000000000000000000007bffffffffffffffffffffffffffffffffffffffffffffffffffffffff1916827bffffffffffffffffffffffffffffffffffffffffffffffffffffffff1916149050919050565b610da283838360016116d9565b505050565b600080610db38361189e565b9050600073ffffffffffffffffffffffffffffffffffffffff168173ffffffffffffffffffffffffffffffffffffffff1603610e2657826040517f7e273289000000000000000000000000000000000000000000000000000000008152600401610e1d9190611eee565b60405180910390fd5b80915050919050565b60006004600083815260200190815260200160002060009054906101000a900473ffffffffffffffffffffffffffffffffffffffff169050919050565b600033905090565b600080610e808461189e565b9050600073ffffffffffffffffffffffffffffffffffffffff168373ffffffffffffffffffffffffffffffffffffffff1614610ec257610ec18184866118db565b5b600073ffffffffffffffffffffffffffffffffffffffff168173ffffffffffffffffffffffffffffffffffffffff1614610f5357610f046000856000806116d9565b6001600360008373ffffffffffffffffffffffffffffffffffffffff1673ffffffffffffffffffffffffffffffffffffffff168152602001908152602001600020600082825403925050819055505b600073ffffffffffffffffffffffffffffffffffffffff168573ffffffffffffffffffffffffffffffffffffffff1614610fd6576001600360008773ffffffffffffffffffffffffffffffffffffffff1673ffffffffffffffffffffffffffffffffffffffff168152602001908152602001600020600082825401925050819055505b846002600086815260200190815260200160002060006101000a81548173ffffffffffffffffffffffffffffffffffffffff021916908373ffffffffffffffffffffffffffffffffffffffff160217905550838573ffffffffffffffffffffffffffffffffffffffff168273ffffffffffffffffffffffffffffffffffffffff167fddf252ad1be2c89b69c2b068fc378daa952ba7f163c4a11628f55a4df523b3ef60405160405180910390a4809150509392505050565b611096610e6c565b73ffffffffffffffffffffffffffffffffffffffff166110b46108ee565b73ffffffffffffffffffffffffffffffffffffffff1614611113576110d7610e6c565b6040517f118cdaa700000000000000000000000000000000000000000000000000000000815260040161110a9190611dd8565b60405180910390fd5b565b6000600660009054906101000a900473ffffffffffffffffffffffffffffffffffffffff16905081600660006101000a81548173ffffffffffffffffffffffffffffffffffffffff021916908373ffffffffffffffffffffffffffffffffffffffff1602179055508173ffffffffffffffffffffffffffffffffffffffff168173ffffffffffffffffffffffffffffffffffffffff167f8be0079c531659141344cd1fd0a4f28419497f9722a3daafe3b4186f6b6457e060405160405180910390a35050565b600073ffffffffffffffffffffffffffffffffffffffff168273ffffffffffffffffffffffffffffffffffffffff160361124d5760006040517f64a0ae920000000000000000000000000000000000000000000000000000000081526004016112449190611dd8565b60405180910390fd5b600061125b83836000610e74565b9050600073ffffffffffffffffffffffffffffffffffffffff168173ffffffffffffffffffffffffffffffffffffffff16146112cf5760006040517f73c6ac6e0000000000000000000000000000000000000000000000000000000081526004016112c69190611dd8565b60405180910390fd5b505050565b600073ffffffffffffffffffffffffffffffffffffffff168273ffffffffffffffffffffffffffffffffffffffff160361134557816040517f5b08ba1800000000000000000000000000000000000000000000000000000000815260040161133c9190611dd8565b60405180910390fd5b80600560008573ffffffffffffffffffffffffffffffffffffffff1673ffffffffffffffffffffffffffffffffffffffff16815260200190815260200160002060008473ffffffffffffffffffffffffffffffffffffffff1673ffffffffffffffffffffffffffffffffffffffff16815260200190815260200160002060006101000a81548160ff0219169083151502179055508173ffffffffffffffffffffffffffffffffffffffff168373ffffffffffffffffffffffffffffffffffffffff167f17307eab39ab6107e8899845ad3d59bd9653f200f220920489ca2b5937696c31836040516114369190611c67565b60405180910390a3505050565b60008373ffffffffffffffffffffffffffffffffffffffff163b11156115ed578273ffffffffffffffffffffffffffffffffffffffff1663150b7a02868685856040518563ffffffff1660e01b81526004016114a294939291906124e0565b6020604051808303816000875af19250505080156114de57506040513d601f19601f820116820180604052508101906114db9190612541565b60015b611562573d806000811461150e576040519150601f19603f3d011682016040523d82523d6000602084013e611513565b606091505b50600081510361155a57836040517f64a0ae920000000000000000000000000000000000000000000000000000000081526004016115519190611dd8565b60405180910390fd5b805181602001fd5b63150b7a0260e01b7bffffffffffffffffffffffffffffffffffffffffffffffffffffffff1916817bffffffffffffffffffffffffffffffffffffffffffffffffffffffff1916146115eb57836040517f64a0ae920000000000000000000000000000000000000000000000000000000081526004016115e29190611dd8565b60405180910390fd5b505b5050505050565b606060405180602001604052806000815250905090565b60606000600161161a8461199f565b01905060008167ffffffffffffffff81111561163957611638611f7f565b5b6040519080825280601f01601f19166020018201604052801561166b5781602001600182028036833780820191505090505b509050600082602001820190505b6001156116ce578080600190039150507f3031323334353637383961626364656600000000000000000000000000000000600a86061a8153600a85816116c2576116c161256e565b5b04945060008503611679575b819350505050919050565b80806117125750600073ffffffffffffffffffffffffffffffffffffffff168273ffffffffffffffffffffffffffffffffffffffff1614155b1561184657600061172284610da7565b9050600073ffffffffffffffffffffffffffffffffffffffff168373ffffffffffffffffffffffffffffffffffffffff161415801561178d57508273ffffffffffffffffffffffffffffffffffffffff168173ffffffffffffffffffffffffffffffffffffffff1614155b80156117a0575061179e8184610b13565b155b156117e257826040517fa9fbf51f0000000000000000000000000000000000000000000000000000000081526004016117d99190611dd8565b60405180910390fd5b811561184457838573ffffffffffffffffffffffffffffffffffffffff168273ffffffffffffffffffffffffffffffffffffffff167f8c5be1e5ebec7d5bd14f71427d1e84f3dd0314c0f7b2291e5b200ac8c7c3b92560405160405180910390a45b505b836004600085815260200190815260200160002060006101000a81548173ffffffffffffffffffffffffffffffffffffffff021916908373ffffffffffffffffffffffffffffffffffffffff16021790555050505050565b60006002600083815260200190815260200160002060009054906101000a900473ffffffffffffffffffffffffffffffffffffffff169050919050565b6118e6838383611af2565b61199a57600073ffffffffffffffffffffffffffffffffffffffff168373ffffffffffffffffffffffffffffffffffffffff160361195b57806040517f7e2732890000000000000000000000000000000000000000000000000000000081526004016119529190611eee565b60405180910390fd5b81816040517f177e802f00000000000000000000000000000000000000000000000000000000815260040161199192919061259d565b60405180910390fd5b505050565b600080600090507a184f03e93ff9f4daa797ed6e38ed64bf6a1f01000000000000000083106119fd577a184f03e93ff9f4daa797ed6e38ed64bf6a1f01000000000000000083816119f3576119f261256e565b5b0492506040810190505b6d04ee2d6d415b85acef81000000008310611a3a576d04ee2d6d415b85acef81000000008381611a3057611a2f61256e565b5b0492506020810190505b662386f26fc100008310611a6957662386f26fc100008381611a5f57611a5e61256e565b5b0492506010810190505b6305f5e1008310611a92576305f5e1008381611a8857611a8761256e565b5b0492506008810190505b6127108310611ab7576127108381611aad57611aac61256e565b5b0492506004810190505b60648310611ada5760648381611ad057611acf61256e565b5b0492506002810190505b600a8310611ae9576001810190505b80915050919050565b60008073ffffffffffffffffffffffffffffffffffffffff168373ffffffffffffffffffffffffffffffffffffffff1614158015611baa57508273ffffffffffffffffffffffffffffffffffffffff168473ffffffffffffffffffffffffffffffffffffffff161480611b6b5750611b6a8484610b13565b5b80611ba957508273ffffffffffffffffffffffffffffffffffffffff16611b9183610e2f565b73ffffffffffffffffffffffffffffffffffffffff16145b5b90509392505050565b6000604051905090565b600080fd5b600080fd5b60007fffffffff0000000000000000000000000000000000000000000000000000000082169050919050565b611bfc81611bc7565b8114611c0757600080fd5b50565b600081359050611c1981611bf3565b92915050565b600060208284031215611c3557611c34611bbd565b5b6000611c4384828501611c0a565b91505092915050565b60008115159050919050565b611c6181611c4c565b82525050565b6000602082019050611c7c6000830184611c58565b92915050565b6000819050919050565b611c9581611c82565b8114611ca057600080fd5b50565b600081359050611cb281611c8c565b92915050565b600060208284031215611cce57611ccd611bbd565b5b6000611cdc84828501611ca3565b91505092915050565b600081519050919050565b600082825260208201905092915050565b60005b83811015611d1f578082015181840152602081019050611d04565b60008484015250505050565b6000601f19601f8301169050919050565b6000611d4782611ce5565b611d518185611cf0565b9350611d61818560208601611d01565b611d6a81611d2b565b840191505092915050565b60006020820190508181036000830152611d8f8184611d3c565b905092915050565b600073ffffffffffffffffffffffffffffffffffffffff82169050919050565b6000611dc282611d97565b9050919050565b611dd281611db7565b82525050565b6000602082019050611ded6000830184611dc9565b92915050565b611dfc81611db7565b8114611e0757600080fd5b50565b600081359050611e1981611df3565b92915050565b60008060408385031215611e3657611e35611bbd565b5b6000611e4485828601611e0a565b9250506020611e5585828601611ca3565b9150509250929050565b600080600060608486031215611e7857611e77611bbd565b5b6000611e8686828701611e0a565b9350506020611e9786828701611e0a565b9250506040611ea886828701611ca3565b9150509250925092565b600060208284031215611ec857611ec7611bbd565b5b6000611ed684828501611e0a565b91505092915050565b611ee881611c82565b82525050565b6000602082019050611f036000830184611edf565b92915050565b611f1281611c4c565b8114611f1d57600080fd5b50565b600081359050611f2f81611f09565b92915050565b60008060408385031215611f4c57611f4b611bbd565b5b6000611f5a85828601611e0a565b9250506020611f6b85828601611f20565b9150509250929050565b600080fd5b600080fd5b7f4e487b7100000000000000000000000000000000000000000000000000000000600052604160045260246000fd5b611fb782611d2b565b810181811067ffffffffffffffff82111715611fd657611fd5611f7f565b5b80604052505050565b6000611fe9611bb3565b9050611ff58282611fae565b919050565b600067ffffffffffffffff82111561201557612014611f7f565b5b61201e82611d2b565b9050602081019050919050565b82818337600083830152505050565b600061204d61204884611ffa565b611fdf565b90508281526020810184848401111561206957612068611f7a565b5b61207484828561202b565b509392505050565b600082601f83011261209157612090611f75565b5b81356120a184826020860161203a565b91505092915050565b600080600080608085870312156120c4576120c3611bbd565b5b60006120d287828801611e0a565b94505060206120e387828801611e0a565b93505060406120f487828801611ca3565b925050606085013567ffffffffffffffff81111561211557612114611bc2565b5b6121218782880161207c565b91505092959194509250565b6000806040838503121561214457612143611bbd565b5b600061215285828601611e0a565b925050602061216385828601611e0a565b9150509250929050565b7f546f6b656e4964206e6f74206578697374730000000000000000000000000000600082015250565b60006121a3601283611cf0565b91506121ae8261216d565b602082019050919050565b600060208201905081810360008301526121d281612196565b9050919050565b7f6e6f742061206f726967696e616c206f776e6572000000000000000000000000600082015250565b600061220f601483611cf0565b915061221a826121d9565b602082019050919050565b6000602082019050818103600083015261223e81612202565b9050919050565b7f4e487b7100000000000000000000000000000000000000000000000000000000600052602260045260246000fd5b6000600282049050600182168061228c57607f821691505b60208210810361229f5761229e612245565b5b50919050565b60006060820190506122ba6000830186611dc9565b6122c76020830185611edf565b6122d46040830184611dc9565b949350505050565b7f537570706c79206c696d69742063726f73736564000000000000000000000000600082015250565b6000612312601483611cf0565b915061231d826122dc565b602082019050919050565b6000602082019050818103600083015261234181612305565b9050919050565b7f4e487b7100000000000000000000000000000000000000000000000000000000600052601160045260246000fd5b600061238282611c82565b91507fffffffffffffffffffffffffffffffffffffffffffffffffffffffffffffffff82036123b4576123b3612348565b5b600182019050919050565b600081905092915050565b60006123d582611ce5565b6123df81856123bf565b93506123ef818560208601611d01565b80840191505092915050565b600061240782856123ca565b915061241382846123ca565b91508190509392505050565b7f6e6f7420746865206f776e657200000000000000000000000000000000000000600082015250565b6000612455600d83611cf0565b91506124608261241f565b602082019050919050565b6000602082019050818103600083015261248481612448565b9050919050565b600081519050919050565b600082825260208201905092915050565b60006124b28261248b565b6124bc8185612496565b93506124cc818560208601611d01565b6124d581611d2b565b840191505092915050565b60006080820190506124f56000830187611dc9565b6125026020830186611dc9565b61250f6040830185611edf565b818103606083015261252181846124a7565b905095945050505050565b60008151905061253b81611bf3565b92915050565b60006020828403121561255757612556611bbd565b5b60006125658482850161252c565b91505092915050565b7f4e487b7100000000000000000000000000000000000000000000000000000000600052601260045260246000fd5b60006040820190506125b26000830185611dc9565b6125bf6020830184611edf565b939250505056fea264697066735822122004be4bdc4be8f943c41e70d14fec9ebcc0796a743eb42fb8a38b1fc55f5359ff64736f6c63430008170033","linkReferences":{}},"methodIdentifiers":{"approve(address,uint256)":"095ea7b3","balanceOf(address)":"70a08231","getApproved(uint256)":"081812fc","isApprovedForAll(address,address)":"e985e9c5","mint(uint256)":"a0712d68","name()":"06fdde03","owner()":"8da5cb5b","ownerOf(uint256)":"6352211e","renounceOwnership()":"715018a6","safeTransferFrom(address,address,uint256)":"42842e0e","safeTransferFrom(address,address,uint256,bytes)":"b88d4fde","sendTokens(uint256)":"f5c6ca08","setApprovalForAll(address,bool)":"a22cb465","supportsInterface(bytes4)":"01ffc9a7","symbol()":"95d89b41","tokenURI(uint256)":"c87b56dd","transferFrom(address,address,uint256)":"23b872dd","transferOwnership(address)":"f2fde38b","withdrawNFT(uint256)":"023245d7"},"id":1}