{"abi":[{"type":"constructor","inputs":[{"name":"token_","type":"address","internalType":"address"}],"stateMutability":"nonpayable"},{"type":"function","name":"acceptOwnership","inputs":[],"outputs":[],"stateMutability":"nonpayable"},{"type":"function","name":"approve","inputs":[{"name":"to","type":"address","internalType":"address"},{"name":"tokenId","type":"uint256","internalType":"uint256"}],"outputs":[],"stateMutability":"nonpayable"},{"type":"function","name":"balanceOf","inputs":[{"name":"owner","type":"address","internalType":"address"}],"outputs":[{"name":"","type":"uint256","internalType":"uint256"}],"stateMutability":"view"},{"type":"function","name":"getApproved","inputs":[{"name":"tokenId","type":"uint256","internalType":"uint256"}],"outputs":[{"name":"","type":"address","internalType":"address"}],"stateMutability":"view"},{"type":"function","name":"isApprovedForAll","inputs":[{"name":"owner","type":"address","internalType":"address"},{"name":"operator","type":"address","internalType":"address"}],"outputs":[{"name":"","type":"bool","internalType":"bool"}],"stateMutability":"view"},{"type":"function","name":"mint","inputs":[{"name":"tokenId","type":"uint256","internalType":"uint256"}],"outputs":[],"stateMutability":"nonpayable"},{"type":"function","name":"name","inputs":[],"outputs":[{"name":"","type":"string","internalType":"string"}],"stateMutability":"view"},{"type":"function","name":"owner","inputs":[],"outputs":[{"name":"","type":"address","internalType":"address"}],"stateMutability":"view"},{"type":"function","name":"ownerOf","inputs":[{"name":"tokenId","type":"uint256","internalType":"uint256"}],"outputs":[{"name":"","type":"address","internalType":"address"}],"stateMutability":"view"},{"type":"function","name":"pendingOwner","inputs":[],"outputs":[{"name":"","type":"address","internalType":"address"}],"stateMutability":"view"},{"type":"function","name":"renounceOwnership","inputs":[],"outputs":[],"stateMutability":"nonpayable"},{"type":"function","name":"safeTransferFrom","inputs":[{"name":"from","type":"address","internalType":"address"},{"name":"to","type":"address","internalType":"address"},{"name":"tokenId","type":"uint256","internalType":"uint256"}],"outputs":[],"stateMutability":"nonpayable"},{"type":"function","name":"safeTransferFrom","inputs":[{"name":"from","type":"address","internalType":"address"},{"name":"to","type":"address","internalType":"address"},{"name":"tokenId","type":"uint256","internalType":"uint256"},{"name":"data","type":"bytes","internalType":"bytes"}],"outputs":[],"stateMutability":"nonpayable"},{"type":"function","name":"sendTokens","inputs":[{"name":"tokenId","type":"uint256","internalType":"uint256"}],"outputs":[],"stateMutability":"nonpayable"},{"type":"function","name":"setApprovalForAll","inputs":[{"name":"operator","type":"address","internalType":"address"},{"name":"approved","type":"bool","internalType":"bool"}],"outputs":[],"stateMutability":"nonpayable"},{"type":"function","name":"supportsInterface","inputs":[{"name":"interfaceId","type":"bytes4","internalType":"bytes4"}],"outputs":[{"name":"","type":"bool","internalType":"bool"}],"stateMutability":"view"},{"type":"function","name":"symbol","inputs":[],"outputs":[{"name":"","type":"string","internalType":"string"}],"stateMutability":"view"},{"type":"function","name":"tokenURI","inputs":[{"name":"tokenId","type":"uint256","internalType":"uint256"}],"outputs":[{"name":"","type":"string","internalType":"string"}],"stateMutability":"view"},{"type":"function","name":"transferFrom","inputs":[{"name":"from","type":"address","internalType":"address"},{"name":"to","type":"address","internalType":"address"},{"name":"tokenId","type":"uint256","internalType":"uint256"}],"outputs":[],"stateMutability":"nonpayable"},{"type":"function","name":"transferOwnership","inputs":[{"name":"newOwner","type":"address","internalType":"address"}],"outputs":[],"stateMutability":"nonpayable"},{"type":"function","name":"withdrawNFT","inputs":[{"name":"tokenId","type":"uint256","internalType":"uint256"}],"outputs":[],"stateMutability":"nonpayable"},{"type":"event","name":"Approval","inputs":[{"name":"owner","type":"address","indexed":true,"internalType":"address"},{"name":"approved","type":"address","indexed":true,"internalType":"address"},{"name":"tokenId","type":"uint256","indexed":true,"internalType":"uint256"}],"anonymous":false},{"type":"event","name":"ApprovalForAll","inputs":[{"name":"owner","type":"address","indexed":true,"internalType":"address"},{"name":"operator","type":"address","indexed":true,"internalType":"address"},{"name":"approved","type":"bool","indexed":false,"internalType":"bool"}],"anonymous":false},{"type":"event","name":"OwnershipTransferStarted","inputs":[{"name":"previousOwner","type":"address","indexed":true,"internalType":"address"},{"name":"newOwner","type":"address","indexed":true,"internalType":"address"}],"anonymous":false},{"type":"event","name":"OwnershipTransferred","inputs":[{"name":"previousOwner","type":"address","indexed":true,"internalType":"address"},{"name":"newOwner","type":"address","indexed":true,"internalType":"address"}],"anonymous":false},{"type":"event","name":"Transfer","inputs":[{"name":"from","type":"address","indexed":true,"internalType":"address"},{"name":"to","type":"address","indexed":true,"internalType":"address"},{"name":"tokenId","type":"uint256","indexed":true,"internalType":"uint256"}],"anonymous":false},{"type":"error","name":"ERC721IncorrectOwner","inputs":[{"name":"sender","type":"address","internalType":"address"},{"name":"tokenId","type":"uint256","internalType":"uint256"},{"name":"owner","type":"address","internalType":"address"}]},{"type":"error","name":"ERC721InsufficientApproval","inputs":[{"name":"operator","type":"address","internalType":"address"},{"name":"tokenId","type":"uint256","internalType":"uint256"}]},{"type":"error","name":"ERC721InvalidApprover","inputs":[{"name":"approver","type":"address","internalType":"address"}]},{"type":"error","name":"ERC721InvalidOperator","inputs":[{"name":"operator","type":"address","internalType":"address"}]},{"type":"error","name":"ERC721InvalidOwner","inputs":[{"name":"owner","type":"address","internalType":"address"}]},{"type":"error","name":"ERC721InvalidReceiver","inputs":[{"name":"receiver","type":"address","internalType":"address"}]},{"type":"error","name":"ERC721InvalidSender","inputs":[{"name":"sender","type":"address","internalType":"address"}]},{"type":"error","name":"ERC721NonexistentToken","inputs":[{"name":"tokenId","type":"uint256","internalType":"uint256"}]},{"type":"error","name":"OwnableInvalidOwner","inputs":[{"name":"owner","type":"address","internalType":"address"}]},{"type":"error","name":"OwnableUnauthorizedAccount","inputs":[{"name":"account","type":"address","internalType":"address"}]}],"bytecode":{"object":"0x6080604052601460085560006009553480156200001b57600080fd5b5060405162002e4338038062002e4383398181016040528101906200004191906200030c565b336040518060400160405280600781526020017f4e465447414d45000000000000000000000000000000000000000000000000008152506040518060400160405280600381526020017f4e465400000000000000000000000000000000000000000000000000000000008152508160009081620000bf9190620005b8565b508060019081620000d19190620005b8565b505050600073ffffffffffffffffffffffffffffffffffffffff168173ffffffffffffffffffffffffffffffffffffffff1603620001495760006040517f1e4fbdf7000000000000000000000000000000000000000000000000000000008152600401620001409190620006b0565b60405180910390fd5b6200015a81620001a360201b60201c565b5080600a60006101000a81548173ffffffffffffffffffffffffffffffffffffffff021916908373ffffffffffffffffffffffffffffffffffffffff16021790555050620006cd565b600760006101000a81549073ffffffffffffffffffffffffffffffffffffffff0219169055620001d981620001dc60201b60201c565b50565b6000600660009054906101000a900473ffffffffffffffffffffffffffffffffffffffff16905081600660006101000a81548173ffffffffffffffffffffffffffffffffffffffff021916908373ffffffffffffffffffffffffffffffffffffffff1602179055508173ffffffffffffffffffffffffffffffffffffffff168173ffffffffffffffffffffffffffffffffffffffff167f8be0079c531659141344cd1fd0a4f28419497f9722a3daafe3b4186f6b6457e060405160405180910390a35050565b600080fd5b600073ffffffffffffffffffffffffffffffffffffffff82169050919050565b6000620002d482620002a7565b9050919050565b620002e681620002c7565b8114620002f257600080fd5b50565b6000815190506200030681620002db565b92915050565b600060208284031215620003255762000324620002a2565b5b60006200033584828501620002f5565b91505092915050565b600081519050919050565b7f4e487b7100000000000000000000000000000000000000000000000000000000600052604160045260246000fd5b7f4e487b7100000000000000000000000000000000000000000000000000000000600052602260045260246000fd5b60006002820490506001821680620003c057607f821691505b602082108103620003d657620003d562000378565b5b50919050565b60008190508160005260206000209050919050565b60006020601f8301049050919050565b600082821b905092915050565b600060088302620004407fffffffffffffffffffffffffffffffffffffffffffffffffffffffffffffffff8262000401565b6200044c868362000401565b95508019841693508086168417925050509392505050565b6000819050919050565b6000819050919050565b600062000499620004936200048d8462000464565b6200046e565b62000464565b9050919050565b6000819050919050565b620004b58362000478565b620004cd620004c482620004a0565b8484546200040e565b825550505050565b600090565b620004e4620004d5565b620004f1818484620004aa565b505050565b5b8181101562000519576200050d600082620004da565b600181019050620004f7565b5050565b601f82111562000568576200053281620003dc565b6200053d84620003f1565b810160208510156200054d578190505b620005656200055c85620003f1565b830182620004f6565b50505b505050565b600082821c905092915050565b60006200058d600019846008026200056d565b1980831691505092915050565b6000620005a883836200057a565b9150826002028217905092915050565b620005c3826200033e565b67ffffffffffffffff811115620005df57620005de62000349565b5b620005eb8254620003a7565b620005f88282856200051d565b600060209050601f8311600181146200063057600084156200061b578287015190505b6200062785826200059a565b86555062000697565b601f1984166200064086620003dc565b60005b828110156200066a5784890151825560018201915060208501945060208101905062000643565b868310156200068a578489015162000686601f8916826200057a565b8355505b6001600288020188555050505b505050505050565b620006aa81620002c7565b82525050565b6000602082019050620006c760008301846200069f565b92915050565b61276680620006dd6000396000f3fe608060405234801561001057600080fd5b50600436106101375760003560e01c806379ba5097116100b8578063b88d4fde1161007c578063b88d4fde14610312578063c87b56dd1461032e578063e30c39781461035e578063e985e9c51461037c578063f2fde38b146103ac578063f5c6ca08146103c857610137565b806379ba5097146102945780638da5cb5b1461029e57806395d89b41146102bc578063a0712d68146102da578063a22cb465146102f657610137565b806323b872dd116100ff57806323b872dd146101f257806342842e0e1461020e5780636352211e1461022a57806370a082311461025a578063715018a61461028a57610137565b806301ffc9a71461013c578063023245d71461016c57806306fdde0314610188578063081812fc146101a6578063095ea7b3146101d6575b600080fd5b61015660048036038101906101519190611d89565b6103e4565b6040516101639190611dd1565b60405180910390f35b61018660048036038101906101819190611e22565b6104c6565b005b61019061066e565b60405161019d9190611edf565b60405180910390f35b6101c060048036038101906101bb9190611e22565b610700565b6040516101cd9190611f42565b60405180910390f35b6101f060048036038101906101eb9190611f89565b61071c565b005b61020c60048036038101906102079190611fc9565b610732565b005b61022860048036038101906102239190611fc9565b610834565b005b610244600480360381019061023f9190611e22565b610854565b6040516102519190611f42565b60405180910390f35b610274600480360381019061026f919061201c565b610866565b6040516102819190612058565b60405180910390f35b610292610920565b005b61029c61093f565b005b6102a66109ce565b6040516102b39190611f42565b60405180910390f35b6102c46109f8565b6040516102d19190611edf565b60405180910390f35b6102f460048036038101906102ef9190611e22565b610a8a565b005b610310600480360381019061030b919061209f565b610b4f565b005b61032c60048036038101906103279190612214565b610b65565b005b61034860048036038101906103439190611e22565b610b8a565b6040516103559190611edf565b60405180910390f35b610366610bf3565b6040516103739190611f42565b60405180910390f35b61039660048036038101906103919190612297565b610c1d565b6040516103a39190611dd1565b60405180910390f35b6103c660048036038101906103c1919061201c565b610cb1565b005b6103e260048036038101906103dd9190611e22565b610d5e565b005b60007f80ac58cd000000000000000000000000000000000000000000000000000000007bffffffffffffffffffffffffffffffffffffffffffffffffffffffff1916827bffffffffffffffffffffffffffffffffffffffffffffffffffffffff191614806104af57507f5b5e139f000000000000000000000000000000000000000000000000000000007bffffffffffffffffffffffffffffffffffffffffffffffffffffffff1916827bffffffffffffffffffffffffffffffffffffffffffffffffffffffff1916145b806104bf57506104be82610e64565b5b9050919050565b6104ce610ece565b600073ffffffffffffffffffffffffffffffffffffffff16600b600083815260200190815260200160002060009054906101000a900473ffffffffffffffffffffffffffffffffffffffff1673ffffffffffffffffffffffffffffffffffffffff1603610570576040517f08c379a000000000000000000000000000000000000000000000000000000000815260040161056790612323565b60405180910390fd5b3373ffffffffffffffffffffffffffffffffffffffff16600b600083815260200190815260200160002060009054906101000a900473ffffffffffffffffffffffffffffffffffffffff1673ffffffffffffffffffffffffffffffffffffffff1614610611576040517f08c379a00000000000000000000000000000000000000000000000000000000081526004016106089061238f565b60405180910390fd5b61063e3382600a60009054906101000a900473ffffffffffffffffffffffffffffffffffffffff16610f55565b61066b600a60009054906101000a900473ffffffffffffffffffffffffffffffffffffffff163383610834565b50565b60606000805461067d906123de565b80601f01602080910402602001604051908101604052809291908181526020018280546106a9906123de565b80156106f65780601f106106cb576101008083540402835291602001916106f6565b820191906000526020600020905b8154815290600101906020018083116106d957829003601f168201915b5050505050905090565b600061070b82610f67565b5061071582610fef565b9050919050565b61072e828261072961102c565b610f55565b5050565b600073ffffffffffffffffffffffffffffffffffffffff168273ffffffffffffffffffffffffffffffffffffffff16036107a45760006040517f64a0ae9200000000000000000000000000000000000000000000000000000000815260040161079b9190611f42565b60405180910390fd5b60006107b883836107b361102c565b611034565b90508373ffffffffffffffffffffffffffffffffffffffff168173ffffffffffffffffffffffffffffffffffffffff161461082e578382826040517f64283d7b0000000000000000000000000000000000000000000000000000000081526004016108259392919061240f565b60405180910390fd5b50505050565b61084f83838360405180602001604052806000815250610b65565b505050565b600061085f82610f67565b9050919050565b60008073ffffffffffffffffffffffffffffffffffffffff168273ffffffffffffffffffffffffffffffffffffffff16036108d95760006040517f89c62b640000000000000000000000000000000000000000000000000000000081526004016108d09190611f42565b60405180910390fd5b600360008373ffffffffffffffffffffffffffffffffffffffff1673ffffffffffffffffffffffffffffffffffffffff168152602001908152602001600020549050919050565b610928610ece565b600061093357600080fd5b61093d600061124e565b565b600061094961102c565b90508073ffffffffffffffffffffffffffffffffffffffff1661096a610bf3565b73ffffffffffffffffffffffffffffffffffffffff16146109c257806040517f118cdaa70000000000000000000000000000000000000000000000000000000081526004016109b99190611f42565b60405180910390fd5b6109cb8161124e565b50565b6000600660009054906101000a900473ffffffffffffffffffffffffffffffffffffffff16905090565b606060018054610a07906123de565b80601f0160208091040260200160405190810160405280929190818152602001828054610a33906123de565b8015610a805780601f10610a5557610100808354040283529160200191610a80565b820191906000526020600020905b815481529060010190602001808311610a6357829003601f168201915b5050505050905090565b610a92610ece565b60085460095410610ad8576040517f08c379a0000000000000000000000000000000000000000000000000000000008152600401610acf90612492565b60405180910390fd5b33600b600083815260200190815260200160002060006101000a81548173ffffffffffffffffffffffffffffffffffffffff021916908373ffffffffffffffffffffffffffffffffffffffff160217905550610b34338261127f565b60096000815480929190610b47906124e1565b919050555050565b610b61610b5a61102c565b8383611378565b5050565b610b70848484610732565b610b84610b7b61102c565b858585856114e7565b50505050565b6060610b9582610f67565b506000610ba0611698565b90506000815111610bc05760405180602001604052806000815250610beb565b80610bca846116af565b604051602001610bdb929190612565565b6040516020818303038152906040525b915050919050565b6000600760009054906101000a900473ffffffffffffffffffffffffffffffffffffffff16905090565b6000600560008473ffffffffffffffffffffffffffffffffffffffff1673ffffffffffffffffffffffffffffffffffffffff16815260200190815260200160002060008373ffffffffffffffffffffffffffffffffffffffff1673ffffffffffffffffffffffffffffffffffffffff16815260200190815260200160002060009054906101000a900460ff16905092915050565b610cb9610ece565b80600760006101000a81548173ffffffffffffffffffffffffffffffffffffffff021916908373ffffffffffffffffffffffffffffffffffffffff1602179055508073ffffffffffffffffffffffffffffffffffffffff16610d196109ce565b73ffffffffffffffffffffffffffffffffffffffff167f38d16b8cac22d99fc7c124b9cd0de2d3fa1faef420bfe791d8c362d765e2270060405160405180910390a350565b610d66610ece565b3373ffffffffffffffffffffffffffffffffffffffff16600b600083815260200190815260200160002060009054906101000a900473ffffffffffffffffffffffffffffffffffffffff1673ffffffffffffffffffffffffffffffffffffffff1614610e07576040517f08c379a0000000000000000000000000000000000000000000000000000000008152600401610dfe906125d5565b60405180910390fd5b610e34600a60009054906101000a900473ffffffffffffffffffffffffffffffffffffffff168233610f55565b610e6133600a60009054906101000a900473ffffffffffffffffffffffffffffffffffffffff1683610834565b50565b60007f01ffc9a7000000000000000000000000000000000000000000000000000000007bffffffffffffffffffffffffffffffffffffffffffffffffffffffff1916827bffffffffffffffffffffffffffffffffffffffffffffffffffffffff1916149050919050565b610ed661102c565b73ffffffffffffffffffffffffffffffffffffffff16610ef46109ce565b73ffffffffffffffffffffffffffffffffffffffff1614610f5357610f1761102c565b6040517f118cdaa7000000000000000000000000000000000000000000000000000000008152600401610f4a9190611f42565b60405180910390fd5b565b610f62838383600161177d565b505050565b600080610f7383611942565b9050600073ffffffffffffffffffffffffffffffffffffffff168173ffffffffffffffffffffffffffffffffffffffff1603610fe657826040517f7e273289000000000000000000000000000000000000000000000000000000008152600401610fdd9190612058565b60405180910390fd5b80915050919050565b60006004600083815260200190815260200160002060009054906101000a900473ffffffffffffffffffffffffffffffffffffffff169050919050565b600033905090565b60008061104084611942565b9050600073ffffffffffffffffffffffffffffffffffffffff168373ffffffffffffffffffffffffffffffffffffffff16146110825761108181848661197f565b5b600073ffffffffffffffffffffffffffffffffffffffff168173ffffffffffffffffffffffffffffffffffffffff1614611113576110c460008560008061177d565b6001600360008373ffffffffffffffffffffffffffffffffffffffff1673ffffffffffffffffffffffffffffffffffffffff168152602001908152602001600020600082825403925050819055505b600073ffffffffffffffffffffffffffffffffffffffff168573ffffffffffffffffffffffffffffffffffffffff1614611196576001600360008773ffffffffffffffffffffffffffffffffffffffff1673ffffffffffffffffffffffffffffffffffffffff168152602001908152602001600020600082825401925050819055505b846002600086815260200190815260200160002060006101000a81548173ffffffffffffffffffffffffffffffffffffffff021916908373ffffffffffffffffffffffffffffffffffffffff160217905550838573ffffffffffffffffffffffffffffffffffffffff168273ffffffffffffffffffffffffffffffffffffffff167fddf252ad1be2c89b69c2b068fc378daa952ba7f163c4a11628f55a4df523b3ef60405160405180910390a4809150509392505050565b600760006101000a81549073ffffffffffffffffffffffffffffffffffffffff021916905561127c81611a43565b50565b600073ffffffffffffffffffffffffffffffffffffffff168273ffffffffffffffffffffffffffffffffffffffff16036112f15760006040517f64a0ae920000000000000000000000000000000000000000000000000000000081526004016112e89190611f42565b60405180910390fd5b60006112ff83836000611034565b9050600073ffffffffffffffffffffffffffffffffffffffff168173ffffffffffffffffffffffffffffffffffffffff16146113735760006040517f73c6ac6e00000000000000000000000000000000000000000000000000000000815260040161136a9190611f42565b60405180910390fd5b505050565b600073ffffffffffffffffffffffffffffffffffffffff168273ffffffffffffffffffffffffffffffffffffffff16036113e957816040517f5b08ba180000000000000000000000000000000000000000000000000000000081526004016113e09190611f42565b60405180910390fd5b80600560008573ffffffffffffffffffffffffffffffffffffffff1673ffffffffffffffffffffffffffffffffffffffff16815260200190815260200160002060008473ffffffffffffffffffffffffffffffffffffffff1673ffffffffffffffffffffffffffffffffffffffff16815260200190815260200160002060006101000a81548160ff0219169083151502179055508173ffffffffffffffffffffffffffffffffffffffff168373ffffffffffffffffffffffffffffffffffffffff167f17307eab39ab6107e8899845ad3d59bd9653f200f220920489ca2b5937696c31836040516114da9190611dd1565b60405180910390a3505050565b60008373ffffffffffffffffffffffffffffffffffffffff163b1115611691578273ffffffffffffffffffffffffffffffffffffffff1663150b7a02868685856040518563ffffffff1660e01b8152600401611546949392919061264a565b6020604051808303816000875af192505050801561158257506040513d601f19601f8201168201806040525081019061157f91906126ab565b60015b611606573d80600081146115b2576040519150601f19603f3d011682016040523d82523d6000602084013e6115b7565b606091505b5060008151036115fe57836040517f64a0ae920000000000000000000000000000000000000000000000000000000081526004016115f59190611f42565b60405180910390fd5b805181602001fd5b63150b7a0260e01b7bffffffffffffffffffffffffffffffffffffffffffffffffffffffff1916817bffffffffffffffffffffffffffffffffffffffffffffffffffffffff19161461168f57836040517f64a0ae920000000000000000000000000000000000000000000000000000000081526004016116869190611f42565b60405180910390fd5b505b5050505050565b606060405180602001604052806000815250905090565b6060600060016116be84611b09565b01905060008167ffffffffffffffff8111156116dd576116dc6120e9565b5b6040519080825280601f01601f19166020018201604052801561170f5781602001600182028036833780820191505090505b509050600082602001820190505b600115611772578080600190039150507f3031323334353637383961626364656600000000000000000000000000000000600a86061a8153600a8581611766576117656126d8565b5b0494506000850361171d575b819350505050919050565b80806117b65750600073ffffffffffffffffffffffffffffffffffffffff168273ffffffffffffffffffffffffffffffffffffffff1614155b156118ea5760006117c684610f67565b9050600073ffffffffffffffffffffffffffffffffffffffff168373ffffffffffffffffffffffffffffffffffffffff161415801561183157508273ffffffffffffffffffffffffffffffffffffffff168173ffffffffffffffffffffffffffffffffffffffff1614155b801561184457506118428184610c1d565b155b1561188657826040517fa9fbf51f00000000000000000000000000000000000000000000000000000000815260040161187d9190611f42565b60405180910390fd5b81156118e857838573ffffffffffffffffffffffffffffffffffffffff168273ffffffffffffffffffffffffffffffffffffffff167f8c5be1e5ebec7d5bd14f71427d1e84f3dd0314c0f7b2291e5b200ac8c7c3b92560405160405180910390a45b505b836004600085815260200190815260200160002060006101000a81548173ffffffffffffffffffffffffffffffffffffffff021916908373ffffffffffffffffffffffffffffffffffffffff16021790555050505050565b60006002600083815260200190815260200160002060009054906101000a900473ffffffffffffffffffffffffffffffffffffffff169050919050565b61198a838383611c5c565b611a3e57600073ffffffffffffffffffffffffffffffffffffffff168373ffffffffffffffffffffffffffffffffffffffff16036119ff57806040517f7e2732890000000000000000000000000000000000000000000000000000000081526004016119f69190612058565b60405180910390fd5b81816040517f177e802f000000000000000000000000000000000000000000000000000000008152600401611a35929190612707565b60405180910390fd5b505050565b6000600660009054906101000a900473ffffffffffffffffffffffffffffffffffffffff16905081600660006101000a81548173ffffffffffffffffffffffffffffffffffffffff021916908373ffffffffffffffffffffffffffffffffffffffff1602179055508173ffffffffffffffffffffffffffffffffffffffff168173ffffffffffffffffffffffffffffffffffffffff167f8be0079c531659141344cd1fd0a4f28419497f9722a3daafe3b4186f6b6457e060405160405180910390a35050565b600080600090507a184f03e93ff9f4daa797ed6e38ed64bf6a1f0100000000000000008310611b67577a184f03e93ff9f4daa797ed6e38ed64bf6a1f0100000000000000008381611b5d57611b5c6126d8565b5b0492506040810190505b6d04ee2d6d415b85acef81000000008310611ba4576d04ee2d6d415b85acef81000000008381611b9a57611b996126d8565b5b0492506020810190505b662386f26fc100008310611bd357662386f26fc100008381611bc957611bc86126d8565b5b0492506010810190505b6305f5e1008310611bfc576305f5e1008381611bf257611bf16126d8565b5b0492506008810190505b6127108310611c21576127108381611c1757611c166126d8565b5b0492506004810190505b60648310611c445760648381611c3a57611c396126d8565b5b0492506002810190505b600a8310611c53576001810190505b80915050919050565b60008073ffffffffffffffffffffffffffffffffffffffff168373ffffffffffffffffffffffffffffffffffffffff1614158015611d1457508273ffffffffffffffffffffffffffffffffffffffff168473ffffffffffffffffffffffffffffffffffffffff161480611cd55750611cd48484610c1d565b5b80611d1357508273ffffffffffffffffffffffffffffffffffffffff16611cfb83610fef565b73ffffffffffffffffffffffffffffffffffffffff16145b5b90509392505050565b6000604051905090565b600080fd5b600080fd5b60007fffffffff0000000000000000000000000000000000000000000000000000000082169050919050565b611d6681611d31565b8114611d7157600080fd5b50565b600081359050611d8381611d5d565b92915050565b600060208284031215611d9f57611d9e611d27565b5b6000611dad84828501611d74565b91505092915050565b60008115159050919050565b611dcb81611db6565b82525050565b6000602082019050611de66000830184611dc2565b92915050565b6000819050919050565b611dff81611dec565b8114611e0a57600080fd5b50565b600081359050611e1c81611df6565b92915050565b600060208284031215611e3857611e37611d27565b5b6000611e4684828501611e0d565b91505092915050565b600081519050919050565b600082825260208201905092915050565b60005b83811015611e89578082015181840152602081019050611e6e565b60008484015250505050565b6000601f19601f8301169050919050565b6000611eb182611e4f565b611ebb8185611e5a565b9350611ecb818560208601611e6b565b611ed481611e95565b840191505092915050565b60006020820190508181036000830152611ef98184611ea6565b905092915050565b600073ffffffffffffffffffffffffffffffffffffffff82169050919050565b6000611f2c82611f01565b9050919050565b611f3c81611f21565b82525050565b6000602082019050611f576000830184611f33565b92915050565b611f6681611f21565b8114611f7157600080fd5b50565b600081359050611f8381611f5d565b92915050565b60008060408385031215611fa057611f9f611d27565b5b6000611fae85828601611f74565b9250506020611fbf85828601611e0d565b9150509250929050565b600080600060608486031215611fe257611fe1611d27565b5b6000611ff086828701611f74565b935050602061200186828701611f74565b925050604061201286828701611e0d565b9150509250925092565b60006020828403121561203257612031611d27565b5b600061204084828501611f74565b91505092915050565b61205281611dec565b82525050565b600060208201905061206d6000830184612049565b92915050565b61207c81611db6565b811461208757600080fd5b50565b60008135905061209981612073565b92915050565b600080604083850312156120b6576120b5611d27565b5b60006120c485828601611f74565b92505060206120d58582860161208a565b9150509250929050565b600080fd5b600080fd5b7f4e487b7100000000000000000000000000000000000000000000000000000000600052604160045260246000fd5b61212182611e95565b810181811067ffffffffffffffff821117156121405761213f6120e9565b5b80604052505050565b6000612153611d1d565b905061215f8282612118565b919050565b600067ffffffffffffffff82111561217f5761217e6120e9565b5b61218882611e95565b9050602081019050919050565b82818337600083830152505050565b60006121b76121b284612164565b612149565b9050828152602081018484840111156121d3576121d26120e4565b5b6121de848285612195565b509392505050565b600082601f8301126121fb576121fa6120df565b5b813561220b8482602086016121a4565b91505092915050565b6000806000806080858703121561222e5761222d611d27565b5b600061223c87828801611f74565b945050602061224d87828801611f74565b935050604061225e87828801611e0d565b925050606085013567ffffffffffffffff81111561227f5761227e611d2c565b5b61228b878288016121e6565b91505092959194509250565b600080604083850312156122ae576122ad611d27565b5b60006122bc85828601611f74565b92505060206122cd85828601611f74565b9150509250929050565b7f546f6b656e4964206e6f74206578697374730000000000000000000000000000600082015250565b600061230d601283611e5a565b9150612318826122d7565b602082019050919050565b6000602082019050818103600083015261233c81612300565b9050919050565b7f6e6f742061206f726967696e616c206f776e6572000000000000000000000000600082015250565b6000612379601483611e5a565b915061238482612343565b602082019050919050565b600060208201905081810360008301526123a88161236c565b9050919050565b7f4e487b7100000000000000000000000000000000000000000000000000000000600052602260045260246000fd5b600060028204905060018216806123f657607f821691505b602082108103612409576124086123af565b5b50919050565b60006060820190506124246000830186611f33565b6124316020830185612049565b61243e6040830184611f33565b949350505050565b7f537570706c79206c696d69742063726f73736564000000000000000000000000600082015250565b600061247c601483611e5a565b915061248782612446565b602082019050919050565b600060208201905081810360008301526124ab8161246f565b9050919050565b7f4e487b7100000000000000000000000000000000000000000000000000000000600052601160045260246000fd5b60006124ec82611dec565b91507fffffffffffffffffffffffffffffffffffffffffffffffffffffffffffffffff820361251e5761251d6124b2565b5b600182019050919050565b600081905092915050565b600061253f82611e4f565b6125498185612529565b9350612559818560208601611e6b565b80840191505092915050565b60006125718285612534565b915061257d8284612534565b91508190509392505050565b7f6e6f7420746865206f776e657200000000000000000000000000000000000000600082015250565b60006125bf600d83611e5a565b91506125ca82612589565b602082019050919050565b600060208201905081810360008301526125ee816125b2565b9050919050565b600081519050919050565b600082825260208201905092915050565b600061261c826125f5565b6126268185612600565b9350612636818560208601611e6b565b61263f81611e95565b840191505092915050565b600060808201905061265f6000830187611f33565b61266c6020830186611f33565b6126796040830185612049565b818103606083015261268b8184612611565b905095945050505050565b6000815190506126a581611d5d565b92915050565b6000602082840312156126c1576126c0611d27565b5b60006126cf84828501612696565b91505092915050565b7f4e487b7100000000000000000000000000000000000000000000000000000000600052601260045260246000fd5b600060408201905061271c6000830185611f33565b6127296020830184612049565b939250505056fea2646970667358221220c6dd649ef6fc198f31e6691d5f8e6bf793f2e0295382a15549e3d302ac21d5e064736f6c63430008170033","linkReferences":{}},"methodIdentifiers":{"acceptOwnership()":"79ba5097","approve(address,uint256)":"095ea7b3","balanceOf(address)":"70a08231","getApproved(uint256)":"081812fc","isApprovedForAll(address,address)":"e985e9c5","mint(uint256)":"a0712d68","name()":"06fdde03","owner()":"8da5cb5b","ownerOf(uint256)":"6352211e","pendingOwner()":"e30c3978","renounceOwnership()":"715018a6","safeTransferFrom(address,address,uint256)":"42842e0e","safeTransferFrom(address,address,uint256,bytes)":"b88d4fde","sendTokens(uint256)":"f5c6ca08","setApprovalForAll(address,bool)":"a22cb465","supportsInterface(bytes4)":"01ffc9a7","symbol()":"95d89b41","tokenURI(uint256)":"c87b56dd","transferFrom(address,address,uint256)":"23b872dd","transferOwnership(address)":"f2fde38b","withdrawNFT(uint256)":"023245d7"},"id":12}