{"abi":[{"type":"constructor","inputs":[{"name":"token_","type":"address","internalType":"address"}],"stateMutability":"nonpayable"},{"type":"function","name":"approve","inputs":[{"name":"to","type":"address","internalType":"address"},{"name":"tokenId","type":"uint256","internalType":"uint256"}],"outputs":[],"stateMutability":"nonpayable"},{"type":"function","name":"balanceOf","inputs":[{"name":"owner","type":"address","internalType":"address"}],"outputs":[{"name":"","type":"uint256","internalType":"uint256"}],"stateMutability":"view"},{"type":"function","name":"getApproved","inputs":[{"name":"tokenId","type":"uint256","internalType":"uint256"}],"outputs":[{"name":"","type":"address","internalType":"address"}],"stateMutability":"view"},{"type":"function","name":"isApprovedForAll","inputs":[{"name":"owner","type":"address","internalType":"address"},{"name":"operator","type":"address","internalType":"address"}],"outputs":[{"name":"","type":"bool","internalType":"bool"}],"stateMutability":"view"},{"type":"function","name":"mint","inputs":[{"name":"tokenId","type":"uint256","internalType":"uint256"}],"outputs":[],"stateMutability":"nonpayable"},{"type":"function","name":"name","inputs":[],"outputs":[{"name":"","type":"string","internalType":"string"}],"stateMutability":"view"},{"type":"function","name":"owner","inputs":[],"outputs":[{"name":"","type":"address","internalType":"address"}],"stateMutability":"view"},{"type":"function","name":"ownerOf","inputs":[{"name":"tokenId","type":"uint256","internalType":"uint256"}],"outputs":[{"name":"","type":"address","internalType":"address"}],"stateMutability":"view"},{"type":"function","name":"renounceOwnership","inputs":[],"outputs":[],"stateMutability":"nonpayable"},{"type":"function","name":"safeTransferFrom","inputs":[{"name":"from","type":"address","internalType":"address"},{"name":"to","type":"address","internalType":"address"},{"name":"tokenId","type":"uint256","internalType":"uint256"}],"outputs":[],"stateMutability":"nonpayable"},{"type":"function","name":"safeTransferFrom","inputs":[{"name":"from","type":"address","internalType":"address"},{"name":"to","type":"address","internalType":"address"},{"name":"tokenId","type":"uint256","internalType":"uint256"},{"name":"data","type":"bytes","internalType":"bytes"}],"outputs":[],"stateMutability":"nonpayable"},{"type":"function","name":"sendTokens","inputs":[{"name":"tokenId","type":"uint256","internalType":"uint256"},{"name":"from","type":"address","internalType":"address"},{"name":"to","type":"address","internalType":"address"}],"outputs":[],"stateMutability":"nonpayable"},{"type":"function","name":"setApprovalForAll","inputs":[{"name":"operator","type":"address","internalType":"address"},{"name":"approved","type":"bool","internalType":"bool"}],"outputs":[],"stateMutability":"nonpayable"},{"type":"function","name":"supportsInterface","inputs":[{"name":"interfaceId","type":"bytes4","internalType":"bytes4"}],"outputs":[{"name":"","type":"bool","internalType":"bool"}],"stateMutability":"view"},{"type":"function","name":"symbol","inputs":[],"outputs":[{"name":"","type":"string","internalType":"string"}],"stateMutability":"view"},{"type":"function","name":"tokenURI","inputs":[{"name":"tokenId","type":"uint256","internalType":"uint256"}],"outputs":[{"name":"","type":"string","internalType":"string"}],"stateMutability":"view"},{"type":"function","name":"transferFrom","inputs":[{"name":"from","type":"address","internalType":"address"},{"name":"to","type":"address","internalType":"address"},{"name":"tokenId","type":"uint256","internalType":"uint256"}],"outputs":[],"stateMutability":"nonpayable"},{"type":"function","name":"transferOwnership","inputs":[{"name":"newOwner","type":"address","internalType":"address"}],"outputs":[],"stateMutability":"nonpayable"},{"type":"function","name":"withdrawNFT","inputs":[{"name":"tokenId","type":"uint256","internalType":"uint256"}],"outputs":[],"stateMutability":"nonpayable"},{"type":"event","name":"Approval","inputs":[{"name":"owner","type":"address","indexed":true,"internalType":"address"},{"name":"approved","type":"address","indexed":true,"internalType":"address"},{"name":"tokenId","type":"uint256","indexed":true,"internalType":"uint256"}],"anonymous":false},{"type":"event","name":"ApprovalForAll","inputs":[{"name":"owner","type":"address","indexed":true,"internalType":"address"},{"name":"operator","type":"address","indexed":true,"internalType":"address"},{"name":"approved","type":"bool","indexed":false,"internalType":"bool"}],"anonymous":false},{"type":"event","name":"OwnershipTransferred","inputs":[{"name":"previousOwner","type":"address","indexed":true,"internalType":"address"},{"name":"newOwner","type":"address","indexed":true,"internalType":"address"}],"anonymous":false},{"type":"event","name":"Transfer","inputs":[{"name":"from","type":"address","indexed":true,"internalType":"address"},{"name":"to","type":"address","indexed":true,"internalType":"address"},{"name":"tokenId","type":"uint256","indexed":true,"internalType":"uint256"}],"anonymous":false},{"type":"error","name":"ERC721IncorrectOwner","inputs":[{"name":"sender","type":"address","internalType":"address"},{"name":"tokenId","type":"uint256","internalType":"uint256"},{"name":"owner","type":"address","internalType":"address"}]},{"type":"error","name":"ERC721InsufficientApproval","inputs":[{"name":"operator","type":"address","internalType":"address"},{"name":"tokenId","type":"uint256","internalType":"uint256"}]},{"type":"error","name":"ERC721InvalidApprover","inputs":[{"name":"approver","type":"address","internalType":"address"}]},{"type":"error","name":"ERC721InvalidOperator","inputs":[{"name":"operator","type":"address","internalType":"address"}]},{"type":"error","name":"ERC721InvalidOwner","inputs":[{"name":"owner","type":"address","internalType":"address"}]},{"type":"error","name":"ERC721InvalidReceiver","inputs":[{"name":"receiver","type":"address","internalType":"address"}]},{"type":"error","name":"ERC721InvalidSender","inputs":[{"name":"sender","type":"address","internalType":"address"}]},{"type":"error","name":"ERC721NonexistentToken","inputs":[{"name":"tokenId","type":"uint256","internalType":"uint256"}]},{"type":"error","name":"OwnableInvalidOwner","inputs":[{"name":"owner","type":"address","internalType":"address"}]},{"type":"error","name":"OwnableUnauthorizedAccount","inputs":[{"name":"account","type":"address","internalType":"address"}]}],"bytecode":{"object":"0x6080604052601460075560006008553480156200001b57600080fd5b5060405162002b6b38038062002b6b8339818101604052810190620000419190620002d3565b336040518060400160405280600781526020017f4e465447414d45000000000000000000000000000000000000000000000000008152506040518060400160405280600381526020017f4e465400000000000000000000000000000000000000000000000000000000008152508160009081620000bf91906200057f565b508060019081620000d191906200057f565b505050600073ffffffffffffffffffffffffffffffffffffffff168173ffffffffffffffffffffffffffffffffffffffff1603620001495760006040517f1e4fbdf700000000000000000000000000000000000000000000000000000000815260040162000140919062000677565b60405180910390fd5b6200015a81620001a360201b60201c565b5080600960006101000a81548173ffffffffffffffffffffffffffffffffffffffff021916908373ffffffffffffffffffffffffffffffffffffffff1602179055505062000694565b6000600660009054906101000a900473ffffffffffffffffffffffffffffffffffffffff16905081600660006101000a81548173ffffffffffffffffffffffffffffffffffffffff021916908373ffffffffffffffffffffffffffffffffffffffff1602179055508173ffffffffffffffffffffffffffffffffffffffff168173ffffffffffffffffffffffffffffffffffffffff167f8be0079c531659141344cd1fd0a4f28419497f9722a3daafe3b4186f6b6457e060405160405180910390a35050565b600080fd5b600073ffffffffffffffffffffffffffffffffffffffff82169050919050565b60006200029b826200026e565b9050919050565b620002ad816200028e565b8114620002b957600080fd5b50565b600081519050620002cd81620002a2565b92915050565b600060208284031215620002ec57620002eb62000269565b5b6000620002fc84828501620002bc565b91505092915050565b600081519050919050565b7f4e487b7100000000000000000000000000000000000000000000000000000000600052604160045260246000fd5b7f4e487b7100000000000000000000000000000000000000000000000000000000600052602260045260246000fd5b600060028204905060018216806200038757607f821691505b6020821081036200039d576200039c6200033f565b5b50919050565b60008190508160005260206000209050919050565b60006020601f8301049050919050565b600082821b905092915050565b600060088302620004077fffffffffffffffffffffffffffffffffffffffffffffffffffffffffffffffff82620003c8565b620004138683620003c8565b95508019841693508086168417925050509392505050565b6000819050919050565b6000819050919050565b6000620004606200045a62000454846200042b565b62000435565b6200042b565b9050919050565b6000819050919050565b6200047c836200043f565b620004946200048b8262000467565b848454620003d5565b825550505050565b600090565b620004ab6200049c565b620004b881848462000471565b505050565b5b81811015620004e057620004d4600082620004a1565b600181019050620004be565b5050565b601f8211156200052f57620004f981620003a3565b6200050484620003b8565b8101602085101562000514578190505b6200052c6200052385620003b8565b830182620004bd565b50505b505050565b600082821c905092915050565b6000620005546000198460080262000534565b1980831691505092915050565b60006200056f838362000541565b9150826002028217905092915050565b6200058a8262000305565b67ffffffffffffffff811115620005a657620005a562000310565b5b620005b282546200036e565b620005bf828285620004e4565b600060209050601f831160018114620005f75760008415620005e2578287015190505b620005ee858262000561565b8655506200065e565b601f1984166200060786620003a3565b60005b8281101562000631578489015182556001820191506020850194506020810190506200060a565b868310156200065157848901516200064d601f89168262000541565b8355505b6001600288020188555050505b505050505050565b62000671816200028e565b82525050565b60006020820190506200068e600083018462000666565b92915050565b6124c780620006a46000396000f3fe608060405234801561001057600080fd5b50600436106101215760003560e01c806370a08231116100ad578063a22cb46511610071578063a22cb465146102f2578063b88d4fde1461030e578063c87b56dd1461032a578063e985e9c51461035a578063f2fde38b1461038a57610121565b806370a0823114610260578063715018a6146102905780638da5cb5b1461029a57806395d89b41146102b8578063a0712d68146102d657610121565b8063095ea7b3116100f4578063095ea7b3146101c057806323b872dd146101dc57806342842e0e146101f85780635fbef867146102145780636352211e1461023057610121565b806301ffc9a714610126578063023245d71461015657806306fdde0314610172578063081812fc14610190575b600080fd5b610140600480360381019061013b9190611b03565b6103a6565b60405161014d9190611b4b565b60405180910390f35b610170600480360381019061016b9190611b9c565b610488565b005b61017a610559565b6040516101879190611c59565b60405180910390f35b6101aa60048036038101906101a59190611b9c565b6105eb565b6040516101b79190611cbc565b60405180910390f35b6101da60048036038101906101d59190611d03565b610607565b005b6101f660048036038101906101f19190611d43565b61061d565b005b610212600480360381019061020d9190611d43565b61071f565b005b61022e60048036038101906102299190611d96565b61073f565b005b61024a60048036038101906102459190611b9c565b6107f0565b6040516102579190611cbc565b60405180910390f35b61027a60048036038101906102759190611de9565b610802565b6040516102879190611e25565b60405180910390f35b6102986108bc565b005b6102a26108d0565b6040516102af9190611cbc565b60405180910390f35b6102c06108fa565b6040516102cd9190611c59565b60405180910390f35b6102f060048036038101906102eb9190611b9c565b61098c565b005b61030c60048036038101906103079190611e6c565b610a51565b005b61032860048036038101906103239190611fe1565b610a67565b005b610344600480360381019061033f9190611b9c565b610a8c565b6040516103519190611c59565b60405180910390f35b610374600480360381019061036f9190612064565b610af5565b6040516103819190611b4b565b60405180910390f35b6103a4600480360381019061039f9190611de9565b610b89565b005b60007f80ac58cd000000000000000000000000000000000000000000000000000000007bffffffffffffffffffffffffffffffffffffffffffffffffffffffff1916827bffffffffffffffffffffffffffffffffffffffffffffffffffffffff1916148061047157507f5b5e139f000000000000000000000000000000000000000000000000000000007bffffffffffffffffffffffffffffffffffffffffffffffffffffffff1916827bffffffffffffffffffffffffffffffffffffffffffffffffffffffff1916145b80610481575061048082610c0f565b5b9050919050565b3373ffffffffffffffffffffffffffffffffffffffff16600a600083815260200190815260200160002060009054906101000a900473ffffffffffffffffffffffffffffffffffffffff1673ffffffffffffffffffffffffffffffffffffffff1614610529576040517f08c379a0000000000000000000000000000000000000000000000000000000008152600401610520906120f0565b60405180910390fd5b610556600960009054906101000a900473ffffffffffffffffffffffffffffffffffffffff16338361071f565b50565b6060600080546105689061213f565b80601f01602080910402602001604051908101604052809291908181526020018280546105949061213f565b80156105e15780601f106105b6576101008083540402835291602001916105e1565b820191906000526020600020905b8154815290600101906020018083116105c457829003601f168201915b5050505050905090565b60006105f682610c79565b5061060082610d01565b9050919050565b6106198282610614610d3e565b610d46565b5050565b600073ffffffffffffffffffffffffffffffffffffffff168273ffffffffffffffffffffffffffffffffffffffff160361068f5760006040517f64a0ae920000000000000000000000000000000000000000000000000000000081526004016106869190611cbc565b60405180910390fd5b60006106a3838361069e610d3e565b610d58565b90508373ffffffffffffffffffffffffffffffffffffffff168173ffffffffffffffffffffffffffffffffffffffff1614610719578382826040517f64283d7b00000000000000000000000000000000000000000000000000000000815260040161071093929190612170565b60405180910390fd5b50505050565b61073a83838360405180602001604052806000815250610a67565b505050565b8173ffffffffffffffffffffffffffffffffffffffff16600a600085815260200190815260200160002060009054906101000a900473ffffffffffffffffffffffffffffffffffffffff1673ffffffffffffffffffffffffffffffffffffffff16146107e0576040517f08c379a00000000000000000000000000000000000000000000000000000000081526004016107d7906121f3565b60405180910390fd5b6107eb82828561071f565b505050565b60006107fb82610c79565b9050919050565b60008073ffffffffffffffffffffffffffffffffffffffff168273ffffffffffffffffffffffffffffffffffffffff16036108755760006040517f89c62b6400000000000000000000000000000000000000000000000000000000815260040161086c9190611cbc565b60405180910390fd5b600360008373ffffffffffffffffffffffffffffffffffffffff1673ffffffffffffffffffffffffffffffffffffffff168152602001908152602001600020549050919050565b6108c4610f72565b6108ce6000610ff9565b565b6000600660009054906101000a900473ffffffffffffffffffffffffffffffffffffffff16905090565b6060600180546109099061213f565b80601f01602080910402602001604051908101604052809291908181526020018280546109359061213f565b80156109825780601f1061095757610100808354040283529160200191610982565b820191906000526020600020905b81548152906001019060200180831161096557829003601f168201915b5050505050905090565b610994610f72565b600754600854106109da576040517f08c379a00000000000000000000000000000000000000000000000000000000081526004016109d19061225f565b60405180910390fd5b33600a600083815260200190815260200160002060006101000a81548173ffffffffffffffffffffffffffffffffffffffff021916908373ffffffffffffffffffffffffffffffffffffffff160217905550610a3633826110bf565b60086000815480929190610a49906122ae565b919050555050565b610a63610a5c610d3e565b83836111b8565b5050565b610a7284848461061d565b610a86610a7d610d3e565b85858585611327565b50505050565b6060610a9782610c79565b506000610aa26114d8565b90506000815111610ac25760405180602001604052806000815250610aed565b80610acc846114ef565b604051602001610add929190612332565b6040516020818303038152906040525b915050919050565b6000600560008473ffffffffffffffffffffffffffffffffffffffff1673ffffffffffffffffffffffffffffffffffffffff16815260200190815260200160002060008373ffffffffffffffffffffffffffffffffffffffff1673ffffffffffffffffffffffffffffffffffffffff16815260200190815260200160002060009054906101000a900460ff16905092915050565b610b91610f72565b600073ffffffffffffffffffffffffffffffffffffffff168173ffffffffffffffffffffffffffffffffffffffff1603610c035760006040517f1e4fbdf7000000000000000000000000000000000000000000000000000000008152600401610bfa9190611cbc565b60405180910390fd5b610c0c81610ff9565b50565b60007f01ffc9a7000000000000000000000000000000000000000000000000000000007bffffffffffffffffffffffffffffffffffffffffffffffffffffffff1916827bffffffffffffffffffffffffffffffffffffffffffffffffffffffff1916149050919050565b600080610c85836115bd565b9050600073ffffffffffffffffffffffffffffffffffffffff168173ffffffffffffffffffffffffffffffffffffffff1603610cf857826040517f7e273289000000000000000000000000000000000000000000000000000000008152600401610cef9190611e25565b60405180910390fd5b80915050919050565b60006004600083815260200190815260200160002060009054906101000a900473ffffffffffffffffffffffffffffffffffffffff169050919050565b600033905090565b610d5383838360016115fa565b505050565b600080610d64846115bd565b9050600073ffffffffffffffffffffffffffffffffffffffff168373ffffffffffffffffffffffffffffffffffffffff1614610da657610da58184866117bf565b5b600073ffffffffffffffffffffffffffffffffffffffff168173ffffffffffffffffffffffffffffffffffffffff1614610e3757610de86000856000806115fa565b6001600360008373ffffffffffffffffffffffffffffffffffffffff1673ffffffffffffffffffffffffffffffffffffffff168152602001908152602001600020600082825403925050819055505b600073ffffffffffffffffffffffffffffffffffffffff168573ffffffffffffffffffffffffffffffffffffffff1614610eba576001600360008773ffffffffffffffffffffffffffffffffffffffff1673ffffffffffffffffffffffffffffffffffffffff168152602001908152602001600020600082825401925050819055505b846002600086815260200190815260200160002060006101000a81548173ffffffffffffffffffffffffffffffffffffffff021916908373ffffffffffffffffffffffffffffffffffffffff160217905550838573ffffffffffffffffffffffffffffffffffffffff168273ffffffffffffffffffffffffffffffffffffffff167fddf252ad1be2c89b69c2b068fc378daa952ba7f163c4a11628f55a4df523b3ef60405160405180910390a4809150509392505050565b610f7a610d3e565b73ffffffffffffffffffffffffffffffffffffffff16610f986108d0565b73ffffffffffffffffffffffffffffffffffffffff1614610ff757610fbb610d3e565b6040517f118cdaa7000000000000000000000000000000000000000000000000000000008152600401610fee9190611cbc565b60405180910390fd5b565b6000600660009054906101000a900473ffffffffffffffffffffffffffffffffffffffff16905081600660006101000a81548173ffffffffffffffffffffffffffffffffffffffff021916908373ffffffffffffffffffffffffffffffffffffffff1602179055508173ffffffffffffffffffffffffffffffffffffffff168173ffffffffffffffffffffffffffffffffffffffff167f8be0079c531659141344cd1fd0a4f28419497f9722a3daafe3b4186f6b6457e060405160405180910390a35050565b600073ffffffffffffffffffffffffffffffffffffffff168273ffffffffffffffffffffffffffffffffffffffff16036111315760006040517f64a0ae920000000000000000000000000000000000000000000000000000000081526004016111289190611cbc565b60405180910390fd5b600061113f83836000610d58565b9050600073ffffffffffffffffffffffffffffffffffffffff168173ffffffffffffffffffffffffffffffffffffffff16146111b35760006040517f73c6ac6e0000000000000000000000000000000000000000000000000000000081526004016111aa9190611cbc565b60405180910390fd5b505050565b600073ffffffffffffffffffffffffffffffffffffffff168273ffffffffffffffffffffffffffffffffffffffff160361122957816040517f5b08ba180000000000000000000000000000000000000000000000000000000081526004016112209190611cbc565b60405180910390fd5b80600560008573ffffffffffffffffffffffffffffffffffffffff1673ffffffffffffffffffffffffffffffffffffffff16815260200190815260200160002060008473ffffffffffffffffffffffffffffffffffffffff1673ffffffffffffffffffffffffffffffffffffffff16815260200190815260200160002060006101000a81548160ff0219169083151502179055508173ffffffffffffffffffffffffffffffffffffffff168373ffffffffffffffffffffffffffffffffffffffff167f17307eab39ab6107e8899845ad3d59bd9653f200f220920489ca2b5937696c318360405161131a9190611b4b565b60405180910390a3505050565b60008373ffffffffffffffffffffffffffffffffffffffff163b11156114d1578273ffffffffffffffffffffffffffffffffffffffff1663150b7a02868685856040518563ffffffff1660e01b815260040161138694939291906123ab565b6020604051808303816000875af19250505080156113c257506040513d601f19601f820116820180604052508101906113bf919061240c565b60015b611446573d80600081146113f2576040519150601f19603f3d011682016040523d82523d6000602084013e6113f7565b606091505b50600081510361143e57836040517f64a0ae920000000000000000000000000000000000000000000000000000000081526004016114359190611cbc565b60405180910390fd5b805181602001fd5b63150b7a0260e01b7bffffffffffffffffffffffffffffffffffffffffffffffffffffffff1916817bffffffffffffffffffffffffffffffffffffffffffffffffffffffff1916146114cf57836040517f64a0ae920000000000000000000000000000000000000000000000000000000081526004016114c69190611cbc565b60405180910390fd5b505b5050505050565b606060405180602001604052806000815250905090565b6060600060016114fe84611883565b01905060008167ffffffffffffffff81111561151d5761151c611eb6565b5b6040519080825280601f01601f19166020018201604052801561154f5781602001600182028036833780820191505090505b509050600082602001820190505b6001156115b2578080600190039150507f3031323334353637383961626364656600000000000000000000000000000000600a86061a8153600a85816115a6576115a5612439565b5b0494506000850361155d575b819350505050919050565b60006002600083815260200190815260200160002060009054906101000a900473ffffffffffffffffffffffffffffffffffffffff169050919050565b80806116335750600073ffffffffffffffffffffffffffffffffffffffff168273ffffffffffffffffffffffffffffffffffffffff1614155b1561176757600061164384610c79565b9050600073ffffffffffffffffffffffffffffffffffffffff168373ffffffffffffffffffffffffffffffffffffffff16141580156116ae57508273ffffffffffffffffffffffffffffffffffffffff168173ffffffffffffffffffffffffffffffffffffffff1614155b80156116c157506116bf8184610af5565b155b1561170357826040517fa9fbf51f0000000000000000000000000000000000000000000000000000000081526004016116fa9190611cbc565b60405180910390fd5b811561176557838573ffffffffffffffffffffffffffffffffffffffff168273ffffffffffffffffffffffffffffffffffffffff167f8c5be1e5ebec7d5bd14f71427d1e84f3dd0314c0f7b2291e5b200ac8c7c3b92560405160405180910390a45b505b836004600085815260200190815260200160002060006101000a81548173ffffffffffffffffffffffffffffffffffffffff021916908373ffffffffffffffffffffffffffffffffffffffff16021790555050505050565b6117ca8383836119d6565b61187e57600073ffffffffffffffffffffffffffffffffffffffff168373ffffffffffffffffffffffffffffffffffffffff160361183f57806040517f7e2732890000000000000000000000000000000000000000000000000000000081526004016118369190611e25565b60405180910390fd5b81816040517f177e802f000000000000000000000000000000000000000000000000000000008152600401611875929190612468565b60405180910390fd5b505050565b600080600090507a184f03e93ff9f4daa797ed6e38ed64bf6a1f01000000000000000083106118e1577a184f03e93ff9f4daa797ed6e38ed64bf6a1f01000000000000000083816118d7576118d6612439565b5b0492506040810190505b6d04ee2d6d415b85acef8100000000831061191e576d04ee2d6d415b85acef8100000000838161191457611913612439565b5b0492506020810190505b662386f26fc10000831061194d57662386f26fc10000838161194357611942612439565b5b0492506010810190505b6305f5e1008310611976576305f5e100838161196c5761196b612439565b5b0492506008810190505b612710831061199b57612710838161199157611990612439565b5b0492506004810190505b606483106119be57606483816119b4576119b3612439565b5b0492506002810190505b600a83106119cd576001810190505b80915050919050565b60008073ffffffffffffffffffffffffffffffffffffffff168373ffffffffffffffffffffffffffffffffffffffff1614158015611a8e57508273ffffffffffffffffffffffffffffffffffffffff168473ffffffffffffffffffffffffffffffffffffffff161480611a4f5750611a4e8484610af5565b5b80611a8d57508273ffffffffffffffffffffffffffffffffffffffff16611a7583610d01565b73ffffffffffffffffffffffffffffffffffffffff16145b5b90509392505050565b6000604051905090565b600080fd5b600080fd5b60007fffffffff0000000000000000000000000000000000000000000000000000000082169050919050565b611ae081611aab565b8114611aeb57600080fd5b50565b600081359050611afd81611ad7565b92915050565b600060208284031215611b1957611b18611aa1565b5b6000611b2784828501611aee565b91505092915050565b60008115159050919050565b611b4581611b30565b82525050565b6000602082019050611b606000830184611b3c565b92915050565b6000819050919050565b611b7981611b66565b8114611b8457600080fd5b50565b600081359050611b9681611b70565b92915050565b600060208284031215611bb257611bb1611aa1565b5b6000611bc084828501611b87565b91505092915050565b600081519050919050565b600082825260208201905092915050565b60005b83811015611c03578082015181840152602081019050611be8565b60008484015250505050565b6000601f19601f8301169050919050565b6000611c2b82611bc9565b611c358185611bd4565b9350611c45818560208601611be5565b611c4e81611c0f565b840191505092915050565b60006020820190508181036000830152611c738184611c20565b905092915050565b600073ffffffffffffffffffffffffffffffffffffffff82169050919050565b6000611ca682611c7b565b9050919050565b611cb681611c9b565b82525050565b6000602082019050611cd16000830184611cad565b92915050565b611ce081611c9b565b8114611ceb57600080fd5b50565b600081359050611cfd81611cd7565b92915050565b60008060408385031215611d1a57611d19611aa1565b5b6000611d2885828601611cee565b9250506020611d3985828601611b87565b9150509250929050565b600080600060608486031215611d5c57611d5b611aa1565b5b6000611d6a86828701611cee565b9350506020611d7b86828701611cee565b9250506040611d8c86828701611b87565b9150509250925092565b600080600060608486031215611daf57611dae611aa1565b5b6000611dbd86828701611b87565b9350506020611dce86828701611cee565b9250506040611ddf86828701611cee565b9150509250925092565b600060208284031215611dff57611dfe611aa1565b5b6000611e0d84828501611cee565b91505092915050565b611e1f81611b66565b82525050565b6000602082019050611e3a6000830184611e16565b92915050565b611e4981611b30565b8114611e5457600080fd5b50565b600081359050611e6681611e40565b92915050565b60008060408385031215611e8357611e82611aa1565b5b6000611e9185828601611cee565b9250506020611ea285828601611e57565b9150509250929050565b600080fd5b600080fd5b7f4e487b7100000000000000000000000000000000000000000000000000000000600052604160045260246000fd5b611eee82611c0f565b810181811067ffffffffffffffff82111715611f0d57611f0c611eb6565b5b80604052505050565b6000611f20611a97565b9050611f2c8282611ee5565b919050565b600067ffffffffffffffff821115611f4c57611f4b611eb6565b5b611f5582611c0f565b9050602081019050919050565b82818337600083830152505050565b6000611f84611f7f84611f31565b611f16565b905082815260208101848484011115611fa057611f9f611eb1565b5b611fab848285611f62565b509392505050565b600082601f830112611fc857611fc7611eac565b5b8135611fd8848260208601611f71565b91505092915050565b60008060008060808587031215611ffb57611ffa611aa1565b5b600061200987828801611cee565b945050602061201a87828801611cee565b935050604061202b87828801611b87565b925050606085013567ffffffffffffffff81111561204c5761204b611aa6565b5b61205887828801611fb3565b91505092959194509250565b6000806040838503121561207b5761207a611aa1565b5b600061208985828601611cee565b925050602061209a85828601611cee565b9150509250929050565b7f6e6f742061206f726967696e616c206f776e6572000000000000000000000000600082015250565b60006120da601483611bd4565b91506120e5826120a4565b602082019050919050565b60006020820190508181036000830152612109816120cd565b9050919050565b7f4e487b7100000000000000000000000000000000000000000000000000000000600052602260045260246000fd5b6000600282049050600182168061215757607f821691505b60208210810361216a57612169612110565b5b50919050565b60006060820190506121856000830186611cad565b6121926020830185611e16565b61219f6040830184611cad565b949350505050565b7f6e6f7420746865206f776e657200000000000000000000000000000000000000600082015250565b60006121dd600d83611bd4565b91506121e8826121a7565b602082019050919050565b6000602082019050818103600083015261220c816121d0565b9050919050565b7f537570706c79206c696d69742063726f73736564000000000000000000000000600082015250565b6000612249601483611bd4565b915061225482612213565b602082019050919050565b600060208201905081810360008301526122788161223c565b9050919050565b7f4e487b7100000000000000000000000000000000000000000000000000000000600052601160045260246000fd5b60006122b982611b66565b91507fffffffffffffffffffffffffffffffffffffffffffffffffffffffffffffffff82036122eb576122ea61227f565b5b600182019050919050565b600081905092915050565b600061230c82611bc9565b61231681856122f6565b9350612326818560208601611be5565b80840191505092915050565b600061233e8285612301565b915061234a8284612301565b91508190509392505050565b600081519050919050565b600082825260208201905092915050565b600061237d82612356565b6123878185612361565b9350612397818560208601611be5565b6123a081611c0f565b840191505092915050565b60006080820190506123c06000830187611cad565b6123cd6020830186611cad565b6123da6040830185611e16565b81810360608301526123ec8184612372565b905095945050505050565b60008151905061240681611ad7565b92915050565b60006020828403121561242257612421611aa1565b5b6000612430848285016123f7565b91505092915050565b7f4e487b7100000000000000000000000000000000000000000000000000000000600052601260045260246000fd5b600060408201905061247d6000830185611cad565b61248a6020830184611e16565b939250505056fea264697066735822122080e42bdc7aaf11f8f95acbfd0fc190cf9cd5aba337215bff7cf6db541b11feb164736f6c63430008170033","linkReferences":{}},"methodIdentifiers":{"approve(address,uint256)":"095ea7b3","balanceOf(address)":"70a08231","getApproved(uint256)":"081812fc","isApprovedForAll(address,address)":"e985e9c5","mint(uint256)":"a0712d68","name()":"06fdde03","owner()":"8da5cb5b","ownerOf(uint256)":"6352211e","renounceOwnership()":"715018a6","safeTransferFrom(address,address,uint256)":"42842e0e","safeTransferFrom(address,address,uint256,bytes)":"b88d4fde","sendTokens(uint256,address,address)":"5fbef867","setApprovalForAll(address,bool)":"a22cb465","supportsInterface(bytes4)":"01ffc9a7","symbol()":"95d89b41","tokenURI(uint256)":"c87b56dd","transferFrom(address,address,uint256)":"23b872dd","transferOwnership(address)":"f2fde38b","withdrawNFT(uint256)":"023245d7"},"id":1}