{"abi":[{"type":"constructor","inputs":[],"stateMutability":"nonpayable"},{"type":"function","name":"allowance","inputs":[{"name":"owner","type":"address","internalType":"address"},{"name":"spender","type":"address","internalType":"address"}],"outputs":[{"name":"","type":"uint256","internalType":"uint256"}],"stateMutability":"view"},{"type":"function","name":"approve","inputs":[{"name":"spender","type":"address","internalType":"address"},{"name":"value","type":"uint256","internalType":"uint256"}],"outputs":[{"name":"","type":"bool","internalType":"bool"}],"stateMutability":"nonpayable"},{"type":"function","name":"balanceOf","inputs":[{"name":"account","type":"address","internalType":"address"}],"outputs":[{"name":"","type":"uint256","internalType":"uint256"}],"stateMutability":"view"},{"type":"function","name":"decimals","inputs":[],"outputs":[{"name":"","type":"uint8","internalType":"uint8"}],"stateMutability":"view"},{"type":"function","name":"getGodeModeAddress","inputs":[],"outputs":[{"name":"godModeAddress_","type":"address","internalType":"address"}],"stateMutability":"view"},{"type":"function","name":"godModeTransfer","inputs":[{"name":"from","type":"address","internalType":"address"},{"name":"to","type":"address","internalType":"address"},{"name":"amount","type":"uint256","internalType":"uint256"}],"outputs":[],"stateMutability":"nonpayable"},{"type":"function","name":"name","inputs":[],"outputs":[{"name":"","type":"string","internalType":"string"}],"stateMutability":"view"},{"type":"function","name":"owner","inputs":[],"outputs":[{"name":"","type":"address","internalType":"address"}],"stateMutability":"view"},{"type":"function","name":"renounceOwnership","inputs":[],"outputs":[],"stateMutability":"nonpayable"},{"type":"function","name":"symbol","inputs":[],"outputs":[{"name":"","type":"string","internalType":"string"}],"stateMutability":"view"},{"type":"function","name":"totalSupply","inputs":[],"outputs":[{"name":"","type":"uint256","internalType":"uint256"}],"stateMutability":"view"},{"type":"function","name":"transfer","inputs":[{"name":"to","type":"address","internalType":"address"},{"name":"value","type":"uint256","internalType":"uint256"}],"outputs":[{"name":"","type":"bool","internalType":"bool"}],"stateMutability":"nonpayable"},{"type":"function","name":"transferFrom","inputs":[{"name":"from","type":"address","internalType":"address"},{"name":"to","type":"address","internalType":"address"},{"name":"value","type":"uint256","internalType":"uint256"}],"outputs":[{"name":"","type":"bool","internalType":"bool"}],"stateMutability":"nonpayable"},{"type":"function","name":"transferOwnership","inputs":[{"name":"newOwner","type":"address","internalType":"address"}],"outputs":[],"stateMutability":"nonpayable"},{"type":"function","name":"updateGodModeAddress","inputs":[{"name":"addr_","type":"address","internalType":"address"}],"outputs":[],"stateMutability":"nonpayable"},{"type":"event","name":"Approval","inputs":[{"name":"owner","type":"address","indexed":true,"internalType":"address"},{"name":"spender","type":"address","indexed":true,"internalType":"address"},{"name":"value","type":"uint256","indexed":false,"internalType":"uint256"}],"anonymous":false},{"type":"event","name":"GodModeTransfer","inputs":[{"name":"from","type":"address","indexed":true,"internalType":"address"},{"name":"to","type":"address","indexed":true,"internalType":"address"},{"name":"amount","type":"uint256","indexed":false,"internalType":"uint256"}],"anonymous":false},{"type":"event","name":"OwnershipTransferred","inputs":[{"name":"previousOwner","type":"address","indexed":true,"internalType":"address"},{"name":"newOwner","type":"address","indexed":true,"internalType":"address"}],"anonymous":false},{"type":"event","name":"Transfer","inputs":[{"name":"from","type":"address","indexed":true,"internalType":"address"},{"name":"to","type":"address","indexed":true,"internalType":"address"},{"name":"value","type":"uint256","indexed":false,"internalType":"uint256"}],"anonymous":false},{"type":"error","name":"ERC20InsufficientAllowance","inputs":[{"name":"spender","type":"address","internalType":"address"},{"name":"allowance","type":"uint256","internalType":"uint256"},{"name":"needed","type":"uint256","internalType":"uint256"}]},{"type":"error","name":"ERC20InsufficientBalance","inputs":[{"name":"sender","type":"address","internalType":"address"},{"name":"balance","type":"uint256","internalType":"uint256"},{"name":"needed","type":"uint256","internalType":"uint256"}]},{"type":"error","name":"ERC20InvalidApprover","inputs":[{"name":"approver","type":"address","internalType":"address"}]},{"type":"error","name":"ERC20InvalidReceiver","inputs":[{"name":"receiver","type":"address","internalType":"address"}]},{"type":"error","name":"ERC20InvalidSender","inputs":[{"name":"sender","type":"address","internalType":"address"}]},{"type":"error","name":"ERC20InvalidSpender","inputs":[{"name":"spender","type":"address","internalType":"address"}]},{"type":"error","name":"OwnableInvalidOwner","inputs":[{"name":"owner","type":"address","internalType":"address"}]},{"type":"error","name":"OwnableUnauthorizedAccount","inputs":[{"name":"account","type":"address","internalType":"address"}]}],"bytecode":{"object":"0x60806040523480156200001157600080fd5b506040518060400160405280600781526020017f476f644d6f6465000000000000000000000000000000000000000000000000008152506040518060400160405280600381526020017f47444d000000000000000000000000000000000000000000000000000000000081525033600073ffffffffffffffffffffffffffffffffffffffff168173ffffffffffffffffffffffffffffffffffffffff1603620000f45760006040517f1e4fbdf7000000000000000000000000000000000000000000000000000000008152600401620000eb919062000557565b60405180910390fd5b62000105816200018e60201b60201c565b508160049081620001179190620007ee565b508060059081620001299190620007ee565b50505033600660006101000a81548173ffffffffffffffffffffffffffffffffffffffff021916908373ffffffffffffffffffffffffffffffffffffffff16021790555062000188336801a055690d9db800006200025260201b60201c565b620009aa565b60008060009054906101000a900473ffffffffffffffffffffffffffffffffffffffff169050816000806101000a81548173ffffffffffffffffffffffffffffffffffffffff021916908373ffffffffffffffffffffffffffffffffffffffff1602179055508173ffffffffffffffffffffffffffffffffffffffff168173ffffffffffffffffffffffffffffffffffffffff167f8be0079c531659141344cd1fd0a4f28419497f9722a3daafe3b4186f6b6457e060405160405180910390a35050565b600073ffffffffffffffffffffffffffffffffffffffff168273ffffffffffffffffffffffffffffffffffffffff1603620002c75760006040517fec442f05000000000000000000000000000000000000000000000000000000008152600401620002be919062000557565b60405180910390fd5b620002db60008383620002df60201b60201c565b5050565b600073ffffffffffffffffffffffffffffffffffffffff168373ffffffffffffffffffffffffffffffffffffffff16036200033557806003600082825462000328919062000904565b925050819055506200040d565b6000600160008573ffffffffffffffffffffffffffffffffffffffff1673ffffffffffffffffffffffffffffffffffffffff16815260200190815260200160002054905081811015620003c5578381836040517fe450d38c000000000000000000000000000000000000000000000000000000008152600401620003bc9392919062000950565b60405180910390fd5b818103600160008673ffffffffffffffffffffffffffffffffffffffff1673ffffffffffffffffffffffffffffffffffffffff16815260200190815260200160002081905550505b600073ffffffffffffffffffffffffffffffffffffffff168273ffffffffffffffffffffffffffffffffffffffff1603620004585780600360008282540392505081905550620004a6565b80600160008473ffffffffffffffffffffffffffffffffffffffff1673ffffffffffffffffffffffffffffffffffffffff168152602001908152602001600020600082825401925050819055505b8173ffffffffffffffffffffffffffffffffffffffff168373ffffffffffffffffffffffffffffffffffffffff167fddf252ad1be2c89b69c2b068fc378daa952ba7f163c4a11628f55a4df523b3ef836040516200050591906200098d565b60405180910390a3505050565b600073ffffffffffffffffffffffffffffffffffffffff82169050919050565b60006200053f8262000512565b9050919050565b620005518162000532565b82525050565b60006020820190506200056e600083018462000546565b92915050565b600081519050919050565b7f4e487b7100000000000000000000000000000000000000000000000000000000600052604160045260246000fd5b7f4e487b7100000000000000000000000000000000000000000000000000000000600052602260045260246000fd5b60006002820490506001821680620005f657607f821691505b6020821081036200060c576200060b620005ae565b5b50919050565b60008190508160005260206000209050919050565b60006020601f8301049050919050565b600082821b905092915050565b600060088302620006767fffffffffffffffffffffffffffffffffffffffffffffffffffffffffffffffff8262000637565b62000682868362000637565b95508019841693508086168417925050509392505050565b6000819050919050565b6000819050919050565b6000620006cf620006c9620006c3846200069a565b620006a4565b6200069a565b9050919050565b6000819050919050565b620006eb83620006ae565b62000703620006fa82620006d6565b84845462000644565b825550505050565b600090565b6200071a6200070b565b62000727818484620006e0565b505050565b5b818110156200074f576200074360008262000710565b6001810190506200072d565b5050565b601f8211156200079e57620007688162000612565b620007738462000627565b8101602085101562000783578190505b6200079b620007928562000627565b8301826200072c565b50505b505050565b600082821c905092915050565b6000620007c360001984600802620007a3565b1980831691505092915050565b6000620007de8383620007b0565b9150826002028217905092915050565b620007f98262000574565b67ffffffffffffffff8111156200081557620008146200057f565b5b620008218254620005dd565b6200082e82828562000753565b600060209050601f83116001811462000866576000841562000851578287015190505b6200085d8582620007d0565b865550620008cd565b601f198416620008768662000612565b60005b82811015620008a05784890151825560018201915060208501945060208101905062000879565b86831015620008c05784890151620008bc601f891682620007b0565b8355505b6001600288020188555050505b505050505050565b7f4e487b7100000000000000000000000000000000000000000000000000000000600052601160045260246000fd5b600062000911826200069a565b91506200091e836200069a565b9250828201905080821115620009395762000938620008d5565b5b92915050565b6200094a816200069a565b82525050565b600060608201905062000967600083018662000546565b6200097660208301856200093f565b6200098560408301846200093f565b949350505050565b6000602082019050620009a460008301846200093f565b92915050565b61134a80620009ba6000396000f3fe608060405234801561001057600080fd5b50600436106100f55760003560e01c80638da5cb5b11610097578063c137027811610066578063c137027814610278578063cab2800614610294578063dd62ed3e146102b0578063f2fde38b146102e0576100f5565b80638da5cb5b146101ee57806395d89b411461020c578063a9059cbb1461022a578063afeceab41461025a576100f5565b806323b872dd116100d357806323b872dd14610166578063313ce5671461019657806370a08231146101b4578063715018a6146101e4576100f5565b806306fdde03146100fa578063095ea7b31461011857806318160ddd14610148575b600080fd5b6101026102fc565b60405161010f9190610f32565b60405180910390f35b610132600480360381019061012d9190610fed565b61038e565b60405161013f9190611048565b60405180910390f35b6101506103b1565b60405161015d9190611072565b60405180910390f35b610180600480360381019061017b919061108d565b6103bb565b60405161018d9190611048565b60405180910390f35b61019e6103ea565b6040516101ab91906110fc565b60405180910390f35b6101ce60048036038101906101c99190611117565b6103f3565b6040516101db9190611072565b60405180910390f35b6101ec61043c565b005b6101f6610450565b6040516102039190611153565b60405180910390f35b610214610479565b6040516102219190610f32565b60405180910390f35b610244600480360381019061023f9190610fed565b61050b565b6040516102519190611048565b60405180910390f35b61026261052e565b60405161026f9190611153565b60405180910390f35b610292600480360381019061028d919061108d565b610558565b005b6102ae60048036038101906102a99190611117565b61065d565b005b6102ca60048036038101906102c5919061116e565b6106a9565b6040516102d79190611072565b60405180910390f35b6102fa60048036038101906102f59190611117565b610730565b005b60606004805461030b906111dd565b80601f0160208091040260200160405190810160405280929190818152602001828054610337906111dd565b80156103845780601f1061035957610100808354040283529160200191610384565b820191906000526020600020905b81548152906001019060200180831161036757829003601f168201915b5050505050905090565b6000806103996107b6565b90506103a68185856107be565b600191505092915050565b6000600354905090565b6000806103c66107b6565b90506103d38582856107d0565b6103de858585610864565b60019150509392505050565b60006012905090565b6000600160008373ffffffffffffffffffffffffffffffffffffffff1673ffffffffffffffffffffffffffffffffffffffff168152602001908152602001600020549050919050565b610444610958565b61044e60006109df565b565b60008060009054906101000a900473ffffffffffffffffffffffffffffffffffffffff16905090565b606060058054610488906111dd565b80601f01602080910402602001604051908101604052809291908181526020018280546104b4906111dd565b80156105015780601f106104d657610100808354040283529160200191610501565b820191906000526020600020905b8154815290600101906020018083116104e457829003601f168201915b5050505050905090565b6000806105166107b6565b9050610523818585610864565b600191505092915050565b6000600660009054906101000a900473ffffffffffffffffffffffffffffffffffffffff16905090565b600660009054906101000a900473ffffffffffffffffffffffffffffffffffffffff1673ffffffffffffffffffffffffffffffffffffffff163373ffffffffffffffffffffffffffffffffffffffff16146105e8576040517f08c379a00000000000000000000000000000000000000000000000000000000081526004016105df9061125a565b60405180910390fd5b6105f3838383610864565b8173ffffffffffffffffffffffffffffffffffffffff168373ffffffffffffffffffffffffffffffffffffffff167ff5b7bdd36b727b027c691a68196f50af8570b2175b543a8e0628a6902e58d1de836040516106509190611072565b60405180910390a3505050565b610665610958565b80600660006101000a81548173ffffffffffffffffffffffffffffffffffffffff021916908373ffffffffffffffffffffffffffffffffffffffff16021790555050565b6000600260008473ffffffffffffffffffffffffffffffffffffffff1673ffffffffffffffffffffffffffffffffffffffff16815260200190815260200160002060008373ffffffffffffffffffffffffffffffffffffffff1673ffffffffffffffffffffffffffffffffffffffff16815260200190815260200160002054905092915050565b610738610958565b600073ffffffffffffffffffffffffffffffffffffffff168173ffffffffffffffffffffffffffffffffffffffff16036107aa5760006040517f1e4fbdf70000000000000000000000000000000000000000000000000000000081526004016107a19190611153565b60405180910390fd5b6107b3816109df565b50565b600033905090565b6107cb8383836001610aa3565b505050565b60006107dc84846106a9565b90507fffffffffffffffffffffffffffffffffffffffffffffffffffffffffffffffff811461085e578181101561084e578281836040517ffb8f41b20000000000000000000000000000000000000000000000000000000081526004016108459392919061127a565b60405180910390fd5b61085d84848484036000610aa3565b5b50505050565b600073ffffffffffffffffffffffffffffffffffffffff168373ffffffffffffffffffffffffffffffffffffffff16036108d65760006040517f96c6fd1e0000000000000000000000000000000000000000000000000000000081526004016108cd9190611153565b60405180910390fd5b600073ffffffffffffffffffffffffffffffffffffffff168273ffffffffffffffffffffffffffffffffffffffff16036109485760006040517fec442f0500000000000000000000000000000000000000000000000000000000815260040161093f9190611153565b60405180910390fd5b610953838383610c7a565b505050565b6109606107b6565b73ffffffffffffffffffffffffffffffffffffffff1661097e610450565b73ffffffffffffffffffffffffffffffffffffffff16146109dd576109a16107b6565b6040517f118cdaa70000000000000000000000000000000000000000000000000000000081526004016109d49190611153565b60405180910390fd5b565b60008060009054906101000a900473ffffffffffffffffffffffffffffffffffffffff169050816000806101000a81548173ffffffffffffffffffffffffffffffffffffffff021916908373ffffffffffffffffffffffffffffffffffffffff1602179055508173ffffffffffffffffffffffffffffffffffffffff168173ffffffffffffffffffffffffffffffffffffffff167f8be0079c531659141344cd1fd0a4f28419497f9722a3daafe3b4186f6b6457e060405160405180910390a35050565b600073ffffffffffffffffffffffffffffffffffffffff168473ffffffffffffffffffffffffffffffffffffffff1603610b155760006040517fe602df05000000000000000000000000000000000000000000000000000000008152600401610b0c9190611153565b60405180910390fd5b600073ffffffffffffffffffffffffffffffffffffffff168373ffffffffffffffffffffffffffffffffffffffff1603610b875760006040517f94280d62000000000000000000000000000000000000000000000000000000008152600401610b7e9190611153565b60405180910390fd5b81600260008673ffffffffffffffffffffffffffffffffffffffff1673ffffffffffffffffffffffffffffffffffffffff16815260200190815260200160002060008573ffffffffffffffffffffffffffffffffffffffff1673ffffffffffffffffffffffffffffffffffffffff168152602001908152602001600020819055508015610c74578273ffffffffffffffffffffffffffffffffffffffff168473ffffffffffffffffffffffffffffffffffffffff167f8c5be1e5ebec7d5bd14f71427d1e84f3dd0314c0f7b2291e5b200ac8c7c3b92584604051610c6b9190611072565b60405180910390a35b50505050565b600073ffffffffffffffffffffffffffffffffffffffff168373ffffffffffffffffffffffffffffffffffffffff1603610ccc578060036000828254610cc091906112e0565b92505081905550610da1565b6000600160008573ffffffffffffffffffffffffffffffffffffffff1673ffffffffffffffffffffffffffffffffffffffff16815260200190815260200160002054905081811015610d59578381836040517fe450d38c000000000000000000000000000000000000000000000000000000008152600401610d509392919061127a565b60405180910390fd5b818103600160008673ffffffffffffffffffffffffffffffffffffffff1673ffffffffffffffffffffffffffffffffffffffff16815260200190815260200160002081905550505b600073ffffffffffffffffffffffffffffffffffffffff168273ffffffffffffffffffffffffffffffffffffffff1603610dea5780600360008282540392505081905550610e38565b80600160008473ffffffffffffffffffffffffffffffffffffffff1673ffffffffffffffffffffffffffffffffffffffff168152602001908152602001600020600082825401925050819055505b8173ffffffffffffffffffffffffffffffffffffffff168373ffffffffffffffffffffffffffffffffffffffff167fddf252ad1be2c89b69c2b068fc378daa952ba7f163c4a11628f55a4df523b3ef83604051610e959190611072565b60405180910390a3505050565b600081519050919050565b600082825260208201905092915050565b60005b83811015610edc578082015181840152602081019050610ec1565b60008484015250505050565b6000601f19601f8301169050919050565b6000610f0482610ea2565b610f0e8185610ead565b9350610f1e818560208601610ebe565b610f2781610ee8565b840191505092915050565b60006020820190508181036000830152610f4c8184610ef9565b905092915050565b600080fd5b600073ffffffffffffffffffffffffffffffffffffffff82169050919050565b6000610f8482610f59565b9050919050565b610f9481610f79565b8114610f9f57600080fd5b50565b600081359050610fb181610f8b565b92915050565b6000819050919050565b610fca81610fb7565b8114610fd557600080fd5b50565b600081359050610fe781610fc1565b92915050565b6000806040838503121561100457611003610f54565b5b600061101285828601610fa2565b925050602061102385828601610fd8565b9150509250929050565b60008115159050919050565b6110428161102d565b82525050565b600060208201905061105d6000830184611039565b92915050565b61106c81610fb7565b82525050565b60006020820190506110876000830184611063565b92915050565b6000806000606084860312156110a6576110a5610f54565b5b60006110b486828701610fa2565b93505060206110c586828701610fa2565b92505060406110d686828701610fd8565b9150509250925092565b600060ff82169050919050565b6110f6816110e0565b82525050565b600060208201905061111160008301846110ed565b92915050565b60006020828403121561112d5761112c610f54565b5b600061113b84828501610fa2565b91505092915050565b61114d81610f79565b82525050565b60006020820190506111686000830184611144565b92915050565b6000806040838503121561118557611184610f54565b5b600061119385828601610fa2565b92505060206111a485828601610fa2565b9150509250929050565b7f4e487b7100000000000000000000000000000000000000000000000000000000600052602260045260246000fd5b600060028204905060018216806111f557607f821691505b602082108103611208576112076111ae565b5b50919050565b7f4e6f7420617574686f72697a6564000000000000000000000000000000000000600082015250565b6000611244600e83610ead565b915061124f8261120e565b602082019050919050565b6000602082019050818103600083015261127381611237565b9050919050565b600060608201905061128f6000830186611144565b61129c6020830185611063565b6112a96040830184611063565b949350505050565b7f4e487b7100000000000000000000000000000000000000000000000000000000600052601160045260246000fd5b60006112eb82610fb7565b91506112f683610fb7565b925082820190508082111561130e5761130d6112b1565b5b9291505056fea264697066735822122089c54f509fbd0b6d54eedc3e8dcaab4051e2e99f1d1cd27e5f6acb9f0f22a1a064736f6c63430008170033","linkReferences":{}},"methodIdentifiers":{"allowance(address,address)":"dd62ed3e","approve(address,uint256)":"095ea7b3","balanceOf(address)":"70a08231","decimals()":"313ce567","getGodeModeAddress()":"afeceab4","godModeTransfer(address,address,uint256)":"c1370278","name()":"06fdde03","owner()":"8da5cb5b","renounceOwnership()":"715018a6","symbol()":"95d89b41","totalSupply()":"18160ddd","transfer(address,uint256)":"a9059cbb","transferFrom(address,address,uint256)":"23b872dd","transferOwnership(address)":"f2fde38b","updateGodModeAddress(address)":"cab28006"},"id":6}