{"abi":[{"type":"constructor","inputs":[],"stateMutability":"nonpayable"},{"type":"function","name":"approve","inputs":[{"name":"to","type":"address","internalType":"address"},{"name":"tokenId","type":"uint256","internalType":"uint256"}],"outputs":[],"stateMutability":"nonpayable"},{"type":"function","name":"balanceOf","inputs":[{"name":"owner","type":"address","internalType":"address"}],"outputs":[{"name":"","type":"uint256","internalType":"uint256"}],"stateMutability":"view"},{"type":"function","name":"getApproved","inputs":[{"name":"tokenId","type":"uint256","internalType":"uint256"}],"outputs":[{"name":"","type":"address","internalType":"address"}],"stateMutability":"view"},{"type":"function","name":"isApprovedForAll","inputs":[{"name":"owner","type":"address","internalType":"address"},{"name":"operator","type":"address","internalType":"address"}],"outputs":[{"name":"","type":"bool","internalType":"bool"}],"stateMutability":"view"},{"type":"function","name":"mint","inputs":[],"outputs":[],"stateMutability":"nonpayable"},{"type":"function","name":"name","inputs":[],"outputs":[{"name":"","type":"string","internalType":"string"}],"stateMutability":"view"},{"type":"function","name":"owner","inputs":[],"outputs":[{"name":"","type":"address","internalType":"address"}],"stateMutability":"view"},{"type":"function","name":"ownerOf","inputs":[{"name":"tokenId","type":"uint256","internalType":"uint256"}],"outputs":[{"name":"","type":"address","internalType":"address"}],"stateMutability":"view"},{"type":"function","name":"renounceOwnership","inputs":[],"outputs":[],"stateMutability":"nonpayable"},{"type":"function","name":"safeTransferFrom","inputs":[{"name":"from","type":"address","internalType":"address"},{"name":"to","type":"address","internalType":"address"},{"name":"tokenId","type":"uint256","internalType":"uint256"}],"outputs":[],"stateMutability":"nonpayable"},{"type":"function","name":"safeTransferFrom","inputs":[{"name":"from","type":"address","internalType":"address"},{"name":"to","type":"address","internalType":"address"},{"name":"tokenId","type":"uint256","internalType":"uint256"},{"name":"data","type":"bytes","internalType":"bytes"}],"outputs":[],"stateMutability":"nonpayable"},{"type":"function","name":"setApprovalForAll","inputs":[{"name":"operator","type":"address","internalType":"address"},{"name":"approved","type":"bool","internalType":"bool"}],"outputs":[],"stateMutability":"nonpayable"},{"type":"function","name":"supportsInterface","inputs":[{"name":"interfaceId","type":"bytes4","internalType":"bytes4"}],"outputs":[{"name":"","type":"bool","internalType":"bool"}],"stateMutability":"view"},{"type":"function","name":"symbol","inputs":[],"outputs":[{"name":"","type":"string","internalType":"string"}],"stateMutability":"view"},{"type":"function","name":"tokenURI","inputs":[{"name":"tokenId","type":"uint256","internalType":"uint256"}],"outputs":[{"name":"","type":"string","internalType":"string"}],"stateMutability":"view"},{"type":"function","name":"totalSupply","inputs":[],"outputs":[{"name":"","type":"uint256","internalType":"uint256"}],"stateMutability":"view"},{"type":"function","name":"transferFrom","inputs":[{"name":"from","type":"address","internalType":"address"},{"name":"to","type":"address","internalType":"address"},{"name":"tokenId","type":"uint256","internalType":"uint256"}],"outputs":[],"stateMutability":"nonpayable"},{"type":"function","name":"transferOwnership","inputs":[{"name":"newOwner","type":"address","internalType":"address"}],"outputs":[],"stateMutability":"nonpayable"},{"type":"event","name":"Approval","inputs":[{"name":"owner","type":"address","indexed":true,"internalType":"address"},{"name":"approved","type":"address","indexed":true,"internalType":"address"},{"name":"tokenId","type":"uint256","indexed":true,"internalType":"uint256"}],"anonymous":false},{"type":"event","name":"ApprovalForAll","inputs":[{"name":"owner","type":"address","indexed":true,"internalType":"address"},{"name":"operator","type":"address","indexed":true,"internalType":"address"},{"name":"approved","type":"bool","indexed":false,"internalType":"bool"}],"anonymous":false},{"type":"event","name":"OwnershipTransferred","inputs":[{"name":"previousOwner","type":"address","indexed":true,"internalType":"address"},{"name":"newOwner","type":"address","indexed":true,"internalType":"address"}],"anonymous":false},{"type":"event","name":"Transfer","inputs":[{"name":"from","type":"address","indexed":true,"internalType":"address"},{"name":"to","type":"address","indexed":true,"internalType":"address"},{"name":"tokenId","type":"uint256","indexed":true,"internalType":"uint256"}],"anonymous":false},{"type":"error","name":"ERC721IncorrectOwner","inputs":[{"name":"sender","type":"address","internalType":"address"},{"name":"tokenId","type":"uint256","internalType":"uint256"},{"name":"owner","type":"address","internalType":"address"}]},{"type":"error","name":"ERC721InsufficientApproval","inputs":[{"name":"operator","type":"address","internalType":"address"},{"name":"tokenId","type":"uint256","internalType":"uint256"}]},{"type":"error","name":"ERC721InvalidApprover","inputs":[{"name":"approver","type":"address","internalType":"address"}]},{"type":"error","name":"ERC721InvalidOperator","inputs":[{"name":"operator","type":"address","internalType":"address"}]},{"type":"error","name":"ERC721InvalidOwner","inputs":[{"name":"owner","type":"address","internalType":"address"}]},{"type":"error","name":"ERC721InvalidReceiver","inputs":[{"name":"receiver","type":"address","internalType":"address"}]},{"type":"error","name":"ERC721InvalidSender","inputs":[{"name":"sender","type":"address","internalType":"address"}]},{"type":"error","name":"ERC721NonexistentToken","inputs":[{"name":"tokenId","type":"uint256","internalType":"uint256"}]},{"type":"error","name":"OwnableInvalidOwner","inputs":[{"name":"owner","type":"address","internalType":"address"}]},{"type":"error","name":"OwnableUnauthorizedAccount","inputs":[{"name":"account","type":"address","internalType":"address"}]}],"bytecode":{"object":"0x608060405260006007553480156200001657600080fd5b50336040518060400160405280600f81526020017f4669727374436f6c6c656374696f6e00000000000000000000000000000000008152506040518060400160405280600881526020017f52434b4e524f4c4c000000000000000000000000000000000000000000000000815250816000908162000095919062000477565b508060019081620000a7919062000477565b505050600073ffffffffffffffffffffffffffffffffffffffff168173ffffffffffffffffffffffffffffffffffffffff16036200011f5760006040517f1e4fbdf7000000000000000000000000000000000000000000000000000000008152600401620001169190620005a3565b60405180910390fd5b62000130816200013760201b60201c565b50620005c0565b6000600660009054906101000a900473ffffffffffffffffffffffffffffffffffffffff16905081600660006101000a81548173ffffffffffffffffffffffffffffffffffffffff021916908373ffffffffffffffffffffffffffffffffffffffff1602179055508173ffffffffffffffffffffffffffffffffffffffff168173ffffffffffffffffffffffffffffffffffffffff167f8be0079c531659141344cd1fd0a4f28419497f9722a3daafe3b4186f6b6457e060405160405180910390a35050565b600081519050919050565b7f4e487b7100000000000000000000000000000000000000000000000000000000600052604160045260246000fd5b7f4e487b7100000000000000000000000000000000000000000000000000000000600052602260045260246000fd5b600060028204905060018216806200027f57607f821691505b60208210810362000295576200029462000237565b5b50919050565b60008190508160005260206000209050919050565b60006020601f8301049050919050565b600082821b905092915050565b600060088302620002ff7fffffffffffffffffffffffffffffffffffffffffffffffffffffffffffffffff82620002c0565b6200030b8683620002c0565b95508019841693508086168417925050509392505050565b6000819050919050565b6000819050919050565b600062000358620003526200034c8462000323565b6200032d565b62000323565b9050919050565b6000819050919050565b620003748362000337565b6200038c62000383826200035f565b848454620002cd565b825550505050565b600090565b620003a362000394565b620003b081848462000369565b505050565b5b81811015620003d857620003cc60008262000399565b600181019050620003b6565b5050565b601f8211156200042757620003f1816200029b565b620003fc84620002b0565b810160208510156200040c578190505b620004246200041b85620002b0565b830182620003b5565b50505b505050565b600082821c905092915050565b60006200044c600019846008026200042c565b1980831691505092915050565b600062000467838362000439565b9150826002028217905092915050565b6200048282620001fd565b67ffffffffffffffff8111156200049e576200049d62000208565b5b620004aa825462000266565b620004b7828285620003dc565b600060209050601f831160018114620004ef5760008415620004da578287015190505b620004e6858262000459565b86555062000556565b601f198416620004ff866200029b565b60005b82811015620005295784890151825560018201915060208501945060208101905062000502565b8683101562000549578489015162000545601f89168262000439565b8355505b6001600288020188555050505b505050505050565b600073ffffffffffffffffffffffffffffffffffffffff82169050919050565b60006200058b826200055e565b9050919050565b6200059d816200057e565b82525050565b6000602082019050620005ba600083018462000592565b92915050565b61211480620005d06000396000f3fe608060405234801561001057600080fd5b50600436106101165760003560e01c806370a08231116100a2578063a22cb46511610071578063a22cb465146102bb578063b88d4fde146102d7578063c87b56dd146102f3578063e985e9c514610323578063f2fde38b1461035357610116565b806370a0823114610245578063715018a6146102755780638da5cb5b1461027f57806395d89b411461029d57610116565b80631249c58b116100e95780631249c58b146101b557806318160ddd146101bf57806323b872dd146101dd57806342842e0e146101f95780636352211e1461021557610116565b806301ffc9a71461011b57806306fdde031461014b578063081812fc14610169578063095ea7b314610199575b600080fd5b610135600480360381019061013091906118e7565b61036f565b604051610142919061192f565b60405180910390f35b610153610451565b60405161016091906119da565b60405180910390f35b610183600480360381019061017e9190611a32565b6104e3565b6040516101909190611aa0565b60405180910390f35b6101b360048036038101906101ae9190611ae7565b6104ff565b005b6101bd610515565b005b6101c7610571565b6040516101d49190611b36565b60405180910390f35b6101f760048036038101906101f29190611b51565b610577565b005b610213600480360381019061020e9190611b51565b610679565b005b61022f600480360381019061022a9190611a32565b610699565b60405161023c9190611aa0565b60405180910390f35b61025f600480360381019061025a9190611ba4565b6106ab565b60405161026c9190611b36565b60405180910390f35b61027d610765565b005b610287610779565b6040516102949190611aa0565b60405180910390f35b6102a56107a3565b6040516102b291906119da565b60405180910390f35b6102d560048036038101906102d09190611bfd565b610835565b005b6102f160048036038101906102ec9190611d72565b61084b565b005b61030d60048036038101906103089190611a32565b610870565b60405161031a91906119da565b60405180910390f35b61033d60048036038101906103389190611df5565b6108d9565b60405161034a919061192f565b60405180910390f35b61036d60048036038101906103689190611ba4565b61096d565b005b60007f80ac58cd000000000000000000000000000000000000000000000000000000007bffffffffffffffffffffffffffffffffffffffffffffffffffffffff1916827bffffffffffffffffffffffffffffffffffffffffffffffffffffffff1916148061043a57507f5b5e139f000000000000000000000000000000000000000000000000000000007bffffffffffffffffffffffffffffffffffffffffffffffffffffffff1916827bffffffffffffffffffffffffffffffffffffffffffffffffffffffff1916145b8061044a5750610449826109f3565b5b9050919050565b60606000805461046090611e64565b80601f016020809104026020016040519081016040528092919081815260200182805461048c90611e64565b80156104d95780601f106104ae576101008083540402835291602001916104d9565b820191906000526020600020905b8154815290600101906020018083116104bc57829003601f168201915b5050505050905090565b60006104ee82610a5d565b506104f882610ae5565b9050919050565b610511828261050c610b22565b610b2a565b5050565b61051d610b3c565b600060075490505b601481101561056e5760146007541061053d57600080fd5b61054933600754610bc3565b6007600081548092919061055c90611ec4565b91905055508080600101915050610525565b50565b60075481565b600073ffffffffffffffffffffffffffffffffffffffff168273ffffffffffffffffffffffffffffffffffffffff16036105e95760006040517f64a0ae920000000000000000000000000000000000000000000000000000000081526004016105e09190611aa0565b60405180910390fd5b60006105fd83836105f8610b22565b610cbc565b90508373ffffffffffffffffffffffffffffffffffffffff168173ffffffffffffffffffffffffffffffffffffffff1614610673578382826040517f64283d7b00000000000000000000000000000000000000000000000000000000815260040161066a93929190611f0c565b60405180910390fd5b50505050565b6106948383836040518060200160405280600081525061084b565b505050565b60006106a482610a5d565b9050919050565b60008073ffffffffffffffffffffffffffffffffffffffff168273ffffffffffffffffffffffffffffffffffffffff160361071e5760006040517f89c62b640000000000000000000000000000000000000000000000000000000081526004016107159190611aa0565b60405180910390fd5b600360008373ffffffffffffffffffffffffffffffffffffffff1673ffffffffffffffffffffffffffffffffffffffff168152602001908152602001600020549050919050565b61076d610b3c565b6107776000610ed6565b565b6000600660009054906101000a900473ffffffffffffffffffffffffffffffffffffffff16905090565b6060600180546107b290611e64565b80601f01602080910402602001604051908101604052809291908181526020018280546107de90611e64565b801561082b5780601f106108005761010080835404028352916020019161082b565b820191906000526020600020905b81548152906001019060200180831161080e57829003601f168201915b5050505050905090565b610847610840610b22565b8383610f9c565b5050565b610856848484610577565b61086a610861610b22565b8585858561110b565b50505050565b606061087b82610a5d565b5060006108866112bc565b905060008151116108a657604051806020016040528060008152506108d1565b806108b0846112d3565b6040516020016108c1929190611f7f565b6040516020818303038152906040525b915050919050565b6000600560008473ffffffffffffffffffffffffffffffffffffffff1673ffffffffffffffffffffffffffffffffffffffff16815260200190815260200160002060008373ffffffffffffffffffffffffffffffffffffffff1673ffffffffffffffffffffffffffffffffffffffff16815260200190815260200160002060009054906101000a900460ff16905092915050565b610975610b3c565b600073ffffffffffffffffffffffffffffffffffffffff168173ffffffffffffffffffffffffffffffffffffffff16036109e75760006040517f1e4fbdf70000000000000000000000000000000000000000000000000000000081526004016109de9190611aa0565b60405180910390fd5b6109f081610ed6565b50565b60007f01ffc9a7000000000000000000000000000000000000000000000000000000007bffffffffffffffffffffffffffffffffffffffffffffffffffffffff1916827bffffffffffffffffffffffffffffffffffffffffffffffffffffffff1916149050919050565b600080610a69836113a1565b9050600073ffffffffffffffffffffffffffffffffffffffff168173ffffffffffffffffffffffffffffffffffffffff1603610adc57826040517f7e273289000000000000000000000000000000000000000000000000000000008152600401610ad39190611b36565b60405180910390fd5b80915050919050565b60006004600083815260200190815260200160002060009054906101000a900473ffffffffffffffffffffffffffffffffffffffff169050919050565b600033905090565b610b3783838360016113de565b505050565b610b44610b22565b73ffffffffffffffffffffffffffffffffffffffff16610b62610779565b73ffffffffffffffffffffffffffffffffffffffff1614610bc157610b85610b22565b6040517f118cdaa7000000000000000000000000000000000000000000000000000000008152600401610bb89190611aa0565b60405180910390fd5b565b600073ffffffffffffffffffffffffffffffffffffffff168273ffffffffffffffffffffffffffffffffffffffff1603610c355760006040517f64a0ae92000000000000000000000000000000000000000000000000000000008152600401610c2c9190611aa0565b60405180910390fd5b6000610c4383836000610cbc565b9050600073ffffffffffffffffffffffffffffffffffffffff168173ffffffffffffffffffffffffffffffffffffffff1614610cb75760006040517f73c6ac6e000000000000000000000000000000000000000000000000000000008152600401610cae9190611aa0565b60405180910390fd5b505050565b600080610cc8846113a1565b9050600073ffffffffffffffffffffffffffffffffffffffff168373ffffffffffffffffffffffffffffffffffffffff1614610d0a57610d098184866115a3565b5b600073ffffffffffffffffffffffffffffffffffffffff168173ffffffffffffffffffffffffffffffffffffffff1614610d9b57610d4c6000856000806113de565b6001600360008373ffffffffffffffffffffffffffffffffffffffff1673ffffffffffffffffffffffffffffffffffffffff168152602001908152602001600020600082825403925050819055505b600073ffffffffffffffffffffffffffffffffffffffff168573ffffffffffffffffffffffffffffffffffffffff1614610e1e576001600360008773ffffffffffffffffffffffffffffffffffffffff1673ffffffffffffffffffffffffffffffffffffffff168152602001908152602001600020600082825401925050819055505b846002600086815260200190815260200160002060006101000a81548173ffffffffffffffffffffffffffffffffffffffff021916908373ffffffffffffffffffffffffffffffffffffffff160217905550838573ffffffffffffffffffffffffffffffffffffffff168273ffffffffffffffffffffffffffffffffffffffff167fddf252ad1be2c89b69c2b068fc378daa952ba7f163c4a11628f55a4df523b3ef60405160405180910390a4809150509392505050565b6000600660009054906101000a900473ffffffffffffffffffffffffffffffffffffffff16905081600660006101000a81548173ffffffffffffffffffffffffffffffffffffffff021916908373ffffffffffffffffffffffffffffffffffffffff1602179055508173ffffffffffffffffffffffffffffffffffffffff168173ffffffffffffffffffffffffffffffffffffffff167f8be0079c531659141344cd1fd0a4f28419497f9722a3daafe3b4186f6b6457e060405160405180910390a35050565b600073ffffffffffffffffffffffffffffffffffffffff168273ffffffffffffffffffffffffffffffffffffffff160361100d57816040517f5b08ba180000000000000000000000000000000000000000000000000000000081526004016110049190611aa0565b60405180910390fd5b80600560008573ffffffffffffffffffffffffffffffffffffffff1673ffffffffffffffffffffffffffffffffffffffff16815260200190815260200160002060008473ffffffffffffffffffffffffffffffffffffffff1673ffffffffffffffffffffffffffffffffffffffff16815260200190815260200160002060006101000a81548160ff0219169083151502179055508173ffffffffffffffffffffffffffffffffffffffff168373ffffffffffffffffffffffffffffffffffffffff167f17307eab39ab6107e8899845ad3d59bd9653f200f220920489ca2b5937696c31836040516110fe919061192f565b60405180910390a3505050565b60008373ffffffffffffffffffffffffffffffffffffffff163b11156112b5578273ffffffffffffffffffffffffffffffffffffffff1663150b7a02868685856040518563ffffffff1660e01b815260040161116a9493929190611ff8565b6020604051808303816000875af19250505080156111a657506040513d601f19601f820116820180604052508101906111a39190612059565b60015b61122a573d80600081146111d6576040519150601f19603f3d011682016040523d82523d6000602084013e6111db565b606091505b50600081510361122257836040517f64a0ae920000000000000000000000000000000000000000000000000000000081526004016112199190611aa0565b60405180910390fd5b805181602001fd5b63150b7a0260e01b7bffffffffffffffffffffffffffffffffffffffffffffffffffffffff1916817bffffffffffffffffffffffffffffffffffffffffffffffffffffffff1916146112b357836040517f64a0ae920000000000000000000000000000000000000000000000000000000081526004016112aa9190611aa0565b60405180910390fd5b505b5050505050565b606060405180602001604052806000815250905090565b6060600060016112e284611667565b01905060008167ffffffffffffffff81111561130157611300611c47565b5b6040519080825280601f01601f1916602001820160405280156113335781602001600182028036833780820191505090505b509050600082602001820190505b600115611396578080600190039150507f3031323334353637383961626364656600000000000000000000000000000000600a86061a8153600a858161138a57611389612086565b5b04945060008503611341575b819350505050919050565b60006002600083815260200190815260200160002060009054906101000a900473ffffffffffffffffffffffffffffffffffffffff169050919050565b80806114175750600073ffffffffffffffffffffffffffffffffffffffff168273ffffffffffffffffffffffffffffffffffffffff1614155b1561154b57600061142784610a5d565b9050600073ffffffffffffffffffffffffffffffffffffffff168373ffffffffffffffffffffffffffffffffffffffff161415801561149257508273ffffffffffffffffffffffffffffffffffffffff168173ffffffffffffffffffffffffffffffffffffffff1614155b80156114a557506114a381846108d9565b155b156114e757826040517fa9fbf51f0000000000000000000000000000000000000000000000000000000081526004016114de9190611aa0565b60405180910390fd5b811561154957838573ffffffffffffffffffffffffffffffffffffffff168273ffffffffffffffffffffffffffffffffffffffff167f8c5be1e5ebec7d5bd14f71427d1e84f3dd0314c0f7b2291e5b200ac8c7c3b92560405160405180910390a45b505b836004600085815260200190815260200160002060006101000a81548173ffffffffffffffffffffffffffffffffffffffff021916908373ffffffffffffffffffffffffffffffffffffffff16021790555050505050565b6115ae8383836117ba565b61166257600073ffffffffffffffffffffffffffffffffffffffff168373ffffffffffffffffffffffffffffffffffffffff160361162357806040517f7e27328900000000000000000000000000000000000000000000000000000000815260040161161a9190611b36565b60405180910390fd5b81816040517f177e802f0000000000000000000000000000000000000000000000000000000081526004016116599291906120b5565b60405180910390fd5b505050565b600080600090507a184f03e93ff9f4daa797ed6e38ed64bf6a1f01000000000000000083106116c5577a184f03e93ff9f4daa797ed6e38ed64bf6a1f01000000000000000083816116bb576116ba612086565b5b0492506040810190505b6d04ee2d6d415b85acef81000000008310611702576d04ee2d6d415b85acef810000000083816116f8576116f7612086565b5b0492506020810190505b662386f26fc10000831061173157662386f26fc10000838161172757611726612086565b5b0492506010810190505b6305f5e100831061175a576305f5e10083816117505761174f612086565b5b0492506008810190505b612710831061177f57612710838161177557611774612086565b5b0492506004810190505b606483106117a2576064838161179857611797612086565b5b0492506002810190505b600a83106117b1576001810190505b80915050919050565b60008073ffffffffffffffffffffffffffffffffffffffff168373ffffffffffffffffffffffffffffffffffffffff161415801561187257508273ffffffffffffffffffffffffffffffffffffffff168473ffffffffffffffffffffffffffffffffffffffff161480611833575061183284846108d9565b5b8061187157508273ffffffffffffffffffffffffffffffffffffffff1661185983610ae5565b73ffffffffffffffffffffffffffffffffffffffff16145b5b90509392505050565b6000604051905090565b600080fd5b600080fd5b60007fffffffff0000000000000000000000000000000000000000000000000000000082169050919050565b6118c48161188f565b81146118cf57600080fd5b50565b6000813590506118e1816118bb565b92915050565b6000602082840312156118fd576118fc611885565b5b600061190b848285016118d2565b91505092915050565b60008115159050919050565b61192981611914565b82525050565b60006020820190506119446000830184611920565b92915050565b600081519050919050565b600082825260208201905092915050565b60005b83811015611984578082015181840152602081019050611969565b60008484015250505050565b6000601f19601f8301169050919050565b60006119ac8261194a565b6119b68185611955565b93506119c6818560208601611966565b6119cf81611990565b840191505092915050565b600060208201905081810360008301526119f481846119a1565b905092915050565b6000819050919050565b611a0f816119fc565b8114611a1a57600080fd5b50565b600081359050611a2c81611a06565b92915050565b600060208284031215611a4857611a47611885565b5b6000611a5684828501611a1d565b91505092915050565b600073ffffffffffffffffffffffffffffffffffffffff82169050919050565b6000611a8a82611a5f565b9050919050565b611a9a81611a7f565b82525050565b6000602082019050611ab56000830184611a91565b92915050565b611ac481611a7f565b8114611acf57600080fd5b50565b600081359050611ae181611abb565b92915050565b60008060408385031215611afe57611afd611885565b5b6000611b0c85828601611ad2565b9250506020611b1d85828601611a1d565b9150509250929050565b611b30816119fc565b82525050565b6000602082019050611b4b6000830184611b27565b92915050565b600080600060608486031215611b6a57611b69611885565b5b6000611b7886828701611ad2565b9350506020611b8986828701611ad2565b9250506040611b9a86828701611a1d565b9150509250925092565b600060208284031215611bba57611bb9611885565b5b6000611bc884828501611ad2565b91505092915050565b611bda81611914565b8114611be557600080fd5b50565b600081359050611bf781611bd1565b92915050565b60008060408385031215611c1457611c13611885565b5b6000611c2285828601611ad2565b9250506020611c3385828601611be8565b9150509250929050565b600080fd5b600080fd5b7f4e487b7100000000000000000000000000000000000000000000000000000000600052604160045260246000fd5b611c7f82611990565b810181811067ffffffffffffffff82111715611c9e57611c9d611c47565b5b80604052505050565b6000611cb161187b565b9050611cbd8282611c76565b919050565b600067ffffffffffffffff821115611cdd57611cdc611c47565b5b611ce682611990565b9050602081019050919050565b82818337600083830152505050565b6000611d15611d1084611cc2565b611ca7565b905082815260208101848484011115611d3157611d30611c42565b5b611d3c848285611cf3565b509392505050565b600082601f830112611d5957611d58611c3d565b5b8135611d69848260208601611d02565b91505092915050565b60008060008060808587031215611d8c57611d8b611885565b5b6000611d9a87828801611ad2565b9450506020611dab87828801611ad2565b9350506040611dbc87828801611a1d565b925050606085013567ffffffffffffffff811115611ddd57611ddc61188a565b5b611de987828801611d44565b91505092959194509250565b60008060408385031215611e0c57611e0b611885565b5b6000611e1a85828601611ad2565b9250506020611e2b85828601611ad2565b9150509250929050565b7f4e487b7100000000000000000000000000000000000000000000000000000000600052602260045260246000fd5b60006002820490506001821680611e7c57607f821691505b602082108103611e8f57611e8e611e35565b5b50919050565b7f4e487b7100000000000000000000000000000000000000000000000000000000600052601160045260246000fd5b6000611ecf826119fc565b91507fffffffffffffffffffffffffffffffffffffffffffffffffffffffffffffffff8203611f0157611f00611e95565b5b600182019050919050565b6000606082019050611f216000830186611a91565b611f2e6020830185611b27565b611f3b6040830184611a91565b949350505050565b600081905092915050565b6000611f598261194a565b611f638185611f43565b9350611f73818560208601611966565b80840191505092915050565b6000611f8b8285611f4e565b9150611f978284611f4e565b91508190509392505050565b600081519050919050565b600082825260208201905092915050565b6000611fca82611fa3565b611fd48185611fae565b9350611fe4818560208601611966565b611fed81611990565b840191505092915050565b600060808201905061200d6000830187611a91565b61201a6020830186611a91565b6120276040830185611b27565b81810360608301526120398184611fbf565b905095945050505050565b600081519050612053816118bb565b92915050565b60006020828403121561206f5761206e611885565b5b600061207d84828501612044565b91505092915050565b7f4e487b7100000000000000000000000000000000000000000000000000000000600052601260045260246000fd5b60006040820190506120ca6000830185611a91565b6120d76020830184611b27565b939250505056fea2646970667358221220da76afa752e39ade010279a6842ca491f8c645b603a07d439defa75c6fcce06e64736f6c63430008170033","linkReferences":{}},"methodIdentifiers":{"approve(address,uint256)":"095ea7b3","balanceOf(address)":"70a08231","getApproved(uint256)":"081812fc","isApprovedForAll(address,address)":"e985e9c5","mint()":"1249c58b","name()":"06fdde03","owner()":"8da5cb5b","ownerOf(uint256)":"6352211e","renounceOwnership()":"715018a6","safeTransferFrom(address,address,uint256)":"42842e0e","safeTransferFrom(address,address,uint256,bytes)":"b88d4fde","setApprovalForAll(address,bool)":"a22cb465","supportsInterface(bytes4)":"01ffc9a7","symbol()":"95d89b41","tokenURI(uint256)":"c87b56dd","totalSupply()":"18160ddd","transferFrom(address,address,uint256)":"23b872dd","transferOwnership(address)":"f2fde38b"},"id":9}