{"abi":[{"type":"constructor","inputs":[],"stateMutability":"nonpayable"},{"type":"function","name":"approve","inputs":[{"name":"to","type":"address","internalType":"address"},{"name":"tokenId","type":"uint256","internalType":"uint256"}],"outputs":[],"stateMutability":"nonpayable"},{"type":"function","name":"balanceOf","inputs":[{"name":"owner","type":"address","internalType":"address"}],"outputs":[{"name":"","type":"uint256","internalType":"uint256"}],"stateMutability":"view"},{"type":"function","name":"getApproved","inputs":[{"name":"tokenId","type":"uint256","internalType":"uint256"}],"outputs":[{"name":"","type":"address","internalType":"address"}],"stateMutability":"view"},{"type":"function","name":"isApprovedForAll","inputs":[{"name":"owner","type":"address","internalType":"address"},{"name":"operator","type":"address","internalType":"address"}],"outputs":[{"name":"","type":"bool","internalType":"bool"}],"stateMutability":"view"},{"type":"function","name":"mint","inputs":[],"outputs":[],"stateMutability":"nonpayable"},{"type":"function","name":"name","inputs":[],"outputs":[{"name":"","type":"string","internalType":"string"}],"stateMutability":"view"},{"type":"function","name":"owner","inputs":[],"outputs":[{"name":"","type":"address","internalType":"address"}],"stateMutability":"view"},{"type":"function","name":"ownerOf","inputs":[{"name":"tokenId","type":"uint256","internalType":"uint256"}],"outputs":[{"name":"","type":"address","internalType":"address"}],"stateMutability":"view"},{"type":"function","name":"renounceOwnership","inputs":[],"outputs":[],"stateMutability":"nonpayable"},{"type":"function","name":"safeTransferFrom","inputs":[{"name":"from","type":"address","internalType":"address"},{"name":"to","type":"address","internalType":"address"},{"name":"tokenId","type":"uint256","internalType":"uint256"}],"outputs":[],"stateMutability":"nonpayable"},{"type":"function","name":"safeTransferFrom","inputs":[{"name":"from","type":"address","internalType":"address"},{"name":"to","type":"address","internalType":"address"},{"name":"tokenId","type":"uint256","internalType":"uint256"},{"name":"data","type":"bytes","internalType":"bytes"}],"outputs":[],"stateMutability":"nonpayable"},{"type":"function","name":"setApprovalForAll","inputs":[{"name":"operator","type":"address","internalType":"address"},{"name":"approved","type":"bool","internalType":"bool"}],"outputs":[],"stateMutability":"nonpayable"},{"type":"function","name":"supportsInterface","inputs":[{"name":"interfaceId","type":"bytes4","internalType":"bytes4"}],"outputs":[{"name":"","type":"bool","internalType":"bool"}],"stateMutability":"view"},{"type":"function","name":"symbol","inputs":[],"outputs":[{"name":"","type":"string","internalType":"string"}],"stateMutability":"view"},{"type":"function","name":"tokenURI","inputs":[{"name":"tokenId","type":"uint256","internalType":"uint256"}],"outputs":[{"name":"","type":"string","internalType":"string"}],"stateMutability":"view"},{"type":"function","name":"totalSupply","inputs":[],"outputs":[{"name":"","type":"uint256","internalType":"uint256"}],"stateMutability":"view"},{"type":"function","name":"transferFrom","inputs":[{"name":"from","type":"address","internalType":"address"},{"name":"to","type":"address","internalType":"address"},{"name":"tokenId","type":"uint256","internalType":"uint256"}],"outputs":[],"stateMutability":"nonpayable"},{"type":"function","name":"transferOwnership","inputs":[{"name":"newOwner","type":"address","internalType":"address"}],"outputs":[],"stateMutability":"nonpayable"},{"type":"event","name":"Approval","inputs":[{"name":"owner","type":"address","indexed":true,"internalType":"address"},{"name":"approved","type":"address","indexed":true,"internalType":"address"},{"name":"tokenId","type":"uint256","indexed":true,"internalType":"uint256"}],"anonymous":false},{"type":"event","name":"ApprovalForAll","inputs":[{"name":"owner","type":"address","indexed":true,"internalType":"address"},{"name":"operator","type":"address","indexed":true,"internalType":"address"},{"name":"approved","type":"bool","indexed":false,"internalType":"bool"}],"anonymous":false},{"type":"event","name":"OwnershipTransferred","inputs":[{"name":"previousOwner","type":"address","indexed":true,"internalType":"address"},{"name":"newOwner","type":"address","indexed":true,"internalType":"address"}],"anonymous":false},{"type":"event","name":"Transfer","inputs":[{"name":"from","type":"address","indexed":true,"internalType":"address"},{"name":"to","type":"address","indexed":true,"internalType":"address"},{"name":"tokenId","type":"uint256","indexed":true,"internalType":"uint256"}],"anonymous":false},{"type":"error","name":"ERC721IncorrectOwner","inputs":[{"name":"sender","type":"address","internalType":"address"},{"name":"tokenId","type":"uint256","internalType":"uint256"},{"name":"owner","type":"address","internalType":"address"}]},{"type":"error","name":"ERC721InsufficientApproval","inputs":[{"name":"operator","type":"address","internalType":"address"},{"name":"tokenId","type":"uint256","internalType":"uint256"}]},{"type":"error","name":"ERC721InvalidApprover","inputs":[{"name":"approver","type":"address","internalType":"address"}]},{"type":"error","name":"ERC721InvalidOperator","inputs":[{"name":"operator","type":"address","internalType":"address"}]},{"type":"error","name":"ERC721InvalidOwner","inputs":[{"name":"owner","type":"address","internalType":"address"}]},{"type":"error","name":"ERC721InvalidReceiver","inputs":[{"name":"receiver","type":"address","internalType":"address"}]},{"type":"error","name":"ERC721InvalidSender","inputs":[{"name":"sender","type":"address","internalType":"address"}]},{"type":"error","name":"ERC721NonexistentToken","inputs":[{"name":"tokenId","type":"uint256","internalType":"uint256"}]},{"type":"error","name":"OwnableInvalidOwner","inputs":[{"name":"owner","type":"address","internalType":"address"}]},{"type":"error","name":"OwnableUnauthorizedAccount","inputs":[{"name":"account","type":"address","internalType":"address"}]}],"bytecode":{"object":"0x608060405260006007553480156200001657600080fd5b50336040518060400160405280600f81526020017f4669727374436f6c6c656374696f6e00000000000000000000000000000000008152506040518060400160405280600381526020017f4e46540000000000000000000000000000000000000000000000000000000000815250816000908162000095919062000477565b508060019081620000a7919062000477565b505050600073ffffffffffffffffffffffffffffffffffffffff168173ffffffffffffffffffffffffffffffffffffffff16036200011f5760006040517f1e4fbdf7000000000000000000000000000000000000000000000000000000008152600401620001169190620005a3565b60405180910390fd5b62000130816200013760201b60201c565b50620005c0565b6000600660009054906101000a900473ffffffffffffffffffffffffffffffffffffffff16905081600660006101000a81548173ffffffffffffffffffffffffffffffffffffffff021916908373ffffffffffffffffffffffffffffffffffffffff1602179055508173ffffffffffffffffffffffffffffffffffffffff168173ffffffffffffffffffffffffffffffffffffffff167f8be0079c531659141344cd1fd0a4f28419497f9722a3daafe3b4186f6b6457e060405160405180910390a35050565b600081519050919050565b7f4e487b7100000000000000000000000000000000000000000000000000000000600052604160045260246000fd5b7f4e487b7100000000000000000000000000000000000000000000000000000000600052602260045260246000fd5b600060028204905060018216806200027f57607f821691505b60208210810362000295576200029462000237565b5b50919050565b60008190508160005260206000209050919050565b60006020601f8301049050919050565b600082821b905092915050565b600060088302620002ff7fffffffffffffffffffffffffffffffffffffffffffffffffffffffffffffffff82620002c0565b6200030b8683620002c0565b95508019841693508086168417925050509392505050565b6000819050919050565b6000819050919050565b600062000358620003526200034c8462000323565b6200032d565b62000323565b9050919050565b6000819050919050565b620003748362000337565b6200038c62000383826200035f565b848454620002cd565b825550505050565b600090565b620003a362000394565b620003b081848462000369565b505050565b5b81811015620003d857620003cc60008262000399565b600181019050620003b6565b5050565b601f8211156200042757620003f1816200029b565b620003fc84620002b0565b810160208510156200040c578190505b620004246200041b85620002b0565b830182620003b5565b50505b505050565b600082821c905092915050565b60006200044c600019846008026200042c565b1980831691505092915050565b600062000467838362000439565b9150826002028217905092915050565b6200048282620001fd565b67ffffffffffffffff8111156200049e576200049d62000208565b5b620004aa825462000266565b620004b7828285620003dc565b600060209050601f831160018114620004ef5760008415620004da578287015190505b620004e6858262000459565b86555062000556565b601f198416620004ff866200029b565b60005b82811015620005295784890151825560018201915060208501945060208101905062000502565b8683101562000549578489015162000545601f89168262000439565b8355505b6001600288020188555050505b505050505050565b600073ffffffffffffffffffffffffffffffffffffffff82169050919050565b60006200058b826200055e565b9050919050565b6200059d816200057e565b82525050565b6000602082019050620005ba600083018462000592565b92915050565b6120f580620005d06000396000f3fe608060405234801561001057600080fd5b50600436106101165760003560e01c806370a08231116100a2578063a22cb46511610071578063a22cb465146102bb578063b88d4fde146102d7578063c87b56dd146102f3578063e985e9c514610323578063f2fde38b1461035357610116565b806370a0823114610245578063715018a6146102755780638da5cb5b1461027f57806395d89b411461029d57610116565b80631249c58b116100e95780631249c58b146101b557806318160ddd146101bf57806323b872dd146101dd57806342842e0e146101f95780636352211e1461021557610116565b806301ffc9a71461011b57806306fdde031461014b578063081812fc14610169578063095ea7b314610199575b600080fd5b610135600480360381019061013091906118c8565b61036f565b6040516101429190611910565b60405180910390f35b610153610451565b60405161016091906119bb565b60405180910390f35b610183600480360381019061017e9190611a13565b6104e3565b6040516101909190611a81565b60405180910390f35b6101b360048036038101906101ae9190611ac8565b6104ff565b005b6101bd610515565b005b6101c7610552565b6040516101d49190611b17565b60405180910390f35b6101f760048036038101906101f29190611b32565b610558565b005b610213600480360381019061020e9190611b32565b61065a565b005b61022f600480360381019061022a9190611a13565b61067a565b60405161023c9190611a81565b60405180910390f35b61025f600480360381019061025a9190611b85565b61068c565b60405161026c9190611b17565b60405180910390f35b61027d610746565b005b61028761075a565b6040516102949190611a81565b60405180910390f35b6102a5610784565b6040516102b291906119bb565b60405180910390f35b6102d560048036038101906102d09190611bde565b610816565b005b6102f160048036038101906102ec9190611d53565b61082c565b005b61030d60048036038101906103089190611a13565b610851565b60405161031a91906119bb565b60405180910390f35b61033d60048036038101906103389190611dd6565b6108ba565b60405161034a9190611910565b60405180910390f35b61036d60048036038101906103689190611b85565b61094e565b005b60007f80ac58cd000000000000000000000000000000000000000000000000000000007bffffffffffffffffffffffffffffffffffffffffffffffffffffffff1916827bffffffffffffffffffffffffffffffffffffffffffffffffffffffff1916148061043a57507f5b5e139f000000000000000000000000000000000000000000000000000000007bffffffffffffffffffffffffffffffffffffffffffffffffffffffff1916827bffffffffffffffffffffffffffffffffffffffffffffffffffffffff1916145b8061044a5750610449826109d4565b5b9050919050565b60606000805461046090611e45565b80601f016020809104026020016040519081016040528092919081815260200182805461048c90611e45565b80156104d95780601f106104ae576101008083540402835291602001916104d9565b820191906000526020600020905b8154815290600101906020018083116104bc57829003601f168201915b5050505050905090565b60006104ee82610a3e565b506104f882610ac6565b9050919050565b610511828261050c610b03565b610b0b565b5050565b61051d610b1d565b60146007541061052c57600080fd5b61053833600754610ba4565b6007600081548092919061054b90611ea5565b9190505550565b60075481565b600073ffffffffffffffffffffffffffffffffffffffff168273ffffffffffffffffffffffffffffffffffffffff16036105ca5760006040517f64a0ae920000000000000000000000000000000000000000000000000000000081526004016105c19190611a81565b60405180910390fd5b60006105de83836105d9610b03565b610c9d565b90508373ffffffffffffffffffffffffffffffffffffffff168173ffffffffffffffffffffffffffffffffffffffff1614610654578382826040517f64283d7b00000000000000000000000000000000000000000000000000000000815260040161064b93929190611eed565b60405180910390fd5b50505050565b6106758383836040518060200160405280600081525061082c565b505050565b600061068582610a3e565b9050919050565b60008073ffffffffffffffffffffffffffffffffffffffff168273ffffffffffffffffffffffffffffffffffffffff16036106ff5760006040517f89c62b640000000000000000000000000000000000000000000000000000000081526004016106f69190611a81565b60405180910390fd5b600360008373ffffffffffffffffffffffffffffffffffffffff1673ffffffffffffffffffffffffffffffffffffffff168152602001908152602001600020549050919050565b61074e610b1d565b6107586000610eb7565b565b6000600660009054906101000a900473ffffffffffffffffffffffffffffffffffffffff16905090565b60606001805461079390611e45565b80601f01602080910402602001604051908101604052809291908181526020018280546107bf90611e45565b801561080c5780601f106107e15761010080835404028352916020019161080c565b820191906000526020600020905b8154815290600101906020018083116107ef57829003601f168201915b5050505050905090565b610828610821610b03565b8383610f7d565b5050565b610837848484610558565b61084b610842610b03565b858585856110ec565b50505050565b606061085c82610a3e565b50600061086761129d565b9050600081511161088757604051806020016040528060008152506108b2565b80610891846112b4565b6040516020016108a2929190611f60565b6040516020818303038152906040525b915050919050565b6000600560008473ffffffffffffffffffffffffffffffffffffffff1673ffffffffffffffffffffffffffffffffffffffff16815260200190815260200160002060008373ffffffffffffffffffffffffffffffffffffffff1673ffffffffffffffffffffffffffffffffffffffff16815260200190815260200160002060009054906101000a900460ff16905092915050565b610956610b1d565b600073ffffffffffffffffffffffffffffffffffffffff168173ffffffffffffffffffffffffffffffffffffffff16036109c85760006040517f1e4fbdf70000000000000000000000000000000000000000000000000000000081526004016109bf9190611a81565b60405180910390fd5b6109d181610eb7565b50565b60007f01ffc9a7000000000000000000000000000000000000000000000000000000007bffffffffffffffffffffffffffffffffffffffffffffffffffffffff1916827bffffffffffffffffffffffffffffffffffffffffffffffffffffffff1916149050919050565b600080610a4a83611382565b9050600073ffffffffffffffffffffffffffffffffffffffff168173ffffffffffffffffffffffffffffffffffffffff1603610abd57826040517f7e273289000000000000000000000000000000000000000000000000000000008152600401610ab49190611b17565b60405180910390fd5b80915050919050565b60006004600083815260200190815260200160002060009054906101000a900473ffffffffffffffffffffffffffffffffffffffff169050919050565b600033905090565b610b1883838360016113bf565b505050565b610b25610b03565b73ffffffffffffffffffffffffffffffffffffffff16610b4361075a565b73ffffffffffffffffffffffffffffffffffffffff1614610ba257610b66610b03565b6040517f118cdaa7000000000000000000000000000000000000000000000000000000008152600401610b999190611a81565b60405180910390fd5b565b600073ffffffffffffffffffffffffffffffffffffffff168273ffffffffffffffffffffffffffffffffffffffff1603610c165760006040517f64a0ae92000000000000000000000000000000000000000000000000000000008152600401610c0d9190611a81565b60405180910390fd5b6000610c2483836000610c9d565b9050600073ffffffffffffffffffffffffffffffffffffffff168173ffffffffffffffffffffffffffffffffffffffff1614610c985760006040517f73c6ac6e000000000000000000000000000000000000000000000000000000008152600401610c8f9190611a81565b60405180910390fd5b505050565b600080610ca984611382565b9050600073ffffffffffffffffffffffffffffffffffffffff168373ffffffffffffffffffffffffffffffffffffffff1614610ceb57610cea818486611584565b5b600073ffffffffffffffffffffffffffffffffffffffff168173ffffffffffffffffffffffffffffffffffffffff1614610d7c57610d2d6000856000806113bf565b6001600360008373ffffffffffffffffffffffffffffffffffffffff1673ffffffffffffffffffffffffffffffffffffffff168152602001908152602001600020600082825403925050819055505b600073ffffffffffffffffffffffffffffffffffffffff168573ffffffffffffffffffffffffffffffffffffffff1614610dff576001600360008773ffffffffffffffffffffffffffffffffffffffff1673ffffffffffffffffffffffffffffffffffffffff168152602001908152602001600020600082825401925050819055505b846002600086815260200190815260200160002060006101000a81548173ffffffffffffffffffffffffffffffffffffffff021916908373ffffffffffffffffffffffffffffffffffffffff160217905550838573ffffffffffffffffffffffffffffffffffffffff168273ffffffffffffffffffffffffffffffffffffffff167fddf252ad1be2c89b69c2b068fc378daa952ba7f163c4a11628f55a4df523b3ef60405160405180910390a4809150509392505050565b6000600660009054906101000a900473ffffffffffffffffffffffffffffffffffffffff16905081600660006101000a81548173ffffffffffffffffffffffffffffffffffffffff021916908373ffffffffffffffffffffffffffffffffffffffff1602179055508173ffffffffffffffffffffffffffffffffffffffff168173ffffffffffffffffffffffffffffffffffffffff167f8be0079c531659141344cd1fd0a4f28419497f9722a3daafe3b4186f6b6457e060405160405180910390a35050565b600073ffffffffffffffffffffffffffffffffffffffff168273ffffffffffffffffffffffffffffffffffffffff1603610fee57816040517f5b08ba18000000000000000000000000000000000000000000000000000000008152600401610fe59190611a81565b60405180910390fd5b80600560008573ffffffffffffffffffffffffffffffffffffffff1673ffffffffffffffffffffffffffffffffffffffff16815260200190815260200160002060008473ffffffffffffffffffffffffffffffffffffffff1673ffffffffffffffffffffffffffffffffffffffff16815260200190815260200160002060006101000a81548160ff0219169083151502179055508173ffffffffffffffffffffffffffffffffffffffff168373ffffffffffffffffffffffffffffffffffffffff167f17307eab39ab6107e8899845ad3d59bd9653f200f220920489ca2b5937696c31836040516110df9190611910565b60405180910390a3505050565b60008373ffffffffffffffffffffffffffffffffffffffff163b1115611296578273ffffffffffffffffffffffffffffffffffffffff1663150b7a02868685856040518563ffffffff1660e01b815260040161114b9493929190611fd9565b6020604051808303816000875af192505050801561118757506040513d601f19601f82011682018060405250810190611184919061203a565b60015b61120b573d80600081146111b7576040519150601f19603f3d011682016040523d82523d6000602084013e6111bc565b606091505b50600081510361120357836040517f64a0ae920000000000000000000000000000000000000000000000000000000081526004016111fa9190611a81565b60405180910390fd5b805181602001fd5b63150b7a0260e01b7bffffffffffffffffffffffffffffffffffffffffffffffffffffffff1916817bffffffffffffffffffffffffffffffffffffffffffffffffffffffff19161461129457836040517f64a0ae9200000000000000000000000000000000000000000000000000000000815260040161128b9190611a81565b60405180910390fd5b505b5050505050565b606060405180602001604052806000815250905090565b6060600060016112c384611648565b01905060008167ffffffffffffffff8111156112e2576112e1611c28565b5b6040519080825280601f01601f1916602001820160405280156113145781602001600182028036833780820191505090505b509050600082602001820190505b600115611377578080600190039150507f3031323334353637383961626364656600000000000000000000000000000000600a86061a8153600a858161136b5761136a612067565b5b04945060008503611322575b819350505050919050565b60006002600083815260200190815260200160002060009054906101000a900473ffffffffffffffffffffffffffffffffffffffff169050919050565b80806113f85750600073ffffffffffffffffffffffffffffffffffffffff168273ffffffffffffffffffffffffffffffffffffffff1614155b1561152c57600061140884610a3e565b9050600073ffffffffffffffffffffffffffffffffffffffff168373ffffffffffffffffffffffffffffffffffffffff161415801561147357508273ffffffffffffffffffffffffffffffffffffffff168173ffffffffffffffffffffffffffffffffffffffff1614155b8015611486575061148481846108ba565b155b156114c857826040517fa9fbf51f0000000000000000000000000000000000000000000000000000000081526004016114bf9190611a81565b60405180910390fd5b811561152a57838573ffffffffffffffffffffffffffffffffffffffff168273ffffffffffffffffffffffffffffffffffffffff167f8c5be1e5ebec7d5bd14f71427d1e84f3dd0314c0f7b2291e5b200ac8c7c3b92560405160405180910390a45b505b836004600085815260200190815260200160002060006101000a81548173ffffffffffffffffffffffffffffffffffffffff021916908373ffffffffffffffffffffffffffffffffffffffff16021790555050505050565b61158f83838361179b565b61164357600073ffffffffffffffffffffffffffffffffffffffff168373ffffffffffffffffffffffffffffffffffffffff160361160457806040517f7e2732890000000000000000000000000000000000000000000000000000000081526004016115fb9190611b17565b60405180910390fd5b81816040517f177e802f00000000000000000000000000000000000000000000000000000000815260040161163a929190612096565b60405180910390fd5b505050565b600080600090507a184f03e93ff9f4daa797ed6e38ed64bf6a1f01000000000000000083106116a6577a184f03e93ff9f4daa797ed6e38ed64bf6a1f010000000000000000838161169c5761169b612067565b5b0492506040810190505b6d04ee2d6d415b85acef810000000083106116e3576d04ee2d6d415b85acef810000000083816116d9576116d8612067565b5b0492506020810190505b662386f26fc10000831061171257662386f26fc10000838161170857611707612067565b5b0492506010810190505b6305f5e100831061173b576305f5e100838161173157611730612067565b5b0492506008810190505b612710831061176057612710838161175657611755612067565b5b0492506004810190505b60648310611783576064838161177957611778612067565b5b0492506002810190505b600a8310611792576001810190505b80915050919050565b60008073ffffffffffffffffffffffffffffffffffffffff168373ffffffffffffffffffffffffffffffffffffffff161415801561185357508273ffffffffffffffffffffffffffffffffffffffff168473ffffffffffffffffffffffffffffffffffffffff161480611814575061181384846108ba565b5b8061185257508273ffffffffffffffffffffffffffffffffffffffff1661183a83610ac6565b73ffffffffffffffffffffffffffffffffffffffff16145b5b90509392505050565b6000604051905090565b600080fd5b600080fd5b60007fffffffff0000000000000000000000000000000000000000000000000000000082169050919050565b6118a581611870565b81146118b057600080fd5b50565b6000813590506118c28161189c565b92915050565b6000602082840312156118de576118dd611866565b5b60006118ec848285016118b3565b91505092915050565b60008115159050919050565b61190a816118f5565b82525050565b60006020820190506119256000830184611901565b92915050565b600081519050919050565b600082825260208201905092915050565b60005b8381101561196557808201518184015260208101905061194a565b60008484015250505050565b6000601f19601f8301169050919050565b600061198d8261192b565b6119978185611936565b93506119a7818560208601611947565b6119b081611971565b840191505092915050565b600060208201905081810360008301526119d58184611982565b905092915050565b6000819050919050565b6119f0816119dd565b81146119fb57600080fd5b50565b600081359050611a0d816119e7565b92915050565b600060208284031215611a2957611a28611866565b5b6000611a37848285016119fe565b91505092915050565b600073ffffffffffffffffffffffffffffffffffffffff82169050919050565b6000611a6b82611a40565b9050919050565b611a7b81611a60565b82525050565b6000602082019050611a966000830184611a72565b92915050565b611aa581611a60565b8114611ab057600080fd5b50565b600081359050611ac281611a9c565b92915050565b60008060408385031215611adf57611ade611866565b5b6000611aed85828601611ab3565b9250506020611afe858286016119fe565b9150509250929050565b611b11816119dd565b82525050565b6000602082019050611b2c6000830184611b08565b92915050565b600080600060608486031215611b4b57611b4a611866565b5b6000611b5986828701611ab3565b9350506020611b6a86828701611ab3565b9250506040611b7b868287016119fe565b9150509250925092565b600060208284031215611b9b57611b9a611866565b5b6000611ba984828501611ab3565b91505092915050565b611bbb816118f5565b8114611bc657600080fd5b50565b600081359050611bd881611bb2565b92915050565b60008060408385031215611bf557611bf4611866565b5b6000611c0385828601611ab3565b9250506020611c1485828601611bc9565b9150509250929050565b600080fd5b600080fd5b7f4e487b7100000000000000000000000000000000000000000000000000000000600052604160045260246000fd5b611c6082611971565b810181811067ffffffffffffffff82111715611c7f57611c7e611c28565b5b80604052505050565b6000611c9261185c565b9050611c9e8282611c57565b919050565b600067ffffffffffffffff821115611cbe57611cbd611c28565b5b611cc782611971565b9050602081019050919050565b82818337600083830152505050565b6000611cf6611cf184611ca3565b611c88565b905082815260208101848484011115611d1257611d11611c23565b5b611d1d848285611cd4565b509392505050565b600082601f830112611d3a57611d39611c1e565b5b8135611d4a848260208601611ce3565b91505092915050565b60008060008060808587031215611d6d57611d6c611866565b5b6000611d7b87828801611ab3565b9450506020611d8c87828801611ab3565b9350506040611d9d878288016119fe565b925050606085013567ffffffffffffffff811115611dbe57611dbd61186b565b5b611dca87828801611d25565b91505092959194509250565b60008060408385031215611ded57611dec611866565b5b6000611dfb85828601611ab3565b9250506020611e0c85828601611ab3565b9150509250929050565b7f4e487b7100000000000000000000000000000000000000000000000000000000600052602260045260246000fd5b60006002820490506001821680611e5d57607f821691505b602082108103611e7057611e6f611e16565b5b50919050565b7f4e487b7100000000000000000000000000000000000000000000000000000000600052601160045260246000fd5b6000611eb0826119dd565b91507fffffffffffffffffffffffffffffffffffffffffffffffffffffffffffffffff8203611ee257611ee1611e76565b5b600182019050919050565b6000606082019050611f026000830186611a72565b611f0f6020830185611b08565b611f1c6040830184611a72565b949350505050565b600081905092915050565b6000611f3a8261192b565b611f448185611f24565b9350611f54818560208601611947565b80840191505092915050565b6000611f6c8285611f2f565b9150611f788284611f2f565b91508190509392505050565b600081519050919050565b600082825260208201905092915050565b6000611fab82611f84565b611fb58185611f8f565b9350611fc5818560208601611947565b611fce81611971565b840191505092915050565b6000608082019050611fee6000830187611a72565b611ffb6020830186611a72565b6120086040830185611b08565b818103606083015261201a8184611fa0565b905095945050505050565b6000815190506120348161189c565b92915050565b6000602082840312156120505761204f611866565b5b600061205e84828501612025565b91505092915050565b7f4e487b7100000000000000000000000000000000000000000000000000000000600052601260045260246000fd5b60006040820190506120ab6000830185611a72565b6120b86020830184611b08565b939250505056fea2646970667358221220dd385cc0a84d4df47610f09a0f58f3562c626ac42208560c9e6d9a6993d154af64736f6c63430008170033","linkReferences":{}},"methodIdentifiers":{"approve(address,uint256)":"095ea7b3","balanceOf(address)":"70a08231","getApproved(uint256)":"081812fc","isApprovedForAll(address,address)":"e985e9c5","mint()":"1249c58b","name()":"06fdde03","owner()":"8da5cb5b","ownerOf(uint256)":"6352211e","renounceOwnership()":"715018a6","safeTransferFrom(address,address,uint256)":"42842e0e","safeTransferFrom(address,address,uint256,bytes)":"b88d4fde","setApprovalForAll(address,bool)":"a22cb465","supportsInterface(bytes4)":"01ffc9a7","symbol()":"95d89b41","tokenURI(uint256)":"c87b56dd","totalSupply()":"18160ddd","transferFrom(address,address,uint256)":"23b872dd","transferOwnership(address)":"f2fde38b"},"id":8}