{"abi":[{"type":"constructor","inputs":[],"stateMutability":"nonpayable"},{"type":"function","name":"allowance","inputs":[{"name":"owner","type":"address","internalType":"address"},{"name":"spender","type":"address","internalType":"address"}],"outputs":[{"name":"","type":"uint256","internalType":"uint256"}],"stateMutability":"view"},{"type":"function","name":"approve","inputs":[{"name":"spender","type":"address","internalType":"address"},{"name":"value","type":"uint256","internalType":"uint256"}],"outputs":[{"name":"","type":"bool","internalType":"bool"}],"stateMutability":"nonpayable"},{"type":"function","name":"balanceOf","inputs":[{"name":"account","type":"address","internalType":"address"}],"outputs":[{"name":"","type":"uint256","internalType":"uint256"}],"stateMutability":"view"},{"type":"function","name":"decimals","inputs":[],"outputs":[{"name":"","type":"uint8","internalType":"uint8"}],"stateMutability":"view"},{"type":"function","name":"getWhiteListedToken","inputs":[{"name":"user_","type":"address","internalType":"address"}],"outputs":[{"name":"success_","type":"bool","internalType":"bool"}],"stateMutability":"nonpayable"},{"type":"function","name":"iswhiteListedToken","inputs":[{"name":"","type":"address","internalType":"address"}],"outputs":[{"name":"","type":"bool","internalType":"bool"}],"stateMutability":"view"},{"type":"function","name":"name","inputs":[],"outputs":[{"name":"","type":"string","internalType":"string"}],"stateMutability":"view"},{"type":"function","name":"owner","inputs":[],"outputs":[{"name":"","type":"address","internalType":"address"}],"stateMutability":"view"},{"type":"function","name":"renounceOwnership","inputs":[],"outputs":[],"stateMutability":"nonpayable"},{"type":"function","name":"safeTransferFrom","inputs":[{"name":"from","type":"address","internalType":"address"},{"name":"to","type":"address","internalType":"address"},{"name":"value","type":"uint256","internalType":"uint256"}],"outputs":[],"stateMutability":"nonpayable"},{"type":"function","name":"setWhiteListedToken","inputs":[{"name":"user_","type":"address","internalType":"address"},{"name":"value_","type":"bool","internalType":"bool"}],"outputs":[],"stateMutability":"nonpayable"},{"type":"function","name":"symbol","inputs":[],"outputs":[{"name":"","type":"string","internalType":"string"}],"stateMutability":"view"},{"type":"function","name":"totalSupply","inputs":[],"outputs":[{"name":"","type":"uint256","internalType":"uint256"}],"stateMutability":"view"},{"type":"function","name":"transfer","inputs":[{"name":"to","type":"address","internalType":"address"},{"name":"value","type":"uint256","internalType":"uint256"}],"outputs":[{"name":"","type":"bool","internalType":"bool"}],"stateMutability":"nonpayable"},{"type":"function","name":"transferFrom","inputs":[{"name":"from","type":"address","internalType":"address"},{"name":"to","type":"address","internalType":"address"},{"name":"value","type":"uint256","internalType":"uint256"}],"outputs":[{"name":"","type":"bool","internalType":"bool"}],"stateMutability":"nonpayable"},{"type":"function","name":"transferOwnership","inputs":[{"name":"newOwner","type":"address","internalType":"address"}],"outputs":[],"stateMutability":"nonpayable"},{"type":"event","name":"Approval","inputs":[{"name":"owner","type":"address","indexed":true,"internalType":"address"},{"name":"spender","type":"address","indexed":true,"internalType":"address"},{"name":"value","type":"uint256","indexed":false,"internalType":"uint256"}],"anonymous":false},{"type":"event","name":"OwnershipTransferred","inputs":[{"name":"previousOwner","type":"address","indexed":true,"internalType":"address"},{"name":"newOwner","type":"address","indexed":true,"internalType":"address"}],"anonymous":false},{"type":"event","name":"Transfer","inputs":[{"name":"from","type":"address","indexed":true,"internalType":"address"},{"name":"to","type":"address","indexed":true,"internalType":"address"},{"name":"value","type":"uint256","indexed":false,"internalType":"uint256"}],"anonymous":false},{"type":"event","name":"addressNotBanned","inputs":[{"name":"user","type":"address","indexed":true,"internalType":"address"}],"anonymous":false},{"type":"error","name":"ERC20InsufficientAllowance","inputs":[{"name":"spender","type":"address","internalType":"address"},{"name":"allowance","type":"uint256","internalType":"uint256"},{"name":"needed","type":"uint256","internalType":"uint256"}]},{"type":"error","name":"ERC20InsufficientBalance","inputs":[{"name":"sender","type":"address","internalType":"address"},{"name":"balance","type":"uint256","internalType":"uint256"},{"name":"needed","type":"uint256","internalType":"uint256"}]},{"type":"error","name":"ERC20InvalidApprover","inputs":[{"name":"approver","type":"address","internalType":"address"}]},{"type":"error","name":"ERC20InvalidReceiver","inputs":[{"name":"receiver","type":"address","internalType":"address"}]},{"type":"error","name":"ERC20InvalidSender","inputs":[{"name":"sender","type":"address","internalType":"address"}]},{"type":"error","name":"ERC20InvalidSpender","inputs":[{"name":"spender","type":"address","internalType":"address"}]},{"type":"error","name":"OwnableInvalidOwner","inputs":[{"name":"owner","type":"address","internalType":"address"}]},{"type":"error","name":"OwnableUnauthorizedAccount","inputs":[{"name":"account","type":"address","internalType":"address"}]}],"bytecode":{"object":"0x60806040523480156200001157600080fd5b506040518060400160405280600581526020017f546f6b656e0000000000000000000000000000000000000000000000000000008152506040518060400160405280600381526020017f544b4e000000000000000000000000000000000000000000000000000000000081525033600073ffffffffffffffffffffffffffffffffffffffff168173ffffffffffffffffffffffffffffffffffffffff1603620000f45760006040517f1e4fbdf7000000000000000000000000000000000000000000000000000000008152600401620000eb919062000516565b60405180910390fd5b62000105816200014d60201b60201c565b508160049081620001179190620007ad565b508060059081620001299190620007ad565b5050506200014733683635c9adc5dea000006200021160201b60201c565b62000969565b60008060009054906101000a900473ffffffffffffffffffffffffffffffffffffffff169050816000806101000a81548173ffffffffffffffffffffffffffffffffffffffff021916908373ffffffffffffffffffffffffffffffffffffffff1602179055508173ffffffffffffffffffffffffffffffffffffffff168173ffffffffffffffffffffffffffffffffffffffff167f8be0079c531659141344cd1fd0a4f28419497f9722a3daafe3b4186f6b6457e060405160405180910390a35050565b600073ffffffffffffffffffffffffffffffffffffffff168273ffffffffffffffffffffffffffffffffffffffff1603620002865760006040517fec442f050000000000000000000000000000000000000000000000000000000081526004016200027d919062000516565b60405180910390fd5b6200029a600083836200029e60201b60201c565b5050565b600073ffffffffffffffffffffffffffffffffffffffff168373ffffffffffffffffffffffffffffffffffffffff1603620002f4578060036000828254620002e79190620008c3565b92505081905550620003cc565b6000600160008573ffffffffffffffffffffffffffffffffffffffff1673ffffffffffffffffffffffffffffffffffffffff1681526020019081526020016000205490508181101562000384578381836040517fe450d38c0000000000000000000000000000000000000000000000000000000081526004016200037b939291906200090f565b60405180910390fd5b818103600160008673ffffffffffffffffffffffffffffffffffffffff1673ffffffffffffffffffffffffffffffffffffffff16815260200190815260200160002081905550505b600073ffffffffffffffffffffffffffffffffffffffff168273ffffffffffffffffffffffffffffffffffffffff160362000417578060036000828254039250508190555062000465565b80600160008473ffffffffffffffffffffffffffffffffffffffff1673ffffffffffffffffffffffffffffffffffffffff168152602001908152602001600020600082825401925050819055505b8173ffffffffffffffffffffffffffffffffffffffff168373ffffffffffffffffffffffffffffffffffffffff167fddf252ad1be2c89b69c2b068fc378daa952ba7f163c4a11628f55a4df523b3ef83604051620004c491906200094c565b60405180910390a3505050565b600073ffffffffffffffffffffffffffffffffffffffff82169050919050565b6000620004fe82620004d1565b9050919050565b6200051081620004f1565b82525050565b60006020820190506200052d600083018462000505565b92915050565b600081519050919050565b7f4e487b7100000000000000000000000000000000000000000000000000000000600052604160045260246000fd5b7f4e487b7100000000000000000000000000000000000000000000000000000000600052602260045260246000fd5b60006002820490506001821680620005b557607f821691505b602082108103620005cb57620005ca6200056d565b5b50919050565b60008190508160005260206000209050919050565b60006020601f8301049050919050565b600082821b905092915050565b600060088302620006357fffffffffffffffffffffffffffffffffffffffffffffffffffffffffffffffff82620005f6565b620006418683620005f6565b95508019841693508086168417925050509392505050565b6000819050919050565b6000819050919050565b60006200068e62000688620006828462000659565b62000663565b62000659565b9050919050565b6000819050919050565b620006aa836200066d565b620006c2620006b98262000695565b84845462000603565b825550505050565b600090565b620006d9620006ca565b620006e68184846200069f565b505050565b5b818110156200070e5762000702600082620006cf565b600181019050620006ec565b5050565b601f8211156200075d576200072781620005d1565b6200073284620005e6565b8101602085101562000742578190505b6200075a6200075185620005e6565b830182620006eb565b50505b505050565b600082821c905092915050565b6000620007826000198460080262000762565b1980831691505092915050565b60006200079d83836200076f565b9150826002028217905092915050565b620007b88262000533565b67ffffffffffffffff811115620007d457620007d36200053e565b5b620007e082546200059c565b620007ed82828562000712565b600060209050601f83116001811462000825576000841562000810578287015190505b6200081c85826200078f565b8655506200088c565b601f1984166200083586620005d1565b60005b828110156200085f5784890151825560018201915060208501945060208101905062000838565b868310156200087f57848901516200087b601f8916826200076f565b8355505b6001600288020188555050505b505050505050565b7f4e487b7100000000000000000000000000000000000000000000000000000000600052601160045260246000fd5b6000620008d08262000659565b9150620008dd8362000659565b9250828201905080821115620008f857620008f762000894565b5b92915050565b620009098162000659565b82525050565b600060608201905062000926600083018662000505565b620009356020830185620008fe565b620009446040830184620008fe565b949350505050565b6000602082019050620009636000830184620008fe565b92915050565b61137080620009796000396000f3fe608060405234801561001057600080fd5b50600436106101005760003560e01c8063715018a611610097578063a9059cbb11610066578063a9059cbb1461029d578063b82d22b0146102cd578063dd62ed3e146102fd578063f2fde38b1461032d57610100565b8063715018a6146102275780638da5cb5b1461023157806395d89b411461024f57806396fb5f241461026d57610100565b806323b872dd116100d357806323b872dd1461018d578063313ce567146101bd57806342842e0e146101db57806370a08231146101f757610100565b806306fdde0314610105578063095ea7b31461012357806318160ddd146101535780631da7c5e414610171575b600080fd5b61010d610349565b60405161011a9190610f58565b60405180910390f35b61013d60048036038101906101389190611013565b6103db565b60405161014a919061106e565b60405180910390f35b61015b6103fe565b6040516101689190611098565b60405180910390f35b61018b600480360381019061018691906110df565b610408565b005b6101a760048036038101906101a2919061111f565b61046b565b6040516101b4919061106e565b60405180910390f35b6101c561049a565b6040516101d2919061118e565b60405180910390f35b6101f560048036038101906101f0919061111f565b6104a3565b005b610211600480360381019061020c91906111a9565b6104d4565b60405161021e9190611098565b60405180910390f35b61022f61051d565b005b610239610531565b60405161024691906111e5565b60405180910390f35b61025761055a565b6040516102649190610f58565b60405180910390f35b610287600480360381019061028291906111a9565b6105ec565b604051610294919061106e565b60405180910390f35b6102b760048036038101906102b29190611013565b61068c565b6040516102c4919061106e565b60405180910390f35b6102e760048036038101906102e291906111a9565b6106af565b6040516102f4919061106e565b60405180910390f35b61031760048036038101906103129190611200565b6106cf565b6040516103249190611098565b60405180910390f35b610347600480360381019061034291906111a9565b610756565b005b6060600480546103589061126f565b80601f01602080910402602001604051908101604052809291908181526020018280546103849061126f565b80156103d15780601f106103a6576101008083540402835291602001916103d1565b820191906000526020600020905b8154815290600101906020018083116103b457829003601f168201915b5050505050905090565b6000806103e66107dc565b90506103f38185856107e4565b600191505092915050565b6000600354905090565b6104106107f6565b80600660008473ffffffffffffffffffffffffffffffffffffffff1673ffffffffffffffffffffffffffffffffffffffff16815260200190815260200160002060006101000a81548160ff0219169083151502179055505050565b6000806104766107dc565b905061048385828561087d565b61048e858585610911565b60019150509392505050565b60006012905090565b6104ac826105ec565b80156104bd57506104bc836105ec565b5b156104cf576104cd83838361046b565b505b505050565b6000600160008373ffffffffffffffffffffffffffffffffffffffff1673ffffffffffffffffffffffffffffffffffffffff168152602001908152602001600020549050919050565b6105256107f6565b61052f6000610a05565b565b60008060009054906101000a900473ffffffffffffffffffffffffffffffffffffffff16905090565b6060600580546105699061126f565b80601f01602080910402602001604051908101604052809291908181526020018280546105959061126f565b80156105e25780601f106105b7576101008083540402835291602001916105e2565b820191906000526020600020905b8154815290600101906020018083116105c557829003601f168201915b5050505050905090565b6000600660008373ffffffffffffffffffffffffffffffffffffffff1673ffffffffffffffffffffffffffffffffffffffff16815260200190815260200160002060009054906101000a900460ff1690508015610687578173ffffffffffffffffffffffffffffffffffffffff167f4f6333374cdda57b93b24c33f9bd24f3a5d019abd8d75ca7704e35804f5ff8a060405160405180910390a25b919050565b6000806106976107dc565b90506106a4818585610911565b600191505092915050565b60066020528060005260406000206000915054906101000a900460ff1681565b6000600260008473ffffffffffffffffffffffffffffffffffffffff1673ffffffffffffffffffffffffffffffffffffffff16815260200190815260200160002060008373ffffffffffffffffffffffffffffffffffffffff1673ffffffffffffffffffffffffffffffffffffffff16815260200190815260200160002054905092915050565b61075e6107f6565b600073ffffffffffffffffffffffffffffffffffffffff168173ffffffffffffffffffffffffffffffffffffffff16036107d05760006040517f1e4fbdf70000000000000000000000000000000000000000000000000000000081526004016107c791906111e5565b60405180910390fd5b6107d981610a05565b50565b600033905090565b6107f18383836001610ac9565b505050565b6107fe6107dc565b73ffffffffffffffffffffffffffffffffffffffff1661081c610531565b73ffffffffffffffffffffffffffffffffffffffff161461087b5761083f6107dc565b6040517f118cdaa700000000000000000000000000000000000000000000000000000000815260040161087291906111e5565b60405180910390fd5b565b600061088984846106cf565b90507fffffffffffffffffffffffffffffffffffffffffffffffffffffffffffffffff811461090b57818110156108fb578281836040517ffb8f41b20000000000000000000000000000000000000000000000000000000081526004016108f2939291906112a0565b60405180910390fd5b61090a84848484036000610ac9565b5b50505050565b600073ffffffffffffffffffffffffffffffffffffffff168373ffffffffffffffffffffffffffffffffffffffff16036109835760006040517f96c6fd1e00000000000000000000000000000000000000000000000000000000815260040161097a91906111e5565b60405180910390fd5b600073ffffffffffffffffffffffffffffffffffffffff168273ffffffffffffffffffffffffffffffffffffffff16036109f55760006040517fec442f050000000000000000000000000000000000000000000000000000000081526004016109ec91906111e5565b60405180910390fd5b610a00838383610ca0565b505050565b60008060009054906101000a900473ffffffffffffffffffffffffffffffffffffffff169050816000806101000a81548173ffffffffffffffffffffffffffffffffffffffff021916908373ffffffffffffffffffffffffffffffffffffffff1602179055508173ffffffffffffffffffffffffffffffffffffffff168173ffffffffffffffffffffffffffffffffffffffff167f8be0079c531659141344cd1fd0a4f28419497f9722a3daafe3b4186f6b6457e060405160405180910390a35050565b600073ffffffffffffffffffffffffffffffffffffffff168473ffffffffffffffffffffffffffffffffffffffff1603610b3b5760006040517fe602df05000000000000000000000000000000000000000000000000000000008152600401610b3291906111e5565b60405180910390fd5b600073ffffffffffffffffffffffffffffffffffffffff168373ffffffffffffffffffffffffffffffffffffffff1603610bad5760006040517f94280d62000000000000000000000000000000000000000000000000000000008152600401610ba491906111e5565b60405180910390fd5b81600260008673ffffffffffffffffffffffffffffffffffffffff1673ffffffffffffffffffffffffffffffffffffffff16815260200190815260200160002060008573ffffffffffffffffffffffffffffffffffffffff1673ffffffffffffffffffffffffffffffffffffffff168152602001908152602001600020819055508015610c9a578273ffffffffffffffffffffffffffffffffffffffff168473ffffffffffffffffffffffffffffffffffffffff167f8c5be1e5ebec7d5bd14f71427d1e84f3dd0314c0f7b2291e5b200ac8c7c3b92584604051610c919190611098565b60405180910390a35b50505050565b600073ffffffffffffffffffffffffffffffffffffffff168373ffffffffffffffffffffffffffffffffffffffff1603610cf2578060036000828254610ce69190611306565b92505081905550610dc7565b6000600160008573ffffffffffffffffffffffffffffffffffffffff1673ffffffffffffffffffffffffffffffffffffffff16815260200190815260200160002054905081811015610d7f578381836040517fe450d38c000000000000000000000000000000000000000000000000000000008152600401610d76939291906112a0565b60405180910390fd5b818103600160008673ffffffffffffffffffffffffffffffffffffffff1673ffffffffffffffffffffffffffffffffffffffff16815260200190815260200160002081905550505b600073ffffffffffffffffffffffffffffffffffffffff168273ffffffffffffffffffffffffffffffffffffffff1603610e105780600360008282540392505081905550610e5e565b80600160008473ffffffffffffffffffffffffffffffffffffffff1673ffffffffffffffffffffffffffffffffffffffff168152602001908152602001600020600082825401925050819055505b8173ffffffffffffffffffffffffffffffffffffffff168373ffffffffffffffffffffffffffffffffffffffff167fddf252ad1be2c89b69c2b068fc378daa952ba7f163c4a11628f55a4df523b3ef83604051610ebb9190611098565b60405180910390a3505050565b600081519050919050565b600082825260208201905092915050565b60005b83811015610f02578082015181840152602081019050610ee7565b60008484015250505050565b6000601f19601f8301169050919050565b6000610f2a82610ec8565b610f348185610ed3565b9350610f44818560208601610ee4565b610f4d81610f0e565b840191505092915050565b60006020820190508181036000830152610f728184610f1f565b905092915050565b600080fd5b600073ffffffffffffffffffffffffffffffffffffffff82169050919050565b6000610faa82610f7f565b9050919050565b610fba81610f9f565b8114610fc557600080fd5b50565b600081359050610fd781610fb1565b92915050565b6000819050919050565b610ff081610fdd565b8114610ffb57600080fd5b50565b60008135905061100d81610fe7565b92915050565b6000806040838503121561102a57611029610f7a565b5b600061103885828601610fc8565b925050602061104985828601610ffe565b9150509250929050565b60008115159050919050565b61106881611053565b82525050565b6000602082019050611083600083018461105f565b92915050565b61109281610fdd565b82525050565b60006020820190506110ad6000830184611089565b92915050565b6110bc81611053565b81146110c757600080fd5b50565b6000813590506110d9816110b3565b92915050565b600080604083850312156110f6576110f5610f7a565b5b600061110485828601610fc8565b9250506020611115858286016110ca565b9150509250929050565b60008060006060848603121561113857611137610f7a565b5b600061114686828701610fc8565b935050602061115786828701610fc8565b925050604061116886828701610ffe565b9150509250925092565b600060ff82169050919050565b61118881611172565b82525050565b60006020820190506111a3600083018461117f565b92915050565b6000602082840312156111bf576111be610f7a565b5b60006111cd84828501610fc8565b91505092915050565b6111df81610f9f565b82525050565b60006020820190506111fa60008301846111d6565b92915050565b6000806040838503121561121757611216610f7a565b5b600061122585828601610fc8565b925050602061123685828601610fc8565b9150509250929050565b7f4e487b7100000000000000000000000000000000000000000000000000000000600052602260045260246000fd5b6000600282049050600182168061128757607f821691505b60208210810361129a57611299611240565b5b50919050565b60006060820190506112b560008301866111d6565b6112c26020830185611089565b6112cf6040830184611089565b949350505050565b7f4e487b7100000000000000000000000000000000000000000000000000000000600052601160045260246000fd5b600061131182610fdd565b915061131c83610fdd565b9250828201905080821115611334576113336112d7565b5b9291505056fea2646970667358221220585c0f9c213228d0334153e4fca63824798273350250ab414339fb14d9858b1964736f6c63430008170033","linkReferences":{}},"methodIdentifiers":{"allowance(address,address)":"dd62ed3e","approve(address,uint256)":"095ea7b3","balanceOf(address)":"70a08231","decimals()":"313ce567","getWhiteListedToken(address)":"96fb5f24","iswhiteListedToken(address)":"b82d22b0","name()":"06fdde03","owner()":"8da5cb5b","renounceOwnership()":"715018a6","safeTransferFrom(address,address,uint256)":"42842e0e","setWhiteListedToken(address,bool)":"1da7c5e4","symbol()":"95d89b41","totalSupply()":"18160ddd","transfer(address,uint256)":"a9059cbb","transferFrom(address,address,uint256)":"23b872dd","transferOwnership(address)":"f2fde38b"},"id":0}