{"abi":[{"type":"constructor","inputs":[{"name":"waitTimePeriod_","type":"uint64","internalType":"uint64"},{"name":"buyer_","type":"address","internalType":"address"},{"name":"seller_","type":"address","internalType":"address"},{"name":"resolver_","type":"address","internalType":"address"}],"stateMutability":"nonpayable"},{"type":"function","name":"approval","inputs":[{"name":"","type":"address","internalType":"address"}],"outputs":[{"name":"","type":"bool","internalType":"bool"}],"stateMutability":"view"},{"type":"function","name":"deposit","inputs":[{"name":"token_","type":"address","internalType":"address"},{"name":"from","type":"address","internalType":"address"},{"name":"to","type":"address","internalType":"address"},{"name":"amount","type":"uint256","internalType":"uint256"}],"outputs":[],"stateMutability":"nonpayable"},{"type":"function","name":"getwaitTimePeriod","inputs":[],"outputs":[{"name":"time_","type":"uint64","internalType":"uint64"}],"stateMutability":"view"},{"type":"function","name":"owner","inputs":[],"outputs":[{"name":"","type":"address","internalType":"address"}],"stateMutability":"view"},{"type":"function","name":"renounceOwnership","inputs":[],"outputs":[],"stateMutability":"nonpayable"},{"type":"function","name":"resolver","inputs":[],"outputs":[{"name":"","type":"address","internalType":"address"}],"stateMutability":"view"},{"type":"function","name":"setDisputeRaised","inputs":[{"name":"token_","type":"address","internalType":"address"},{"name":"value_","type":"bool","internalType":"bool"}],"outputs":[],"stateMutability":"nonpayable"},{"type":"function","name":"setVerdict","inputs":[{"name":"token_","type":"address","internalType":"address"}],"outputs":[],"stateMutability":"nonpayable"},{"type":"function","name":"transferOwnership","inputs":[{"name":"newOwner","type":"address","internalType":"address"}],"outputs":[],"stateMutability":"nonpayable"},{"type":"function","name":"updateTimePeriod","inputs":[{"name":"time_","type":"uint64","internalType":"uint64"}],"outputs":[],"stateMutability":"nonpayable"},{"type":"function","name":"withdraw","inputs":[{"name":"token_","type":"address","internalType":"address"},{"name":"amount","type":"uint256","internalType":"uint256"},{"name":"from","type":"address","internalType":"address"}],"outputs":[],"stateMutability":"nonpayable"},{"type":"function","name":"withdrawTokens","inputs":[{"name":"token_","type":"address","internalType":"address"},{"name":"amount_","type":"uint256","internalType":"uint256"}],"outputs":[],"stateMutability":"nonpayable"},{"type":"event","name":"OwnershipTransferred","inputs":[{"name":"previousOwner","type":"address","indexed":true,"internalType":"address"},{"name":"newOwner","type":"address","indexed":true,"internalType":"address"}],"anonymous":false},{"type":"error","name":"OwnableInvalidOwner","inputs":[{"name":"owner","type":"address","internalType":"address"}]},{"type":"error","name":"OwnableUnauthorizedAccount","inputs":[{"name":"account","type":"address","internalType":"address"}]},{"type":"error","name":"SafeERC20FailedOperation","inputs":[{"name":"token","type":"address","internalType":"address"}]}],"bytecode":{"object":"0x60806040523480156200001157600080fd5b5060405162001f5a38038062001f5a83398181016040528101906200003791906200041c565b33600073ffffffffffffffffffffffffffffffffffffffff168173ffffffffffffffffffffffffffffffffffffffff1603620000ad5760006040517f1e4fbdf7000000000000000000000000000000000000000000000000000000008152600401620000a491906200049f565b60405180910390fd5b620000be81620002a960201b60201c565b5083600060146101000a81548167ffffffffffffffff021916908367ffffffffffffffff16021790555082600160086101000a81548173ffffffffffffffffffffffffffffffffffffffff021916908373ffffffffffffffffffffffffffffffffffffffff16021790555081600260006101000a81548173ffffffffffffffffffffffffffffffffffffffff021916908373ffffffffffffffffffffffffffffffffffffffff160217905550600160046000600160089054906101000a900473ffffffffffffffffffffffffffffffffffffffff1673ffffffffffffffffffffffffffffffffffffffff1673ffffffffffffffffffffffffffffffffffffffff16815260200190815260200160002060006101000a81548160ff021916908315150217905550600160046000600260009054906101000a900473ffffffffffffffffffffffffffffffffffffffff1673ffffffffffffffffffffffffffffffffffffffff1673ffffffffffffffffffffffffffffffffffffffff16815260200190815260200160002060006101000a81548160ff02191690831515021790555080600360006101000a81548173ffffffffffffffffffffffffffffffffffffffff021916908373ffffffffffffffffffffffffffffffffffffffff16021790555050505050620004bc565b60008060009054906101000a900473ffffffffffffffffffffffffffffffffffffffff169050816000806101000a81548173ffffffffffffffffffffffffffffffffffffffff021916908373ffffffffffffffffffffffffffffffffffffffff1602179055508173ffffffffffffffffffffffffffffffffffffffff168173ffffffffffffffffffffffffffffffffffffffff167f8be0079c531659141344cd1fd0a4f28419497f9722a3daafe3b4186f6b6457e060405160405180910390a35050565b600080fd5b600067ffffffffffffffff82169050919050565b620003918162000372565b81146200039d57600080fd5b50565b600081519050620003b18162000386565b92915050565b600073ffffffffffffffffffffffffffffffffffffffff82169050919050565b6000620003e482620003b7565b9050919050565b620003f681620003d7565b81146200040257600080fd5b50565b6000815190506200041681620003eb565b92915050565b600080600080608085870312156200043957620004386200036d565b5b60006200044987828801620003a0565b94505060206200045c8782880162000405565b93505060406200046f8782880162000405565b9250506060620004828782880162000405565b91505092959194509250565b6200049981620003d7565b82525050565b6000602082019050620004b660008301846200048e565b92915050565b611a8e80620004cc6000396000f3fe608060405234801561001057600080fd5b50600436106100b45760003560e01c80638da5cb5b116100715780638da5cb5b146101515780639430b4961461016f578063a920856d1461019f578063b3b5ac9c146101bb578063eb0f6425146101d9578063f2fde38b146101f5576100b4565b80630284c3f5146100b957806304f3bcec146100d557806306b091f9146100f35780633e25e2511461010f57806369328dec1461012b578063715018a614610147575b600080fd5b6100d360048036038101906100ce9190611199565b610211565b005b6100dd610399565b6040516100ea919061120f565b60405180910390f35b61010d6004803603810190610108919061122a565b6103bf565b005b610129600480360381019061012491906112aa565b61050f565b005b610145600480360381019061014091906112d7565b610543565b005b61014f6107d1565b005b6101596107e5565b604051610166919061120f565b60405180910390f35b6101896004803603810190610184919061132a565b61080e565b6040516101969190611372565b60405180910390f35b6101b960048036038101906101b491906113b9565b61082e565b005b6101c361099a565b6040516101d09190611408565b60405180910390f35b6101f360048036038101906101ee919061132a565b6109b7565b005b61020f600480360381019061020a919061132a565b610d12565b005b61021a82610d98565b600160089054906101000a900473ffffffffffffffffffffffffffffffffffffffff1673ffffffffffffffffffffffffffffffffffffffff163373ffffffffffffffffffffffffffffffffffffffff16146102aa576040517f08c379a00000000000000000000000000000000000000000000000000000000081526004016102a190611480565b60405180910390fd5b808473ffffffffffffffffffffffffffffffffffffffff166370a08231856040518263ffffffff1660e01b81526004016102e4919061120f565b602060405180830381865afa158015610301573d6000803e3d6000fd5b505050506040513d601f19601f8201168201806040525081019061032591906114b5565b1015610366576040517f08c379a000000000000000000000000000000000000000000000000000000000815260040161035d9061152e565b60405180910390fd5b6103938383838773ffffffffffffffffffffffffffffffffffffffff16610e0a909392919063ffffffff16565b50505050565b600360009054906101000a900473ffffffffffffffffffffffffffffffffffffffff1681565b6103c7610e8c565b6000600160009054906101000a900467ffffffffffffffff1667ffffffffffffffff16426103f5919061157d565b9050600681111561050a578273ffffffffffffffffffffffffffffffffffffffff166370a08231306040518263ffffffff1660e01b8152600401610439919061120f565b602060405180830381865afa158015610456573d6000803e3d6000fd5b505050506040513d601f19601f8201168201806040525081019061047a91906114b5565b8211156104bc576040517f08c379a00000000000000000000000000000000000000000000000000000000081526004016104b3906115fd565b60405180910390fd5b610509600160089054906101000a900473ffffffffffffffffffffffffffffffffffffffff16838573ffffffffffffffffffffffffffffffffffffffff16610f139092919063ffffffff16565b5b505050565b610517610e8c565b80600060146101000a81548167ffffffffffffffff021916908367ffffffffffffffff16021790555050565b600260009054906101000a900473ffffffffffffffffffffffffffffffffffffffff1673ffffffffffffffffffffffffffffffffffffffff163373ffffffffffffffffffffffffffffffffffffffff16146105d3576040517f08c379a00000000000000000000000000000000000000000000000000000000081526004016105ca90611669565b60405180910390fd5b6003600060149054906101000a900467ffffffffffffffff1667ffffffffffffffff1611610636576040517f08c379a000000000000000000000000000000000000000000000000000000000815260040161062d906116d5565b60405180910390fd5b8273ffffffffffffffffffffffffffffffffffffffff166370a08231826040518263ffffffff1660e01b815260040161066f919061120f565b602060405180830381865afa15801561068c573d6000803e3d6000fd5b505050506040513d601f19601f820116820180604052508101906106b091906114b5565b8211156106f2576040517f08c379a00000000000000000000000000000000000000000000000000000000081526004016106e990611741565b60405180910390fd5b600560008473ffffffffffffffffffffffffffffffffffffffff1673ffffffffffffffffffffffffffffffffffffffff16815260200190815260200160002060009054906101000a900460ff161561077f576040517f08c379a0000000000000000000000000000000000000000000000000000000008152600401610776906117ad565b60405180910390fd5b6107cc600260009054906101000a900473ffffffffffffffffffffffffffffffffffffffff16838573ffffffffffffffffffffffffffffffffffffffff16610f139092919063ffffffff16565b505050565b6107d9610e8c565b6107e36000610f92565b565b60008060009054906101000a900473ffffffffffffffffffffffffffffffffffffffff16905090565b60046020528060005260406000206000915054906101000a900460ff1681565b600160089054906101000a900473ffffffffffffffffffffffffffffffffffffffff1673ffffffffffffffffffffffffffffffffffffffff163373ffffffffffffffffffffffffffffffffffffffff1614806108d75750600260009054906101000a900473ffffffffffffffffffffffffffffffffffffffff1673ffffffffffffffffffffffffffffffffffffffff163373ffffffffffffffffffffffffffffffffffffffff16145b610916576040517f08c379a000000000000000000000000000000000000000000000000000000000815260040161090d90611819565b60405180910390fd5b42600160006101000a81548167ffffffffffffffff021916908367ffffffffffffffff16021790555080600560008473ffffffffffffffffffffffffffffffffffffffff1673ffffffffffffffffffffffffffffffffffffffff16815260200190815260200160002060006101000a81548160ff0219169083151502179055505050565b60008060149054906101000a900467ffffffffffffffff16905090565b6000600160009054906101000a900467ffffffffffffffff1667ffffffffffffffff16426109e5919061157d565b9050600360009054906101000a900473ffffffffffffffffffffffffffffffffffffffff1673ffffffffffffffffffffffffffffffffffffffff163373ffffffffffffffffffffffffffffffffffffffff1614610a77576040517f08c379a0000000000000000000000000000000000000000000000000000000008152600401610a6e90611885565b60405180910390fd5b60046000600160089054906101000a900473ffffffffffffffffffffffffffffffffffffffff1673ffffffffffffffffffffffffffffffffffffffff1673ffffffffffffffffffffffffffffffffffffffff16815260200190815260200160002060009054906101000a900460ff168015610b5d575060046000600260009054906101000a900473ffffffffffffffffffffffffffffffffffffffff1673ffffffffffffffffffffffffffffffffffffffff1673ffffffffffffffffffffffffffffffffffffffff16815260200190815260200160002060009054906101000a900460ff165b610b9c576040517f08c379a0000000000000000000000000000000000000000000000000000000008152600401610b93906118f1565b60405180910390fd5b61546067ffffffffffffffff168110610bea576040517f08c379a0000000000000000000000000000000000000000000000000000000008152600401610be19061195d565b60405180910390fd5b60008273ffffffffffffffffffffffffffffffffffffffff166370a08231306040518263ffffffff1660e01b8152600401610c25919061120f565b602060405180830381865afa158015610c42573d6000803e3d6000fd5b505050506040513d601f19601f82011682018060405250810190610c6691906114b5565b90506000600560008573ffffffffffffffffffffffffffffffffffffffff1673ffffffffffffffffffffffffffffffffffffffff16815260200190815260200160002060006101000a81548160ff021916908315150217905550610d0d600160089054906101000a900473ffffffffffffffffffffffffffffffffffffffff16828573ffffffffffffffffffffffffffffffffffffffff16610f139092919063ffffffff16565b505050565b610d1a610e8c565b600073ffffffffffffffffffffffffffffffffffffffff168173ffffffffffffffffffffffffffffffffffffffff1603610d8c5760006040517f1e4fbdf7000000000000000000000000000000000000000000000000000000008152600401610d83919061120f565b60405180910390fd5b610d9581610f92565b50565b600073ffffffffffffffffffffffffffffffffffffffff168173ffffffffffffffffffffffffffffffffffffffff1603610e07576040517f08c379a0000000000000000000000000000000000000000000000000000000008152600401610dfe906119c9565b60405180910390fd5b50565b610e86848573ffffffffffffffffffffffffffffffffffffffff166323b872dd868686604051602401610e3f939291906119f8565b604051602081830303815290604052915060e01b6020820180517bffffffffffffffffffffffffffffffffffffffffffffffffffffffff8381831617835250505050611056565b50505050565b610e946110f8565b73ffffffffffffffffffffffffffffffffffffffff16610eb26107e5565b73ffffffffffffffffffffffffffffffffffffffff1614610f1157610ed56110f8565b6040517f118cdaa7000000000000000000000000000000000000000000000000000000008152600401610f08919061120f565b60405180910390fd5b565b610f8d838473ffffffffffffffffffffffffffffffffffffffff1663a9059cbb8585604051602401610f46929190611a2f565b604051602081830303815290604052915060e01b6020820180517bffffffffffffffffffffffffffffffffffffffffffffffffffffffff8381831617835250505050611056565b505050565b60008060009054906101000a900473ffffffffffffffffffffffffffffffffffffffff169050816000806101000a81548173ffffffffffffffffffffffffffffffffffffffff021916908373ffffffffffffffffffffffffffffffffffffffff1602179055508173ffffffffffffffffffffffffffffffffffffffff168173ffffffffffffffffffffffffffffffffffffffff167f8be0079c531659141344cd1fd0a4f28419497f9722a3daafe3b4186f6b6457e060405160405180910390a35050565b600080602060008451602086016000885af180611079576040513d6000823e3d81fd5b3d9250600051915050600082146110945760018114156110b0565b60008473ffffffffffffffffffffffffffffffffffffffff163b145b156110f257836040517f5274afe70000000000000000000000000000000000000000000000000000000081526004016110e9919061120f565b60405180910390fd5b50505050565b600033905090565b600080fd5b600073ffffffffffffffffffffffffffffffffffffffff82169050919050565b600061113082611105565b9050919050565b61114081611125565b811461114b57600080fd5b50565b60008135905061115d81611137565b92915050565b6000819050919050565b61117681611163565b811461118157600080fd5b50565b6000813590506111938161116d565b92915050565b600080600080608085870312156111b3576111b2611100565b5b60006111c18782880161114e565b94505060206111d28782880161114e565b93505060406111e38782880161114e565b92505060606111f487828801611184565b91505092959194509250565b61120981611125565b82525050565b60006020820190506112246000830184611200565b92915050565b6000806040838503121561124157611240611100565b5b600061124f8582860161114e565b925050602061126085828601611184565b9150509250929050565b600067ffffffffffffffff82169050919050565b6112878161126a565b811461129257600080fd5b50565b6000813590506112a48161127e565b92915050565b6000602082840312156112c0576112bf611100565b5b60006112ce84828501611295565b91505092915050565b6000806000606084860312156112f0576112ef611100565b5b60006112fe8682870161114e565b935050602061130f86828701611184565b92505060406113208682870161114e565b9150509250925092565b6000602082840312156113405761133f611100565b5b600061134e8482850161114e565b91505092915050565b60008115159050919050565b61136c81611357565b82525050565b60006020820190506113876000830184611363565b92915050565b61139681611357565b81146113a157600080fd5b50565b6000813590506113b38161138d565b92915050565b600080604083850312156113d0576113cf611100565b5b60006113de8582860161114e565b92505060206113ef858286016113a4565b9150509250929050565b6114028161126a565b82525050565b600060208201905061141d60008301846113f9565b92915050565b600082825260208201905092915050565b7f496e76616c696420627579657200000000000000000000000000000000000000600082015250565b600061146a600d83611423565b915061147582611434565b602082019050919050565b600060208201905081810360008301526114998161145d565b9050919050565b6000815190506114af8161116d565b92915050565b6000602082840312156114cb576114ca611100565b5b60006114d9848285016114a0565b91505092915050565b7f496e73756666696369656e742062616c616e6365000000000000000000000000600082015250565b6000611518601483611423565b9150611523826114e2565b602082019050919050565b600060208201905081810360008301526115478161150b565b9050919050565b7f4e487b7100000000000000000000000000000000000000000000000000000000600052601160045260246000fd5b600061158882611163565b915061159383611163565b92508282039050818111156115ab576115aa61154e565b5b92915050565b7f496e73756666696369656e742062616c616e636520746f207769746864726177600082015250565b60006115e7602083611423565b91506115f2826115b1565b602082019050919050565b60006020820190508181036000830152611616816115da565b9050919050565b7f496e76616c69642073656c6c6572000000000000000000000000000000000000600082015250565b6000611653600e83611423565b915061165e8261161d565b602082019050919050565b6000602082019050818103600083015261168281611646565b9050919050565b7f576974686472617720706572696f64206c657373207468616e20332064617973600082015250565b60006116bf602083611423565b91506116ca82611689565b602082019050919050565b600060208201905081810360008301526116ee816116b2565b9050919050565b7f496e73756666696369656e742062616c616e636520696e20636f6e7472616374600082015250565b600061172b602083611423565b9150611736826116f5565b602082019050919050565b6000602082019050818103600083015261175a8161171e565b9050919050565b7f4469737075746520726169736564000000000000000000000000000000000000600082015250565b6000611797600e83611423565b91506117a282611761565b602082019050919050565b600060208201905081810360008301526117c68161178a565b9050919050565b7f4e6f742061206275796572206f722073656c6c65720000000000000000000000600082015250565b6000611803601583611423565b915061180e826117cd565b602082019050919050565b60006020820190508181036000830152611832816117f6565b9050919050565b7f496e76616c6964207265736f6c76657200000000000000000000000000000000600082015250565b600061186f601083611423565b915061187a82611839565b602082019050919050565b6000602082019050818103600083015261189e81611862565b9050919050565b7f417070726f76616c206e6f7420676976656e0000000000000000000000000000600082015250565b60006118db601283611423565b91506118e6826118a5565b602082019050919050565b6000602082019050818103600083015261190a816118ce565b9050919050565b7f54696d6520657863656564656400000000000000000000000000000000000000600082015250565b6000611947600d83611423565b915061195282611911565b602082019050919050565b600060208201905081810360008301526119768161193a565b9050919050565b7f496e76616c696420616464726573730000000000000000000000000000000000600082015250565b60006119b3600f83611423565b91506119be8261197d565b602082019050919050565b600060208201905081810360008301526119e2816119a6565b9050919050565b6119f281611163565b82525050565b6000606082019050611a0d6000830186611200565b611a1a6020830185611200565b611a2760408301846119e9565b949350505050565b6000604082019050611a446000830185611200565b611a5160208301846119e9565b939250505056fea264697066735822122064d7947b7e0cb25b28a9d18171a39d027dc421ee43a722e460dfde4de19d0be964736f6c63430008170033","linkReferences":{}},"methodIdentifiers":{"approval(address)":"9430b496","deposit(address,address,address,uint256)":"0284c3f5","getwaitTimePeriod()":"b3b5ac9c","owner()":"8da5cb5b","renounceOwnership()":"715018a6","resolver()":"04f3bcec","setDisputeRaised(address,bool)":"a920856d","setVerdict(address)":"eb0f6425","transferOwnership(address)":"f2fde38b","updateTimePeriod(uint64)":"3e25e251","withdraw(address,uint256,address)":"69328dec","withdrawTokens(address,uint256)":"06b091f9"},"id":4}