{"abi":[{"type":"constructor","inputs":[],"stateMutability":"nonpayable"},{"type":"function","name":"allowance","inputs":[{"name":"owner","type":"address","internalType":"address"},{"name":"spender","type":"address","internalType":"address"}],"outputs":[{"name":"","type":"uint256","internalType":"uint256"}],"stateMutability":"view"},{"type":"function","name":"approve","inputs":[{"name":"spender","type":"address","internalType":"address"},{"name":"value","type":"uint256","internalType":"uint256"}],"outputs":[{"name":"","type":"bool","internalType":"bool"}],"stateMutability":"nonpayable"},{"type":"function","name":"balanceOf","inputs":[{"name":"account","type":"address","internalType":"address"}],"outputs":[{"name":"","type":"uint256","internalType":"uint256"}],"stateMutability":"view"},{"type":"function","name":"decimals","inputs":[],"outputs":[{"name":"","type":"uint8","internalType":"uint8"}],"stateMutability":"view"},{"type":"function","name":"name","inputs":[],"outputs":[{"name":"","type":"string","internalType":"string"}],"stateMutability":"view"},{"type":"function","name":"onERC721Received","inputs":[{"name":"operator","type":"address","internalType":"address"},{"name":"from","type":"address","internalType":"address"},{"name":"tokenId","type":"uint256","internalType":"uint256"},{"name":"data","type":"bytes","internalType":"bytes"}],"outputs":[{"name":"","type":"bytes4","internalType":"bytes4"}],"stateMutability":"nonpayable"},{"type":"function","name":"owner","inputs":[],"outputs":[{"name":"","type":"address","internalType":"address"}],"stateMutability":"view"},{"type":"function","name":"renounceOwnership","inputs":[],"outputs":[],"stateMutability":"nonpayable"},{"type":"function","name":"symbol","inputs":[],"outputs":[{"name":"","type":"string","internalType":"string"}],"stateMutability":"view"},{"type":"function","name":"totalSupply","inputs":[],"outputs":[{"name":"","type":"uint256","internalType":"uint256"}],"stateMutability":"view"},{"type":"function","name":"transfer","inputs":[{"name":"to","type":"address","internalType":"address"},{"name":"value","type":"uint256","internalType":"uint256"}],"outputs":[{"name":"","type":"bool","internalType":"bool"}],"stateMutability":"nonpayable"},{"type":"function","name":"transferFrom","inputs":[{"name":"from","type":"address","internalType":"address"},{"name":"to","type":"address","internalType":"address"},{"name":"value","type":"uint256","internalType":"uint256"}],"outputs":[{"name":"","type":"bool","internalType":"bool"}],"stateMutability":"nonpayable"},{"type":"function","name":"transferOwnership","inputs":[{"name":"newOwner","type":"address","internalType":"address"}],"outputs":[],"stateMutability":"nonpayable"},{"type":"function","name":"withdrawERC20Tokens","inputs":[{"name":"tokenId","type":"uint256","internalType":"uint256"}],"outputs":[],"stateMutability":"nonpayable"},{"type":"event","name":"Approval","inputs":[{"name":"owner","type":"address","indexed":true,"internalType":"address"},{"name":"spender","type":"address","indexed":true,"internalType":"address"},{"name":"value","type":"uint256","indexed":false,"internalType":"uint256"}],"anonymous":false},{"type":"event","name":"OwnershipTransferred","inputs":[{"name":"previousOwner","type":"address","indexed":true,"internalType":"address"},{"name":"newOwner","type":"address","indexed":true,"internalType":"address"}],"anonymous":false},{"type":"event","name":"Transfer","inputs":[{"name":"from","type":"address","indexed":true,"internalType":"address"},{"name":"to","type":"address","indexed":true,"internalType":"address"},{"name":"value","type":"uint256","indexed":false,"internalType":"uint256"}],"anonymous":false},{"type":"error","name":"ERC20InsufficientAllowance","inputs":[{"name":"spender","type":"address","internalType":"address"},{"name":"allowance","type":"uint256","internalType":"uint256"},{"name":"needed","type":"uint256","internalType":"uint256"}]},{"type":"error","name":"ERC20InsufficientBalance","inputs":[{"name":"sender","type":"address","internalType":"address"},{"name":"balance","type":"uint256","internalType":"uint256"},{"name":"needed","type":"uint256","internalType":"uint256"}]},{"type":"error","name":"ERC20InvalidApprover","inputs":[{"name":"approver","type":"address","internalType":"address"}]},{"type":"error","name":"ERC20InvalidReceiver","inputs":[{"name":"receiver","type":"address","internalType":"address"}]},{"type":"error","name":"ERC20InvalidSender","inputs":[{"name":"sender","type":"address","internalType":"address"}]},{"type":"error","name":"ERC20InvalidSpender","inputs":[{"name":"spender","type":"address","internalType":"address"}]},{"type":"error","name":"OwnableInvalidOwner","inputs":[{"name":"owner","type":"address","internalType":"address"}]},{"type":"error","name":"OwnableUnauthorizedAccount","inputs":[{"name":"account","type":"address","internalType":"address"}]}],"bytecode":{"object":"0x60806040526201518060095562989680600a553480156200001f57600080fd5b50336040518060400160405280600e81526020017f526577617264696e67546f6b656e0000000000000000000000000000000000008152506040518060400160405280600481526020017f52544b4e0000000000000000000000000000000000000000000000000000000081525081600390816200009e919062000480565b508060049081620000b0919062000480565b505050600073ffffffffffffffffffffffffffffffffffffffff168173ffffffffffffffffffffffffffffffffffffffff1603620001285760006040517f1e4fbdf70000000000000000000000000000000000000000000000000000000081526004016200011f9190620005ac565b60405180910390fd5b62000139816200014060201b60201c565b50620005c9565b6000600560009054906101000a900473ffffffffffffffffffffffffffffffffffffffff16905081600560006101000a81548173ffffffffffffffffffffffffffffffffffffffff021916908373ffffffffffffffffffffffffffffffffffffffff1602179055508173ffffffffffffffffffffffffffffffffffffffff168173ffffffffffffffffffffffffffffffffffffffff167f8be0079c531659141344cd1fd0a4f28419497f9722a3daafe3b4186f6b6457e060405160405180910390a35050565b600081519050919050565b7f4e487b7100000000000000000000000000000000000000000000000000000000600052604160045260246000fd5b7f4e487b7100000000000000000000000000000000000000000000000000000000600052602260045260246000fd5b600060028204905060018216806200028857607f821691505b6020821081036200029e576200029d62000240565b5b50919050565b60008190508160005260206000209050919050565b60006020601f8301049050919050565b600082821b905092915050565b600060088302620003087fffffffffffffffffffffffffffffffffffffffffffffffffffffffffffffffff82620002c9565b620003148683620002c9565b95508019841693508086168417925050509392505050565b6000819050919050565b6000819050919050565b6000620003616200035b62000355846200032c565b62000336565b6200032c565b9050919050565b6000819050919050565b6200037d8362000340565b620003956200038c8262000368565b848454620002d6565b825550505050565b600090565b620003ac6200039d565b620003b981848462000372565b505050565b5b81811015620003e157620003d5600082620003a2565b600181019050620003bf565b5050565b601f8211156200043057620003fa81620002a4565b6200040584620002b9565b8101602085101562000415578190505b6200042d6200042485620002b9565b830182620003be565b50505b505050565b600082821c905092915050565b6000620004556000198460080262000435565b1980831691505092915050565b600062000470838362000442565b9150826002028217905092915050565b6200048b8262000206565b67ffffffffffffffff811115620004a757620004a662000211565b5b620004b382546200026f565b620004c0828285620003e5565b600060209050601f831160018114620004f85760008415620004e3578287015190505b620004ef858262000462565b8655506200055f565b601f1984166200050886620002a4565b60005b8281101562000532578489015182556001820191506020850194506020810190506200050b565b868310156200055257848901516200054e601f89168262000442565b8355505b6001600288020188555050505b505050505050565b600073ffffffffffffffffffffffffffffffffffffffff82169050919050565b6000620005948262000567565b9050919050565b620005a68162000587565b82525050565b6000602082019050620005c360008301846200059b565b92915050565b611ac180620005d96000396000f3fe608060405234801561001057600080fd5b50600436106100ea5760003560e01c8063715018a61161008c5780639a19276e116100665780639a19276e1461024f578063a9059cbb1461026b578063dd62ed3e1461029b578063f2fde38b146102cb576100ea565b8063715018a6146102095780638da5cb5b1461021357806395d89b4114610231576100ea565b806318160ddd116100c857806318160ddd1461016d57806323b872dd1461018b578063313ce567146101bb57806370a08231146101d9576100ea565b806306fdde03146100ef578063095ea7b31461010d578063150b7a021461013d575b600080fd5b6100f76102e7565b604051610104919061123c565b60405180910390f35b610127600480360381019061012291906112fc565b610379565b6040516101349190611357565b60405180910390f35b610157600480360381019061015291906113d7565b61039c565b604051610164919061149a565b60405180910390f35b61017561041b565b60405161018291906114c4565b60405180910390f35b6101a560048036038101906101a091906114df565b610425565b6040516101b29190611357565b60405180910390f35b6101c3610454565b6040516101d0919061154e565b60405180910390f35b6101f360048036038101906101ee9190611569565b61045d565b60405161020091906114c4565b60405180910390f35b6102116104a5565b005b61021b6104b9565b60405161022891906115a5565b60405180910390f35b6102396104e3565b604051610246919061123c565b60405180910390f35b610269600480360381019061026491906115c0565b610575565b005b610285600480360381019061028091906112fc565b61090f565b6040516102929190611357565b60405180910390f35b6102b560048036038101906102b091906115ed565b610932565b6040516102c291906114c4565b60405180910390f35b6102e560048036038101906102e09190611569565b6109b9565b005b6060600380546102f69061165c565b80601f01602080910402602001604051908101604052809291908181526020018280546103229061165c565b801561036f5780601f106103445761010080835404028352916020019161036f565b820191906000526020600020905b81548152906001019060200180831161035257829003601f168201915b5050505050905090565b600080610384610a3f565b9050610391818585610a47565b600191505092915050565b600042600b600086815260200190815260200160002081905550846008600086815260200190815260200160002060006101000a81548173ffffffffffffffffffffffffffffffffffffffff021916908373ffffffffffffffffffffffffffffffffffffffff16021790555063150b7a0260e01b905095945050505050565b6000600254905090565b600080610430610a3f565b905061043d858285610a59565b610448858585610aed565b60019150509392505050565b60006012905090565b60008060008373ffffffffffffffffffffffffffffffffffffffff1673ffffffffffffffffffffffffffffffffffffffff168152602001908152602001600020549050919050565b6104ad610be1565b6104b76000610c68565b565b6000600560009054906101000a900473ffffffffffffffffffffffffffffffffffffffff16905090565b6060600480546104f29061165c565b80601f016020809104026020016040519081016040528092919081815260200182805461051e9061165c565b801561056b5780601f106105405761010080835404028352916020019161056b565b820191906000526020600020905b81548152906001019060200180831161054e57829003601f168201915b5050505050905090565b600073ffffffffffffffffffffffffffffffffffffffff166008600083815260200190815260200160002060009054906101000a900473ffffffffffffffffffffffffffffffffffffffff1673ffffffffffffffffffffffffffffffffffffffff1603610617576040517f08c379a000000000000000000000000000000000000000000000000000000000815260040161060e906116ff565b60405180910390fd5b3373ffffffffffffffffffffffffffffffffffffffff166008600083815260200190815260200160002060009054906101000a900473ffffffffffffffffffffffffffffffffffffffff1673ffffffffffffffffffffffffffffffffffffffff16146106b8576040517f08c379a00000000000000000000000000000000000000000000000000000000081526004016106af9061176b565b60405180910390fd5b600954600760003373ffffffffffffffffffffffffffffffffffffffff1673ffffffffffffffffffffffffffffffffffffffff168152602001908152602001600020544261070691906117ba565b1015610747576040517f08c379a000000000000000000000000000000000000000000000000000000000815260040161073e90611860565b60405180910390fd5b6000600954600b6000848152602001908152602001600020544261076b91906117ba565b61077591906118af565b905060018110156107bb576040517f08c379a00000000000000000000000000000000000000000000000000000000081526004016107b290611952565b60405180910390fd5b6000600a54826107cb9190611972565b90506000600660003373ffffffffffffffffffffffffffffffffffffffff1673ffffffffffffffffffffffffffffffffffffffff1681526020019081526020016000205490506000818361081f91906117ba565b905060008111610864576040517f08c379a000000000000000000000000000000000000000000000000000000000815260040161085b90611a00565b60405180910390fd5b80600660003373ffffffffffffffffffffffffffffffffffffffff1673ffffffffffffffffffffffffffffffffffffffff16815260200190815260200160002060008282546108b39190611a20565b9250508190555042600760003373ffffffffffffffffffffffffffffffffffffffff1673ffffffffffffffffffffffffffffffffffffffff168152602001908152602001600020819055506109083382610d2e565b5050505050565b60008061091a610a3f565b9050610927818585610aed565b600191505092915050565b6000600160008473ffffffffffffffffffffffffffffffffffffffff1673ffffffffffffffffffffffffffffffffffffffff16815260200190815260200160002060008373ffffffffffffffffffffffffffffffffffffffff1673ffffffffffffffffffffffffffffffffffffffff16815260200190815260200160002054905092915050565b6109c1610be1565b600073ffffffffffffffffffffffffffffffffffffffff168173ffffffffffffffffffffffffffffffffffffffff1603610a335760006040517f1e4fbdf7000000000000000000000000000000000000000000000000000000008152600401610a2a91906115a5565b60405180910390fd5b610a3c81610c68565b50565b600033905090565b610a548383836001610db0565b505050565b6000610a658484610932565b90507fffffffffffffffffffffffffffffffffffffffffffffffffffffffffffffffff8114610ae75781811015610ad7578281836040517ffb8f41b2000000000000000000000000000000000000000000000000000000008152600401610ace93929190611a54565b60405180910390fd5b610ae684848484036000610db0565b5b50505050565b600073ffffffffffffffffffffffffffffffffffffffff168373ffffffffffffffffffffffffffffffffffffffff1603610b5f5760006040517f96c6fd1e000000000000000000000000000000000000000000000000000000008152600401610b5691906115a5565b60405180910390fd5b600073ffffffffffffffffffffffffffffffffffffffff168273ffffffffffffffffffffffffffffffffffffffff1603610bd15760006040517fec442f05000000000000000000000000000000000000000000000000000000008152600401610bc891906115a5565b60405180910390fd5b610bdc838383610f87565b505050565b610be9610a3f565b73ffffffffffffffffffffffffffffffffffffffff16610c076104b9565b73ffffffffffffffffffffffffffffffffffffffff1614610c6657610c2a610a3f565b6040517f118cdaa7000000000000000000000000000000000000000000000000000000008152600401610c5d91906115a5565b60405180910390fd5b565b6000600560009054906101000a900473ffffffffffffffffffffffffffffffffffffffff16905081600560006101000a81548173ffffffffffffffffffffffffffffffffffffffff021916908373ffffffffffffffffffffffffffffffffffffffff1602179055508173ffffffffffffffffffffffffffffffffffffffff168173ffffffffffffffffffffffffffffffffffffffff167f8be0079c531659141344cd1fd0a4f28419497f9722a3daafe3b4186f6b6457e060405160405180910390a35050565b600073ffffffffffffffffffffffffffffffffffffffff168273ffffffffffffffffffffffffffffffffffffffff1603610da05760006040517fec442f05000000000000000000000000000000000000000000000000000000008152600401610d9791906115a5565b60405180910390fd5b610dac60008383610f87565b5050565b600073ffffffffffffffffffffffffffffffffffffffff168473ffffffffffffffffffffffffffffffffffffffff1603610e225760006040517fe602df05000000000000000000000000000000000000000000000000000000008152600401610e1991906115a5565b60405180910390fd5b600073ffffffffffffffffffffffffffffffffffffffff168373ffffffffffffffffffffffffffffffffffffffff1603610e945760006040517f94280d62000000000000000000000000000000000000000000000000000000008152600401610e8b91906115a5565b60405180910390fd5b81600160008673ffffffffffffffffffffffffffffffffffffffff1673ffffffffffffffffffffffffffffffffffffffff16815260200190815260200160002060008573ffffffffffffffffffffffffffffffffffffffff1673ffffffffffffffffffffffffffffffffffffffff168152602001908152602001600020819055508015610f81578273ffffffffffffffffffffffffffffffffffffffff168473ffffffffffffffffffffffffffffffffffffffff167f8c5be1e5ebec7d5bd14f71427d1e84f3dd0314c0f7b2291e5b200ac8c7c3b92584604051610f7891906114c4565b60405180910390a35b50505050565b600073ffffffffffffffffffffffffffffffffffffffff168373ffffffffffffffffffffffffffffffffffffffff1603610fd9578060026000828254610fcd9190611a20565b925050819055506110ac565b60008060008573ffffffffffffffffffffffffffffffffffffffff1673ffffffffffffffffffffffffffffffffffffffff16815260200190815260200160002054905081811015611065578381836040517fe450d38c00000000000000000000000000000000000000000000000000000000815260040161105c93929190611a54565b60405180910390fd5b8181036000808673ffffffffffffffffffffffffffffffffffffffff1673ffffffffffffffffffffffffffffffffffffffff16815260200190815260200160002081905550505b600073ffffffffffffffffffffffffffffffffffffffff168273ffffffffffffffffffffffffffffffffffffffff16036110f55780600260008282540392505081905550611142565b806000808473ffffffffffffffffffffffffffffffffffffffff1673ffffffffffffffffffffffffffffffffffffffff168152602001908152602001600020600082825401925050819055505b8173ffffffffffffffffffffffffffffffffffffffff168373ffffffffffffffffffffffffffffffffffffffff167fddf252ad1be2c89b69c2b068fc378daa952ba7f163c4a11628f55a4df523b3ef8360405161119f91906114c4565b60405180910390a3505050565b600081519050919050565b600082825260208201905092915050565b60005b838110156111e65780820151818401526020810190506111cb565b60008484015250505050565b6000601f19601f8301169050919050565b600061120e826111ac565b61121881856111b7565b93506112288185602086016111c8565b611231816111f2565b840191505092915050565b600060208201905081810360008301526112568184611203565b905092915050565b600080fd5b600080fd5b600073ffffffffffffffffffffffffffffffffffffffff82169050919050565b600061129382611268565b9050919050565b6112a381611288565b81146112ae57600080fd5b50565b6000813590506112c08161129a565b92915050565b6000819050919050565b6112d9816112c6565b81146112e457600080fd5b50565b6000813590506112f6816112d0565b92915050565b600080604083850312156113135761131261125e565b5b6000611321858286016112b1565b9250506020611332858286016112e7565b9150509250929050565b60008115159050919050565b6113518161133c565b82525050565b600060208201905061136c6000830184611348565b92915050565b600080fd5b600080fd5b600080fd5b60008083601f84011261139757611396611372565b5b8235905067ffffffffffffffff8111156113b4576113b3611377565b5b6020830191508360018202830111156113d0576113cf61137c565b5b9250929050565b6000806000806000608086880312156113f3576113f261125e565b5b6000611401888289016112b1565b9550506020611412888289016112b1565b9450506040611423888289016112e7565b935050606086013567ffffffffffffffff81111561144457611443611263565b5b61145088828901611381565b92509250509295509295909350565b60007fffffffff0000000000000000000000000000000000000000000000000000000082169050919050565b6114948161145f565b82525050565b60006020820190506114af600083018461148b565b92915050565b6114be816112c6565b82525050565b60006020820190506114d960008301846114b5565b92915050565b6000806000606084860312156114f8576114f761125e565b5b6000611506868287016112b1565b9350506020611517868287016112b1565b9250506040611528868287016112e7565b9150509250925092565b600060ff82169050919050565b61154881611532565b82525050565b6000602082019050611563600083018461153f565b92915050565b60006020828403121561157f5761157e61125e565b5b600061158d848285016112b1565b91505092915050565b61159f81611288565b82525050565b60006020820190506115ba6000830184611596565b92915050565b6000602082840312156115d6576115d561125e565b5b60006115e4848285016112e7565b91505092915050565b600080604083850312156116045761160361125e565b5b6000611612858286016112b1565b9250506020611623858286016112b1565b9150509250929050565b7f4e487b7100000000000000000000000000000000000000000000000000000000600052602260045260246000fd5b6000600282049050600182168061167457607f821691505b6020821081036116875761168661162d565b5b50919050565b7f746f6b656e4964206e6f742070726573656e7420696e207468697320636f6e7460008201527f7261637400000000000000000000000000000000000000000000000000000000602082015250565b60006116e96024836111b7565b91506116f48261168d565b604082019050919050565b60006020820190508181036000830152611718816116dc565b9050919050565b7f6e6f742061206f726967696e616c204e465420746f6b656e206f776e65720000600082015250565b6000611755601e836111b7565b91506117608261171f565b602082019050919050565b6000602082019050818103600083015261178481611748565b9050919050565b7f4e487b7100000000000000000000000000000000000000000000000000000000600052601160045260246000fd5b60006117c5826112c6565b91506117d0836112c6565b92508282039050818111156117e8576117e761178b565b5b92915050565b7f6f6e65207769746864726177616c207065722064617920697320616c6c6f776560008201527f6400000000000000000000000000000000000000000000000000000000000000602082015250565b600061184a6021836111b7565b9150611855826117ee565b604082019050919050565b600060208201905081810360008301526118798161183d565b9050919050565b7f4e487b7100000000000000000000000000000000000000000000000000000000600052601260045260246000fd5b60006118ba826112c6565b91506118c5836112c6565b9250826118d5576118d4611880565b5b828204905092915050565b7f746f6b656e732063616e2062652077697468647261776e20616674657220323460008201527f20686f757273206f6e6c79000000000000000000000000000000000000000000602082015250565b600061193c602b836111b7565b9150611947826118e0565b604082019050919050565b6000602082019050818103600083015261196b8161192f565b9050919050565b600061197d826112c6565b9150611988836112c6565b9250828202611996816112c6565b915082820484148315176119ad576119ac61178b565b5b5092915050565b7f4e6f20746f6b656e7320746f2077697468647261770000000000000000000000600082015250565b60006119ea6015836111b7565b91506119f5826119b4565b602082019050919050565b60006020820190508181036000830152611a19816119dd565b9050919050565b6000611a2b826112c6565b9150611a36836112c6565b9250828201905080821115611a4e57611a4d61178b565b5b92915050565b6000606082019050611a696000830186611596565b611a7660208301856114b5565b611a8360408301846114b5565b94935050505056fea2646970667358221220bd42d460f0d9df6d99b599e3e642aab66a8f736c2dd342992c300df519069fa064736f6c63430008170033","linkReferences":{}},"methodIdentifiers":{"allowance(address,address)":"dd62ed3e","approve(address,uint256)":"095ea7b3","balanceOf(address)":"70a08231","decimals()":"313ce567","name()":"06fdde03","onERC721Received(address,address,uint256,bytes)":"150b7a02","owner()":"8da5cb5b","renounceOwnership()":"715018a6","symbol()":"95d89b41","totalSupply()":"18160ddd","transfer(address,uint256)":"a9059cbb","transferFrom(address,address,uint256)":"23b872dd","transferOwnership(address)":"f2fde38b","withdrawERC20Tokens(uint256)":"9a19276e"},"id":4}