{"abi":[{"type":"constructor","inputs":[],"stateMutability":"nonpayable"},{"type":"function","name":"allowance","inputs":[{"name":"owner","type":"address","internalType":"address"},{"name":"spender","type":"address","internalType":"address"}],"outputs":[{"name":"","type":"uint256","internalType":"uint256"}],"stateMutability":"view"},{"type":"function","name":"approve","inputs":[{"name":"spender","type":"address","internalType":"address"},{"name":"value","type":"uint256","internalType":"uint256"}],"outputs":[{"name":"","type":"bool","internalType":"bool"}],"stateMutability":"nonpayable"},{"type":"function","name":"balanceOf","inputs":[{"name":"account","type":"address","internalType":"address"}],"outputs":[{"name":"","type":"uint256","internalType":"uint256"}],"stateMutability":"view"},{"type":"function","name":"decimals","inputs":[],"outputs":[{"name":"","type":"uint8","internalType":"uint8"}],"stateMutability":"view"},{"type":"function","name":"mint","inputs":[],"outputs":[],"stateMutability":"nonpayable"},{"type":"function","name":"name","inputs":[],"outputs":[{"name":"","type":"string","internalType":"string"}],"stateMutability":"view"},{"type":"function","name":"onERC721Received","inputs":[{"name":"operator","type":"address","internalType":"address"},{"name":"from","type":"address","internalType":"address"},{"name":"tokenId","type":"uint256","internalType":"uint256"},{"name":"data","type":"bytes","internalType":"bytes"}],"outputs":[{"name":"","type":"bytes4","internalType":"bytes4"}],"stateMutability":"nonpayable"},{"type":"function","name":"owner","inputs":[],"outputs":[{"name":"","type":"address","internalType":"address"}],"stateMutability":"view"},{"type":"function","name":"renounceOwnership","inputs":[],"outputs":[],"stateMutability":"nonpayable"},{"type":"function","name":"symbol","inputs":[],"outputs":[{"name":"","type":"string","internalType":"string"}],"stateMutability":"view"},{"type":"function","name":"timeWhenNFTDeposited","inputs":[],"outputs":[{"name":"","type":"uint256","internalType":"uint256"}],"stateMutability":"view"},{"type":"function","name":"totalSupply","inputs":[],"outputs":[{"name":"","type":"uint256","internalType":"uint256"}],"stateMutability":"view"},{"type":"function","name":"transfer","inputs":[{"name":"to","type":"address","internalType":"address"},{"name":"value","type":"uint256","internalType":"uint256"}],"outputs":[{"name":"","type":"bool","internalType":"bool"}],"stateMutability":"nonpayable"},{"type":"function","name":"transferFrom","inputs":[{"name":"from","type":"address","internalType":"address"},{"name":"to","type":"address","internalType":"address"},{"name":"value","type":"uint256","internalType":"uint256"}],"outputs":[{"name":"","type":"bool","internalType":"bool"}],"stateMutability":"nonpayable"},{"type":"function","name":"transferOwnership","inputs":[{"name":"newOwner","type":"address","internalType":"address"}],"outputs":[],"stateMutability":"nonpayable"},{"type":"function","name":"withdrawERC20Tokens","inputs":[],"outputs":[],"stateMutability":"nonpayable"},{"type":"event","name":"Approval","inputs":[{"name":"owner","type":"address","indexed":true,"internalType":"address"},{"name":"spender","type":"address","indexed":true,"internalType":"address"},{"name":"value","type":"uint256","indexed":false,"internalType":"uint256"}],"anonymous":false},{"type":"event","name":"OwnershipTransferred","inputs":[{"name":"previousOwner","type":"address","indexed":true,"internalType":"address"},{"name":"newOwner","type":"address","indexed":true,"internalType":"address"}],"anonymous":false},{"type":"event","name":"Transfer","inputs":[{"name":"from","type":"address","indexed":true,"internalType":"address"},{"name":"to","type":"address","indexed":true,"internalType":"address"},{"name":"value","type":"uint256","indexed":false,"internalType":"uint256"}],"anonymous":false},{"type":"error","name":"ERC20InsufficientAllowance","inputs":[{"name":"spender","type":"address","internalType":"address"},{"name":"allowance","type":"uint256","internalType":"uint256"},{"name":"needed","type":"uint256","internalType":"uint256"}]},{"type":"error","name":"ERC20InsufficientBalance","inputs":[{"name":"sender","type":"address","internalType":"address"},{"name":"balance","type":"uint256","internalType":"uint256"},{"name":"needed","type":"uint256","internalType":"uint256"}]},{"type":"error","name":"ERC20InvalidApprover","inputs":[{"name":"approver","type":"address","internalType":"address"}]},{"type":"error","name":"ERC20InvalidReceiver","inputs":[{"name":"receiver","type":"address","internalType":"address"}]},{"type":"error","name":"ERC20InvalidSender","inputs":[{"name":"sender","type":"address","internalType":"address"}]},{"type":"error","name":"ERC20InvalidSpender","inputs":[{"name":"spender","type":"address","internalType":"address"}]},{"type":"error","name":"OwnableInvalidOwner","inputs":[{"name":"owner","type":"address","internalType":"address"}]},{"type":"error","name":"OwnableUnauthorizedAccount","inputs":[{"name":"account","type":"address","internalType":"address"}]}],"bytecode":{"object":"0x608060405262015180600855600a6009553480156200001d57600080fd5b50336040518060400160405280600e81526020017f526577617264696e67546f6b656e0000000000000000000000000000000000008152506040518060400160405280600481526020017f52544b4e0000000000000000000000000000000000000000000000000000000081525081600390816200009c91906200047e565b508060049081620000ae91906200047e565b505050600073ffffffffffffffffffffffffffffffffffffffff168173ffffffffffffffffffffffffffffffffffffffff1603620001265760006040517f1e4fbdf70000000000000000000000000000000000000000000000000000000081526004016200011d9190620005aa565b60405180910390fd5b62000137816200013e60201b60201c565b50620005c7565b6000600560009054906101000a900473ffffffffffffffffffffffffffffffffffffffff16905081600560006101000a81548173ffffffffffffffffffffffffffffffffffffffff021916908373ffffffffffffffffffffffffffffffffffffffff1602179055508173ffffffffffffffffffffffffffffffffffffffff168173ffffffffffffffffffffffffffffffffffffffff167f8be0079c531659141344cd1fd0a4f28419497f9722a3daafe3b4186f6b6457e060405160405180910390a35050565b600081519050919050565b7f4e487b7100000000000000000000000000000000000000000000000000000000600052604160045260246000fd5b7f4e487b7100000000000000000000000000000000000000000000000000000000600052602260045260246000fd5b600060028204905060018216806200028657607f821691505b6020821081036200029c576200029b6200023e565b5b50919050565b60008190508160005260206000209050919050565b60006020601f8301049050919050565b600082821b905092915050565b600060088302620003067fffffffffffffffffffffffffffffffffffffffffffffffffffffffffffffffff82620002c7565b620003128683620002c7565b95508019841693508086168417925050509392505050565b6000819050919050565b6000819050919050565b60006200035f6200035962000353846200032a565b62000334565b6200032a565b9050919050565b6000819050919050565b6200037b836200033e565b620003936200038a8262000366565b848454620002d4565b825550505050565b600090565b620003aa6200039b565b620003b781848462000370565b505050565b5b81811015620003df57620003d3600082620003a0565b600181019050620003bd565b5050565b601f8211156200042e57620003f881620002a2565b6200040384620002b7565b8101602085101562000413578190505b6200042b6200042285620002b7565b830182620003bc565b50505b505050565b600082821c905092915050565b6000620004536000198460080262000433565b1980831691505092915050565b60006200046e838362000440565b9150826002028217905092915050565b620004898262000204565b67ffffffffffffffff811115620004a557620004a46200020f565b5b620004b182546200026d565b620004be828285620003e3565b600060209050601f831160018114620004f65760008415620004e1578287015190505b620004ed858262000460565b8655506200055d565b601f1984166200050686620002a2565b60005b82811015620005305784890151825560018201915060208501945060208101905062000509565b868310156200055057848901516200054c601f89168262000440565b8355505b6001600288020188555050505b505050505050565b600073ffffffffffffffffffffffffffffffffffffffff82169050919050565b6000620005928262000565565b9050919050565b620005a48162000585565b82525050565b6000602082019050620005c1600083018462000599565b92915050565b61177e80620005d76000396000f3fe608060405234801561001057600080fd5b50600436106101005760003560e01c806333c946da1161009757806395d89b411161006657806395d89b4114610279578063a9059cbb14610297578063dd62ed3e146102c7578063f2fde38b146102f757610100565b806333c946da1461021757806370a0823114610221578063715018a6146102515780638da5cb5b1461025b57610100565b806318160ddd116100d357806318160ddd1461018d57806323b872dd146101ab5780632fed4ea0146101db578063313ce567146101f957610100565b806306fdde0314610105578063095ea7b3146101235780631249c58b14610153578063150b7a021461015d575b600080fd5b61010d610313565b60405161011a919061104a565b60405180910390f35b61013d6004803603810190610138919061110a565b6103a5565b60405161014a9190611165565b60405180910390f35b61015b6103c8565b005b610177600480360381019061017291906111e5565b6103e0565b60405161018491906112a8565b60405180910390f35b6101956103fc565b6040516101a291906112d2565b60405180910390f35b6101c560048036038101906101c091906112ed565b610406565b6040516101d29190611165565b60405180910390f35b6101e3610435565b6040516101f091906112d2565b60405180910390f35b61020161043b565b60405161020e919061135c565b60405180910390f35b61021f610444565b005b61023b60048036038101906102369190611377565b610605565b60405161024891906112d2565b60405180910390f35b61025961064d565b005b610263610661565b60405161027091906113b3565b60405180910390f35b61028161068b565b60405161028e919061104a565b60405180910390f35b6102b160048036038101906102ac919061110a565b61071d565b6040516102be9190611165565b60405180910390f35b6102e160048036038101906102dc91906113ce565b610740565b6040516102ee91906112d2565b60405180910390f35b610311600480360381019061030c9190611377565b6107c7565b005b6060600380546103229061143d565b80601f016020809104026020016040519081016040528092919081815260200182805461034e9061143d565b801561039b5780601f106103705761010080835404028352916020019161039b565b820191906000526020600020905b81548152906001019060200180831161037e57829003601f168201915b5050505050905090565b6000806103b061084d565b90506103bd818585610855565b600191505092915050565b6103d0610867565b6103de3363b2d05e006108ee565b565b600042600a8190555063150b7a0260e01b905095945050505050565b6000600254905090565b60008061041161084d565b905061041e858285610970565b610429858585610a04565b60019150509392505050565b600a5481565b60006012905090565b6298968061045130610605565b11610491576040517f08c379a0000000000000000000000000000000000000000000000000000000008152600401610488906114ba565b60405180910390fd5b6000600854600a54426104a49190611509565b6104ae919061156c565b905060018110156104f4576040517f08c379a00000000000000000000000000000000000000000000000000000000081526004016104eb9061160f565b60405180910390fd5b600060095482610504919061162f565b90506000600660003373ffffffffffffffffffffffffffffffffffffffff1673ffffffffffffffffffffffffffffffffffffffff168152602001908152602001600020549050600081836105589190611509565b90506000811161059d576040517f08c379a0000000000000000000000000000000000000000000000000000000008152600401610594906116bd565b60405180910390fd5b80600660003373ffffffffffffffffffffffffffffffffffffffff1673ffffffffffffffffffffffffffffffffffffffff16815260200190815260200160002060008282546105ec91906116dd565b925050819055506105fe303383610406565b5050505050565b60008060008373ffffffffffffffffffffffffffffffffffffffff1673ffffffffffffffffffffffffffffffffffffffff168152602001908152602001600020549050919050565b610655610867565b61065f6000610af8565b565b6000600560009054906101000a900473ffffffffffffffffffffffffffffffffffffffff16905090565b60606004805461069a9061143d565b80601f01602080910402602001604051908101604052809291908181526020018280546106c69061143d565b80156107135780601f106106e857610100808354040283529160200191610713565b820191906000526020600020905b8154815290600101906020018083116106f657829003601f168201915b5050505050905090565b60008061072861084d565b9050610735818585610a04565b600191505092915050565b6000600160008473ffffffffffffffffffffffffffffffffffffffff1673ffffffffffffffffffffffffffffffffffffffff16815260200190815260200160002060008373ffffffffffffffffffffffffffffffffffffffff1673ffffffffffffffffffffffffffffffffffffffff16815260200190815260200160002054905092915050565b6107cf610867565b600073ffffffffffffffffffffffffffffffffffffffff168173ffffffffffffffffffffffffffffffffffffffff16036108415760006040517f1e4fbdf700000000000000000000000000000000000000000000000000000000815260040161083891906113b3565b60405180910390fd5b61084a81610af8565b50565b600033905090565b6108628383836001610bbe565b505050565b61086f61084d565b73ffffffffffffffffffffffffffffffffffffffff1661088d610661565b73ffffffffffffffffffffffffffffffffffffffff16146108ec576108b061084d565b6040517f118cdaa70000000000000000000000000000000000000000000000000000000081526004016108e391906113b3565b60405180910390fd5b565b600073ffffffffffffffffffffffffffffffffffffffff168273ffffffffffffffffffffffffffffffffffffffff16036109605760006040517fec442f0500000000000000000000000000000000000000000000000000000000815260040161095791906113b3565b60405180910390fd5b61096c60008383610d95565b5050565b600061097c8484610740565b90507fffffffffffffffffffffffffffffffffffffffffffffffffffffffffffffffff81146109fe57818110156109ee578281836040517ffb8f41b20000000000000000000000000000000000000000000000000000000081526004016109e593929190611711565b60405180910390fd5b6109fd84848484036000610bbe565b5b50505050565b600073ffffffffffffffffffffffffffffffffffffffff168373ffffffffffffffffffffffffffffffffffffffff1603610a765760006040517f96c6fd1e000000000000000000000000000000000000000000000000000000008152600401610a6d91906113b3565b60405180910390fd5b600073ffffffffffffffffffffffffffffffffffffffff168273ffffffffffffffffffffffffffffffffffffffff1603610ae85760006040517fec442f05000000000000000000000000000000000000000000000000000000008152600401610adf91906113b3565b60405180910390fd5b610af3838383610d95565b505050565b6000600560009054906101000a900473ffffffffffffffffffffffffffffffffffffffff16905081600560006101000a81548173ffffffffffffffffffffffffffffffffffffffff021916908373ffffffffffffffffffffffffffffffffffffffff1602179055508173ffffffffffffffffffffffffffffffffffffffff168173ffffffffffffffffffffffffffffffffffffffff167f8be0079c531659141344cd1fd0a4f28419497f9722a3daafe3b4186f6b6457e060405160405180910390a35050565b600073ffffffffffffffffffffffffffffffffffffffff168473ffffffffffffffffffffffffffffffffffffffff1603610c305760006040517fe602df05000000000000000000000000000000000000000000000000000000008152600401610c2791906113b3565b60405180910390fd5b600073ffffffffffffffffffffffffffffffffffffffff168373ffffffffffffffffffffffffffffffffffffffff1603610ca25760006040517f94280d62000000000000000000000000000000000000000000000000000000008152600401610c9991906113b3565b60405180910390fd5b81600160008673ffffffffffffffffffffffffffffffffffffffff1673ffffffffffffffffffffffffffffffffffffffff16815260200190815260200160002060008573ffffffffffffffffffffffffffffffffffffffff1673ffffffffffffffffffffffffffffffffffffffff168152602001908152602001600020819055508015610d8f578273ffffffffffffffffffffffffffffffffffffffff168473ffffffffffffffffffffffffffffffffffffffff167f8c5be1e5ebec7d5bd14f71427d1e84f3dd0314c0f7b2291e5b200ac8c7c3b92584604051610d8691906112d2565b60405180910390a35b50505050565b600073ffffffffffffffffffffffffffffffffffffffff168373ffffffffffffffffffffffffffffffffffffffff1603610de7578060026000828254610ddb91906116dd565b92505081905550610eba565b60008060008573ffffffffffffffffffffffffffffffffffffffff1673ffffffffffffffffffffffffffffffffffffffff16815260200190815260200160002054905081811015610e73578381836040517fe450d38c000000000000000000000000000000000000000000000000000000008152600401610e6a93929190611711565b60405180910390fd5b8181036000808673ffffffffffffffffffffffffffffffffffffffff1673ffffffffffffffffffffffffffffffffffffffff16815260200190815260200160002081905550505b600073ffffffffffffffffffffffffffffffffffffffff168273ffffffffffffffffffffffffffffffffffffffff1603610f035780600260008282540392505081905550610f50565b806000808473ffffffffffffffffffffffffffffffffffffffff1673ffffffffffffffffffffffffffffffffffffffff168152602001908152602001600020600082825401925050819055505b8173ffffffffffffffffffffffffffffffffffffffff168373ffffffffffffffffffffffffffffffffffffffff167fddf252ad1be2c89b69c2b068fc378daa952ba7f163c4a11628f55a4df523b3ef83604051610fad91906112d2565b60405180910390a3505050565b600081519050919050565b600082825260208201905092915050565b60005b83811015610ff4578082015181840152602081019050610fd9565b60008484015250505050565b6000601f19601f8301169050919050565b600061101c82610fba565b6110268185610fc5565b9350611036818560208601610fd6565b61103f81611000565b840191505092915050565b600060208201905081810360008301526110648184611011565b905092915050565b600080fd5b600080fd5b600073ffffffffffffffffffffffffffffffffffffffff82169050919050565b60006110a182611076565b9050919050565b6110b181611096565b81146110bc57600080fd5b50565b6000813590506110ce816110a8565b92915050565b6000819050919050565b6110e7816110d4565b81146110f257600080fd5b50565b600081359050611104816110de565b92915050565b600080604083850312156111215761112061106c565b5b600061112f858286016110bf565b9250506020611140858286016110f5565b9150509250929050565b60008115159050919050565b61115f8161114a565b82525050565b600060208201905061117a6000830184611156565b92915050565b600080fd5b600080fd5b600080fd5b60008083601f8401126111a5576111a4611180565b5b8235905067ffffffffffffffff8111156111c2576111c1611185565b5b6020830191508360018202830111156111de576111dd61118a565b5b9250929050565b6000806000806000608086880312156112015761120061106c565b5b600061120f888289016110bf565b9550506020611220888289016110bf565b9450506040611231888289016110f5565b935050606086013567ffffffffffffffff81111561125257611251611071565b5b61125e8882890161118f565b92509250509295509295909350565b60007fffffffff0000000000000000000000000000000000000000000000000000000082169050919050565b6112a28161126d565b82525050565b60006020820190506112bd6000830184611299565b92915050565b6112cc816110d4565b82525050565b60006020820190506112e760008301846112c3565b92915050565b6000806000606084860312156113065761130561106c565b5b6000611314868287016110bf565b9350506020611325868287016110bf565b9250506040611336868287016110f5565b9150509250925092565b600060ff82169050919050565b61135681611340565b82525050565b6000602082019050611371600083018461134d565b92915050565b60006020828403121561138d5761138c61106c565b5b600061139b848285016110bf565b91505092915050565b6113ad81611096565b82525050565b60006020820190506113c860008301846113a4565b92915050565b600080604083850312156113e5576113e461106c565b5b60006113f3858286016110bf565b9250506020611404858286016110bf565b9150509250929050565b7f4e487b7100000000000000000000000000000000000000000000000000000000600052602260045260246000fd5b6000600282049050600182168061145557607f821691505b6020821081036114685761146761140e565b5b50919050565b7f496e73756666696369656e742062616c616e6365000000000000000000000000600082015250565b60006114a4601483610fc5565b91506114af8261146e565b602082019050919050565b600060208201905081810360008301526114d381611497565b9050919050565b7f4e487b7100000000000000000000000000000000000000000000000000000000600052601160045260246000fd5b6000611514826110d4565b915061151f836110d4565b9250828203905081811115611537576115366114da565b5b92915050565b7f4e487b7100000000000000000000000000000000000000000000000000000000600052601260045260246000fd5b6000611577826110d4565b9150611582836110d4565b9250826115925761159161153d565b5b828204905092915050565b7f746f6b656e732063616e2062652077697468647261776e20616674657220323460008201527f20686f757273206f6e6c79000000000000000000000000000000000000000000602082015250565b60006115f9602b83610fc5565b91506116048261159d565b604082019050919050565b60006020820190508181036000830152611628816115ec565b9050919050565b600061163a826110d4565b9150611645836110d4565b9250828202611653816110d4565b9150828204841483151761166a576116696114da565b5b5092915050565b7f4e6f20746f6b656e7320746f2077697468647261770000000000000000000000600082015250565b60006116a7601583610fc5565b91506116b282611671565b602082019050919050565b600060208201905081810360008301526116d68161169a565b9050919050565b60006116e8826110d4565b91506116f3836110d4565b925082820190508082111561170b5761170a6114da565b5b92915050565b600060608201905061172660008301866113a4565b61173360208301856112c3565b61174060408301846112c3565b94935050505056fea2646970667358221220fd7557f6d0b8439fb1728fa4aeaac0141e8673975e5a2ec7881bf4e30d72d2f364736f6c63430008170033","linkReferences":{}},"methodIdentifiers":{"allowance(address,address)":"dd62ed3e","approve(address,uint256)":"095ea7b3","balanceOf(address)":"70a08231","decimals()":"313ce567","mint()":"1249c58b","name()":"06fdde03","onERC721Received(address,address,uint256,bytes)":"150b7a02","owner()":"8da5cb5b","renounceOwnership()":"715018a6","symbol()":"95d89b41","timeWhenNFTDeposited()":"2fed4ea0","totalSupply()":"18160ddd","transfer(address,uint256)":"a9059cbb","transferFrom(address,address,uint256)":"23b872dd","transferOwnership(address)":"f2fde38b","withdrawERC20Tokens()":"33c946da"},"id":0}