{"abi":[{"type":"constructor","inputs":[{"name":"connectorBalance_","type":"uint256","internalType":"uint256"},{"name":"connectorWeight_","type":"uint32","internalType":"uint32"},{"name":"token_","type":"address","internalType":"address"}],"stateMutability":"nonpayable"},{"type":"receive","stateMutability":"payable"},{"type":"function","name":"allowance","inputs":[{"name":"owner","type":"address","internalType":"address"},{"name":"spender","type":"address","internalType":"address"}],"outputs":[{"name":"","type":"uint256","internalType":"uint256"}],"stateMutability":"view"},{"type":"function","name":"approve","inputs":[{"name":"spender","type":"address","internalType":"address"},{"name":"value","type":"uint256","internalType":"uint256"}],"outputs":[{"name":"","type":"bool","internalType":"bool"}],"stateMutability":"nonpayable"},{"type":"function","name":"balanceOf","inputs":[{"name":"account","type":"address","internalType":"address"}],"outputs":[{"name":"","type":"uint256","internalType":"uint256"}],"stateMutability":"view"},{"type":"function","name":"buy","inputs":[{"name":"amount_","type":"uint256","internalType":"uint256"}],"outputs":[],"stateMutability":"nonpayable"},{"type":"function","name":"calculatePurchaseReturn","inputs":[{"name":"_supply","type":"uint256","internalType":"uint256"},{"name":"_connectorBalance","type":"uint256","internalType":"uint256"},{"name":"_connectorWeight","type":"uint32","internalType":"uint32"},{"name":"_depositAmount","type":"uint256","internalType":"uint256"}],"outputs":[{"name":"","type":"uint256","internalType":"uint256"}],"stateMutability":"view"},{"type":"function","name":"calculateSaleReturn","inputs":[{"name":"_supply","type":"uint256","internalType":"uint256"},{"name":"_connectorBalance","type":"uint256","internalType":"uint256"},{"name":"_connectorWeight","type":"uint32","internalType":"uint32"},{"name":"_sellAmount","type":"uint256","internalType":"uint256"}],"outputs":[{"name":"","type":"uint256","internalType":"uint256"}],"stateMutability":"view"},{"type":"function","name":"connectorBalance","inputs":[],"outputs":[{"name":"","type":"uint256","internalType":"uint256"}],"stateMutability":"view"},{"type":"function","name":"connectorWeight","inputs":[],"outputs":[{"name":"","type":"uint32","internalType":"uint32"}],"stateMutability":"view"},{"type":"function","name":"decimals","inputs":[],"outputs":[{"name":"","type":"uint8","internalType":"uint8"}],"stateMutability":"view"},{"type":"function","name":"getBalanceArbitraryToken","inputs":[{"name":"addr","type":"address","internalType":"address"}],"outputs":[{"name":"balance_","type":"uint256","internalType":"uint256"}],"stateMutability":"view"},{"type":"function","name":"getUSDCBalUser","inputs":[{"name":"addr","type":"address","internalType":"address"}],"outputs":[{"name":"balance_","type":"uint256","internalType":"uint256"}],"stateMutability":"view"},{"type":"function","name":"name","inputs":[],"outputs":[{"name":"","type":"string","internalType":"string"}],"stateMutability":"view"},{"type":"function","name":"sell","inputs":[{"name":"amount","type":"uint256","internalType":"uint256"}],"outputs":[],"stateMutability":"nonpayable"},{"type":"function","name":"supply_","inputs":[],"outputs":[{"name":"","type":"uint256","internalType":"uint256"}],"stateMutability":"view"},{"type":"function","name":"symbol","inputs":[],"outputs":[{"name":"","type":"string","internalType":"string"}],"stateMutability":"view"},{"type":"function","name":"totalSupply","inputs":[],"outputs":[{"name":"","type":"uint256","internalType":"uint256"}],"stateMutability":"view"},{"type":"function","name":"transfer","inputs":[{"name":"to","type":"address","internalType":"address"},{"name":"value","type":"uint256","internalType":"uint256"}],"outputs":[{"name":"","type":"bool","internalType":"bool"}],"stateMutability":"nonpayable"},{"type":"function","name":"transferFrom","inputs":[{"name":"from","type":"address","internalType":"address"},{"name":"to","type":"address","internalType":"address"},{"name":"value","type":"uint256","internalType":"uint256"}],"outputs":[{"name":"","type":"bool","internalType":"bool"}],"stateMutability":"nonpayable"},{"type":"function","name":"usdc","inputs":[],"outputs":[{"name":"","type":"address","internalType":"contract IERC20"}],"stateMutability":"view"},{"type":"function","name":"version","inputs":[],"outputs":[{"name":"","type":"string","internalType":"string"}],"stateMutability":"view"},{"type":"event","name":"Approval","inputs":[{"name":"owner","type":"address","indexed":true,"internalType":"address"},{"name":"spender","type":"address","indexed":true,"internalType":"address"},{"name":"value","type":"uint256","indexed":false,"internalType":"uint256"}],"anonymous":false},{"type":"event","name":"Transfer","inputs":[{"name":"from","type":"address","indexed":true,"internalType":"address"},{"name":"to","type":"address","indexed":true,"internalType":"address"},{"name":"value","type":"uint256","indexed":false,"internalType":"uint256"}],"anonymous":false},{"type":"error","name":"ERC20InsufficientAllowance","inputs":[{"name":"spender","type":"address","internalType":"address"},{"name":"allowance","type":"uint256","internalType":"uint256"},{"name":"needed","type":"uint256","internalType":"uint256"}]},{"type":"error","name":"ERC20InsufficientBalance","inputs":[{"name":"sender","type":"address","internalType":"address"},{"name":"balance","type":"uint256","internalType":"uint256"},{"name":"needed","type":"uint256","internalType":"uint256"}]},{"type":"error","name":"ERC20InvalidApprover","inputs":[{"name":"approver","type":"address","internalType":"address"}]},{"type":"error","name":"ERC20InvalidReceiver","inputs":[{"name":"receiver","type":"address","internalType":"address"}]},{"type":"error","name":"ERC20InvalidSender","inputs":[{"name":"sender","type":"address","internalType":"address"}]},{"type":"error","name":"ERC20InvalidSpender","inputs":[{"name":"spender","type":"address","internalType":"address"}]}],"bytecode":{"object":"0x60806040526040518060400160405280600381526020017f302e330000000000000000000000000000000000000000000000000000000000815250600590816200004a919062001a04565b503480156200005857600080fd5b5060405162004cc638038062004cc683398181016040528101906200007e919062001bc7565b6040518060400160405280600c81526020017f426f6e64696e67437572766500000000000000000000000000000000000000008152506040518060400160405280600381526020017f42435400000000000000000000000000000000000000000000000000000000008152508160039081620000fb919062001a04565b5080600490816200010d919062001a04565b505050701c35fedd14ffffffffffffffffffffffff60066020608081106200013a576200013962001c23565b5b0181905550701b0ce43b323fffffffffffffffffffffff600660216080811062000169576200016862001c23565b5b01819055507019f0028ec1ffffffffffffffffffffffff600660226080811062000198576200019762001c23565b5b01819055507018ded91f0e7fffffffffffffffffffffff6006602360808110620001c757620001c662001c23565b5b01819055507017d8ec7f0417ffffffffffffffffffffff6006602460808110620001f657620001f562001c23565b5b01819055507016ddc6556cdbffffffffffffffffffffff600660256080811062000225576200022462001c23565b5b01819055507015ecf52776a1ffffffffffffffffffffff600660266080811062000254576200025362001c23565b5b01819055507015060c256cb2ffffffffffffffffffffff600660276080811062000283576200028262001c23565b5b0181905550701428a2f98d72ffffffffffffffffffffff6006602860808110620002b257620002b162001c23565b5b01819055507013545598e5c23fffffffffffffffffffff6006602960808110620002e157620002e062001c23565b5b0181905550701288c4161ce1dfffffffffffffffffffff6006602a6080811062000310576200030f62001c23565b5b01819055507011c592761c666fffffffffffffffffffff6006602b608081106200033f576200033e62001c23565b5b018190555070110a688680a757ffffffffffffffffffff6006602c608081106200036e576200036d62001c23565b5b0181905550701056f1b5bedf77ffffffffffffffffffff6006602d608081106200039d576200039c62001c23565b5b0181905550700faadceceeff8bffffffffffffffffffff6006602e60808110620003cc57620003cb62001c23565b5b0181905550700f05dc6b27edadffffffffffffffffffff6006602f60808110620003fb57620003fa62001c23565b5b0181905550700e67a5a25da4107fffffffffffffffffff60066030608081106200042a576200042962001c23565b5b0181905550700dcff115b14eedffffffffffffffffffff600660316080811062000459576200045862001c23565b5b0181905550700d3e7a392431239fffffffffffffffffff600660326080811062000488576200048762001c23565b5b0181905550700cb2ff529eb71e4fffffffffffffffffff6006603360808110620004b757620004b662001c23565b5b0181905550700c2d415c3db974afffffffffffffffffff6006603460808110620004e657620004e562001c23565b5b0181905550700bad03e7d883f69bffffffffffffffffff600660356080811062000515576200051462001c23565b5b0181905550700b320d03b2c343d5ffffffffffffffffff600660366080811062000544576200054362001c23565b5b0181905550700abc25204e02828dffffffffffffffffff600660376080811062000573576200057262001c23565b5b0181905550700a4b16f74ee4bb207fffffffffffffffff6006603860808110620005a257620005a162001c23565b5b01819055507009deaf736ac1f569ffffffffffffffffff6006603960808110620005d157620005d062001c23565b5b0181905550700976bd9952c7aa957fffffffffffffffff6006603a608081106200060057620005ff62001c23565b5b01819055507009131271922eaa606fffffffffffffffff6006603b608081106200062f576200062e62001c23565b5b01819055507008b380f3558668c46fffffffffffffffff6006603c608081106200065e576200065d62001c23565b5b0181905550700857ddf0117efa215bffffffffffffffff6006603d608081106200068d576200068c62001c23565b5b01819055507007ffffffffffffffffffffffffffffffff6006603e60808110620006bc57620006bb62001c23565b5b01819055507007abbf6f6abb9d087fffffffffffffffff6006603f60808110620006eb57620006ea62001c23565b5b018190555070075af62cbac95f7dfa7fffffffffffffff60066040608081106200071a576200071962001c23565b5b018190555070070d7fb7452e187ac13fffffffffffffff600660416080811062000749576200074862001c23565b5b01819055507006c3390ecc8af379295fffffffffffffff600660426080811062000778576200077762001c23565b5b018190555070067c00a3b07ffc01fd6fffffffffffffff6006604360808110620007a757620007a662001c23565b5b0181905550700637b647c39cbb9d3d27ffffffffffffff6006604460808110620007d657620007d562001c23565b5b01819055507005f63b1fc104dbd39587ffffffffffffff600660456080811062000805576200080462001c23565b5b01819055507005b771955b36e12f7235ffffffffffffff600660466080811062000834576200083362001c23565b5b018190555070057b3d49dda84556d6f6ffffffffffffff600660476080811062000863576200086262001c23565b5b018190555070054183095b2c8ececf30ffffffffffffff600660486080811062000892576200089162001c23565b5b018190555070050a28be635ca2b888f77fffffffffffff6006604960808110620008c157620008c062001c23565b5b01819055507004d5156639708c9db33c3fffffffffffff6006604a60808110620008f057620008ef62001c23565b5b01819055507004a23105873875bd52dfdfffffffffffff6006604b608081106200091f576200091e62001c23565b5b0181905550700471649d87199aa990756fffffffffffff6006604c608081106200094e576200094d62001c23565b5b01819055507004429a21a029d4c1457cfbffffffffffff6006604d608081106200097d576200097c62001c23565b5b0181905550700415bc6d6fb7dd71af2cb3ffffffffffff6006604e60808110620009ac57620009ab62001c23565b5b01819055507003eab73b3bbfe282243ce1ffffffffffff6006604f60808110620009db57620009da62001c23565b5b01819055507003c1771ac9fb6b4c18e229ffffffffffff600660506080811062000a0a5762000a0962001c23565b5b0181905550700399e96897690418f785257fffffffffff600660516080811062000a395762000a3862001c23565b5b0181905550700373fc456c53bb779bf0ea9fffffffffff600660526080811062000a685762000a6762001c23565b5b018190555070034f9e8e490c48e67e6ab8bfffffffffff600660536080811062000a975762000a9662001c23565b5b018190555070032cbfd4a7adc790560b3337ffffffffff600660546080811062000ac65762000ac562001c23565b5b018190555070030b50570f6e5d2acca94613ffffffffff600660556080811062000af55762000af462001c23565b5b01819055507002eb40f9f620fda6b56c2861ffffffffff600660566080811062000b245762000b2362001c23565b5b01819055507002cc8340ecb0d0f520a6af58ffffffffff600660576080811062000b535762000b5262001c23565b5b01819055507002af09481380a0a35cf1ba02ffffffffff600660586080811062000b825762000b8162001c23565b5b0181905550700292c5bdd3b92ec810287b1b3fffffffff600660596080811062000bb15762000bb062001c23565b5b0181905550700277abdcdab07d5a77ac6d6b9fffffffff6006605a6080811062000be05762000bdf62001c23565b5b018190555070025daf6654b1eaa55fd64df5efffffffff6006605b6080811062000c0f5762000c0e62001c23565b5b0181905550700244c49c648baa98192dce88b7ffffffff6006605c6080811062000c3e5762000c3d62001c23565b5b018190555070022ce03cd5619a311b2471268bffffffff6006605d6080811062000c6d5762000c6c62001c23565b5b0181905550700215f77c045fbe885654a44a0fffffffff6006605e6080811062000c9c5762000c9b62001c23565b5b01819055507001ffffffffffffffffffffffffffffffff6006605f6080811062000ccb5762000cca62001c23565b5b01819055507001eaefdbdaaee7421fc4d3ede5ffffffff600660606080811062000cfa5762000cf962001c23565b5b01819055507001d6bd8b2eb257df7e8ca57b09bfffffff600660616080811062000d295762000d2862001c23565b5b01819055507001c35fedd14b861eb0443f7f133fffffff600660626080811062000d585762000d5762001c23565b5b01819055507001b0ce43b322bcde4a56e8ada5afffffff600660636080811062000d875762000d8662001c23565b5b018190555070019f0028ec1fff007f5a195a39dfffffff600660646080811062000db65762000db562001c23565b5b018190555070018ded91f0e72ee74f49b15ba527ffffff600660656080811062000de55762000de462001c23565b5b018190555070017d8ec7f04136f4e5615fd41a63ffffff600660666080811062000e145762000e1362001c23565b5b018190555070016ddc6556cdb84bdc8d12d22e6fffffff600660676080811062000e435762000e4262001c23565b5b018190555070015ecf52776a1155b5bd8395814f7fffff600660686080811062000e725762000e7162001c23565b5b018190555070015060c256cb23b3b3cc3754cf40ffffff600660696080811062000ea15762000ea062001c23565b5b01819055507001428a2f98d728ae223ddab715be3fffff6006606a6080811062000ed05762000ecf62001c23565b5b018190555070013545598e5c23276ccf0ede68034fffff6006606b6080811062000eff5762000efe62001c23565b5b01819055507001288c4161ce1d6f54b7f61081194fffff6006606c6080811062000f2e5762000f2d62001c23565b5b018190555070011c592761c666aa641d5a01a40f17ffff6006606d6080811062000f5d5762000f5c62001c23565b5b0181905550700110a688680a7530515f3e6e6cfdcdffff6006606e6080811062000f8c5762000f8b62001c23565b5b01819055507001056f1b5bedf75c6bcb2ce8aed428ffff6006606f6080811062000fbb5762000fba62001c23565b5b01819055506ffaadceceeff8a0890f3875f008277fff600660706080811062000fe95762000fe862001c23565b5b01819055506ff05dc6b27edad306388a600f6ba0bfff600660716080811062001017576200101662001c23565b5b01819055506fe67a5a25da41063de1495d5b18cdbfff600660726080811062001045576200104462001c23565b5b01819055506fdcff115b14eedde6fc3aa5353f2e4fff600660736080811062001073576200107262001c23565b5b01819055506fd3e7a3924312399f9aae2e0f868f8fff6006607460808110620010a157620010a062001c23565b5b01819055506fcb2ff529eb71e41582cccd5a1ee26fff6006607560808110620010cf57620010ce62001c23565b5b01819055506fc2d415c3db974ab32a51840c0b67edff6006607660808110620010fd57620010fc62001c23565b5b01819055506fbad03e7d883f69ad5b0a186184e06bff60066077608081106200112b576200112a62001c23565b5b01819055506fb320d03b2c343d4829abd6075f0cc5ff600660786080811062001159576200115862001c23565b5b01819055506fabc25204e02828d73c6e80bcdb1a95bf600660796080811062001187576200118662001c23565b5b01819055506fa4b16f74ee4bb2040a1ec6c15fbbf2df6006607a60808110620011b557620011b462001c23565b5b01819055506f9deaf736ac1f569deb1b5ae3f36c130f6006607b60808110620011e357620011e262001c23565b5b01819055506f976bd9952c7aa957f5937d790ef650376006607c6080811062001211576200121062001c23565b5b01819055506f9131271922eaa6064b73a22d0bd4f2bf6006607d608081106200123f576200123e62001c23565b5b01819055506f8b380f3558668c46c91c49a2f8e967b96006607e608081106200126d576200126c62001c23565b5b01819055506f857ddf0117efa215952912839f6473e66006607f608081106200129b576200129a62001c23565b5b018190555080608860046101000a81548173ffffffffffffffffffffffffffffffffffffffff021916908373ffffffffffffffffffffffffffffffffffffffff1602179055508260878190555081608860006101000a81548163ffffffff021916908363ffffffff160217905550620013203364e8d4a51000620013b560201b60201c565b6200134d60875460405180606001604052806027815260200162004c9f602791396200144260201b60201c565b620013ac608860009054906101000a900463ffffffff1663ffffffff166040518060400160405280601181526020017f54686520776569676874206973203530250000000000000000000000000000008152506200144260201b60201c565b50505062001e47565b600073ffffffffffffffffffffffffffffffffffffffff168273ffffffffffffffffffffffffffffffffffffffff16036200142a5760006040517fec442f0500000000000000000000000000000000000000000000000000000000815260040162001421919062001c63565b60405180910390fd5b6200143e60008383620014e860201b60201c565b5050565b620014e482826040516024016200145b92919062001d20565b6040516020818303038152906040527f0fa3f345000000000000000000000000000000000000000000000000000000007bffffffffffffffffffffffffffffffffffffffffffffffffffffffff19166020820180517bffffffffffffffffffffffffffffffffffffffffffffffffffffffff83818316178352505050506200171860201b60201c565b5050565b600073ffffffffffffffffffffffffffffffffffffffff168373ffffffffffffffffffffffffffffffffffffffff16036200153e57806002600082825462001531919062001d83565b9250508190555062001614565b60008060008573ffffffffffffffffffffffffffffffffffffffff1673ffffffffffffffffffffffffffffffffffffffff16815260200190815260200160002054905081811015620015cd578381836040517fe450d38c000000000000000000000000000000000000000000000000000000008152600401620015c49392919062001dbe565b60405180910390fd5b8181036000808673ffffffffffffffffffffffffffffffffffffffff1673ffffffffffffffffffffffffffffffffffffffff16815260200190815260200160002081905550505b600073ffffffffffffffffffffffffffffffffffffffff168273ffffffffffffffffffffffffffffffffffffffff16036200165f5780600260008282540392505081905550620016ac565b806000808473ffffffffffffffffffffffffffffffffffffffff1673ffffffffffffffffffffffffffffffffffffffff168152602001908152602001600020600082825401925050819055505b8173ffffffffffffffffffffffffffffffffffffffff168373ffffffffffffffffffffffffffffffffffffffff167fddf252ad1be2c89b69c2b068fc378daa952ba7f163c4a11628f55a4df523b3ef836040516200170b919062001dfb565b60405180910390a3505050565b6200173e81620017396200174160201b6200110e176200176a60201b60201c565b60201c565b50565b60008151905060006a636f6e736f6c652e6c6f679050602083016000808483855afa5050505050565b6200177e60201b6200231317819050919050565b6200178862001e18565b565b600081519050919050565b7f4e487b7100000000000000000000000000000000000000000000000000000000600052604160045260246000fd5b7f4e487b7100000000000000000000000000000000000000000000000000000000600052602260045260246000fd5b600060028204905060018216806200180c57607f821691505b602082108103620018225762001821620017c4565b5b50919050565b60008190508160005260206000209050919050565b60006020601f8301049050919050565b600082821b905092915050565b6000600883026200188c7fffffffffffffffffffffffffffffffffffffffffffffffffffffffffffffffff826200184d565b6200189886836200184d565b95508019841693508086168417925050509392505050565b6000819050919050565b6000819050919050565b6000620018e5620018df620018d984620018b0565b620018ba565b620018b0565b9050919050565b6000819050919050565b6200190183620018c4565b620019196200191082620018ec565b8484546200185a565b825550505050565b600090565b6200193062001921565b6200193d818484620018f6565b505050565b5b8181101562001965576200195960008262001926565b60018101905062001943565b5050565b601f821115620019b4576200197e8162001828565b62001989846200183d565b8101602085101562001999578190505b620019b1620019a8856200183d565b83018262001942565b50505b505050565b600082821c905092915050565b6000620019d960001984600802620019b9565b1980831691505092915050565b6000620019f48383620019c6565b9150826002028217905092915050565b62001a0f826200178a565b67ffffffffffffffff81111562001a2b5762001a2a62001795565b5b62001a378254620017f3565b62001a4482828562001969565b600060209050601f83116001811462001a7c576000841562001a67578287015190505b62001a738582620019e6565b86555062001ae3565b601f19841662001a8c8662001828565b60005b8281101562001ab65784890151825560018201915060208501945060208101905062001a8f565b8683101562001ad6578489015162001ad2601f891682620019c6565b8355505b6001600288020188555050505b505050505050565b600080fd5b62001afb81620018b0565b811462001b0757600080fd5b50565b60008151905062001b1b8162001af0565b92915050565b600063ffffffff82169050919050565b62001b3c8162001b21565b811462001b4857600080fd5b50565b60008151905062001b5c8162001b31565b92915050565b600073ffffffffffffffffffffffffffffffffffffffff82169050919050565b600062001b8f8262001b62565b9050919050565b62001ba18162001b82565b811462001bad57600080fd5b50565b60008151905062001bc18162001b96565b92915050565b60008060006060848603121562001be35762001be262001aeb565b5b600062001bf38682870162001b0a565b935050602062001c068682870162001b4b565b925050604062001c198682870162001bb0565b9150509250925092565b7f4e487b7100000000000000000000000000000000000000000000000000000000600052603260045260246000fd5b62001c5d8162001b82565b82525050565b600060208201905062001c7a600083018462001c52565b92915050565b62001c8b81620018b0565b82525050565b600082825260208201905092915050565b60005b8381101562001cc257808201518184015260208101905062001ca5565b60008484015250505050565b6000601f19601f8301169050919050565b600062001cec826200178a565b62001cf8818562001c91565b935062001d0a81856020860162001ca2565b62001d158162001cce565b840191505092915050565b600060408201905062001d37600083018562001c80565b818103602083015262001d4b818462001cdf565b90509392505050565b7f4e487b7100000000000000000000000000000000000000000000000000000000600052601160045260246000fd5b600062001d9082620018b0565b915062001d9d83620018b0565b925082820190508082111562001db85762001db762001d54565b5b92915050565b600060608201905062001dd5600083018662001c52565b62001de4602083018562001c80565b62001df3604083018462001c80565b949350505050565b600060208201905062001e12600083018462001c80565b92915050565b7f4e487b7100000000000000000000000000000000000000000000000000000000600052605160045260246000fd5b612e488062001e576000396000f3fe6080604052600436106101235760003560e01c806370a08231116100a0578063dd62ed3e11610064578063dd62ed3e1461041e578063e1ec28b01461045b578063e4849b3214610486578063e9a70ef4146104af578063f3d3587f146104ec5761012a565b806370a082311461032557806395d89b4114610362578063a9059cbb1461038d578063b586c9a2146103ca578063d96a094a146103f55761012a565b806329a00e7c116100e757806329a00e7c1461022a578063313ce567146102675780633e413bee1461029257806349f9b0f7146102bd57806354fd4d50146102fa5761012a565b806306fdde031461012f578063092bc24e1461015a578063095ea7b31461018557806318160ddd146101c257806323b872dd146101ed5761012a565b3661012a57005b600080fd5b34801561013b57600080fd5b50610144610529565b60405161015191906123ad565b60405180910390f35b34801561016657600080fd5b5061016f6105bb565b60405161017c91906123e8565b60405180910390f35b34801561019157600080fd5b506101ac60048036038101906101a79190612492565b6105c1565b6040516101b991906124ed565b60405180910390f35b3480156101ce57600080fd5b506101d76105e4565b6040516101e491906123e8565b60405180910390f35b3480156101f957600080fd5b50610214600480360381019061020f9190612508565b6105ee565b60405161022191906124ed565b60405180910390f35b34801561023657600080fd5b50610251600480360381019061024c9190612597565b61061d565b60405161025e91906123e8565b60405180910390f35b34801561027357600080fd5b5061027c610704565b604051610289919061261a565b60405180910390f35b34801561029e57600080fd5b506102a761070d565b6040516102b49190612694565b60405180910390f35b3480156102c957600080fd5b506102e460048036038101906102df9190612597565b610733565b6040516102f191906123e8565b60405180910390f35b34801561030657600080fd5b5061030f610846565b60405161031c91906123ad565b60405180910390f35b34801561033157600080fd5b5061034c600480360381019061034791906126af565b6108d4565b60405161035991906123e8565b60405180910390f35b34801561036e57600080fd5b5061037761091c565b60405161038491906123ad565b60405180910390f35b34801561039957600080fd5b506103b460048036038101906103af9190612492565b6109ae565b6040516103c191906124ed565b60405180910390f35b3480156103d657600080fd5b506103df6109d1565b6040516103ec91906126eb565b60405180910390f35b34801561040157600080fd5b5061041c60048036038101906104179190612706565b6109e7565b005b34801561042a57600080fd5b5061044560048036038101906104409190612733565b610cb5565b60405161045291906123e8565b60405180910390f35b34801561046757600080fd5b50610470610d3c565b60405161047d91906123e8565b60405180910390f35b34801561049257600080fd5b506104ad60048036038101906104a89190612706565b610d42565b005b3480156104bb57600080fd5b506104d660048036038101906104d191906126af565b611057565b6040516104e391906123e8565b60405180910390f35b3480156104f857600080fd5b50610513600480360381019061050e91906126af565b6110fc565b60405161052091906123e8565b60405180910390f35b606060038054610538906127a2565b80601f0160208091040260200160405190810160405280929190818152602001828054610564906127a2565b80156105b15780601f10610586576101008083540402835291602001916105b1565b820191906000526020600020905b81548152906001019060200180831161059457829003601f168201915b5050505050905090565b60875481565b6000806105cc611137565b90506105d981858561113f565b600191505092915050565b6000600254905090565b6000806105f9611137565b9050610606858285611151565b6106118585856111e5565b60019150509392505050565b6000808511801561062e5750600084115b8015610640575060008363ffffffff16115b801561065b5750620f424063ffffffff168363ffffffff1611155b61066457600080fd5b6000820361067557600090506106fc565b620f424063ffffffff168363ffffffff16036106a9578382866106989190612802565b6106a29190612873565b90506106fc565b600080600086856106ba91906128a4565b90506106cb818888620f42406112d9565b809350819450505060008260ff16848a6106e59190612802565b901c905088816106f591906128d8565b9450505050505b949350505050565b60006012905090565b608860049054906101000a900473ffffffffffffffffffffffffffffffffffffffff1681565b600080851180156107445750600084115b8015610756575060008363ffffffff16115b80156107715750620f424063ffffffff168363ffffffff1611155b801561077d5750848211155b61078657600080fd5b60008203610797576000905061083e565b8482036107a65783905061083e565b620f424063ffffffff168363ffffffff16036107da578482856107c99190612802565b6107d39190612873565b905061083e565b600080600084886107eb91906128d8565b90506107fc8882620f4240896112d9565b8093508194505050600083886108129190612802565b905060008360ff1689901b905084818361082c91906128d8565b6108369190612873565b955050505050505b949350505050565b60058054610853906127a2565b80601f016020809104026020016040519081016040528092919081815260200182805461087f906127a2565b80156108cc5780601f106108a1576101008083540402835291602001916108cc565b820191906000526020600020905b8154815290600101906020018083116108af57829003601f168201915b505050505081565b60008060008373ffffffffffffffffffffffffffffffffffffffff1673ffffffffffffffffffffffffffffffffffffffff168152602001908152602001600020549050919050565b60606004805461092b906127a2565b80601f0160208091040260200160405190810160405280929190818152602001828054610957906127a2565b80156109a45780601f10610979576101008083540402835291602001916109a4565b820191906000526020600020905b81548152906001019060200180831161098757829003601f168201915b5050505050905090565b6000806109b9611137565b90506109c68185856111e5565b600191505092915050565b608860009054906101000a900463ffffffff1681565b600073ffffffffffffffffffffffffffffffffffffffff163373ffffffffffffffffffffffffffffffffffffffff1603610a56576040517f08c379a0000000000000000000000000000000000000000000000000000000008152600401610a4d90612958565b60405180910390fd5b608860049054906101000a900473ffffffffffffffffffffffffffffffffffffffff1673ffffffffffffffffffffffffffffffffffffffff166370a08231336040518263ffffffff1660e01b8152600401610ab19190612987565b602060405180830381865afa158015610ace573d6000803e3d6000fd5b505050506040513d601f19601f82011682018060405250810190610af291906129b7565b811115610b34576040517f08c379a0000000000000000000000000000000000000000000000000000000008152600401610b2b90612a30565b60405180910390fd5b608860049054906101000a900473ffffffffffffffffffffffffffffffffffffffff1673ffffffffffffffffffffffffffffffffffffffff166323b872dd3330846040518463ffffffff1660e01b8152600401610b9393929190612a50565b6020604051808303816000875af1158015610bb2573d6000803e3d6000fd5b505050506040513d601f19601f82011682018060405250810190610bd69190612ab3565b506000610c00610be46105e4565b608754608860009054906101000a900463ffffffff168561061d565b9050610c41816040518060400160405280601081526020017f50757263686173656420746f6b656e7300000000000000000000000000000000815250611345565b610c4b33826113e1565b610c74610c566105e4565b604051806080016040528060428152602001612dd160429139611345565b8160876000828254610c8691906128a4565b92505081905550610cb1608754604051806060016040528060378152602001612d9a60379139611345565b5050565b6000600160008473ffffffffffffffffffffffffffffffffffffffff1673ffffffffffffffffffffffffffffffffffffffff16815260200190815260200160002060008373ffffffffffffffffffffffffffffffffffffffff1673ffffffffffffffffffffffffffffffffffffffff16815260200190815260200160002054905092915050565b60865481565b600073ffffffffffffffffffffffffffffffffffffffff163373ffffffffffffffffffffffffffffffffffffffff1603610db1576040517f08c379a0000000000000000000000000000000000000000000000000000000008152600401610da890612b2c565b60405180910390fd5b610dba336108d4565b811115610dfc576040517f08c379a0000000000000000000000000000000000000000000000000000000008152600401610df390612b98565b60405180910390fd5b610e3b816040518060400160405280600d81526020017f746f6b656e732072657475726e00000000000000000000000000000000000000815250611345565b610e82610e47336108d4565b6040518060400160405280601081526020017f746f6b656e732075736572206861766500000000000000000000000000000000815250611345565b6000610eab610e8f6105e4565b608754608860009054906101000a900463ffffffff1685610733565b9050610eec816040518060400160405280600d81526020017f555344432072657475726e656400000000000000000000000000000000000000815250611345565b608860049054906101000a900473ffffffffffffffffffffffffffffffffffffffff1673ffffffffffffffffffffffffffffffffffffffff1663095ea7b330836040518363ffffffff1660e01b8152600401610f49929190612bb8565b6020604051808303816000875af1158015610f68573d6000803e3d6000fd5b505050506040513d601f19601f82011682018060405250810190610f8c9190612ab3565b50608860049054906101000a900473ffffffffffffffffffffffffffffffffffffffff1673ffffffffffffffffffffffffffffffffffffffff166323b872dd3033846040518463ffffffff1660e01b8152600401610fec93929190612a50565b6020604051808303816000875af115801561100b573d6000803e3d6000fd5b505050506040513d601f19601f8201168201806040525081019061102f9190612ab3565b50806087600082825461104291906128d8565b925050819055506110533383611463565b5050565b6000608860049054906101000a900473ffffffffffffffffffffffffffffffffffffffff1673ffffffffffffffffffffffffffffffffffffffff166370a08231836040518263ffffffff1660e01b81526004016110b49190612987565b602060405180830381865afa1580156110d1573d6000803e3d6000fd5b505050506040513d601f19601f820116820180604052508101906110f591906129b7565b9050919050565b6000611107826108d4565b9050919050565b60008151905060006a636f6e736f6c652e6c6f679050602083016000808483855afa5050505050565b600033905090565b61114c83838360016114e5565b505050565b600061115d8484610cb5565b90507fffffffffffffffffffffffffffffffffffffffffffffffffffffffffffffffff81146111df57818110156111cf578281836040517ffb8f41b20000000000000000000000000000000000000000000000000000000081526004016111c693929190612be1565b60405180910390fd5b6111de848484840360006114e5565b5b50505050565b600073ffffffffffffffffffffffffffffffffffffffff168373ffffffffffffffffffffffffffffffffffffffff16036112575760006040517f96c6fd1e00000000000000000000000000000000000000000000000000000000815260040161124e9190612987565b60405180910390fd5b600073ffffffffffffffffffffffffffffffffffffffff168273ffffffffffffffffffffffffffffffffffffffff16036112c95760006040517fec442f050000000000000000000000000000000000000000000000000000000081526004016112c09190612987565b60405180910390fd5b6112d48383836116bc565b505050565b60008060008363ffffffff168563ffffffff166112f689896118e1565b6113009190612802565b61130a9190612873565b9050600061131782611a72565b905061133581607f6113299190612c18565b60ff1683901c82611b54565b8193509350505094509492505050565b6113dd828260405160240161135b929190612c4d565b6040516020818303038152906040527f0fa3f345000000000000000000000000000000000000000000000000000000007bffffffffffffffffffffffffffffffffffffffffffffffffffffffff19166020820180517bffffffffffffffffffffffffffffffffffffffffffffffffffffffff8381831617835250505050612263565b5050565b600073ffffffffffffffffffffffffffffffffffffffff168273ffffffffffffffffffffffffffffffffffffffff16036114535760006040517fec442f0500000000000000000000000000000000000000000000000000000000815260040161144a9190612987565b60405180910390fd5b61145f600083836116bc565b5050565b600073ffffffffffffffffffffffffffffffffffffffff168273ffffffffffffffffffffffffffffffffffffffff16036114d55760006040517f96c6fd1e0000000000000000000000000000000000000000000000000000000081526004016114cc9190612987565b60405180910390fd5b6114e1826000836116bc565b5050565b600073ffffffffffffffffffffffffffffffffffffffff168473ffffffffffffffffffffffffffffffffffffffff16036115575760006040517fe602df0500000000000000000000000000000000000000000000000000000000815260040161154e9190612987565b60405180910390fd5b600073ffffffffffffffffffffffffffffffffffffffff168373ffffffffffffffffffffffffffffffffffffffff16036115c95760006040517f94280d620000000000000000000000000000000000000000000000000000000081526004016115c09190612987565b60405180910390fd5b81600160008673ffffffffffffffffffffffffffffffffffffffff1673ffffffffffffffffffffffffffffffffffffffff16815260200190815260200160002060008573ffffffffffffffffffffffffffffffffffffffff1673ffffffffffffffffffffffffffffffffffffffff1681526020019081526020016000208190555080156116b6578273ffffffffffffffffffffffffffffffffffffffff168473ffffffffffffffffffffffffffffffffffffffff167f8c5be1e5ebec7d5bd14f71427d1e84f3dd0314c0f7b2291e5b200ac8c7c3b925846040516116ad91906123e8565b60405180910390a35b50505050565b600073ffffffffffffffffffffffffffffffffffffffff168373ffffffffffffffffffffffffffffffffffffffff160361170e57806002600082825461170291906128a4565b925050819055506117e1565b60008060008573ffffffffffffffffffffffffffffffffffffffff1673ffffffffffffffffffffffffffffffffffffffff1681526020019081526020016000205490508181101561179a578381836040517fe450d38c00000000000000000000000000000000000000000000000000000000815260040161179193929190612be1565b60405180910390fd5b8181036000808673ffffffffffffffffffffffffffffffffffffffff1673ffffffffffffffffffffffffffffffffffffffff16815260200190815260200160002081905550505b600073ffffffffffffffffffffffffffffffffffffffff168273ffffffffffffffffffffffffffffffffffffffff160361182a5780600260008282540392505081905550611877565b806000808473ffffffffffffffffffffffffffffffffffffffff1673ffffffffffffffffffffffffffffffffffffffff168152602001908152602001600020600082825401925050819055505b8173ffffffffffffffffffffffffffffffffffffffff168373ffffffffffffffffffffffffffffffffffffffff167fddf252ad1be2c89b69c2b068fc378daa952ba7f163c4a11628f55a4df523b3ef836040516118d491906123e8565b60405180910390a3505050565b60007001ffffffffffffffffffffffffffffffff83111561190557611904612c7d565b5b600080836f80000000000000000000000000000000866119259190612802565b61192f9190612873565b9050700100000000000000000000000000000000811061199d57600061196f6f800000000000000000000000000000008361196a9190612873565b61227d565b90508060ff1682901c91506f800000000000000000000000000000008160ff166119999190612802565b9250505b6f80000000000000000000000000000000811115611a45576000607f90505b60008160ff161115611a43576f8000000000000000000000000000000082836119e59190612802565b6119ef9190612873565b91507001000000000000000000000000000000008210611a3257600182901c9150600181611a1d9190612c18565b60ff166001901b83611a2f91906128a4565b92505b80611a3c90612cac565b90506119bc565b505b607a60ff166f02c5c85fdf473de6af278ece600fcbda83611a669190612802565b901c9250505092915050565b600080602090506000607f90505b8060ff16600183611a919190612cd5565b60ff161015611ae757600060028284611aaa9190612cd5565b611ab49190612d0a565b90508460068260ff1660808110611ace57611acd612d3b565b5b015410611add57809250611ae1565b8091505b50611a80565b8360068260ff1660808110611aff57611afe612d3b565b5b015410611b10578092505050611b4f565b8360068360ff1660808110611b2857611b27612d3b565b5b015410611b39578192505050611b4f565b6000611b4857611b47612c7d565b5b6000925050505b919050565b60008083905060008360ff168583611b6c9190612802565b901c91506f03442c4e6074a82f1797f72ac000000082611b8c9190612802565b81611b9791906128a4565b90508360ff168583611ba99190612802565b901c91506f0116b96f757c380fb287fd0e4000000082611bc99190612802565b81611bd491906128a4565b90508360ff168583611be69190612802565b901c91506e45ae5bdd5f0e03eca1ff439000000082611c059190612802565b81611c1091906128a4565b90508360ff168583611c229190612802565b901c91506e0defabf91302cd95b9ffda5000000082611c419190612802565b81611c4c91906128a4565b90508360ff168583611c5e9190612802565b901c91506e02529ca9832b22439efff9b800000082611c7d9190612802565b81611c8891906128a4565b90508360ff168583611c9a9190612802565b901c91506d54f1cf12bd04e516b6da8800000082611cb89190612802565b81611cc391906128a4565b90508360ff168583611cd59190612802565b901c91506d0a9e39e257a09ca2d6db5100000082611cf39190612802565b81611cfe91906128a4565b90508360ff168583611d109190612802565b901c91506d012e066e7b839fa050c30900000082611d2e9190612802565b81611d3991906128a4565b90508360ff168583611d4b9190612802565b901c91506c1e33d7d926c329a1ad1a80000082611d689190612802565b81611d7391906128a4565b90508360ff168583611d859190612802565b901c91506c02bee513bdb4a6b19b5f80000082611da29190612802565b81611dad91906128a4565b90508360ff168583611dbf9190612802565b901c91506b3a9316fa79b88eccf2a0000082611ddb9190612802565b81611de691906128a4565b90508360ff168583611df89190612802565b901c91506b048177ebe1fa81237520000082611e149190612802565b81611e1f91906128a4565b90508360ff168583611e319190612802565b901c91506a5263fe90242dcbacf0000082611e4c9190612802565b81611e5791906128a4565b90508360ff168583611e699190612802565b901c91506a057e22099c030d9410000082611e849190612802565b81611e8f91906128a4565b90508360ff168583611ea19190612802565b901c91506957e22099c030d941000082611ebb9190612802565b81611ec691906128a4565b90508360ff168583611ed89190612802565b901c915069052b6b5456997631000082611ef29190612802565b81611efd91906128a4565b90508360ff168583611f0f9190612802565b901c9150684985f67696bf74800082611f289190612802565b81611f3391906128a4565b90508360ff168583611f459190612802565b901c91506803dea12ea99e49800082611f5e9190612802565b81611f6991906128a4565b90508360ff168583611f7b9190612802565b901c91506731880f2214b6e00082611f939190612802565b81611f9e91906128a4565b90508360ff168583611fb09190612802565b901c915067025bcff56eb3600082611fc89190612802565b81611fd391906128a4565b90508360ff168583611fe59190612802565b901c9150661b722e10ab100082611ffc9190612802565b8161200791906128a4565b90508360ff1685836120199190612802565b901c91506601317c70077000826120309190612802565b8161203b91906128a4565b90508360ff16858361204d9190612802565b901c9150650cba84aafa00826120639190612802565b8161206e91906128a4565b90508360ff1685836120809190612802565b901c91506482573a0a00826120959190612802565b816120a091906128a4565b90508360ff1685836120b29190612802565b901c91506405035ad900826120c79190612802565b816120d291906128a4565b90508360ff1685836120e49190612802565b901c9150632f881b00826120f89190612802565b8161210391906128a4565b90508360ff1685836121159190612802565b901c91506301b29340826121299190612802565b8161213491906128a4565b90508360ff1685836121469190612802565b901c9150620efc40826121599190612802565b8161216491906128a4565b90508360ff1685836121769190612802565b901c9150617fe0826121889190612802565b8161219391906128a4565b90508360ff1685836121a59190612802565b901c9150610420826121b79190612802565b816121c291906128a4565b90508360ff1685836121d49190612802565b901c91506021826121e59190612802565b816121f091906128a4565b90508360ff1685836122029190612802565b901c91506001826122139190612802565b8161221e91906128a4565b90508360ff166001901b856f0688589cc0e9505e2f2fee5580000000836122459190612873565b61224f91906128a4565b61225991906128a4565b9250505092915050565b61227a8161227261110e612308565b63ffffffff16565b50565b6000806000905060008390506101008110156122bd575b60018111156122b857600181901c90506001826122b19190612cd5565b9150612294565b6122fe565b6000608090505b60008160ff1611156122fc578060ff166001901b82106122ed578060ff1682901c915080831792505b60018160ff16901c90506122c4565b505b8192505050919050565b612313819050919050565b61231b612d6a565b565b600081519050919050565b600082825260208201905092915050565b60005b8381101561235757808201518184015260208101905061233c565b60008484015250505050565b6000601f19601f8301169050919050565b600061237f8261231d565b6123898185612328565b9350612399818560208601612339565b6123a281612363565b840191505092915050565b600060208201905081810360008301526123c78184612374565b905092915050565b6000819050919050565b6123e2816123cf565b82525050565b60006020820190506123fd60008301846123d9565b92915050565b600080fd5b600073ffffffffffffffffffffffffffffffffffffffff82169050919050565b600061243382612408565b9050919050565b61244381612428565b811461244e57600080fd5b50565b6000813590506124608161243a565b92915050565b61246f816123cf565b811461247a57600080fd5b50565b60008135905061248c81612466565b92915050565b600080604083850312156124a9576124a8612403565b5b60006124b785828601612451565b92505060206124c88582860161247d565b9150509250929050565b60008115159050919050565b6124e7816124d2565b82525050565b600060208201905061250260008301846124de565b92915050565b60008060006060848603121561252157612520612403565b5b600061252f86828701612451565b935050602061254086828701612451565b92505060406125518682870161247d565b9150509250925092565b600063ffffffff82169050919050565b6125748161255b565b811461257f57600080fd5b50565b6000813590506125918161256b565b92915050565b600080600080608085870312156125b1576125b0612403565b5b60006125bf8782880161247d565b94505060206125d08782880161247d565b93505060406125e187828801612582565b92505060606125f28782880161247d565b91505092959194509250565b600060ff82169050919050565b612614816125fe565b82525050565b600060208201905061262f600083018461260b565b92915050565b6000819050919050565b600061265a61265561265084612408565b612635565b612408565b9050919050565b600061266c8261263f565b9050919050565b600061267e82612661565b9050919050565b61268e81612673565b82525050565b60006020820190506126a96000830184612685565b92915050565b6000602082840312156126c5576126c4612403565b5b60006126d384828501612451565b91505092915050565b6126e58161255b565b82525050565b600060208201905061270060008301846126dc565b92915050565b60006020828403121561271c5761271b612403565b5b600061272a8482850161247d565b91505092915050565b6000806040838503121561274a57612749612403565b5b600061275885828601612451565b925050602061276985828601612451565b9150509250929050565b7f4e487b7100000000000000000000000000000000000000000000000000000000600052602260045260246000fd5b600060028204905060018216806127ba57607f821691505b6020821081036127cd576127cc612773565b5b50919050565b7f4e487b7100000000000000000000000000000000000000000000000000000000600052601160045260246000fd5b600061280d826123cf565b9150612818836123cf565b9250828202612826816123cf565b9150828204841483151761283d5761283c6127d3565b5b5092915050565b7f4e487b7100000000000000000000000000000000000000000000000000000000600052601260045260246000fd5b600061287e826123cf565b9150612889836123cf565b92508261289957612898612844565b5b828204905092915050565b60006128af826123cf565b91506128ba836123cf565b92508282019050808211156128d2576128d16127d3565b5b92915050565b60006128e3826123cf565b91506128ee836123cf565b9250828203905081811115612906576129056127d3565b5b92915050565b7f5a65726f20616464726573730000000000000000000000000000000000000000600082015250565b6000612942600c83612328565b915061294d8261290c565b602082019050919050565b6000602082019050818103600083015261297181612935565b9050919050565b61298181612428565b82525050565b600060208201905061299c6000830184612978565b92915050565b6000815190506129b181612466565b92915050565b6000602082840312156129cd576129cc612403565b5b60006129db848285016129a2565b91505092915050565b7f496e73756666696369656e742062616c616e6365000000000000000000000000600082015250565b6000612a1a601483612328565b9150612a25826129e4565b602082019050919050565b60006020820190508181036000830152612a4981612a0d565b9050919050565b6000606082019050612a656000830186612978565b612a726020830185612978565b612a7f60408301846123d9565b949350505050565b612a90816124d2565b8114612a9b57600080fd5b50565b600081519050612aad81612a87565b92915050565b600060208284031215612ac957612ac8612403565b5b6000612ad784828501612a9e565b91505092915050565b7f53656c6c6572206973207a65726f206164647265737300000000000000000000600082015250565b6000612b16601683612328565b9150612b2182612ae0565b602082019050919050565b60006020820190508181036000830152612b4581612b09565b9050919050565b7f55736572277320496e73756666696369656e742062616c616e63652000000000600082015250565b6000612b82601c83612328565b9150612b8d82612b4c565b602082019050919050565b60006020820190508181036000830152612bb181612b75565b9050919050565b6000604082019050612bcd6000830185612978565b612bda60208301846123d9565b9392505050565b6000606082019050612bf66000830186612978565b612c0360208301856123d9565b612c1060408301846123d9565b949350505050565b6000612c23826125fe565b9150612c2e836125fe565b9250828203905060ff811115612c4757612c466127d3565b5b92915050565b6000604082019050612c6260008301856123d9565b8181036020830152612c748184612374565b90509392505050565b7f4e487b7100000000000000000000000000000000000000000000000000000000600052600160045260246000fd5b6000612cb7826125fe565b915060008203612cca57612cc96127d3565b5b600182039050919050565b6000612ce0826125fe565b9150612ceb836125fe565b9250828201905060ff811115612d0457612d036127d3565b5b92915050565b6000612d15826125fe565b9150612d20836125fe565b925082612d3057612d2f612844565b5b828204905092915050565b7f4e487b7100000000000000000000000000000000000000000000000000000000600052603260045260246000fd5b7f4e487b7100000000000000000000000000000000000000000000000000000000600052605160045260246000fdfe526573657276656420746f6b656e73206f7220737461626c6520636f696e732070726573656e7420696e2074686520636f6e7472616374746f74616c20537570706c79206166746572206d696e74696e6720616e64207472616e7366657272696e672074686520746f6b656e7320746f207468652075736572a2646970667358221220bf7222b23dafe83fd8bee9e0b05f9299cb926b30cdbadc4202c21515537ef51a64736f6c63430008170033496e697469616c20746f6b656e7320726573657276656420696e2074686520636f6e7472616374","linkReferences":{}},"methodIdentifiers":{"allowance(address,address)":"dd62ed3e","approve(address,uint256)":"095ea7b3","balanceOf(address)":"70a08231","buy(uint256)":"d96a094a","calculatePurchaseReturn(uint256,uint256,uint32,uint256)":"29a00e7c","calculateSaleReturn(uint256,uint256,uint32,uint256)":"49f9b0f7","connectorBalance()":"092bc24e","connectorWeight()":"b586c9a2","decimals()":"313ce567","getBalanceArbitraryToken(address)":"f3d3587f","getUSDCBalUser(address)":"e9a70ef4","name()":"06fdde03","sell(uint256)":"e4849b32","supply_()":"e1ec28b0","symbol()":"95d89b41","totalSupply()":"18160ddd","transfer(address,uint256)":"a9059cbb","transferFrom(address,address,uint256)":"23b872dd","usdc()":"3e413bee","version()":"54fd4d50"},"id":2}