{"abi":[{"type":"constructor","inputs":[],"stateMutability":"nonpayable"},{"type":"function","name":"approve","inputs":[{"name":"to","type":"address","internalType":"address"},{"name":"tokenId","type":"uint256","internalType":"uint256"}],"outputs":[],"stateMutability":"nonpayable"},{"type":"function","name":"balanceOf","inputs":[{"name":"owner","type":"address","internalType":"address"}],"outputs":[{"name":"","type":"uint256","internalType":"uint256"}],"stateMutability":"view"},{"type":"function","name":"countPrimeNFTAtAddress","inputs":[{"name":"addr","type":"address","internalType":"address"}],"outputs":[{"name":"","type":"uint64","internalType":"uint64"}],"stateMutability":"nonpayable"},{"type":"function","name":"getApproved","inputs":[{"name":"tokenId","type":"uint256","internalType":"uint256"}],"outputs":[{"name":"","type":"address","internalType":"address"}],"stateMutability":"view"},{"type":"function","name":"isApprovedForAll","inputs":[{"name":"owner","type":"address","internalType":"address"},{"name":"operator","type":"address","internalType":"address"}],"outputs":[{"name":"","type":"bool","internalType":"bool"}],"stateMutability":"view"},{"type":"function","name":"name","inputs":[],"outputs":[{"name":"","type":"string","internalType":"string"}],"stateMutability":"view"},{"type":"function","name":"ownerOf","inputs":[{"name":"tokenId","type":"uint256","internalType":"uint256"}],"outputs":[{"name":"","type":"address","internalType":"address"}],"stateMutability":"view"},{"type":"function","name":"safeTransferFrom","inputs":[{"name":"from","type":"address","internalType":"address"},{"name":"to","type":"address","internalType":"address"},{"name":"tokenId","type":"uint256","internalType":"uint256"}],"outputs":[],"stateMutability":"nonpayable"},{"type":"function","name":"safeTransferFrom","inputs":[{"name":"from","type":"address","internalType":"address"},{"name":"to","type":"address","internalType":"address"},{"name":"tokenId","type":"uint256","internalType":"uint256"},{"name":"data","type":"bytes","internalType":"bytes"}],"outputs":[],"stateMutability":"nonpayable"},{"type":"function","name":"setApprovalForAll","inputs":[{"name":"operator","type":"address","internalType":"address"},{"name":"approved","type":"bool","internalType":"bool"}],"outputs":[],"stateMutability":"nonpayable"},{"type":"function","name":"supportsInterface","inputs":[{"name":"interfaceId","type":"bytes4","internalType":"bytes4"}],"outputs":[{"name":"","type":"bool","internalType":"bool"}],"stateMutability":"view"},{"type":"function","name":"symbol","inputs":[],"outputs":[{"name":"","type":"string","internalType":"string"}],"stateMutability":"view"},{"type":"function","name":"tokenByIndex","inputs":[{"name":"index","type":"uint256","internalType":"uint256"}],"outputs":[{"name":"","type":"uint256","internalType":"uint256"}],"stateMutability":"view"},{"type":"function","name":"tokenOfOwnerByIndex","inputs":[{"name":"owner","type":"address","internalType":"address"},{"name":"index","type":"uint256","internalType":"uint256"}],"outputs":[{"name":"","type":"uint256","internalType":"uint256"}],"stateMutability":"view"},{"type":"function","name":"tokenURI","inputs":[{"name":"tokenId","type":"uint256","internalType":"uint256"}],"outputs":[{"name":"","type":"string","internalType":"string"}],"stateMutability":"view"},{"type":"function","name":"totalSupply","inputs":[],"outputs":[{"name":"","type":"uint256","internalType":"uint256"}],"stateMutability":"view"},{"type":"function","name":"transferFrom","inputs":[{"name":"from","type":"address","internalType":"address"},{"name":"to","type":"address","internalType":"address"},{"name":"tokenId","type":"uint256","internalType":"uint256"}],"outputs":[],"stateMutability":"nonpayable"},{"type":"event","name":"Approval","inputs":[{"name":"owner","type":"address","indexed":true,"internalType":"address"},{"name":"approved","type":"address","indexed":true,"internalType":"address"},{"name":"tokenId","type":"uint256","indexed":true,"internalType":"uint256"}],"anonymous":false},{"type":"event","name":"ApprovalForAll","inputs":[{"name":"owner","type":"address","indexed":true,"internalType":"address"},{"name":"operator","type":"address","indexed":true,"internalType":"address"},{"name":"approved","type":"bool","indexed":false,"internalType":"bool"}],"anonymous":false},{"type":"event","name":"Transfer","inputs":[{"name":"from","type":"address","indexed":true,"internalType":"address"},{"name":"to","type":"address","indexed":true,"internalType":"address"},{"name":"tokenId","type":"uint256","indexed":true,"internalType":"uint256"}],"anonymous":false},{"type":"error","name":"ERC721EnumerableForbiddenBatchMint","inputs":[]},{"type":"error","name":"ERC721IncorrectOwner","inputs":[{"name":"sender","type":"address","internalType":"address"},{"name":"tokenId","type":"uint256","internalType":"uint256"},{"name":"owner","type":"address","internalType":"address"}]},{"type":"error","name":"ERC721InsufficientApproval","inputs":[{"name":"operator","type":"address","internalType":"address"},{"name":"tokenId","type":"uint256","internalType":"uint256"}]},{"type":"error","name":"ERC721InvalidApprover","inputs":[{"name":"approver","type":"address","internalType":"address"}]},{"type":"error","name":"ERC721InvalidOperator","inputs":[{"name":"operator","type":"address","internalType":"address"}]},{"type":"error","name":"ERC721InvalidOwner","inputs":[{"name":"owner","type":"address","internalType":"address"}]},{"type":"error","name":"ERC721InvalidReceiver","inputs":[{"name":"receiver","type":"address","internalType":"address"}]},{"type":"error","name":"ERC721InvalidSender","inputs":[{"name":"sender","type":"address","internalType":"address"}]},{"type":"error","name":"ERC721NonexistentToken","inputs":[{"name":"tokenId","type":"uint256","internalType":"uint256"}]},{"type":"error","name":"ERC721OutOfBoundsIndex","inputs":[{"name":"owner","type":"address","internalType":"address"},{"name":"index","type":"uint256","internalType":"uint256"}]}],"bytecode":{"object":"0x60806040523480156200001157600080fd5b506040518060400160405280600d81526020017f4e4654456e756d657262616c65000000000000000000000000000000000000008152506040518060400160405280600581526020017f53594d424c00000000000000000000000000000000000000000000000000000081525081600090816200008f919062001073565b508060019081620000a1919062001073565b5050506000600190505b60288111620000dc57620000c63382620000e360201b60201c565b8080620000d39062001189565b915050620000ab565b506200132c565b600073ffffffffffffffffffffffffffffffffffffffff168273ffffffffffffffffffffffffffffffffffffffff1603620001585760006040517f64a0ae920000000000000000000000000000000000000000000000000000000081526004016200014f91906200121b565b60405180910390fd5b60006200016e83836000620001ea60201b60201c565b9050600073ffffffffffffffffffffffffffffffffffffffff168173ffffffffffffffffffffffffffffffffffffffff1614620001e55760006040517f73c6ac6e000000000000000000000000000000000000000000000000000000008152600401620001dc91906200121b565b60405180910390fd5b505050565b600080620002008585856200033560201b60201c565b9050600073ffffffffffffffffffffffffffffffffffffffff168173ffffffffffffffffffffffffffffffffffffffff16036200024e5762000248846200056a60201b60201c565b62000296565b8473ffffffffffffffffffffffffffffffffffffffff168173ffffffffffffffffffffffffffffffffffffffff16146200029557620002948185620005b360201b60201c565b5b5b600073ffffffffffffffffffffffffffffffffffffffff168573ffffffffffffffffffffffffffffffffffffffff1603620002e257620002dc84620006a760201b60201c565b6200032a565b8473ffffffffffffffffffffffffffffffffffffffff168173ffffffffffffffffffffffffffffffffffffffff161462000329576200032885856200078360201b60201c565b5b5b809150509392505050565b60008062000349846200081860201b60201c565b9050600073ffffffffffffffffffffffffffffffffffffffff168373ffffffffffffffffffffffffffffffffffffffff16146200039457620003938184866200085560201b60201c565b5b600073ffffffffffffffffffffffffffffffffffffffff168173ffffffffffffffffffffffffffffffffffffffff16146200042e57620003df6000856000806200092760201b60201c565b6001600360008373ffffffffffffffffffffffffffffffffffffffff1673ffffffffffffffffffffffffffffffffffffffff168152602001908152602001600020600082825403925050819055505b600073ffffffffffffffffffffffffffffffffffffffff168573ffffffffffffffffffffffffffffffffffffffff1614620004b2576001600360008773ffffffffffffffffffffffffffffffffffffffff1673ffffffffffffffffffffffffffffffffffffffff168152602001908152602001600020600082825401925050819055505b846002600086815260200190815260200160002060006101000a81548173ffffffffffffffffffffffffffffffffffffffff021916908373ffffffffffffffffffffffffffffffffffffffff160217905550838573ffffffffffffffffffffffffffffffffffffffff168273ffffffffffffffffffffffffffffffffffffffff167fddf252ad1be2c89b69c2b068fc378daa952ba7f163c4a11628f55a4df523b3ef60405160405180910390a4809150509392505050565b6008805490506009600083815260200190815260200160002081905550600881908060018154018082558091505060019003906000526020600020016000909190919091505550565b6000620005c68362000b0460201b60201c565b90506000600760008481526020019081526020016000205490506000600660008673ffffffffffffffffffffffffffffffffffffffff1673ffffffffffffffffffffffffffffffffffffffff1681526020019081526020016000209050828214620006735760008160008581526020019081526020016000205490508082600085815260200190815260200160002081905550826007600083815260200190815260200160002081905550505b6007600085815260200190815260200160002060009055806000848152602001908152602001600020600090555050505050565b60006001600880549050620006bd919062001238565b9050600060096000848152602001908152602001600020549050600060088381548110620006f057620006ef62001273565b5b90600052602060002001549050806008838154811062000715576200071462001273565b5b906000526020600020018190555081600960008381526020019081526020016000208190555060096000858152602001908152602001600020600090556008805480620007675762000766620012a2565b5b6001900381819060005260206000200160009055905550505050565b60006001620007988462000b0460201b60201c565b620007a4919062001238565b905081600660008573ffffffffffffffffffffffffffffffffffffffff1673ffffffffffffffffffffffffffffffffffffffff168152602001908152602001600020600083815260200190815260200160002081905550806007600084815260200190815260200160002081905550505050565b60006002600083815260200190815260200160002060009054906101000a900473ffffffffffffffffffffffffffffffffffffffff169050919050565b6200086883838362000bc160201b60201c565b6200092257600073ffffffffffffffffffffffffffffffffffffffff168373ffffffffffffffffffffffffffffffffffffffff1603620008e157806040517f7e273289000000000000000000000000000000000000000000000000000000008152600401620008d89190620012e2565b60405180910390fd5b81816040517f177e802f00000000000000000000000000000000000000000000000000000000815260040162000919929190620012ff565b60405180910390fd5b505050565b8080620009615750600073ffffffffffffffffffffffffffffffffffffffff168273ffffffffffffffffffffffffffffffffffffffff1614155b1562000aac5760006200097a8462000c9560201b60201c565b9050600073ffffffffffffffffffffffffffffffffffffffff168373ffffffffffffffffffffffffffffffffffffffff1614158015620009e657508273ffffffffffffffffffffffffffffffffffffffff168173ffffffffffffffffffffffffffffffffffffffff1614155b801562000a02575062000a00818462000d2860201b60201c565b155b1562000a4757826040517fa9fbf51f00000000000000000000000000000000000000000000000000000000815260040162000a3e91906200121b565b60405180910390fd5b811562000aaa57838573ffffffffffffffffffffffffffffffffffffffff168273ffffffffffffffffffffffffffffffffffffffff167f8c5be1e5ebec7d5bd14f71427d1e84f3dd0314c0f7b2291e5b200ac8c7c3b92560405160405180910390a45b505b836004600085815260200190815260200160002060006101000a81548173ffffffffffffffffffffffffffffffffffffffff021916908373ffffffffffffffffffffffffffffffffffffffff16021790555050505050565b60008073ffffffffffffffffffffffffffffffffffffffff168273ffffffffffffffffffffffffffffffffffffffff160362000b7a5760006040517f89c62b6400000000000000000000000000000000000000000000000000000000815260040162000b7191906200121b565b60405180910390fd5b600360008373ffffffffffffffffffffffffffffffffffffffff1673ffffffffffffffffffffffffffffffffffffffff168152602001908152602001600020549050919050565b60008073ffffffffffffffffffffffffffffffffffffffff168373ffffffffffffffffffffffffffffffffffffffff161415801562000c8c57508273ffffffffffffffffffffffffffffffffffffffff168473ffffffffffffffffffffffffffffffffffffffff16148062000c44575062000c43848462000d2860201b60201c565b5b8062000c8b57508273ffffffffffffffffffffffffffffffffffffffff1662000c738362000dbc60201b60201c565b73ffffffffffffffffffffffffffffffffffffffff16145b5b90509392505050565b60008062000ca9836200081860201b60201c565b9050600073ffffffffffffffffffffffffffffffffffffffff168173ffffffffffffffffffffffffffffffffffffffff160362000d1f57826040517f7e27328900000000000000000000000000000000000000000000000000000000815260040162000d169190620012e2565b60405180910390fd5b80915050919050565b6000600560008473ffffffffffffffffffffffffffffffffffffffff1673ffffffffffffffffffffffffffffffffffffffff16815260200190815260200160002060008373ffffffffffffffffffffffffffffffffffffffff1673ffffffffffffffffffffffffffffffffffffffff16815260200190815260200160002060009054906101000a900460ff16905092915050565b60006004600083815260200190815260200160002060009054906101000a900473ffffffffffffffffffffffffffffffffffffffff169050919050565b600081519050919050565b7f4e487b7100000000000000000000000000000000000000000000000000000000600052604160045260246000fd5b7f4e487b7100000000000000000000000000000000000000000000000000000000600052602260045260246000fd5b6000600282049050600182168062000e7b57607f821691505b60208210810362000e915762000e9062000e33565b5b50919050565b60008190508160005260206000209050919050565b60006020601f8301049050919050565b600082821b905092915050565b60006008830262000efb7fffffffffffffffffffffffffffffffffffffffffffffffffffffffffffffffff8262000ebc565b62000f07868362000ebc565b95508019841693508086168417925050509392505050565b6000819050919050565b6000819050919050565b600062000f5462000f4e62000f488462000f1f565b62000f29565b62000f1f565b9050919050565b6000819050919050565b62000f708362000f33565b62000f8862000f7f8262000f5b565b84845462000ec9565b825550505050565b600090565b62000f9f62000f90565b62000fac81848462000f65565b505050565b5b8181101562000fd45762000fc860008262000f95565b60018101905062000fb2565b5050565b601f821115620010235762000fed8162000e97565b62000ff88462000eac565b8101602085101562001008578190505b62001020620010178562000eac565b83018262000fb1565b50505b505050565b600082821c905092915050565b6000620010486000198460080262001028565b1980831691505092915050565b600062001063838362001035565b9150826002028217905092915050565b6200107e8262000df9565b67ffffffffffffffff8111156200109a576200109962000e04565b5b620010a6825462000e62565b620010b382828562000fd8565b600060209050601f831160018114620010eb5760008415620010d6578287015190505b620010e2858262001055565b86555062001152565b601f198416620010fb8662000e97565b60005b828110156200112557848901518255600182019150602085019450602081019050620010fe565b8683101562001145578489015162001141601f89168262001035565b8355505b6001600288020188555050505b505050505050565b7f4e487b7100000000000000000000000000000000000000000000000000000000600052601160045260246000fd5b6000620011968262000f1f565b91507fffffffffffffffffffffffffffffffffffffffffffffffffffffffffffffffff8203620011cb57620011ca6200115a565b5b600182019050919050565b600073ffffffffffffffffffffffffffffffffffffffff82169050919050565b60006200120382620011d6565b9050919050565b6200121581620011f6565b82525050565b60006020820190506200123260008301846200120a565b92915050565b6000620012458262000f1f565b9150620012528362000f1f565b92508282039050818111156200126d576200126c6200115a565b5b92915050565b7f4e487b7100000000000000000000000000000000000000000000000000000000600052603260045260246000fd5b7f4e487b7100000000000000000000000000000000000000000000000000000000600052603160045260246000fd5b620012dc8162000f1f565b82525050565b6000602082019050620012f96000830184620012d1565b92915050565b60006040820190506200131660008301856200120a565b620013256020830184620012d1565b9392505050565b6127e1806200133c6000396000f3fe608060405234801561001057600080fd5b506004361061010b5760003560e01c806342842e0e116100a257806395d89b411161007157806395d89b41146102f0578063a22cb4651461030e578063b88d4fde1461032a578063c87b56dd14610346578063e985e9c5146103765761010b565b806342842e0e146102445780634f6ccce7146102605780636352211e1461029057806370a08231146102c05761010b565b806318160ddd116100de57806318160ddd146101aa57806323b872dd146101c85780632f745c59146101e4578063388a373d146102145761010b565b806301ffc9a71461011057806306fdde0314610140578063081812fc1461015e578063095ea7b31461018e575b600080fd5b61012a60048036038101906101259190611e47565b6103a6565b6040516101379190611e8f565b60405180910390f35b610148610420565b6040516101559190611f3a565b60405180910390f35b61017860048036038101906101739190611f92565b6104b2565b6040516101859190612000565b60405180910390f35b6101a860048036038101906101a39190612047565b6104ce565b005b6101b26104e4565b6040516101bf9190612096565b60405180910390f35b6101e260048036038101906101dd91906120b1565b6104f1565b005b6101fe60048036038101906101f99190612047565b6105f3565b60405161020b9190612096565b60405180910390f35b61022e60048036038101906102299190612104565b61069c565b60405161023b9190612154565b60405180910390f35b61025e600480360381019061025991906120b1565b610835565b005b61027a60048036038101906102759190611f92565b610855565b6040516102879190612096565b60405180910390f35b6102aa60048036038101906102a59190611f92565b6108cb565b6040516102b79190612000565b60405180910390f35b6102da60048036038101906102d59190612104565b6108dd565b6040516102e79190612096565b60405180910390f35b6102f8610997565b6040516103059190611f3a565b60405180910390f35b6103286004803603810190610323919061219b565b610a29565b005b610344600480360381019061033f9190612310565b610a3f565b005b610360600480360381019061035b9190611f92565b610a64565b60405161036d9190611f3a565b60405180910390f35b610390600480360381019061038b9190612393565b610acd565b60405161039d9190611e8f565b60405180910390f35b60007f780e9d63000000000000000000000000000000000000000000000000000000007bffffffffffffffffffffffffffffffffffffffffffffffffffffffff1916827bffffffffffffffffffffffffffffffffffffffffffffffffffffffff19161480610419575061041882610b61565b5b9050919050565b60606000805461042f90612402565b80601f016020809104026020016040519081016040528092919081815260200182805461045b90612402565b80156104a85780601f1061047d576101008083540402835291602001916104a8565b820191906000526020600020905b81548152906001019060200180831161048b57829003601f168201915b5050505050905090565b60006104bd82610c43565b506104c782610ccb565b9050919050565b6104e082826104db610d08565b610d10565b5050565b6000600880549050905090565b600073ffffffffffffffffffffffffffffffffffffffff168273ffffffffffffffffffffffffffffffffffffffff16036105635760006040517f64a0ae9200000000000000000000000000000000000000000000000000000000815260040161055a9190612000565b60405180910390fd5b60006105778383610572610d08565b610d22565b90508373ffffffffffffffffffffffffffffffffffffffff168173ffffffffffffffffffffffffffffffffffffffff16146105ed578382826040517f64283d7b0000000000000000000000000000000000000000000000000000000081526004016105e493929190612433565b60405180910390fd5b50505050565b60006105fe836108dd565b82106106435782826040517fa57d13dc00000000000000000000000000000000000000000000000000000000815260040161063a92919061246a565b60405180910390fd5b600660008473ffffffffffffffffffffffffffffffffffffffff1673ffffffffffffffffffffffffffffffffffffffff168152602001908152602001600020600083815260200190815260200160002054905092915050565b600080600090506000806106af856108dd565b905060008167ffffffffffffffff8111156106cd576106cc6121e5565b5b6040519080825280602002602001820160405280156106fb5781602001602082028036833780820191505090505b50905060005b8281101561073f5761071387826105f3565b82828151811061072657610725612493565b5b6020026020010181815250508080600101915050610701565b5060005b815181101561082857600182828151811061076157610760612493565b5b6020026020010151146107f657600061079383838151811061078657610785612493565b5b6020026020010151610e3f565b90506000600190505b8181116107f3576000818585815181106107b9576107b8612493565b5b60200260200101516107cb91906124f1565b036107e0576001876107dd9190612551565b96505b80806107eb9061258d565b91505061079c565b50505b60018567ffffffffffffffff1603610817578380610813906125d5565b9450505b600094508080600101915050610743565b5082945050505050919050565b61085083838360405180602001604052806000815250610a3f565b505050565b600061085f6104e4565b82106108a5576000826040517fa57d13dc00000000000000000000000000000000000000000000000000000000815260040161089c92919061246a565b60405180910390fd5b600882815481106108b9576108b8612493565b5b90600052602060002001549050919050565b60006108d682610c43565b9050919050565b60008073ffffffffffffffffffffffffffffffffffffffff168273ffffffffffffffffffffffffffffffffffffffff16036109505760006040517f89c62b640000000000000000000000000000000000000000000000000000000081526004016109479190612000565b60405180910390fd5b600360008373ffffffffffffffffffffffffffffffffffffffff1673ffffffffffffffffffffffffffffffffffffffff168152602001908152602001600020549050919050565b6060600180546109a690612402565b80601f01602080910402602001604051908101604052809291908181526020018280546109d290612402565b8015610a1f5780601f106109f457610100808354040283529160200191610a1f565b820191906000526020600020905b815481529060010190602001808311610a0257829003601f168201915b5050505050905090565b610a3b610a34610d08565b8383610fdc565b5050565b610a4a8484846104f1565b610a5e610a55610d08565b8585858561114b565b50505050565b6060610a6f82610c43565b506000610a7a6112fc565b90506000815111610a9a5760405180602001604052806000815250610ac5565b80610aa484611313565b604051602001610ab5929190612641565b6040516020818303038152906040525b915050919050565b6000600560008473ffffffffffffffffffffffffffffffffffffffff1673ffffffffffffffffffffffffffffffffffffffff16815260200190815260200160002060008373ffffffffffffffffffffffffffffffffffffffff1673ffffffffffffffffffffffffffffffffffffffff16815260200190815260200160002060009054906101000a900460ff16905092915050565b60007f80ac58cd000000000000000000000000000000000000000000000000000000007bffffffffffffffffffffffffffffffffffffffffffffffffffffffff1916827bffffffffffffffffffffffffffffffffffffffffffffffffffffffff19161480610c2c57507f5b5e139f000000000000000000000000000000000000000000000000000000007bffffffffffffffffffffffffffffffffffffffffffffffffffffffff1916827bffffffffffffffffffffffffffffffffffffffffffffffffffffffff1916145b80610c3c5750610c3b826113e1565b5b9050919050565b600080610c4f8361144b565b9050600073ffffffffffffffffffffffffffffffffffffffff168173ffffffffffffffffffffffffffffffffffffffff1603610cc257826040517f7e273289000000000000000000000000000000000000000000000000000000008152600401610cb99190612096565b60405180910390fd5b80915050919050565b60006004600083815260200190815260200160002060009054906101000a900473ffffffffffffffffffffffffffffffffffffffff169050919050565b600033905090565b610d1d8383836001611488565b505050565b600080610d3085858561164d565b9050600073ffffffffffffffffffffffffffffffffffffffff168173ffffffffffffffffffffffffffffffffffffffff1603610d7457610d6f84611867565b610db3565b8473ffffffffffffffffffffffffffffffffffffffff168173ffffffffffffffffffffffffffffffffffffffff1614610db257610db181856118b0565b5b5b600073ffffffffffffffffffffffffffffffffffffffff168573ffffffffffffffffffffffffffffffffffffffff1603610df557610df08461199b565b610e34565b8473ffffffffffffffffffffffffffffffffffffffff168173ffffffffffffffffffffffffffffffffffffffff1614610e3357610e328585611a6c565b5b5b809150509392505050565b600060018211610e5157819050610fd7565b60008290506000600190507001000000000000000000000000000000008210610e8357608082901c9150604081901b90505b680100000000000000008210610ea257604082901c9150602081901b90505b6401000000008210610ebd57602082901c9150601081901b90505b620100008210610ed657601082901c9150600881901b90505b6101008210610eee57600882901c9150600481901b90505b60108210610f0557600482901c9150600281901b90505b60048210610f1557600181901b90505b600181600302901c90506001818581610f3157610f306124c2565b5b048201901c90506001818581610f4a57610f496124c2565b5b048201901c90506001818581610f6357610f626124c2565b5b048201901c90506001818581610f7c57610f7b6124c2565b5b048201901c90506001818581610f9557610f946124c2565b5b048201901c90506001818581610fae57610fad6124c2565b5b048201901c9050610fd0818581610fc857610fc76124c2565b5b048211611af7565b8103925050505b919050565b600073ffffffffffffffffffffffffffffffffffffffff168273ffffffffffffffffffffffffffffffffffffffff160361104d57816040517f5b08ba180000000000000000000000000000000000000000000000000000000081526004016110449190612000565b60405180910390fd5b80600560008573ffffffffffffffffffffffffffffffffffffffff1673ffffffffffffffffffffffffffffffffffffffff16815260200190815260200160002060008473ffffffffffffffffffffffffffffffffffffffff1673ffffffffffffffffffffffffffffffffffffffff16815260200190815260200160002060006101000a81548160ff0219169083151502179055508173ffffffffffffffffffffffffffffffffffffffff168373ffffffffffffffffffffffffffffffffffffffff167f17307eab39ab6107e8899845ad3d59bd9653f200f220920489ca2b5937696c318360405161113e9190611e8f565b60405180910390a3505050565b60008373ffffffffffffffffffffffffffffffffffffffff163b11156112f5578273ffffffffffffffffffffffffffffffffffffffff1663150b7a02868685856040518563ffffffff1660e01b81526004016111aa94939291906126ba565b6020604051808303816000875af19250505080156111e657506040513d601f19601f820116820180604052508101906111e3919061271b565b60015b61126a573d8060008114611216576040519150601f19603f3d011682016040523d82523d6000602084013e61121b565b606091505b50600081510361126257836040517f64a0ae920000000000000000000000000000000000000000000000000000000081526004016112599190612000565b60405180910390fd5b805181602001fd5b63150b7a0260e01b7bffffffffffffffffffffffffffffffffffffffffffffffffffffffff1916817bffffffffffffffffffffffffffffffffffffffffffffffffffffffff1916146112f357836040517f64a0ae920000000000000000000000000000000000000000000000000000000081526004016112ea9190612000565b60405180910390fd5b505b5050505050565b606060405180602001604052806000815250905090565b60606000600161132284611b03565b01905060008167ffffffffffffffff811115611341576113406121e5565b5b6040519080825280601f01601f1916602001820160405280156113735781602001600182028036833780820191505090505b509050600082602001820190505b6001156113d6578080600190039150507f3031323334353637383961626364656600000000000000000000000000000000600a86061a8153600a85816113ca576113c96124c2565b5b04945060008503611381575b819350505050919050565b60007f01ffc9a7000000000000000000000000000000000000000000000000000000007bffffffffffffffffffffffffffffffffffffffffffffffffffffffff1916827bffffffffffffffffffffffffffffffffffffffffffffffffffffffff1916149050919050565b60006002600083815260200190815260200160002060009054906101000a900473ffffffffffffffffffffffffffffffffffffffff169050919050565b80806114c15750600073ffffffffffffffffffffffffffffffffffffffff168273ffffffffffffffffffffffffffffffffffffffff1614155b156115f55760006114d184610c43565b9050600073ffffffffffffffffffffffffffffffffffffffff168373ffffffffffffffffffffffffffffffffffffffff161415801561153c57508273ffffffffffffffffffffffffffffffffffffffff168173ffffffffffffffffffffffffffffffffffffffff1614155b801561154f575061154d8184610acd565b155b1561159157826040517fa9fbf51f0000000000000000000000000000000000000000000000000000000081526004016115889190612000565b60405180910390fd5b81156115f357838573ffffffffffffffffffffffffffffffffffffffff168273ffffffffffffffffffffffffffffffffffffffff167f8c5be1e5ebec7d5bd14f71427d1e84f3dd0314c0f7b2291e5b200ac8c7c3b92560405160405180910390a45b505b836004600085815260200190815260200160002060006101000a81548173ffffffffffffffffffffffffffffffffffffffff021916908373ffffffffffffffffffffffffffffffffffffffff16021790555050505050565b6000806116598461144b565b9050600073ffffffffffffffffffffffffffffffffffffffff168373ffffffffffffffffffffffffffffffffffffffff161461169b5761169a818486611c56565b5b600073ffffffffffffffffffffffffffffffffffffffff168173ffffffffffffffffffffffffffffffffffffffff161461172c576116dd600085600080611488565b6001600360008373ffffffffffffffffffffffffffffffffffffffff1673ffffffffffffffffffffffffffffffffffffffff168152602001908152602001600020600082825403925050819055505b600073ffffffffffffffffffffffffffffffffffffffff168573ffffffffffffffffffffffffffffffffffffffff16146117af576001600360008773ffffffffffffffffffffffffffffffffffffffff1673ffffffffffffffffffffffffffffffffffffffff168152602001908152602001600020600082825401925050819055505b846002600086815260200190815260200160002060006101000a81548173ffffffffffffffffffffffffffffffffffffffff021916908373ffffffffffffffffffffffffffffffffffffffff160217905550838573ffffffffffffffffffffffffffffffffffffffff168273ffffffffffffffffffffffffffffffffffffffff167fddf252ad1be2c89b69c2b068fc378daa952ba7f163c4a11628f55a4df523b3ef60405160405180910390a4809150509392505050565b6008805490506009600083815260200190815260200160002081905550600881908060018154018082558091505060019003906000526020600020016000909190919091505550565b60006118bb836108dd565b90506000600760008481526020019081526020016000205490506000600660008673ffffffffffffffffffffffffffffffffffffffff1673ffffffffffffffffffffffffffffffffffffffff16815260200190815260200160002090508282146119675760008160008581526020019081526020016000205490508082600085815260200190815260200160002081905550826007600083815260200190815260200160002081905550505b6007600085815260200190815260200160002060009055806000848152602001908152602001600020600090555050505050565b600060016008805490506119af9190612748565b90506000600960008481526020019081526020016000205490506000600883815481106119df576119de612493565b5b906000526020600020015490508060088381548110611a0157611a00612493565b5b906000526020600020018190555081600960008381526020019081526020016000208190555060096000858152602001908152602001600020600090556008805480611a5057611a4f61277c565b5b6001900381819060005260206000200160009055905550505050565b60006001611a79846108dd565b611a839190612748565b905081600660008573ffffffffffffffffffffffffffffffffffffffff1673ffffffffffffffffffffffffffffffffffffffff168152602001908152602001600020600083815260200190815260200160002081905550806007600084815260200190815260200160002081905550505050565b60008115159050919050565b600080600090507a184f03e93ff9f4daa797ed6e38ed64bf6a1f0100000000000000008310611b61577a184f03e93ff9f4daa797ed6e38ed64bf6a1f0100000000000000008381611b5757611b566124c2565b5b0492506040810190505b6d04ee2d6d415b85acef81000000008310611b9e576d04ee2d6d415b85acef81000000008381611b9457611b936124c2565b5b0492506020810190505b662386f26fc100008310611bcd57662386f26fc100008381611bc357611bc26124c2565b5b0492506010810190505b6305f5e1008310611bf6576305f5e1008381611bec57611beb6124c2565b5b0492506008810190505b6127108310611c1b576127108381611c1157611c106124c2565b5b0492506004810190505b60648310611c3e5760648381611c3457611c336124c2565b5b0492506002810190505b600a8310611c4d576001810190505b80915050919050565b611c61838383611d1a565b611d1557600073ffffffffffffffffffffffffffffffffffffffff168373ffffffffffffffffffffffffffffffffffffffff1603611cd657806040517f7e273289000000000000000000000000000000000000000000000000000000008152600401611ccd9190612096565b60405180910390fd5b81816040517f177e802f000000000000000000000000000000000000000000000000000000008152600401611d0c92919061246a565b60405180910390fd5b505050565b60008073ffffffffffffffffffffffffffffffffffffffff168373ffffffffffffffffffffffffffffffffffffffff1614158015611dd257508273ffffffffffffffffffffffffffffffffffffffff168473ffffffffffffffffffffffffffffffffffffffff161480611d935750611d928484610acd565b5b80611dd157508273ffffffffffffffffffffffffffffffffffffffff16611db983610ccb565b73ffffffffffffffffffffffffffffffffffffffff16145b5b90509392505050565b6000604051905090565b600080fd5b600080fd5b60007fffffffff0000000000000000000000000000000000000000000000000000000082169050919050565b611e2481611def565b8114611e2f57600080fd5b50565b600081359050611e4181611e1b565b92915050565b600060208284031215611e5d57611e5c611de5565b5b6000611e6b84828501611e32565b91505092915050565b60008115159050919050565b611e8981611e74565b82525050565b6000602082019050611ea46000830184611e80565b92915050565b600081519050919050565b600082825260208201905092915050565b60005b83811015611ee4578082015181840152602081019050611ec9565b60008484015250505050565b6000601f19601f8301169050919050565b6000611f0c82611eaa565b611f168185611eb5565b9350611f26818560208601611ec6565b611f2f81611ef0565b840191505092915050565b60006020820190508181036000830152611f548184611f01565b905092915050565b6000819050919050565b611f6f81611f5c565b8114611f7a57600080fd5b50565b600081359050611f8c81611f66565b92915050565b600060208284031215611fa857611fa7611de5565b5b6000611fb684828501611f7d565b91505092915050565b600073ffffffffffffffffffffffffffffffffffffffff82169050919050565b6000611fea82611fbf565b9050919050565b611ffa81611fdf565b82525050565b60006020820190506120156000830184611ff1565b92915050565b61202481611fdf565b811461202f57600080fd5b50565b6000813590506120418161201b565b92915050565b6000806040838503121561205e5761205d611de5565b5b600061206c85828601612032565b925050602061207d85828601611f7d565b9150509250929050565b61209081611f5c565b82525050565b60006020820190506120ab6000830184612087565b92915050565b6000806000606084860312156120ca576120c9611de5565b5b60006120d886828701612032565b93505060206120e986828701612032565b92505060406120fa86828701611f7d565b9150509250925092565b60006020828403121561211a57612119611de5565b5b600061212884828501612032565b91505092915050565b600067ffffffffffffffff82169050919050565b61214e81612131565b82525050565b60006020820190506121696000830184612145565b92915050565b61217881611e74565b811461218357600080fd5b50565b6000813590506121958161216f565b92915050565b600080604083850312156121b2576121b1611de5565b5b60006121c085828601612032565b92505060206121d185828601612186565b9150509250929050565b600080fd5b600080fd5b7f4e487b7100000000000000000000000000000000000000000000000000000000600052604160045260246000fd5b61221d82611ef0565b810181811067ffffffffffffffff8211171561223c5761223b6121e5565b5b80604052505050565b600061224f611ddb565b905061225b8282612214565b919050565b600067ffffffffffffffff82111561227b5761227a6121e5565b5b61228482611ef0565b9050602081019050919050565b82818337600083830152505050565b60006122b36122ae84612260565b612245565b9050828152602081018484840111156122cf576122ce6121e0565b5b6122da848285612291565b509392505050565b600082601f8301126122f7576122f66121db565b5b81356123078482602086016122a0565b91505092915050565b6000806000806080858703121561232a57612329611de5565b5b600061233887828801612032565b945050602061234987828801612032565b935050604061235a87828801611f7d565b925050606085013567ffffffffffffffff81111561237b5761237a611dea565b5b612387878288016122e2565b91505092959194509250565b600080604083850312156123aa576123a9611de5565b5b60006123b885828601612032565b92505060206123c985828601612032565b9150509250929050565b7f4e487b7100000000000000000000000000000000000000000000000000000000600052602260045260246000fd5b6000600282049050600182168061241a57607f821691505b60208210810361242d5761242c6123d3565b5b50919050565b60006060820190506124486000830186611ff1565b6124556020830185612087565b6124626040830184611ff1565b949350505050565b600060408201905061247f6000830185611ff1565b61248c6020830184612087565b9392505050565b7f4e487b7100000000000000000000000000000000000000000000000000000000600052603260045260246000fd5b7f4e487b7100000000000000000000000000000000000000000000000000000000600052601260045260246000fd5b60006124fc82611f5c565b915061250783611f5c565b925082612517576125166124c2565b5b828206905092915050565b7f4e487b7100000000000000000000000000000000000000000000000000000000600052601160045260246000fd5b600061255c82612131565b915061256783612131565b9250828201905067ffffffffffffffff81111561258757612586612522565b5b92915050565b600061259882611f5c565b91507fffffffffffffffffffffffffffffffffffffffffffffffffffffffffffffffff82036125ca576125c9612522565b5b600182019050919050565b60006125e082612131565b915067ffffffffffffffff82036125fa576125f9612522565b5b600182019050919050565b600081905092915050565b600061261b82611eaa565b6126258185612605565b9350612635818560208601611ec6565b80840191505092915050565b600061264d8285612610565b91506126598284612610565b91508190509392505050565b600081519050919050565b600082825260208201905092915050565b600061268c82612665565b6126968185612670565b93506126a6818560208601611ec6565b6126af81611ef0565b840191505092915050565b60006080820190506126cf6000830187611ff1565b6126dc6020830186611ff1565b6126e96040830185612087565b81810360608301526126fb8184612681565b905095945050505050565b60008151905061271581611e1b565b92915050565b60006020828403121561273157612730611de5565b5b600061273f84828501612706565b91505092915050565b600061275382611f5c565b915061275e83611f5c565b925082820390508181111561277657612775612522565b5b92915050565b7f4e487b7100000000000000000000000000000000000000000000000000000000600052603160045260246000fdfea26469706673582212207438aee4419b8839c8e76f2ac596f6bf617efdb098a8535ed41c7b423bc96b4864736f6c63430008170033","linkReferences":{}},"methodIdentifiers":{"approve(address,uint256)":"095ea7b3","balanceOf(address)":"70a08231","countPrimeNFTAtAddress(address)":"388a373d","getApproved(uint256)":"081812fc","isApprovedForAll(address,address)":"e985e9c5","name()":"06fdde03","ownerOf(uint256)":"6352211e","safeTransferFrom(address,address,uint256)":"42842e0e","safeTransferFrom(address,address,uint256,bytes)":"b88d4fde","setApprovalForAll(address,bool)":"a22cb465","supportsInterface(bytes4)":"01ffc9a7","symbol()":"95d89b41","tokenByIndex(uint256)":"4f6ccce7","tokenOfOwnerByIndex(address,uint256)":"2f745c59","tokenURI(uint256)":"c87b56dd","totalSupply()":"18160ddd","transferFrom(address,address,uint256)":"23b872dd"},"id":3}