{"abi":[{"type":"constructor","inputs":[],"stateMutability":"nonpayable"},{"type":"function","name":"approve","inputs":[{"name":"to","type":"address","internalType":"address"},{"name":"tokenId","type":"uint256","internalType":"uint256"}],"outputs":[],"stateMutability":"nonpayable"},{"type":"function","name":"balanceOf","inputs":[{"name":"owner","type":"address","internalType":"address"}],"outputs":[{"name":"","type":"uint256","internalType":"uint256"}],"stateMutability":"view"},{"type":"function","name":"countPrimeNFTAtAddress","inputs":[{"name":"addr","type":"address","internalType":"address"}],"outputs":[{"name":"","type":"uint256","internalType":"uint256"}],"stateMutability":"nonpayable"},{"type":"function","name":"getApproved","inputs":[{"name":"tokenId","type":"uint256","internalType":"uint256"}],"outputs":[{"name":"","type":"address","internalType":"address"}],"stateMutability":"view"},{"type":"function","name":"isApprovedForAll","inputs":[{"name":"owner","type":"address","internalType":"address"},{"name":"operator","type":"address","internalType":"address"}],"outputs":[{"name":"","type":"bool","internalType":"bool"}],"stateMutability":"view"},{"type":"function","name":"name","inputs":[],"outputs":[{"name":"","type":"string","internalType":"string"}],"stateMutability":"view"},{"type":"function","name":"ownerOf","inputs":[{"name":"tokenId","type":"uint256","internalType":"uint256"}],"outputs":[{"name":"","type":"address","internalType":"address"}],"stateMutability":"view"},{"type":"function","name":"safeTransferFrom","inputs":[{"name":"from","type":"address","internalType":"address"},{"name":"to","type":"address","internalType":"address"},{"name":"tokenId","type":"uint256","internalType":"uint256"}],"outputs":[],"stateMutability":"nonpayable"},{"type":"function","name":"safeTransferFrom","inputs":[{"name":"from","type":"address","internalType":"address"},{"name":"to","type":"address","internalType":"address"},{"name":"tokenId","type":"uint256","internalType":"uint256"},{"name":"data","type":"bytes","internalType":"bytes"}],"outputs":[],"stateMutability":"nonpayable"},{"type":"function","name":"setApprovalForAll","inputs":[{"name":"operator","type":"address","internalType":"address"},{"name":"approved","type":"bool","internalType":"bool"}],"outputs":[],"stateMutability":"nonpayable"},{"type":"function","name":"supportsInterface","inputs":[{"name":"interfaceId","type":"bytes4","internalType":"bytes4"}],"outputs":[{"name":"","type":"bool","internalType":"bool"}],"stateMutability":"view"},{"type":"function","name":"symbol","inputs":[],"outputs":[{"name":"","type":"string","internalType":"string"}],"stateMutability":"view"},{"type":"function","name":"tokenByIndex","inputs":[{"name":"index","type":"uint256","internalType":"uint256"}],"outputs":[{"name":"","type":"uint256","internalType":"uint256"}],"stateMutability":"view"},{"type":"function","name":"tokenOfOwnerByIndex","inputs":[{"name":"owner","type":"address","internalType":"address"},{"name":"index","type":"uint256","internalType":"uint256"}],"outputs":[{"name":"","type":"uint256","internalType":"uint256"}],"stateMutability":"view"},{"type":"function","name":"tokenURI","inputs":[{"name":"tokenId","type":"uint256","internalType":"uint256"}],"outputs":[{"name":"","type":"string","internalType":"string"}],"stateMutability":"view"},{"type":"function","name":"totalSupply","inputs":[],"outputs":[{"name":"","type":"uint256","internalType":"uint256"}],"stateMutability":"view"},{"type":"function","name":"transferFrom","inputs":[{"name":"from","type":"address","internalType":"address"},{"name":"to","type":"address","internalType":"address"},{"name":"tokenId","type":"uint256","internalType":"uint256"}],"outputs":[],"stateMutability":"nonpayable"},{"type":"event","name":"Approval","inputs":[{"name":"owner","type":"address","indexed":true,"internalType":"address"},{"name":"approved","type":"address","indexed":true,"internalType":"address"},{"name":"tokenId","type":"uint256","indexed":true,"internalType":"uint256"}],"anonymous":false},{"type":"event","name":"ApprovalForAll","inputs":[{"name":"owner","type":"address","indexed":true,"internalType":"address"},{"name":"operator","type":"address","indexed":true,"internalType":"address"},{"name":"approved","type":"bool","indexed":false,"internalType":"bool"}],"anonymous":false},{"type":"event","name":"Transfer","inputs":[{"name":"from","type":"address","indexed":true,"internalType":"address"},{"name":"to","type":"address","indexed":true,"internalType":"address"},{"name":"tokenId","type":"uint256","indexed":true,"internalType":"uint256"}],"anonymous":false},{"type":"error","name":"ERC721EnumerableForbiddenBatchMint","inputs":[]},{"type":"error","name":"ERC721IncorrectOwner","inputs":[{"name":"sender","type":"address","internalType":"address"},{"name":"tokenId","type":"uint256","internalType":"uint256"},{"name":"owner","type":"address","internalType":"address"}]},{"type":"error","name":"ERC721InsufficientApproval","inputs":[{"name":"operator","type":"address","internalType":"address"},{"name":"tokenId","type":"uint256","internalType":"uint256"}]},{"type":"error","name":"ERC721InvalidApprover","inputs":[{"name":"approver","type":"address","internalType":"address"}]},{"type":"error","name":"ERC721InvalidOperator","inputs":[{"name":"operator","type":"address","internalType":"address"}]},{"type":"error","name":"ERC721InvalidOwner","inputs":[{"name":"owner","type":"address","internalType":"address"}]},{"type":"error","name":"ERC721InvalidReceiver","inputs":[{"name":"receiver","type":"address","internalType":"address"}]},{"type":"error","name":"ERC721InvalidSender","inputs":[{"name":"sender","type":"address","internalType":"address"}]},{"type":"error","name":"ERC721NonexistentToken","inputs":[{"name":"tokenId","type":"uint256","internalType":"uint256"}]},{"type":"error","name":"ERC721OutOfBoundsIndex","inputs":[{"name":"owner","type":"address","internalType":"address"},{"name":"index","type":"uint256","internalType":"uint256"}]}],"bytecode":{"object":"0x60806040523480156200001157600080fd5b506040518060400160405280600d81526020017f4e4654456e756d657262616c65000000000000000000000000000000000000008152506040518060400160405280600981526020017f4e6f744e6565646564000000000000000000000000000000000000000000000081525081600090816200008f919062000324565b508060019081620000a1919062000324565b5050506200040b565b600081519050919050565b7f4e487b7100000000000000000000000000000000000000000000000000000000600052604160045260246000fd5b7f4e487b7100000000000000000000000000000000000000000000000000000000600052602260045260246000fd5b600060028204905060018216806200012c57607f821691505b602082108103620001425762000141620000e4565b5b50919050565b60008190508160005260206000209050919050565b60006020601f8301049050919050565b600082821b905092915050565b600060088302620001ac7fffffffffffffffffffffffffffffffffffffffffffffffffffffffffffffffff826200016d565b620001b886836200016d565b95508019841693508086168417925050509392505050565b6000819050919050565b6000819050919050565b600062000205620001ff620001f984620001d0565b620001da565b620001d0565b9050919050565b6000819050919050565b6200022183620001e4565b6200023962000230826200020c565b8484546200017a565b825550505050565b600090565b6200025062000241565b6200025d81848462000216565b505050565b5b8181101562000285576200027960008262000246565b60018101905062000263565b5050565b601f821115620002d4576200029e8162000148565b620002a9846200015d565b81016020851015620002b9578190505b620002d1620002c8856200015d565b83018262000262565b50505b505050565b600082821c905092915050565b6000620002f960001984600802620002d9565b1980831691505092915050565b6000620003148383620002e6565b9150826002028217905092915050565b6200032f82620000aa565b67ffffffffffffffff8111156200034b576200034a620000b5565b5b62000357825462000113565b6200036482828562000289565b600060209050601f8311600181146200039c576000841562000387578287015190505b62000393858262000306565b86555062000403565b601f198416620003ac8662000148565b60005b82811015620003d657848901518255600182019150602085019450602081019050620003af565b86831015620003f65784890151620003f2601f891682620002e6565b8355505b6001600288020188555050505b505050505050565b612729806200041b6000396000f3fe608060405234801561001057600080fd5b506004361061010b5760003560e01c806342842e0e116100a257806395d89b411161007157806395d89b41146102f0578063a22cb4651461030e578063b88d4fde1461032a578063c87b56dd14610346578063e985e9c5146103765761010b565b806342842e0e146102445780634f6ccce7146102605780636352211e1461029057806370a08231146102c05761010b565b806318160ddd116100de57806318160ddd146101aa57806323b872dd146101c85780632f745c59146101e4578063388a373d146102145761010b565b806301ffc9a71461011057806306fdde0314610140578063081812fc1461015e578063095ea7b31461018e575b600080fd5b61012a60048036038101906101259190611de9565b6103a6565b6040516101379190611e31565b60405180910390f35b610148610420565b6040516101559190611edc565b60405180910390f35b61017860048036038101906101739190611f34565b6104b2565b6040516101859190611fa2565b60405180910390f35b6101a860048036038101906101a39190611fe9565b6104ce565b005b6101b26104e4565b6040516101bf9190612038565b60405180910390f35b6101e260048036038101906101dd9190612053565b6104f1565b005b6101fe60048036038101906101f99190611fe9565b6105f3565b60405161020b9190612038565b60405180910390f35b61022e600480360381019061022991906120a6565b61069c565b60405161023b9190612038565b60405180910390f35b61025e60048036038101906102599190612053565b6107d7565b005b61027a60048036038101906102759190611f34565b6107f7565b6040516102879190612038565b60405180910390f35b6102aa60048036038101906102a59190611f34565b61086d565b6040516102b79190611fa2565b60405180910390f35b6102da60048036038101906102d591906120a6565b61087f565b6040516102e79190612038565b60405180910390f35b6102f8610939565b6040516103059190611edc565b60405180910390f35b610328600480360381019061032391906120ff565b6109cb565b005b610344600480360381019061033f9190612274565b6109e1565b005b610360600480360381019061035b9190611f34565b610a06565b60405161036d9190611edc565b60405180910390f35b610390600480360381019061038b91906122f7565b610a6f565b60405161039d9190611e31565b60405180910390f35b60007f780e9d63000000000000000000000000000000000000000000000000000000007bffffffffffffffffffffffffffffffffffffffffffffffffffffffff1916827bffffffffffffffffffffffffffffffffffffffffffffffffffffffff19161480610419575061041882610b03565b5b9050919050565b60606000805461042f90612366565b80601f016020809104026020016040519081016040528092919081815260200182805461045b90612366565b80156104a85780601f1061047d576101008083540402835291602001916104a8565b820191906000526020600020905b81548152906001019060200180831161048b57829003601f168201915b5050505050905090565b60006104bd82610be5565b506104c782610c6d565b9050919050565b6104e082826104db610caa565b610cb2565b5050565b6000600880549050905090565b600073ffffffffffffffffffffffffffffffffffffffff168273ffffffffffffffffffffffffffffffffffffffff16036105635760006040517f64a0ae9200000000000000000000000000000000000000000000000000000000815260040161055a9190611fa2565b60405180910390fd5b60006105778383610572610caa565b610cc4565b90508373ffffffffffffffffffffffffffffffffffffffff168173ffffffffffffffffffffffffffffffffffffffff16146105ed578382826040517f64283d7b0000000000000000000000000000000000000000000000000000000081526004016105e493929190612397565b60405180910390fd5b50505050565b60006105fe8361087f565b82106106435782826040517fa57d13dc00000000000000000000000000000000000000000000000000000000815260040161063a9291906123ce565b60405180910390fd5b600660008473ffffffffffffffffffffffffffffffffffffffff1673ffffffffffffffffffffffffffffffffffffffff168152602001908152602001600020600083815260200190815260200160002054905092915050565b6000806000905060006106ae8461087f565b9050606060005b828110156106f3576106c786826105f3565b8282815181106106da576106d96123f7565b5b60200260200101818152505080806001019150506106b5565b5060005b81518110156107cd576000610725838381518110610718576107176123f7565b5b6020026020010151610de1565b90506000600190505b8181116107855760008185858151811061074b5761074a6123f7565b5b602002602001015161075d9190612455565b036107725760018661076f91906124c9565b95505b808061077d90612505565b91505061072e565b5060018567ffffffffffffffff16036107bf578282815181106107ab576107aa6123f7565b5b6020026020010151955050505050506107d2565b5080806001019150506106f7565b505050505b919050565b6107f2838383604051806020016040528060008152506109e1565b505050565b60006108016104e4565b8210610847576000826040517fa57d13dc00000000000000000000000000000000000000000000000000000000815260040161083e9291906123ce565b60405180910390fd5b6008828154811061085b5761085a6123f7565b5b90600052602060002001549050919050565b600061087882610be5565b9050919050565b60008073ffffffffffffffffffffffffffffffffffffffff168273ffffffffffffffffffffffffffffffffffffffff16036108f25760006040517f89c62b640000000000000000000000000000000000000000000000000000000081526004016108e99190611fa2565b60405180910390fd5b600360008373ffffffffffffffffffffffffffffffffffffffff1673ffffffffffffffffffffffffffffffffffffffff168152602001908152602001600020549050919050565b60606001805461094890612366565b80601f016020809104026020016040519081016040528092919081815260200182805461097490612366565b80156109c15780601f10610996576101008083540402835291602001916109c1565b820191906000526020600020905b8154815290600101906020018083116109a457829003601f168201915b5050505050905090565b6109dd6109d6610caa565b8383610f7e565b5050565b6109ec8484846104f1565b610a006109f7610caa565b858585856110ed565b50505050565b6060610a1182610be5565b506000610a1c61129e565b90506000815111610a3c5760405180602001604052806000815250610a67565b80610a46846112b5565b604051602001610a57929190612589565b6040516020818303038152906040525b915050919050565b6000600560008473ffffffffffffffffffffffffffffffffffffffff1673ffffffffffffffffffffffffffffffffffffffff16815260200190815260200160002060008373ffffffffffffffffffffffffffffffffffffffff1673ffffffffffffffffffffffffffffffffffffffff16815260200190815260200160002060009054906101000a900460ff16905092915050565b60007f80ac58cd000000000000000000000000000000000000000000000000000000007bffffffffffffffffffffffffffffffffffffffffffffffffffffffff1916827bffffffffffffffffffffffffffffffffffffffffffffffffffffffff19161480610bce57507f5b5e139f000000000000000000000000000000000000000000000000000000007bffffffffffffffffffffffffffffffffffffffffffffffffffffffff1916827bffffffffffffffffffffffffffffffffffffffffffffffffffffffff1916145b80610bde5750610bdd82611383565b5b9050919050565b600080610bf1836113ed565b9050600073ffffffffffffffffffffffffffffffffffffffff168173ffffffffffffffffffffffffffffffffffffffff1603610c6457826040517f7e273289000000000000000000000000000000000000000000000000000000008152600401610c5b9190612038565b60405180910390fd5b80915050919050565b60006004600083815260200190815260200160002060009054906101000a900473ffffffffffffffffffffffffffffffffffffffff169050919050565b600033905090565b610cbf838383600161142a565b505050565b600080610cd28585856115ef565b9050600073ffffffffffffffffffffffffffffffffffffffff168173ffffffffffffffffffffffffffffffffffffffff1603610d1657610d1184611809565b610d55565b8473ffffffffffffffffffffffffffffffffffffffff168173ffffffffffffffffffffffffffffffffffffffff1614610d5457610d538185611852565b5b5b600073ffffffffffffffffffffffffffffffffffffffff168573ffffffffffffffffffffffffffffffffffffffff1603610d9757610d928461193d565b610dd6565b8473ffffffffffffffffffffffffffffffffffffffff168173ffffffffffffffffffffffffffffffffffffffff1614610dd557610dd48585611a0e565b5b5b809150509392505050565b600060018211610df357819050610f79565b60008290506000600190507001000000000000000000000000000000008210610e2557608082901c9150604081901b90505b680100000000000000008210610e4457604082901c9150602081901b90505b6401000000008210610e5f57602082901c9150601081901b90505b620100008210610e7857601082901c9150600881901b90505b6101008210610e9057600882901c9150600481901b90505b60108210610ea757600482901c9150600281901b90505b60048210610eb757600181901b90505b600181600302901c90506001818581610ed357610ed2612426565b5b048201901c90506001818581610eec57610eeb612426565b5b048201901c90506001818581610f0557610f04612426565b5b048201901c90506001818581610f1e57610f1d612426565b5b048201901c90506001818581610f3757610f36612426565b5b048201901c90506001818581610f5057610f4f612426565b5b048201901c9050610f72818581610f6a57610f69612426565b5b048211611a99565b8103925050505b919050565b600073ffffffffffffffffffffffffffffffffffffffff168273ffffffffffffffffffffffffffffffffffffffff1603610fef57816040517f5b08ba18000000000000000000000000000000000000000000000000000000008152600401610fe69190611fa2565b60405180910390fd5b80600560008573ffffffffffffffffffffffffffffffffffffffff1673ffffffffffffffffffffffffffffffffffffffff16815260200190815260200160002060008473ffffffffffffffffffffffffffffffffffffffff1673ffffffffffffffffffffffffffffffffffffffff16815260200190815260200160002060006101000a81548160ff0219169083151502179055508173ffffffffffffffffffffffffffffffffffffffff168373ffffffffffffffffffffffffffffffffffffffff167f17307eab39ab6107e8899845ad3d59bd9653f200f220920489ca2b5937696c31836040516110e09190611e31565b60405180910390a3505050565b60008373ffffffffffffffffffffffffffffffffffffffff163b1115611297578273ffffffffffffffffffffffffffffffffffffffff1663150b7a02868685856040518563ffffffff1660e01b815260040161114c9493929190612602565b6020604051808303816000875af192505050801561118857506040513d601f19601f820116820180604052508101906111859190612663565b60015b61120c573d80600081146111b8576040519150601f19603f3d011682016040523d82523d6000602084013e6111bd565b606091505b50600081510361120457836040517f64a0ae920000000000000000000000000000000000000000000000000000000081526004016111fb9190611fa2565b60405180910390fd5b805181602001fd5b63150b7a0260e01b7bffffffffffffffffffffffffffffffffffffffffffffffffffffffff1916817bffffffffffffffffffffffffffffffffffffffffffffffffffffffff19161461129557836040517f64a0ae9200000000000000000000000000000000000000000000000000000000815260040161128c9190611fa2565b60405180910390fd5b505b5050505050565b606060405180602001604052806000815250905090565b6060600060016112c484611aa5565b01905060008167ffffffffffffffff8111156112e3576112e2612149565b5b6040519080825280601f01601f1916602001820160405280156113155781602001600182028036833780820191505090505b509050600082602001820190505b600115611378578080600190039150507f3031323334353637383961626364656600000000000000000000000000000000600a86061a8153600a858161136c5761136b612426565b5b04945060008503611323575b819350505050919050565b60007f01ffc9a7000000000000000000000000000000000000000000000000000000007bffffffffffffffffffffffffffffffffffffffffffffffffffffffff1916827bffffffffffffffffffffffffffffffffffffffffffffffffffffffff1916149050919050565b60006002600083815260200190815260200160002060009054906101000a900473ffffffffffffffffffffffffffffffffffffffff169050919050565b80806114635750600073ffffffffffffffffffffffffffffffffffffffff168273ffffffffffffffffffffffffffffffffffffffff1614155b1561159757600061147384610be5565b9050600073ffffffffffffffffffffffffffffffffffffffff168373ffffffffffffffffffffffffffffffffffffffff16141580156114de57508273ffffffffffffffffffffffffffffffffffffffff168173ffffffffffffffffffffffffffffffffffffffff1614155b80156114f157506114ef8184610a6f565b155b1561153357826040517fa9fbf51f00000000000000000000000000000000000000000000000000000000815260040161152a9190611fa2565b60405180910390fd5b811561159557838573ffffffffffffffffffffffffffffffffffffffff168273ffffffffffffffffffffffffffffffffffffffff167f8c5be1e5ebec7d5bd14f71427d1e84f3dd0314c0f7b2291e5b200ac8c7c3b92560405160405180910390a45b505b836004600085815260200190815260200160002060006101000a81548173ffffffffffffffffffffffffffffffffffffffff021916908373ffffffffffffffffffffffffffffffffffffffff16021790555050505050565b6000806115fb846113ed565b9050600073ffffffffffffffffffffffffffffffffffffffff168373ffffffffffffffffffffffffffffffffffffffff161461163d5761163c818486611bf8565b5b600073ffffffffffffffffffffffffffffffffffffffff168173ffffffffffffffffffffffffffffffffffffffff16146116ce5761167f60008560008061142a565b6001600360008373ffffffffffffffffffffffffffffffffffffffff1673ffffffffffffffffffffffffffffffffffffffff168152602001908152602001600020600082825403925050819055505b600073ffffffffffffffffffffffffffffffffffffffff168573ffffffffffffffffffffffffffffffffffffffff1614611751576001600360008773ffffffffffffffffffffffffffffffffffffffff1673ffffffffffffffffffffffffffffffffffffffff168152602001908152602001600020600082825401925050819055505b846002600086815260200190815260200160002060006101000a81548173ffffffffffffffffffffffffffffffffffffffff021916908373ffffffffffffffffffffffffffffffffffffffff160217905550838573ffffffffffffffffffffffffffffffffffffffff168273ffffffffffffffffffffffffffffffffffffffff167fddf252ad1be2c89b69c2b068fc378daa952ba7f163c4a11628f55a4df523b3ef60405160405180910390a4809150509392505050565b6008805490506009600083815260200190815260200160002081905550600881908060018154018082558091505060019003906000526020600020016000909190919091505550565b600061185d8361087f565b90506000600760008481526020019081526020016000205490506000600660008673ffffffffffffffffffffffffffffffffffffffff1673ffffffffffffffffffffffffffffffffffffffff16815260200190815260200160002090508282146119095760008160008581526020019081526020016000205490508082600085815260200190815260200160002081905550826007600083815260200190815260200160002081905550505b6007600085815260200190815260200160002060009055806000848152602001908152602001600020600090555050505050565b600060016008805490506119519190612690565b9050600060096000848152602001908152602001600020549050600060088381548110611981576119806123f7565b5b9060005260206000200154905080600883815481106119a3576119a26123f7565b5b9060005260206000200181905550816009600083815260200190815260200160002081905550600960008581526020019081526020016000206000905560088054806119f2576119f16126c4565b5b6001900381819060005260206000200160009055905550505050565b60006001611a1b8461087f565b611a259190612690565b905081600660008573ffffffffffffffffffffffffffffffffffffffff1673ffffffffffffffffffffffffffffffffffffffff168152602001908152602001600020600083815260200190815260200160002081905550806007600084815260200190815260200160002081905550505050565b60008115159050919050565b600080600090507a184f03e93ff9f4daa797ed6e38ed64bf6a1f0100000000000000008310611b03577a184f03e93ff9f4daa797ed6e38ed64bf6a1f0100000000000000008381611af957611af8612426565b5b0492506040810190505b6d04ee2d6d415b85acef81000000008310611b40576d04ee2d6d415b85acef81000000008381611b3657611b35612426565b5b0492506020810190505b662386f26fc100008310611b6f57662386f26fc100008381611b6557611b64612426565b5b0492506010810190505b6305f5e1008310611b98576305f5e1008381611b8e57611b8d612426565b5b0492506008810190505b6127108310611bbd576127108381611bb357611bb2612426565b5b0492506004810190505b60648310611be05760648381611bd657611bd5612426565b5b0492506002810190505b600a8310611bef576001810190505b80915050919050565b611c03838383611cbc565b611cb757600073ffffffffffffffffffffffffffffffffffffffff168373ffffffffffffffffffffffffffffffffffffffff1603611c7857806040517f7e273289000000000000000000000000000000000000000000000000000000008152600401611c6f9190612038565b60405180910390fd5b81816040517f177e802f000000000000000000000000000000000000000000000000000000008152600401611cae9291906123ce565b60405180910390fd5b505050565b60008073ffffffffffffffffffffffffffffffffffffffff168373ffffffffffffffffffffffffffffffffffffffff1614158015611d7457508273ffffffffffffffffffffffffffffffffffffffff168473ffffffffffffffffffffffffffffffffffffffff161480611d355750611d348484610a6f565b5b80611d7357508273ffffffffffffffffffffffffffffffffffffffff16611d5b83610c6d565b73ffffffffffffffffffffffffffffffffffffffff16145b5b90509392505050565b6000604051905090565b600080fd5b600080fd5b60007fffffffff0000000000000000000000000000000000000000000000000000000082169050919050565b611dc681611d91565b8114611dd157600080fd5b50565b600081359050611de381611dbd565b92915050565b600060208284031215611dff57611dfe611d87565b5b6000611e0d84828501611dd4565b91505092915050565b60008115159050919050565b611e2b81611e16565b82525050565b6000602082019050611e466000830184611e22565b92915050565b600081519050919050565b600082825260208201905092915050565b60005b83811015611e86578082015181840152602081019050611e6b565b60008484015250505050565b6000601f19601f8301169050919050565b6000611eae82611e4c565b611eb88185611e57565b9350611ec8818560208601611e68565b611ed181611e92565b840191505092915050565b60006020820190508181036000830152611ef68184611ea3565b905092915050565b6000819050919050565b611f1181611efe565b8114611f1c57600080fd5b50565b600081359050611f2e81611f08565b92915050565b600060208284031215611f4a57611f49611d87565b5b6000611f5884828501611f1f565b91505092915050565b600073ffffffffffffffffffffffffffffffffffffffff82169050919050565b6000611f8c82611f61565b9050919050565b611f9c81611f81565b82525050565b6000602082019050611fb76000830184611f93565b92915050565b611fc681611f81565b8114611fd157600080fd5b50565b600081359050611fe381611fbd565b92915050565b6000806040838503121561200057611fff611d87565b5b600061200e85828601611fd4565b925050602061201f85828601611f1f565b9150509250929050565b61203281611efe565b82525050565b600060208201905061204d6000830184612029565b92915050565b60008060006060848603121561206c5761206b611d87565b5b600061207a86828701611fd4565b935050602061208b86828701611fd4565b925050604061209c86828701611f1f565b9150509250925092565b6000602082840312156120bc576120bb611d87565b5b60006120ca84828501611fd4565b91505092915050565b6120dc81611e16565b81146120e757600080fd5b50565b6000813590506120f9816120d3565b92915050565b6000806040838503121561211657612115611d87565b5b600061212485828601611fd4565b9250506020612135858286016120ea565b9150509250929050565b600080fd5b600080fd5b7f4e487b7100000000000000000000000000000000000000000000000000000000600052604160045260246000fd5b61218182611e92565b810181811067ffffffffffffffff821117156121a05761219f612149565b5b80604052505050565b60006121b3611d7d565b90506121bf8282612178565b919050565b600067ffffffffffffffff8211156121df576121de612149565b5b6121e882611e92565b9050602081019050919050565b82818337600083830152505050565b6000612217612212846121c4565b6121a9565b90508281526020810184848401111561223357612232612144565b5b61223e8482856121f5565b509392505050565b600082601f83011261225b5761225a61213f565b5b813561226b848260208601612204565b91505092915050565b6000806000806080858703121561228e5761228d611d87565b5b600061229c87828801611fd4565b94505060206122ad87828801611fd4565b93505060406122be87828801611f1f565b925050606085013567ffffffffffffffff8111156122df576122de611d8c565b5b6122eb87828801612246565b91505092959194509250565b6000806040838503121561230e5761230d611d87565b5b600061231c85828601611fd4565b925050602061232d85828601611fd4565b9150509250929050565b7f4e487b7100000000000000000000000000000000000000000000000000000000600052602260045260246000fd5b6000600282049050600182168061237e57607f821691505b60208210810361239157612390612337565b5b50919050565b60006060820190506123ac6000830186611f93565b6123b96020830185612029565b6123c66040830184611f93565b949350505050565b60006040820190506123e36000830185611f93565b6123f06020830184612029565b9392505050565b7f4e487b7100000000000000000000000000000000000000000000000000000000600052603260045260246000fd5b7f4e487b7100000000000000000000000000000000000000000000000000000000600052601260045260246000fd5b600061246082611efe565b915061246b83611efe565b92508261247b5761247a612426565b5b828206905092915050565b600067ffffffffffffffff82169050919050565b7f4e487b7100000000000000000000000000000000000000000000000000000000600052601160045260246000fd5b60006124d482612486565b91506124df83612486565b9250828201905067ffffffffffffffff8111156124ff576124fe61249a565b5b92915050565b600061251082611efe565b91507fffffffffffffffffffffffffffffffffffffffffffffffffffffffffffffffff82036125425761254161249a565b5b600182019050919050565b600081905092915050565b600061256382611e4c565b61256d818561254d565b935061257d818560208601611e68565b80840191505092915050565b60006125958285612558565b91506125a18284612558565b91508190509392505050565b600081519050919050565b600082825260208201905092915050565b60006125d4826125ad565b6125de81856125b8565b93506125ee818560208601611e68565b6125f781611e92565b840191505092915050565b60006080820190506126176000830187611f93565b6126246020830186611f93565b6126316040830185612029565b818103606083015261264381846125c9565b905095945050505050565b60008151905061265d81611dbd565b92915050565b60006020828403121561267957612678611d87565b5b60006126878482850161264e565b91505092915050565b600061269b82611efe565b91506126a683611efe565b92508282039050818111156126be576126bd61249a565b5b92915050565b7f4e487b7100000000000000000000000000000000000000000000000000000000600052603160045260246000fdfea2646970667358221220d48899984e560109d9327e756cbcfdacf6c614c293f7e3bfac3aa666524f9dfb64736f6c63430008170033","linkReferences":{}},"methodIdentifiers":{"approve(address,uint256)":"095ea7b3","balanceOf(address)":"70a08231","countPrimeNFTAtAddress(address)":"388a373d","getApproved(uint256)":"081812fc","isApprovedForAll(address,address)":"e985e9c5","name()":"06fdde03","ownerOf(uint256)":"6352211e","safeTransferFrom(address,address,uint256)":"42842e0e","safeTransferFrom(address,address,uint256,bytes)":"b88d4fde","setApprovalForAll(address,bool)":"a22cb465","supportsInterface(bytes4)":"01ffc9a7","symbol()":"95d89b41","tokenByIndex(uint256)":"4f6ccce7","tokenOfOwnerByIndex(address,uint256)":"2f745c59","tokenURI(uint256)":"c87b56dd","totalSupply()":"18160ddd","transferFrom(address,address,uint256)":"23b872dd"},"id":1}